:020000040800F2
:1000000000500020D1720108857301081D87000887
:1000100085730108857301088573010800000000DD
:1000200000000000000000000000000085730108CF
:1000300085730108000000008573010871C600087F
:1000400085730108857301088573010885730108AC
:10005000857301088573010857C2000861C2000852
:100060005FC200085DC200085BC200089567000817
:100070008567000875670008656700085567000810
:10008000416700082D670008857301088573010822
:1000900085730108857301088573010859C200083A
:1000A000857301080D23010885730108FD220108ED
:1000B000F1220108E1220108D1220108857301081B
:1000C000857301088573010885730108857301082C
:1000D00085730108A9630008A163000899630008FB
:1000E00055C20008857301088573010800000000EF
:1000F0000000000000000000000000000000000000
:0C01000000000000000000005FF808F1A3
:10011000B84B2DE9F04F1B680546B74C188C97B0CB
:10012000208016F087FCB54916F0DCFCB44BB54EC8
:100130009A7C30600996069312B9284613F016FB94
:10014000069B9B7C022B08D0AF4B1B689E0704D5F7
:1001500011F0D2FD28460FF0AFF8DFF8F892AB4B64
:10016000D9F800A0D3F800B09AF800809BF8D630F8
:10017000A74E1A464146B6F90000059313F022FE39
:10018000A44D059B41461A4628800746B6F9020051
:1001900013F018FE68809AF807109BF8D720804665
:1001A000B6F9040013F00EFE069BB6F90620B3F86C
:1001B000D41140428A42A880CDF820900595C0F223
:1001C000EE83B2F5FA6FA8BF4FF4FA624FF47A7378
:1001D000521A5A43C1F5FA61B2FBF1F2642592FB5F
:1001E000F5F38D495E1C31F9130031F916106FF0EB
:1001F000630606FB0323091A4B4393FBF5F3059AA9
:100200000344D380854B1B685D0640D5844BB3F90E
:1002100004000A2390FBF3F0824B1B88C01A00B243
:1002200016F00CFC804916F05DFC054610F072FFDC
:100230000646284610F0F6FE0546404616F0FEFB40
:100240008046384616F0FAFB01460746304616F05F
:1002500049FC41468146284616F044FC0146484682
:1002600016F036FB16F01AFE059B41461880304604
:1002700016F038FC39460646284616F033FC01468F
:10028000304616F027FB16F009FE059B5880674D97
:100290002B88580740F18583012100200BF0D1FF06
:1002A000634883680BB163499847069B93F8D8313C
:1002B000002B59D0604B5F4E1D78B37843B910F0D6
:1002C00035FA01210246301D10F05AFF0123B370A8
:1002D000208816F0AFFB0146584810F025FF16F0B5
:1002E00003FE574B80B25B88B3FBF0F0411C09B2B0
:1002F0003184002D00F0F48300234E4CDFF814818C
:10030000B6F922C004F1240E04F12C063EF91320A4
:1003100038F913700CFB02F292FBF1F236F813502D
:1003200026F813707D1B2A442EF813200133042B6A
:10033000ECD160843F4A0023B2F92200002840F348
:10034000D383B2F9204002F12C05243232F9131084
:1003500035F81360414391FBF4F1711A059E26F8BC
:1003600013100133042BF1D1334B1D78002D00F015
:10037000EF802E4B334F1B88334E13F0040F334C5A
:1003800040F0B483237AB3B10722D4F8181104F5EE
:1003900080700DF059FD237A6BB13368D9070AD507
:1003A000DFF8908098F834302BB90E200EF064FD01
:1003B000012388F83430A37B23B13B685A025CBF29
:1003C0000123E3733B68DFF84C80C3F38052C3F32F
:1003D0000063A27323740DF0ABFB0DF04EFF227887
:1003E0001B4B03EB42135F8917F4006F00F0068488
:1003F00032E000BFB01400205A3A0020BD378635E5
:1004000060240020CC2C00202C2C0020581F002021
:10041000B8140020A0120020483300202812002029
:10042000480B0020B20C002035FA8E3C2A0B00202D
:10043000382B002084050020B40C00208805002003
:1004400054240020B812002024120020901F002005
:100450001C9C0108B4390020C74B1B685B0500F1E8
:10046000CD83336813F0100900F09A83D4F88C34EC
:10047000B8F9020093F80390494610F02EFD00B23F
:10048000B8B1D4F888344042B3F84830584316F035
:10049000D5FA8246484616F0D1FA0146B74816F01A
:1004A00017FA0146504616F0D1FB01210DF024FC4D
:1004B00028462073F80440F11184AF4B1B6859059E
:1004C00000F10C84336813F0100FD4F88C3400F072
:1004D00098839978B8F9000010F0FFFC00B2003062
:1004E00018BF0120A64BD87217F4005FA44C00F08F
:1004F000FC83A14B1A6812F4806240F0F683A14B92
:100500001B6813F0100340F0EC839F4AB2F904100B
:1005100081EAE172A2EBE172D4F88C1489788A4204
:1005200040F3E183D4F81831C4F84C31657341F2DB
:10053000B8002278954B03EB42139D8920EA050011
:100540000BF06AFF28460BF077FF2278904BDA8693
:1005500000228F4C8F4B94F838501A70BDBB884BDB
:100560008D49D3F88834186B16F0B4F90023C4F819
:10057000C000C4F8C4004FF49672294604F1CC00C0
:10058000C4F8B830C4F8BC30C4F89030C4F8A03017
:10059000C4F8AC30C4F89430C4F8A430C4F8B03017
:1005A000C4F89830C4F8A830C4F8B430E563656680
:1005B000256784F8C85015F0BBF84FF496722946A9
:1005C00004F5FC7015F0B4F8012384F8383011F00C
:1005D00089FFD4F83033714AC31A9342064662D970
:1005E000C4F834336E4BC4F830031B68002213F098
:1005F000100300F0898312F0B7FA6A4B80461F6A35
:10060000694B3946186816F029FC684D38B94046E0
:1006100016F014FA16F042FC421C40F069834FF0C9
:10062000FF332B60286816F009FA0021074616F000
:1006300015FC002837D05E49384616F0FBFB002831
:1006400031D0206F301A15F067FE49A3D3E900239B
:1006500015F0D8FE16F0E8F826674FF07A510546F7
:1006600016F0DEFB002800F04C83D4F87880414679
:10067000284616F037FA616F16F02CF90146054648
:10068000384616F025F94B49074616F02BFA29464D
:1006900016F020F948496067384616F023FA4146BB
:1006A00016F018F9A0670EF0F7FD002840F030832F
:1006B0000023C4F88430C4F88830C4F88C30304645
:1006C00012F000FB0A203D4B2D4CB3F904304FF0E3
:1006D00001085843C4F8180116F0B0F9384916F06B
:1006E000B5FA384916F0FEF9054610F09BFCC4F83F
:1006F0001C01284610F00EFD44F61F62244DC4F87C
:100700002001D5F8403384F80480F31A93422E4F29
:1007100040F2B380C5F84433D4F88834C5F8406358
:10072000196BD5F8C00016F07BFB0026002800F0FE
:100730007E834046D5F8B0300093D5F8AC30D5F87C
:10074000A420D5F8A0100DF0BFFCD4F88834D5F85B
:10075000C400196B16F064FB002800F06F830120C1
:10076000D5F8B420D5F8A81030E000BFAFF3008072
:100770008DEDB5A0F7C6B03E281200200000FA4368
:10078000901F002024120020A01200201C9C0108B1
:1007900084050020B40C00206F12833A6904010024
:1007A0002C2C0020002F0020582C0020342C00205E
:1007B00000005C42029A583F4182C640480B00202C
:1007C0000000C84235FA8E3C2A0B00200DF046FC92
:1007D000D5F8B8800021404616F040FB002800F014
:1007E0003883D5F8BC30C4F82481C4F828313B885C
:1007F0005B0740F12A83D4F82C610021304616F0C3
:100800002DFB002800F01E833146404616F026FBE3
:1008100000B94646C4F82C61012340466372E37078
:1008200016F03CFBA5F848030C2395F8C860DFF8E8
:1008300064E303FB06539EE80700013603F1CC0C8A
:10084000F6B203F5FC73182E8CE807000EF10C02CB
:1008500007CA83E807008ABF002385F8C86085F8C7
:10086000C830D5F8C00016F03FFBA5F84A03D5F80C
:10087000C40016F039FBA5F84C0311F033FE002339
:10088000E1790646A5F84E3311B10123A5F84E33A0
:1008900094F809B0BBF1000F05D0B5F84E3343F022
:1008A0000203A5F84E33237A2BB1B5F84E3343F04B
:1008B0000403A5F84E33A14A136898070DD5A04844
:1008C00090F805E0D4F888040078864522BFB5F892
:1008D0004E0340F00800A5F84E0395F8400028B1FB
:1008E000B5F84E0340F01000A5F84E03A07A28B1E9
:1008F000B5F84E0340F02000A5F84E0323F0800029
:1009000010603A8812F0040240F0C68262748D4B87
:100910008D4C1B78D3B18D4BB3F90620069BB3F8F1
:10092000D4319A4212DC069B93F81832012B01D085
:10093000192B03D1069A92F88A203AB90E2B05D0CA
:1009400003F0EF03082B1CBF0023A3807B4B804EDA
:100950001B6813F01003079340F06A857D4B1A78EB
:100960007D4B03EB42135B89DB0501F1C1873368E3
:1009700093F8DA50002D00F05B85784B1B689F07D9
:1009800000F056852DB2764B76491F6A384616F030
:1009900047FA002800F00885724F00F00DBD0A46A6
:1009A00014E4714A1668F10707D4704A92F82520BA
:1009B000012A04BF43F001032B802B8823F43F421C
:1009C0002A805E4A11680A0708D423F47C5323F076
:1009D00001035B045B0C43F480732B80644B65481C
:1009E0001B8813B103689B0702D4634B1B882BB190
:1009F0002B8823F0010343F400732B805F4B1B888B
:100A0000632B81BF2B8823F0010343F480632B8089
:100A100016F4804704D05A4B1E4214BF012700270A
:100A20004C4BD3F8882492F839E0BEF1000F21D066
:100A3000544A127842B9DFF860E1DEF800E09EF82F
:100A40000AE0BEF1020F05D11B7A002B46D0CA4343
:100A500002F001022B8813F0040F05D1DFF83CE10E
:100A600016EA0E0F00D007B122B123F0010343F4C0
:100A700000632B800268170707D5CE055FBF2B8860
:100A800023F0010343F480532B80900707D5890599
:100A90005FBF2B8823F0010343F400532B800AF03F
:100AA00073FE38B92B8823F001036FEA43436FEAE2
:100AB00053432B802B8813F0010F14BF0022022216
:100AC000314B1A7011F00EFD304B1B68C01A002814
:100AD000FFF6E6AB14F000F9FFF7E2BB0122B9E73D
:100AE000738C013B738425E453843DE43B689A0294
:100AF00012D541F21002194B1B681A420CD1237A0D
:100B000053B13368D4F81811DB074CBF0522072214
:100B100004F580700DF098F93368D8077FF53BAC89
:100B20001B480DF077FAC4F8900119480DF0BEF992
:100B3000C4F894010DF06EF92DE400BF24120020DA
:100B40007C0B00207B030020A0120020B8140020A2
:100B5000581F0020901F00201C9C01082812002014
:100B6000002F00209A99193FB8120020E8140020A5
:100B7000260B00202C2C0020922E00205013002049
:100B800000010800882C0020C43C0020C83C002044
:100B900000210020240600209034002000030800DB
:100BA000B54BB8F80600B3F90020D4F88C34801A9D
:100BB00000B280EAE071DB78A1EBE071994213DDCD
:100BC000D4F888340028B3F8483000FB03F0D4F898
:100BD0009C34CBBF5B881B889A1AD21A90FBF2F028
:100BE00015F02CFF022161E4207B00283FF461AC6A
:100BF000002002210DF080F848465AE400232373B8
:100C000058E49E78059B3146B3F9020010F065F96F
:100C1000059B31460FFA80F8B3F9000010F05DF93A
:100C200006B2B8F1000F01D1002E49D0D4F88834B3
:100C300093F83A20012A41D14FF4FA7AB3F846905A
:100C400009FB08F090FBFAF015F0F8FE804609FB6E
:100C500006F090FBFAF015F0F1FED4F820A106465C
:100C60005146404615F03EFFD4F81C918346494654
:100C7000304615F037FF0146584615F029FE6169E8
:100C800015F0E4FFD4F8001115F024FE4946C4F82D
:100C90003401404615F026FF51468046304615F097
:100CA00021FF0146404615F015FEA16915F0CEFF63
:100CB000D4F8041115F00EFEC4F83801284611E4EA
:100CC000E07A00283FF40EAC0FA809F077FF0FA8D8
:100CD000012231460DF016F9304603E40023E37299
:100CE00002E4154622E41D4620E4002363731EE45B
:100CF00015F0A4FE394615F0F5FE16F0CFF8286081
:100D000090E44FF00008B2E46267A2672367CAE488
:100D10005A4DD4F89010286815F0DAFDD4F89410E4
:100D20008146686815F0D4FDD4F898108046A8680C
:100D300015F0CEFD524D07462968484615F0D2FE03
:100D400069688246404615F0CDFE0146504615F0D2
:100D5000C1FDA9688246384615F0C4FE01465046DA
:100D600015F0B8FDA9698246484615F0BBFEE96951
:100D70008346404615F0B6FE0146584615F0AAFDDA
:100D8000296A8346384615F0ADFE0146584615F0EF
:100D9000A1FDE9688346484615F0A4FE296981460D
:100DA000404615F09FFE0146484615F093FD6969DF
:100DB0008046384615F096FE0146404615F08AFDFD
:100DC000304B00F100451B88C4F884A013F0040FD9
:100DD000C4F88850C4F88CB0274F10D12A4BD3F8F0
:100DE00088345B785BB17C685846214615F070FD0D
:100DF000264915F077FE214615F06CFD786079687C
:100E0000584615F065FD224C0746C4F88C00504644
:100E100016F044F8A4F83803284616F03FF8A4F872
:100E20003A03384616F03AF8A4F83C0347E4009633
:100E30003346D5F8A420D5F8A01084E40022D5F8D4
:100E4000A810C3E4C4F82C81E6E4124BC4F82C319A
:100E5000E2E43A880F4BC4F828615607C4F82431FD
:100E600058BFC4F82C3100236372E3704FF6FF7350
:100E7000A5F84833D8E400BF00000020C82E0020A9
:100E8000002F00202A0B0020901F00200AD7233BB0
:100E900084050020000080BF002220786271A271CA
:100EA000954A13F0100302EB4012B2F80A8028D0E2
:100EB0003146404609F054F9904A53790BB100236A
:100EC000537093790BB100239370D37A8C492BB173
:100ED000B1F84E3343F04003A1F84E33137B2BB1EE
:100EE000B1F84E3343F08003A1F84E33537B002B0F
:100EF0003FF40DADB1F84E3343F48073A1F84E3397
:100F000005E518F0080F51D07E48D5F8502303802E
:100F1000C5F8506343808380074600293CD0B31A4C
:100F2000794A934204D9C5F8546309F087FEC3E7B0
:100F3000A378DBB1D5F85433C5F85463A6EB0308A6
:100F4000724B984525D8D4F88834B3F8500015F082
:100F500075FD012100F100400CF0CEFE404609F085
:100F6000DFFE404609F092FE0123A371D4F88834D5
:100F7000B4F98424D4F89C14B3F9583013440A8883
:100F80004988934203DB99420A46A8BF1A46FA8071
:100F900092E709F053FEE7E75D4B1B6813B19B88AE
:100FA000C38089E7D4F89C341B88F9E718F0010F57
:100FB0000BD0D5F85833544AF31A9342C5F8586306
:100FC00029D9C5F85C6309F039FE18F0020F15D075
:100FD000D4F88894D5F8683399F83A20F31AC5F80C
:100FE0006863002A40F0858094F80BB0464A93422B
:100FF00040F29E80C5F86C6309F0FEFD18F0040F06
:101000003FF45AAF64223D4BD3F84C3193FBF2F3DB
:10101000404A138050E7A378002B4BD0D5F85C737F
:101020003A4BF71B9F42C5F85C635FD8237C53B3F0
:10103000D4F850910021484615F006FF18B3D4F8B3
:1010400024A10021504615F0FFFE002849D0BBF135
:10105000000F46D0384615F0EDFC2F4915F042FD43
:10106000002302932D4B024601932D4B51460093D2
:1010700048462C4B0DF09CF80146D4F8080115F0B9
:1010800029FCC4F83C01D4F83C0114F061F947F69E
:10109000FF739842A8BF1846234B9842B8BF184622
:1010A000A5F86403384609F03BFE384609F0EEFD2A
:1010B0000123A371D4F88834D4F89C14B3F95820D0
:1010C000B4F984341A440B8849889A4203DB91426C
:1010D0000B46A8BF13460B4A1BB2D380A5F8663354
:1010E00073E7002111480CF007FECCE709F0A6FDDC
:1010F000DEE74FF0000B79E71C9C0108901F0020F1
:1011000084050020A0120020400D03003F0D0300C5
:1011100090340020B20B0020BD37863500000C4211
:101120000000A0C01C2000205A80FFFF0000A0C1CA
:10113000237A002B00F01C816378002B00F0F380F1
:10114000D5F86C33C5F86C63BBF1000F40F0E88054
:10115000F31A0793079A894B9A4200F20681D4F852
:101160000011D4F8340115F0B3FB616915F0BAFC35
:10117000D4F804110746D4F8380115F0A9FBA16989
:1011800015F0B0FC22787E4B064603EB42135B89D8
:10119000B9F84200590513D594F96934002B0FDDD5
:1011A000182294F97C3402FB034393F89821012A16
:1011B00006D1B3F8A831312B02D9984228BF18467E
:1011C00015F038FC39468146384615F08BFC31461F
:1011D0000546304615F086FC0146284615F07AFB98
:1011E00014F0F0F84946824615F038FE80B15146B9
:1011F000384615F02BFD494615F074FC514607465C
:10120000304615F023FD494615F06CFCCA460646EB
:1012100022785B4B03EB42135B895A0528D5D4F83F
:101220001831D4F84C01C01A0FF066FE42F2283390
:101230009842A8BF1846534B9842B8BF184615F0BD
:10124000FDFB514915F002FD504915F04BFC0FF024
:1012500061FF014615F046FC4D49054615F0E0FDDD
:1012600000287DD14FF07E51284615F0F7FD08B1DA
:101270004FF07E554946504615F0E8FC45498146F9
:1012800015F0CEFD00286DD14FF07E51484615F087
:10129000E5FD08B14FF07E594946484615F022FC5D
:1012A00001464FF07E5015F013FBD4F8FC1015F0FA
:1012B00019FC01464FF07E5015F00AFB8146294685
:1012C000384615F00FFC494615F00CFC2946074638
:1012D000C4F84001304615F005FC494615F002FC03
:1012E000C4F84401384614F033F847F6FF77B842A3
:1012F000A8BF3846284E294DB042B8BF3046A5F8A1
:101300007003D4F8440114F023F8B842A8BF38465B
:10131000B042B8BF3046A5F8720307980DF0B6F892
:1013200001221F4B5A71BBF1000F7FF467AE1C4CBA
:10133000D4F89064B4F98004B6F9365015F07EFB09
:1013400029460DF093FE174DB6F934606880B4F964
:101350007E0415F073FB31460DF088FE28804DE6C3
:101360000B4D87E7DFF82C9096E709F045FCD7E7AF
:10137000A4F88034A4F87E3440E600BF3F0D03009B
:101380001C9C0108D8DCFFFF0000C84235FA8E3CE7
:10139000CDCC4C3D0AD7233C5A80FFFF840500206A
:1013A000901F0020A01200204FF07E51384615F00B
:1013B00055FD08B14FF07E57069B39464FF07E50E1
:1013C000B3F8748015F042FC4FF07E5115F080FAAE
:1013D0000746284615F032FBB24915F037FC0146A6
:1013E000384615F07FFB4FF07E5115F073FA059BE0
:1013F0000546B3F90600A0EB080015F01FFB0146F7
:10140000284615F06FFB0546404615F017FB0146D0
:10141000284615F05FFA15F041FD069B8045B3F8AC
:10142000763003DC8342A8BF03469846A4F80680C2
:10143000089B9D4D1A68B4F90640B5F876333668B6
:101440009C4218BF0121994B1CBFA5F87643197027
:101450001B78002B00F0B680079B9779002B00F0DB
:10146000F680002F4CD0069B1089B3F8748040455D
:1014700046D944453FDDA0EB080015F0DFFA814670
:10148000A4EB080015F0DAFA0146484615F0DEFB39
:101490004FF07C5115F026FB4FF07C5115F01AFAF5
:1014A0004FF07C51044615F0BBFC08BB4FF0804167
:1014B000204615F0D3FC08B14FF08044C5F87843BE
:1014C0004FF07E51D5F8780315F002FA04463846FD
:1014D00015F0B4FA734915F0B9FB0146204615F032
:1014E00001FB4FF07E5115F0F5F9C5F878030BE0DC
:1014F0004FF07C54E2E74FF08043C5F87833DFE7E4
:101500004FF07E53C5F878330027D5F87853684CF0
:10151000013E16F8019F484615F090FA654915F00E
:1015200095FB206096F80A800590404615F086FAF3
:101530004FF07A5115F0D6FA60608246307D15F092
:101540007DFA5D4915F082FB079B8346A060059AF2
:10155000002B00F098801046294615F0C3FA294662
:101560002060504615F0BEFA29466060284615F006
:10157000B9FA594615F0B6FAA060B9F1000F00F0BB
:101580008D80B8F1000F00F08980D4F80080616888
:10159000404615F05BFB41468146A06815F056FBBE
:1015A0000146484615F096F901464FF0804015F087
:1015B0004DFBE0600137032F04F16C04A9D1002238
:1015C0003A4B1A703D4B1B680593089BD3F800B04B
:1015D0003B4B1C6814F0080415D03A4B1B6813F001
:1015E000080410D03849394A087802EB4012528971
:1015F000150641F18681DC0601F183814B7B002BCE
:1016000041F08D8102242A4E0027B1463546DFF88D
:10161000C0A0DFF8C08008EB8703986C15F00EFAC5
:10162000D8F8141015F05EFA022FC9F8100053D143
:10163000022C51D1059817F0FFFE5146804615F057
:10164000EFFB002801F07681C5F8ECA08BE0002FBD
:101650003FF456AF12899442FFF652AF069BB3F89F
:1016600076309C42BFBFA01A78439B1A90FBF3F0E0
:10167000ACBFC7F16400C0F1640015F0DFF909499F
:1016800015F0E4FA31E7022F3FF477AF2946104610
:1016900015F028FA2946206058466BE70023E360DE
:1016A00088E700BF0000C84284050020240B00200A
:1016B000DC2C00200000F8410020EE44581F0020E0
:1016C0002C2C002024120020901F00201C9C0108BC
:1016D0000000E1C4382B00200BEB0703D87815F08D
:1016E000ADF9174915F0FEF90146079015F0F2F82B
:1016F0008046144A32F9170015F0A0F9124915F086
:10170000E9F8414615F0EEF9104915F09FFA414607
:1017100015F0DEF8079B194615F0DCF815F0BEFB56
:1017200015F08CF95146804615F07AFB90B90849BE
:10173000404615F093FB70B1DFF814800BE000BF5A
:1017400000002041A01200200000FA4300007A446B
:101750000000E144D0460137032FC9F8148009F195
:101760006C097FF456AFB24F3B6899074CD0069B8B
:10177000B3F8D221AF4BB3F90200B3F90030801AAD
:101780009B1A80EAE071A1EBE07183EAE372A2EBBD
:10179000E372B1F5FA7FA8BF4FF4FA71B2F5FA7FA0
:1017A000A8BF4FF4FA729142B8BF1146084615F02F
:1017B00045F9A14915F04AFA059B8046D87E642870
:1017C000A8BF642015F03AF99C4915F03FFA81460C
:1017D0000146404615F02EFB002800F0918240465D
:1017E000494615F033FA80460023954A5946059834
:1017F000CDF800800DF098FBCDF800800123914AD0
:10180000594605980DF090FB3F68BA0419D5022C93
:1018100017D0D5F8EC400021204615F001FB002838
:1018200000F0718204F100404FF0804115F016FB8A
:1018300020B9854B1B885B0700F167820023C5F840
:101840001831380417D500230F931093D5F8EC30D6
:101850000FA8119310F02EFC0F99686915F03AF853
:1018600010996861D5F8800015F034F8119BC5F81F
:101870008000C5F8EC3000254FF00009099BD3F833
:101880000080022D059B01F03680186B322828D984
:1018900015F0D0F849467769044615F0DFFA0028BC
:1018A00000F05C824146204615F01CF9D6F850B095
:1018B00001468246584615F00BF804460146384664
:1018C00015F0AEFA50B95946504615F003F80446E3
:1018D0000146384615F0C2FA00B93C463465336D0E
:1018E00073610135032D06F16C06CAD10026059BF4
:1018F000564C1433099354F8501C54F84C0C14F003
:10190000E7FF54F8601C089015F0ECF8022E8146B1
:101910001ED14F4B1B78032B0FD9059B5D8C65B1F6
:1019200015F0BCFA6B42984203DBA8420346A8BFFD
:101930002B46184615F082F88146059B93F8242023
:1019400032B1444B49461B6843480FF07BFC81464B
:10195000099A12F8013B0992002B00F0108214F84A
:101960002C2C54F8341C013A9200081D54F8505C99
:1019700013F07AFE54F8348C0027C8F80050002584
:1019800014F82BAC5545C0F2EB81324B54F8580C8F
:101990001D6800F10040294615F058F9394615F048
:1019A000A1F8059B07469A7F2AB101462B4620469F
:1019B0000FF048FC07462949384615F031FA00284F
:1019C00040F0DF812649384615F048FA00B1244F2F
:1019D00054F828BC3946484614F07CFF594614F0A8
:1019E00079FF2049804615F01BFA002840F0CB8192
:1019F0001D49404615F032FA002800F0C6811A4B06
:101A00000793059B022E0CBF188DD88C15F016F885
:101A100054F84C3C054600211846069315F000FA90
:101A2000002800F0DF81069B03F100401EE000BFAC
:101A300028120020B81400200000FA430000C84219
:101A4000DC2C0020482D00202A0B00203C2D0020FB
:101A5000C4390020CC2C0020082E0020000096C3A2
:101A60000000964300007AC400007A44294615F02D
:101A7000EDF801464FF07E5014F02AFF0021054694
:101A800015F0CEF9002840F0AF814FF07E51284686
:101A900015F0E4F908B14FF07E55BD4B54F85C1CCD
:101AA000D3F800A0089815F01DF8294615F01AF88B
:101AB000514615F017F841460546079814F008FFFF
:101AC00054F8541C15F00EF8514615F00BF8014669
:101AD000284614F0FFFE594614F0FCFEAD4B80463C
:101AE0001B6844F8280C13F0200F0893AA4D04D16A
:101AF00095F87C33002B00F07B8154F824AC4046F1
:101B00000AF1004B594615F08BF938B95146404659
:101B100015F0A4F9002800F06981D34644F828BCE8
:101B2000089BD9061DD5059BB3F83AB0BBF1000F51
:101B300017D0CBF1000014F081FF54F8288C8246B6
:101B40000146404615F06CF948B9584614F072FF4A
:101B500082460146404615F081F900B9C24644F874
:101B600028AC079815F09AF9DFF86C826C3428F8E5
:101B70001600484615F092F908F1060A4AF82600C0
:101B800054F8940C15F08AF908F1120949F8260066
:101B9000384615F083F908F11E0949F82600069821
:101BA00015F07CF908F12A0848F826000136032EC2
:101BB0007FF4A1AE794B7A4E1C78032C17D9336889
:101BC0005888B0F5FA7F12D2764BB5F98273B3F923
:101BD0000430424283EAE371A1EBE371531A9F425E
:101BE00003DB4318BB42A8BF3B46A5F8823300275E
:101BF0003368B9463E46DFF8E48105930DF13C0BAE
:101C0000A145C0F2FE80684BF01B1A680FFA80FBFA
:101C100012F4805F0593634ADFF8C49100F04781B6
:101C20006249B2F90660098811F0040F604908BFE3
:101C300008680A685F4908BFC08A0F6808BFA5F82E
:101C40001404D28AF888111A8E4200F31281D9F84E
:101C50000010B7F90020B1F90070A5F81464A2EBE8
:101C600007080FFA88F8C34540F33A81012240463D
:101C700085F87C2314F0E2FE0546584614F0DEFE9B
:101C80000146284614F0E2FF4FF0000B82460FAAEF
:101C90005C4500F315814849284614F023FF4FF0B6
:101CA000020A4FF07C5114F01DFF98FBFAFA05462A
:101CB00007EB0A0014F0C2FE294614F009FE15F0E5
:101CC000EDF80FFA80F808EB0A0014F0B7FE294689
:101CD00014F000FE15F0E2F8344A0FFA80FB128887
:101CE00012F0040240F03F8113463449344A9C42CA
:101CF00040F3638131F8130022F813000133F6E753
:101D00004FF07E5870E520468EE5D5F8E810204665
:101D100014F0DEFD1E4B196814F0E4FED5F818111E
:101D200014F0D8FD2749044615F07AF8A0B92649E1
:101D3000204615F093F800B1234C059BC5F81841D7
:101D4000187A14F07BFE214914F080FF214614F02C
:101D5000C9FEC5F8EC0074E51A4CEEE73765BEE540
:101D600054F8303C58F8251053F8250014F0BAFE0A
:101D70000146384614F0AEFD0135074602E600275D
:101D800026E6134F24E6134B3AE6CDF81C8038E6DE
:101D9000CC2C00202412002084050020C43900200F
:101DA0009C110020A0120020042C00202A0B0020EF
:101DB000A0110020882E0020C3F5A83EB8390020CD
:101DC0003C0B0020000034C2000034420000A0425E
:101DD000000096C300007AC40209002038090020E0
:101DE0008C2E0020069841E6002556E6C34695E66F
:101DF000002115F015F808B108F1004844F8248CCA
:101E00008EE6B5F9800314F019FED8F8081014F026
:101E100069FE8246B5F97E0314F010FED8F804106E
:101E200014F060FE0146504614F054FD059B8246B6
:101E300093F90130B5F982035B42584314F0FEFD7B
:101E4000D8F80C1014F04EFE0146504614F042FD36
:101E500015F024F800B2B0422BF8190003DC8742D9
:101E6000A8BF0746304609F1010908F110080646E7
:101E7000C6E60244964206DBD9F80020B7F90270A4
:101E8000B2F90220E9E6B5F914249142A7BFB7F9E7
:101E90000060D9F80020D9F80020B7F90260ABBF84
:101EA000B2F90070B2F9022032463746D7E6B2F9ED
:101EB0000660D9F80020B2F90070B2F90220CEE62F
:101EC00032F91B00069214F0B9FD514614F00AFED7
:101ED00014F0E4FF069A22F81B000BF1010BD7E681
:101EE0000021404685F87C13069214F0A7FDBC49FA
:101EF00014F0F8FD4FF0020A4FF07C5114F0F2FD9F
:101F00009BFBFAF598FBFAFA834607EB0A0014F0FC
:101F100095FD594614F0DCFC8046781914F08EFDCE
:101F200001460746404614F099FF069A00B9474615
:101F30003846069214F0B2FF0FFA80F808EB0A0058
:101F400014F07CFD594614F0C5FC069A0746501B58
:101F500014F074FD05460146384614F061FF00B9DF
:101F60003D462846B6E6D9F800504FF000099D4A94
:101F70009D49D3789D480793059BD0F800A01A6827
:101F8000600002F4805302F010020992984A08930C
:101F9000B2F90620B1F914340692964A0593964B8D
:101FA000126801F56D711B68944F02F080020A906F
:101FB0000B910A99494540F047818B4B93F81624C1
:101FC000002A00F09A808E4A8E481268884CB2F837
:101FD0004C118D4D059192F84E11026812F4807FDC
:101FE00000F08081894B1A88ADF83C205A889B8884
:101FF000ADF83E20ADF840304FF47A724FF4616690
:10200000834FB7F9023003F5E163534393FBF6F3D3
:10201000A3F5FA73ADF85430B7F9003003F5E16376
:102020005A4392FBF6F27B4BA2F5FA721B88ADF88D
:102030005620A3F2DC53ADF842302B682288DB8AAD
:10204000D21AADF844206288D21AADF84620A28890
:10205000D21AADF84820E288D21AADF84A20228977
:10206000D21AADF84C206289D21AADF84E20A2895E
:10207000D21AADF85020E289D31AADF852300023BD
:102080001C46654A22F813400133082BFAD1634BF2
:102090000129D3F8008003684FF0060203F480435F
:1020A000089314BF01234FF0FF334FF0640C0993E2
:1020B0005B4B5C491B785C4802FB0313DFF858A1BB
:1020C0000A930A9B8B4240F0278100254FF00E09AE
:1020D0006427564E09FB0583B6F9024093F90600C2
:1020E000444394FBF7F4E8B274800DF03FF80135F7
:1020F0002044082D26F8020FECD14D4E4D4F336889
:1021000013F0200F32D000200DF030F8424C05467D
:10211000208001200DF02AF83B6860801B0625D541
:10212000454B3B491B681B78012B3C4B40F06E81B3
:10213000D3F800C04FF0320E9CF906305A42B1F984
:102140000230B1F9001053439CF9142093FBFEF3C5
:1021500051436FF0310291FBF2F291FBFEF19BB221
:102160001A44AA1A22800B44184460803B681E4C13
:1021700013F0006F94F8383400F0BE81012B00F0AA
:102180007E81C0F05881022B00F0AD81D4F8743408
:10219000002B40F0C38194F878340BB10DF000F8B7
:1021A000264B93F80090B9F1000F40F0C1823368DC
:1021B000190340F1BD8210F095F9214D80462B782E
:1021C000033B052B00F283821E4B93F87A36002BDB
:1021D00000F06982012B00F08A82484667E200BF66
:1021E000C3F5A83EE814002084050020882E0020B6
:1021F000B814002024120020A01100203A0B002067
:10220000581F002028120020AC110020A01200202E
:10221000480B00203C0B00202C0B00205C1F0020F2
:10222000202E0020232E00209C0900202A0B0020B5
:10223000042C0020B8120020A8110020501F0020FC
:1022400060330020602400200C9330460FAB0D92C9
:1022500033F8094014F0F2FB0B9B53F8391014F0DB
:1022600041FC14F01BFE404541460C9B0D9A03DBDC
:1022700058450146A8BF59460C44079924B227F88F
:10228000024F11B1A98868880BE00899B1B1BAF87A
:102290000600D98A091A059888420CDC2988BAF800
:1022A00000008C4203DBA0420146A8BF21463980D2
:1022B00009F102097DE6BAF80210E4E72988688886
:1022C0008C4203DBA0420146A8BF21463980099910
:1022D0000029EDD0198B0698884201DB002AE7D04F
:1022E000A988E4E7B3F87E23ADF83C20B3F8802357
:1022F000B3F98233ADF83E20C14AADF840301268E0
:10230000D2047FF579AE2A68B4F90660D28A964283
:10231000BFF672AE5B426DE60E230F7891F9054071
:1023200003FB0789B9F90220B9F9003091F801E0FF
:10233000D21A91F9043092B2534393FBFCF34FEA63
:10234000520BA3EB0B030794CC781BB206934FEA16
:102350004E06002C3FD116AC264436F81C4C0480A7
:10236000089C74B1FC1E012C0BD8042F14BF01244F
:102370004FF0FF34059D099E6C43058806FB04540D
:1023800004800123D9F80A4003FA0EFE14EA0E0F66
:10239000B0F9006091F9024008BF1D4604FB06F445
:1023A00094FBFCF4069B18BF4FF0FF359C4209DB01
:1023B000079B5A4392FBFCF2A2EB0B031BB2A34216
:1023C000A8BF23463AF81720023005FB0323063145
:1023D0002AF8173075E616AB1E44B0F9005036F9EE
:1023E0001C6CB54208DA2C44A54203DCA6423546F3
:1023F000A8BF25460580B3E7B2DD2C1BB44203DB42
:10240000A542A8BF25462E460680A9E71B68B1F95C
:10241000022093F906E002FB0EF24FF0320E92FB1F
:10242000FEF22A44228093F91420B1F9003053437C
:1024300093FBFEF398E6734B1B885D077FF5A6AE12
:10244000714B4FF00E0CD3F800E00022022304F28F
:102450003A4004F24C410CFB03E5B5F9045041F855
:10246000232020F813500133062BF4D1674BC4F816
:1024700070241B68C4F86C34012384F83834614B31
:102480001B88580748D5624A02239646D4F8700440
:10249000DFF894C10130C4F8700452F823503CF9BD
:1024A0001310294442F823100133062BF5D1574B62
:1024B000D4F86C241B689B1AB3F57A7F7FF666AE5E
:1024C000514B4FF00E0C1D6802235EF823200CFBCD
:1024D000035192FBF0F20133062B8A80F5D10223DF
:1024E00084F8383452E6474B1B8859073FF54EAE07
:1024F00004F05AFD0323F3E7022B0DD14FF00E0E2B
:10250000414A04F23A4015680EFB035230F81310AA
:102510000133062B9180F7D10023E1E73D4B1A6888
:10252000984692F90420002A40F08280364B3A4ABD
:102530001B6803F17005B2F90200B3F90010B3F99A
:1025400002E0884203DB86457146A8BF01460E3390
:102550009D4222F8021FEED194F85C35012B02D087
:10256000192B40F08F80274B1B885A0700F18A8077
:10257000D8F8003093F80080B8FA88F84FEA581875
:1025800094F8165485B1254B1D786DB14FF00009B4
:10259000234BDFF894B093F800A0224B0AEB09021A
:1025A00019784D46914270DA33689B060FD5DFF8F3
:1025B0007890E8B205F10108B9F8001009F018FCAC
:1025C000B9F802105FFA88F0023509F011FC33689F
:1025D000D8027FF5E0AD4FF00008DFF85090EDB283
:1025E00005EB080039F8021FC0B209F001FCB8F190
:1025F0000D0F08F101033FF4CEAD9846F0E700BFA0
:10260000042C00202A0B00205C1F0020E414002072
:10261000D0090020A41100202A0B0020202E002029
:10262000212E0020222E00202C0B0020BE14002082
:1026300094F87954DFF8489385B9DFF848A3D8F8BF
:10264000003009EB0500DAF8442059881C350EF0FB
:1026500097FDE02DF3D1012384F879340025DFF8CC
:1026600028A3BAF9020014F0E9F9014609EB0500C4
:102670000EF05AFD14F012FC1C35E02D2AF8020F62
:10268000EFD153E74FF000087AE75FFA89F0B8F12D
:10269000000F05D0002109F0ABFB09F101097CE72F
:1026A0003BF81210F7E7D4F860050AF0B0F9D4F857
:1026B000642594F868351344B3F5807FA8BF4FF4C0
:1026C00080738342D4BFC4F86435C4F864052B78A2
:1026D000023B092B27D8DFE813F00F001B00530043
:1026E00075008A00A100B300C300E300ED0007F00D
:1026F0007BFBC0F17F00DAE70023C4F86435C4F83F
:102700006C35934B1B68C4F8703503232B700AE0BB
:102710008F4B1A68D4F870356433934203D240204B
:1027200006F040FD38B106F069FD08B101232B70B9
:1027300017B0BDE8F08F874F4026B846D4F86C3507
:10274000F85C78B10EF032FED4F86435013E03F146
:10275000FF33C4F86435D4F86C3503F10103C4F8D1
:102760006C35EBD1D4F86C3518F80330002BDAD186
:10277000C4F86C354FF0FF33C4F870350423C5E757
:10278000754A5021A2F10C03019344230292009355
:102790004920A2F10A03163A07F066F80028C2D1D0
:1027A00033684FF0FF3213F0800305D0C4F86C0596
:1027B000C4F870250523A9E7C4F86C35C4F8702562
:1027C0000723A3E7022300210093644B02910191A8
:1027D000A3F10802482007F047F80028A3D14FF0E2
:1027E000FF33C4F86C05C4F8703506238EE75C4AE5
:1027F0000021A2F10C0301930B23029200934720C6
:10280000A2F10803143A07F02FF800288BD14FF0FB
:10281000FF33C4F86C05C4F87035D1E705230021F7
:102820000093504B02910191A3F10802532007F04D
:102830001BF800287FF477AFC4F86C05082365E720
:1028400006F0A8FD00283FF46EAF06F0EDFC00286E
:102850003FF469AF4FF48053A4F874350A2355E769
:102860003B689A0319D5B4F87635B3B9D4F87865CE
:1028700045200EF09BFD0E200EF098FD304606F030
:1028800075FD404606F072FD4FF48053A4F8743590
:102890000A232B7040460EF0D9FD0FF0C5F942E730
:1028A00094F87C35002BF5D03B689B03F2D40923C8
:1028B0002B70F2E7264B1A68D4F87035C833934270
:1028C00011D2294B93F87A665EB9D4F860050DF001
:1028D000C7FC94F87D35C4F86065022B01D112F075
:1028E000BDF9012312E706F09FFC0028E9D11AE7A1
:1028F0006425FEF748B8D86A32287EF6F7AFFEF7AF
:10290000C7BF1A4BB3F9042082EAE273A3EBE27368
:102910000E2B04DC164B1B6858073EF573AE0A22DB
:10292000144B0124B3F9043093FBF2F3124A1380E1
:10293000FEF769BE114B40461946079314F08EFA14
:10294000079B00283EF407AFC9F81430FEF70BBF11
:10295000E414002038960108AE960108D0990108C9
:10296000EC990108649A010860240020A01200205C
:1029700028120020480B0020B20B00200000E14488
:10298000000A0020382B00202A0B00202DE9F04FF0
:10299000B24BAFB01E780093002E00F0C780B04B52
:1029A000186800286CD009F0E5FCDFF8ECA2AD4C0B
:1029B000DAF800000AF02EF8002861D0DAF80000FA
:1029C0000AF022F80928A84D01D03F284FD14FF036
:1029D0000008C14646462F68DFF8C0B208EB0B037B
:1029E00047B13A4658F80B102046019313F032F8DD
:1029F000019B08B96EB3994608F10808B8F1F00FC9
:102A0000ECD196B1D6F800E0D9F800C02B681EF8DA
:102A100003001CF80310814207D15A1CE1B92D2B89
:102A20001AD820202A60E054A1542B680BB14E45DF
:102A300007D08E4811F09CFB4E4510D90DF0DAFB03
:102A400000272B689F42B3D2E05D11F04BFA0137AB
:102A5000F7E71E469946CFE7E0542A60D6E756F8D6
:102A6000080B11F085FB092011F03CFAE4E72B6814
:102A7000002B41F06181042805D17A480AF08CF8D6
:102A80002FB0BDE8F08F0C2841F07A81784811F022
:102A90006FFB0DF0AFFB8BE701220B4601F05FB936
:102AA000591E605C2028F7D002B12B600026E65446
:102AB000704BDFF8E881D3F800B056F8081006EB49
:102AC00008090846019112F097FF0199074602464E
:102AD000204612F0BFFF20B9E35D5B445B785B07E3
:102AE00006D00836F02EE8D1634811F041FB07E02C
:102AF000624B9945F8D2781CD9F8043020449847A5
:102B0000002301F030B92F2B3FF652AFA0F1200285
:102B1000D2B25E2A3FF64CAF13B920283FF448AF3B
:102B20005A1C2A60E05411F0DDF941E7544B554C32
:102B3000B3F8009009F00403009354F8093C002B0B
:102B400041F0C6800136032E04F1CC04F5D197E79D
:102B5000012B06D14D2808BF022318BF002301F026
:102B6000CDB8022B03D13C2808BF0323F5E7032B84
:102B70000BD10023C0289FBF04F8053C04F8040CC7
:102B800004F8030C042301F0B9B8042B09D114F89C
:102B9000033C04F8020C5F4004F8037C052301F0B9
:102BA000ADB8052B13D114F8051C14F8043C14F827
:102BB000032C8B424AD94B1C04F8053CCC234240E1
:102BC00004F8032C304A03FB06230B44587214F814
:102BD000013C062B41F07D802C4B05AF93E80700AC
:102BE00087E80700002214F8043C14F8028C234400
:102BF0000993ADF82A200FFA88F30492394604AA03
:102C000040460894ADF82830ADF81C3001F0D0F8FB
:102C10000546002840F0C880B8F1760F40F0D78014
:102C2000089B5A1C08921F78002F69D1184B1B680B
:102C3000D80740F1BB804FF0A5083D46BA46BB46D9
:102C4000144B93E806024FF0040E82E0824202D158
:102C5000062301F053B8002301F050B8501F0020A4
:102C6000B03900201C1F00204C1F002003C00108A9
:102C700008C001088C03002013C00108C0A8010887
:102C80002A0B0020693A0020603A0020849A01084B
:102C90002412002018120020AC390020D0A701080F
:102CA000009B002B41F0158023281DD10121A54B4D
:102CB00054F8092C1970A44BA4491A60A44BA548D8
:102CC0001A609A609DF8002059605A7310221A7396
:102CD000A14A0433136011F04BFA0DF08BFA9F4AAE
:102CE000138843F0020313809D4B1B681B78BB4283
:102CF0007FF46DAF9B4B9C4A1A609C4BDD6066E78E
:102D0000FF2F0BD10EA99A480BF04CFB0EA991E8AE
:102D100006024FF0A508AA46AB4694E7791ECBB24F
:102D20001D2B4CD8934A92F969349F4247DC1823F3
:102D30004B4303F5CC739818B0F910B0B0F912A05A
:102D4000B0F9145090F81680011D13F802E091E8D4
:102D5000060205980192431C0593077005982EAF53
:102D6000431C47F8A43D80F800E038460DF01CFDF8
:102D7000019A384611460DF017FD494638460DF0C8
:102D800013FD1FFA8BF138460DF022FD1FFA8AF170
:102D900038460DF01DFDA9B238460DF019FD059B12
:102DA0005A1C059283F80080012357E04FF0A508D4
:102DB0003D46BA46BB46B9463A46394643E74FF028
:102DC000A508AA46AB46A9462A4629463BE7B8F1DC
:102DD000470F22D108A80DF0B7FC804601463846BF
:102DE0000DF0E2FC644B0EAFDD6808F18003AB42EE
:102DF00094BF8025A5EB080507F0D8F82A46394688
:102E0000404607F011F900238342CDDA059AF95CB8
:102E1000551C059501331170F6E7089B099FB8F121
:102E20005D0FA7EB030700F03D8500F2FA81B8F1D2
:102E3000390F00F0AC8600F24581B8F1290F00F09F
:102E4000BE8600F29F80B8F1230F00F0818361D825
:102E5000B8F1070F00F043854FF0FF33ADF81E3097
:102E6000002B00F02587059B54F8090C0693434B73
:102E7000059303681B6A03B1984724228DF8382014
:102E80004D22059B069F8DF83920FF1ABDF91E20A3
:102E9000FF2F3B46A8BFFF23511C14BF3E22212217
:102EA0008DF83B30BDF81C308DF83A200EA9052274
:102EB00054F8090C8DF83C3009F0B2FD9DF83C50F7
:102EC0009DF83B30FE2F85EA030540F3E386F9B217
:102ED00054F8090C4FEA272809F09FFD5FFA88F1A2
:102EE00054F8090C09F099FD7D406DB285EA08059A
:102EF000EDB23A46059954F8090C09F091FD05998F
:102F00000A46BB1A0B44002B40F3C78612F8013B5C
:102F10005D40F6E7B8F1250F00F02E86B8F1270FD7
:102F20009AD108A80DF026FC154DA5F8F00008A8C8
:102F30000DF020FCA5F8F20008A80DF01BFCA5F888
:102F4000F40031E7501F0020AC3900205BCA0008B4
:102F5000040B002033C00108B03900202A0B0020E8
:102F60008C2C0020F04F0020EFBEADDE00ED00E025
:102F700090200020901F002064030020F03C0020DF
:102F800060240020B8F1330F00F05D865AD8B8F104
:102F90002B0F00F02C86B8F12D0F7FF45DAF5A1C7B
:102FA0002EAD45F8982D1B78DFF81484284688F854
:102FB000C4310DF0DFFBA8F8D60128460DF0DAFB8E
:102FC000A8F8D20128460DF0D5FB089BA8F8D4013B
:102FD0005A1C08921B78082F88F8CD317FF6E4AE92
:102FE00028460DF0C7FBA8F8DA0128460DF0C2FB11
:102FF0000C2FA8F8DC017FF6D7AE28460DF0C5FBF4
:1030000028460DF0C2FB28460DF0B4FB102F7FF6CA
:10301000CBAE089B112F03F1010208921B7888F8B0
:10302000C6313FF4C1AE28460DF08EFB152FC8F80F
:10303000C8017FF6B9AE089B5A1C08921B7888F825
:10304000CC31B1E6B8F1350F00F09D82B8F1370F01
:103050007FF402AF0723B7FBF3F3C3EBC302BF1A3E
:103060007FF4FAAEDDB2FBB2AB423FF49DAE089BFB
:1030700001375A1C089293F9008040460DF058F928
:10308000824600283FF4E8AE80F8008008A80DF0E2
:1030900071FB089AAAF80200531C0893134613F810
:1030A000021B08938AF8041053788AF80530D31C61
:1030B000089393788AF80730131D0893D3788AF819
:1030C0000630D0E7B8F1480F00F08C8441D8B8F151
:1030D0003E0F00F00B8204D8B8F13C0F3FF464AE11
:1030E000BAE6B8F1410F00F0B685B8F1430F7FF4AE
:1030F000B3AE2EAF5A1C47F8982DB14D1B78384609
:1031000085F818320023AB600DF01EFBAB68184346
:10311000089BA8605A1C08921B78384685F8C43171
:103120000DF028FBA5F8F00038460DF023FBA5F8BC
:10313000F20038460DF01EFBA5F8F40038460DF0FD
:1031400019FBA5F8360138460DF014FBA5F8380137
:103150002AE6B8F14E0F00F0528535D8B8F14A0F83
:1031600000F0D181B8F14C0F7FF476AE5A1C089272
:103170001A46934D12F8021B0DF1B80848F8982D25
:1031800085F81C125B78404685F81E320DF0F2FA85
:10319000089BA5F820025A1C08921B78404685F827
:1031A00022320DF0E7FA089BA5F824025A1C089277
:1031B0001A78082F85F826227FF6F6AD9A1C089219
:1031C0005B7885F81D32EFE5B8F1510F00F0F2831E
:1031D000B8F15B0F7FF440AE5A1C2EAD45F8982D28
:1031E000774F1B78284687F805310DF0CEFA284630
:1031F0000DF0CBFA089B28465A1C08921B7887F8DA
:103200007C300DF0B7FAA7F87A0028460DF0B2FA34
:10321000089BA7F888005A1C08921B7887F804318D
:10322000C2E5B8F1D10F00F0EB8300F2A780B8F14E
:10323000CA0F00F06F817AD8B8F1610F00F08C836B
:1032400038D8B8F15F0F7FF407AE5E4F08A83D682D
:103250000DF090FAE88408A83D680DF08BFA2885F7
:1032600008A83D680DF086FA688408A80DF08DFA6C
:1032700008A80DF08AFA08A80DF087FA08A80DF042
:1032800084FA08A80DF081FA08A80DF07EFA08A8C3
:103290000DF07BFA08A8D7F800800A250DF06AFA2D
:1032A0006843C8F8300008A83F680DF063FA684327
:1032B000F86279E5B8F1C80F3FF476ADB8F1C90FFF
:1032C0007FF4CAAD5A1C089219783F4A002900F0D1
:1032D0009383116841F002013C4D11602A782EAFB2
:1032E00002F0F9026FF304122A709A1C47F8982D25
:1032F0005B7838466B710DF027FAA86038460DF000
:1033000023FAE86038460DF035FA286138460DF0AA
:1033100031FA00236B83AB83EB8364232884402042
:10332000AB84EB8409F070F810F02EF83CE5B8F1AE
:10333000CE0F00F02A8311D8B8F1CC0F00F04D81E8
:10334000B8F1CD0F7FF488AD214B1B885B073FF5AB
:103350002BAD4FF4C8721F4B5A8425E5B8F1CF0F3F
:1033600000F09681B8F1D00F7FF476AD184B1B8832
:103370005A073FF519AD03F081FEACE0B8F1D90F63
:1033800000F052822AD8B8F1D30F00F0A980C0F023
:103390009280B8F1D40F00F0D881B8F1D60F7FF445
:1033A0005BAD00250C4F08A80DF0E4F9052D00B227
:1033B000D8BF27F815000135082DF4D1F4E400BF7B
:1033C00060240020581F0020241200207C0B0020C5
:1033D0002A0B0020040B0020B8390020B8F1DC0FC4
:1033E00000F04D825AD8B8F1DA0F00F03482B8F10B
:1033F000DB0F7FF431AD17229E4B00211B6828277D
:103400001A755A7555229A702D221A7341221A7113
:1034100078229A73B4225A7105221A7408229A7675
:103420001422DA714B22DA763C221E2532204FF02C
:103430000A0C4FF00F0E4FF064081A7283F8202028
:10344000C82299755973D9751F709D725F70DD72AE
:10345000D87083F818C083F80FE083F8198083F8D8
:1034600006C083F811E083F80980D87483F81DC082
:1034700083F821E09F7783F82450DA8442F21072B7
:10348000DA624FF4967219635A845A219A86DA8660
:10349000A522188583F838105A8785E4B8F1F20F11
:1034A00000F09681B8F1FA0F7FF4D6AC724B1B880E
:1034B0005D0710D5D0E4704A128812F004027FF440
:1034C00073AC591C089119786C4B022983F8581673
:1034D00001D983F8582603F039FA03F0F3FA63E4CC
:1034E00008A80DF047F9664B18805DE45A1C089255
:1034F0001A46624912F8020B81F8170208925B78AB
:1035000081F8163250E408A80DF034F95B4BA3F8AB
:10351000020149E4574B1868431E00F10905089A57
:10352000511C0891114611F8027B03F8017F0891A4
:103530005178AB42997202F10301089192781A75A1
:10354000EDD101254F4B83F820500AF0F9F92BE417
:103550005A1C08921D78132D3FF67EAC454A4FF059
:103560000C0E11689A1C089200225F78DFF818C1CF
:103570000EFB02C090F80880B84500F0C38301320A
:103580001D2AF5D168E45A1C08921A780B2A3FF6D6
:1035900063AC38490868991C0891597803293FF6AB
:1035A0005BAC062505FB020282F89310D91C08913A
:1035B000997882F88E10191D0891D97882F88F10A9
:1035C000197982F89010597982F89110D91D9B7958
:1035D000089182F89230FFF7E7BB092F7FF63CACE9
:1035E00008A80DF0D2F80021089BDFF8A0805A1C33
:1035F0000892D8F800501B782B70089A022902F123
:103600000103089313782BD1B42BA8BFB423022B4A
:10361000B8BF02236B7101310329EED1931C0893CB
:10362000537808A8642BA8BF6423AB71D31C0893FC
:1036300093786B70131D0893D378AB700DF09AF8E4
:103640000A2F288106D0089BD8F80020591C089121
:103650001B78D37101230B4A82F82030FFF7FEBBA1
:10366000B42BA8BFB423062BB8BF06236818C370B9
:10367000D1E700BF581F00202A0B00206024002043
:10368000B20B0020040B0020C09A0108B4390020BE
:1036900008A80DF06FF86FF4AF614318C14D9BB2ED
:1036A000C62B98BFA5F8D20108A80DF063F8A5F8BD
:1036B000740008A80DF05EF8A5F8760008A80DF0D3
:1036C00059F8A5F8780008A80DF054F8089BA5F85B
:1036D00020025A1C08921B7808A885F83E310DF08C
:1036E00054F8089B08A85A1C08921A4612F8021BA4
:1036F00085F83F1108925A7885F83B21DA1C089228
:103700009B7885F8CF310DF040F808A80DF032F81D
:10371000089B00EB80005A1C08921A464000A5F84E
:10372000180112F8021B089285F830115A7885F8B2
:103730003421DA1C08929A7885F833211A1D0892F0
:10374000DB7885F83531FFF72FBB0F2F7FF484AB83
:103750005A1C08921D78072D3FF67EAB924F08A8A1
:10376000D7F800800DF006F80E235D43A844A8F8B2
:10377000DB0008A8D7F800800CF0FCFFA844A8F8EC
:10378000DD0008A8D7F800800CF0F4FF089A3B6829
:10379000A8441D441346511CA8F8DF00089113F8F3
:1037A000021B08A8089385F8E110537885F8E230E9
:1037B000D31C0893937885F8E330131D0893D378CE
:1037C00085F8E4300CF0C0FFC5F8E500FFF7ECBA6F
:1037D0005A1C08921A780F2A3FF63EAB062571480C
:1037E000991C05FB0202089159782EA882F89010C6
:1037F000D91C0891997882F89110191D0891D978EF
:1038000082F89210197982F89310597982F89410FD
:10381000D91D9B7940F8981D82F895300CF0B5FFC2
:103820000BF06CFCFFF7C0BA08A80CF0A3FF5D4DCD
:10383000A5F87E0008A80CF09DFFA5F8800008A858
:103840000CF098FFA5F8820008A80CF093FFA5F8EB
:103850008400FFF7A9BA591C08911946524A11F879
:10386000020B1268089182F8D600597882F8D710B6
:10387000D91C08919B7882F8D930FFF795BA194680
:103880005A1C089211F8020B464A089182F800016E
:10389000597882F80811D91C08919B7882F81A315E
:1038A000FFF782BA5A1C2EAD3F4F45F8982DD7F836
:1038B00000801B78284688F820300CF05BFFFF283A
:1038C000A8BFFF2088F81E0028463F680CF052FF72
:1038D000FF28A8BFFF2087F82400FFF765BA2EADA8
:1038E0005A1C45F8982D2F4F1B782846BB740CF0B6
:1038F00041FFF88128460CF03DFF089BDFF8A880C7
:10390000591C08913882D8F800201B78284682F884
:1039100038300CF03AFF28460CF02CFF089BA7F833
:103920001A025A1C08921A4612F8021B284687F8F7
:1039300006110892D8F800105B7881F821300CF05D
:1039400024FF28460CF021FF28460CF01EFF2846D5
:103950000CF01BFFFFF728BA5A1C08921A461149AF
:1039600012F8020B2EAD089281F809015A7881F8FD
:103970001621DA1C08929A7881F81B211A1D45F845
:10398000982DDB7881F82531DEE7084B1B885F072F
:103990003FF50AAA064A136843F004031360FFF7D1
:1039A00003BA00BF60240020581F00202A0B00200B
:1039B00024120020B04A1278012A00F25A811946D6
:1039C0005A1C089211F8020BAC4A089182F87A0648
:1039D000597882F87816D91C08919B7882F8793644
:1039E000FFF7E2B906F04CFBA54B1D70A54B1D700F
:1039F000A54B1D60FFF7D8B9116821F002016BE4F7
:103A00005A1C08921A4612F8027B2EAD45F8982DE2
:103A1000284693F801A00CF097FE039028460CF07E
:103A200093FE029028460CF08FFE814628460CF04B
:103A3000A1FE80460FFA80FB28460CF09BFE03B2E5
:103A4000284601930CF096FE0FFA80FE0898039921
:103A5000451C029A089590F800C00B910C92CDF885
:103A60003490D7B989480088400747D58848057AF7
:103A7000002D43D090F85C51002D3FD0807B002872
:103A80003CD00EA90BA801220AF0C6FC0722002197
:103A90000EA80AF0D9F9FFF787B9FF2F2ED1BAF196
:103AA000010F2BD179480088430727D57848057A3C
:103AB00025B390F85C510DB3857BFDB1007800F023
:103AC000FD0005281AD101220EA90BA80AF0A4FCBA
:103AD000B9F1000F14BF03220122642108F1FF385D
:103AE0001FFA88F8B8F5B37F98BF42F0040201FBD3
:103AF0000BF10EA80AF006FAFFF756B907F1FF38E6
:103B00005FFA88F01D283FF64FA9604800884507F6
:103B10003FF54AA9BAF1010F03D0BAF1040F7FF4BF
:103B200043A95B4B93F9690401308742184602D0E0
:103B3000012F7FF439A9182505FB08F505F5CC758B
:103B4000284403F805A08260BDF8042080F816C060
:103B50004160C0F80C90A0F810B04282A0F814E0C8
:103B6000ACF1A500D0F1000C4CEB000C83F86974AB
:103B700083F868C4FFF718B90023404D08A8AB606C
:103B80000CF0E2FDAB681843A860FFF70DB91946C9
:103B90005A1C089211F8020B384A089182F8300139
:103BA000597882F83411D91C0891997882F8331128
:103BB000191D0891DB7882F83531FFF7F5B808A8B0
:103BC0000CF0D8FD2D4DA5F8360108A80CF0D2FD5B
:103BD000089BA5F838015A1C08921B7808A885F89C
:103BE0003A310CF0C7FDA5F83C01FFF7DDB85A1CCF
:103BF00008921A78214B83F81822FFF7D5B85A1C7F
:103C000008921A78112A3FF627A9991C2EA840F885
:103C1000981D1A4D5B78EC3205EB4205AB710CF048
:103C2000A9FD40F6CA039842A8BF184640F2EE2309
:103C30009842B8BF18461923A0F2EE2090FBF3F08B
:103C4000E871FFF7B1B85A1C08921A780B4B83F849
:103C5000CF21FFF7A9B800230848089A511C089102
:103C600011781A180133082B82F8BC11F5D1FFF72F
:103C70009BB80023FFF7F2B86033002060240020D7
:103C8000511F0020521F0020541F00202A0B00202B
:103C9000901F0020002F3FF72CA954F8090C29464B
:103CA00008F0BBFE54F8090C03685B6A03B198473F
:103CB0000023049D04F8013C002D3EF443AF54F86A
:103CC000090C0CF0A5FA54F8090CA847FEF73ABF06
:103CD000344D54F8090C08F09DFE00283EF432AF34
:103CE00054F8090C08F090FE14F8013C0746002B2C
:103CF0007EF42EAF24287EF4D3AF012304F8013CD8
:103D0000FEF765BF027801EB850585F83D20DA1CDA
:103D100008929A7801F13D0085F83E201A1D08921C
:103D2000DA7885F83F205A1D1B79089285F84030D3
:103D30000AF0CCFFFFF738B80C283EF4A7AE0A28EB
:103D400001D00D2821D1184810F012FA2321204665
:103D500011F080FD08B1001B286000222B68002BA9
:103D60007EF49EAE02B12B6030220021204611F07D
:103D7000DFFC009B1B78002B7EF48BAEFEF780BE31
:103D80007F287EF4C3AEFEF713BE7F287EF4BBAE61
:103D90000022013B05482B60E25410F0E9F9FEF7E0
:103DA00007BE00BF0400FA0541D001082FC001087A
:103DB0005C282DE9F8430C4600F0F48600F2F2800E
:103DC000382800F0C68578D8242800F0BF854ED862
:103DD000042800F0A6820AD8022800F08C8200F2A3
:103DE0009082012800F077820020BDE8F883062841
:103DF00000F00287C0F0A0822228F5D100210C2714
:103E0000BC48BD4D00F1300600222B6803EB810E4B
:103E10009EF83DC007FB02F313F80680E04500F072
:103E2000528701321D2AF5D100232268013102F1A7
:103E3000010CC4F800C0137023689EF83E2003F103
:103E4000010CC4F800C01A7023689EF83F2003F1EB
:103E5000010CC4F800C01A7023689EF84020142991
:103E600003F1010EC4F800E01A70CDD1B7E22C289E
:103E700000F09D8515D8282800F081852A2800F0BB
:103E800092852628B0D19D4D2046B5F8F0100CF053
:103E90009FFCB5F8F21020460CF09AFCB5F8F4102F
:103EA00046E2342800F02084362800F0F7853228D6
:103EB0009AD1924B93F8CF21F6E2462800F0008683
:103EC0003ED8402800F0D9850AD83B2800F0068467
:103ED0003D2800F0C8833A2886D1894B19684AE208
:103EE000442800F0E48600F2168642287FF47CAF76
:103EF000824D0B6895F81822591C21601A70A96828
:103F000020460CF051FC236895F8C421591C21600F
:103F10001A70B5F8F01020460CF05AFCB5F8F21003
:103F200020460CF055FCB5F8F41020460CF050FC7F
:103F3000B5F8361120460CF04BFCB5F83811F7E116
:103F40004F2800F0D0850CD84B2800F070854D2804
:103F500000F0A58149287FF447AF684BB3F8021100
:103F6000E6E1542800F0D2855A2800F0F585502863
:103F70007FF43AAF01200B685A1C0A6018705F4B3F
:103F8000226893F87A16151825601170226893F844
:103F9000781615182560117093F87926236819187A
:103FA0002160A5E1722800F0E58300F2AF80692866
:103FB00000F0678163D8652800F05C824BD86028E8
:103FC00000F05586642800F0C4815E287FF40CAFB1
:103FD000494D20462B680A27D98C0CF0F9FB2B6839
:103FE0002046198D0CF0F4FB2B682046598C0CF000
:103FF000EFFB23684FF6FF765A1C226000221A70EE
:1040000023682046591C21601A702368591C2160BE
:104010001A702368591C21601A702368591C21608A
:104020001A702368591C21601A702368591C21607A
:104030001A702B68196BB1FBF7F1B142A8BF31467A
:1040400089B20CF0C5FB2B68D96AB1FBF7F1B1421C
:10405000A8BF31462AE0672800F0528240F227824A
:104060000025284E052D8CBF002136F9151020465D
:1040700089B201350CF0ACFB082DF3D1AFE16D280E
:1040800000F0B78214D86B281F4D00F0FE8340F279
:10409000D383298C20460CF09BFB698C20460CF0C6
:1040A00097FB0A23B5F9241091FBF3F189B23FE1A4
:1040B0006F2800F0E282C0F0AB8270287FF494AEEB
:1040C00000220D490B68985C23685D1C2560187000
:1040D0000B681344987A23685D1C256018700B6880
:1040E0001344187D236801325D1C0A2A256018706C
:1040F000E8D174E1909A0108581F00206024002044
:10410000342C00203C0B0020280B00207D2800F0E0
:1041100008852BD877287DD012D8742800F0968097
:10412000C0F0818375287FF45FAEC14A12F8013F69
:10413000002B00F054812168481C20600B70F5E7CB
:10414000792800F0B583C0F0DE817C287FF44CAE86
:10415000B84D2046B5F87E100CF03AFBB5F880104B
:1041600020460CF035FBB5F88210E1E0A02800F005
:10417000E08318D8962800F03581972800F0FF805A
:104180007E287FF431AEAB4B226893F80011501CAF
:1041900020601170226893F80811501C2060117083
:1041A00093F81A2180E1A62800F0A48324D8A4283B
:1041B0007FF41AAE01200B685A1C0A6018700B6855
:1041C0001A180A6000221A700B68191821606421FD
:1041D0001A70994B2568B3F87C202E18B2FBF1F2C7
:1041E00026602A70B3F87C302268B3FBF1F3111813
:1041F00021601370BDE8F883F12800F0CA81FE2821
:104200007FF4F2AD0425002120460CF0E1FA013DD7
:10421000F9D1E4E000214FF00C0C874D874805F1FF
:10422000340700F1300E95F85030994280F2D78073
:104230000022CE5D0CFB02F313F80E80B04500F0B7
:10424000538501321D2AF5D10131ECE700267B4F61
:10425000DFF8E48107F1300998F850309E4280F28F
:10426000BE8000220C20764BF15C00FB02F313F8B9
:1042700009508D4200F02C8501321D2AF5D10136FE
:10428000EAE700256F4E704F33789D4280F2A78099
:1042900037F8151020460CF09BFA0135F4E700269C
:1042A0006A4D684F3B7802359E4280F298802368C1
:1042B00015F8022C591C21601A7015F8011C2046B3
:1042C00001EB810101EB810101F2EE2189B20CF0D9
:1042D0007FFA0136E6E70B685A1C0A6000221A7062
:1042E0000B685A1C0A6018700B685A1C0A60172267
:1042F0001A70BDE8F8830422554920460CF04AFAAA
:104300006DE001200B685A1C0A6018700B681A18BF
:104310000A6005221A700B681A180A601870BDE846
:10432000F88302464B4920460CF034FA424B197888
:1043300020460CF04DFA52E00B22474920460CF083
:1043400029FA0822454920460CF024FA082244495B
:10435000D3E70B685A1C0A60E7221A70354B93F8B2
:1043600018220B68591C21601A7023683D495A1C99
:10437000226000221A7020460CF016FA2FE007F097
:1043800003FA0125236800265A1C2260187023684E
:104390005A1C22601D7007F0C3F923685A19226065
:1043A000187007F0DBF923685A1922601870236827
:1043B0005A1922601E7007F089F923685A19226081
:1043C000187007F09DF923685A1922601870236845
:1043D0005A1922601E7023685A1922601E7001202B
:1043E000BDE8F883204B204619880CF0F1F91F4BEB
:1043F0002046198889B20CF0EBF904F0BFF80146A9
:1044000020460CF0E5F904F0E7F8014620460CF0F0
:10441000CBF9084B204693F858262368591C216095
:104420001A70134B19880CF0D3F9034B59887FE7A6
:104430008F9A010860240020280B0020909A010820
:104440005C0B002054240020B81400203E260020DD
:104450006BC0010870C0010875C0010881C0010867
:1044600032C001083C0000805A3A0020F8110020B8
:1044700050130020B34B204619880CF0A9F9B24B19
:104480002046198889B20CF0A3F904F077F80146A8
:1044900020460CF09DF904F09FF8014620460CF0F0
:1044A00083F9AA4B93F858262368591C78E3A84E41
:1044B00000253289B2F5806F94BF01270827731950
:1044C000196B204691FBF7F1043589B20CF080F9A5
:1044D0000C2DF4D100259F4EAB19B3F8481020469F
:1044E00004350CF075F90C2DF6D100259A4EAB1958
:1044F000198A204604350CF06BF90C2DF7D16EE7C4
:1045000010229649F9E600274FF00E08944E08FB5A
:1045100007F5336820462B44B3F8DB100CF058F94C
:10452000336820462B44B3F8DD100CF051F93368A2
:1045300020462B44B3F8DF100CF04AF933682046CC
:104540002B4493F8E12023680137591C21601A702D
:1045500033682B4493F8E2202368591C21601A70B9
:1045600033682B4493F8E3202368591C21601A70A8
:1045700033682B4493F8E4202368591C21601A7097
:1045800033681D44D5F8E5100CF00EF9082FBED1A4
:1045900025E700206D4B03F16001226893F89050ED
:1045A000561C26601570226893F89150561C2660A0
:1045B0001570226893F89250561C26601570226878
:1045C00093F89350561C26601570226893F8945007
:1045D000561C26601570226893F89550561C26606C
:1045E000157022680633551C8B4225601070D4D19B
:1045F000F5E65C4DD5F8080110F0AAFE014620460C
:104600000CF0D2F8D5F8140110F0A2FE81B28FE6BA
:10461000554B4FF6FF761B880A68FF2BA8BFFF2378
:10462000511C524D21601370A96A2046B142A8BFA7
:10463000314621EAE17189B20CF0CAF8A98D204611
:104640000CF0C6F8414B93F83B3143B10A212B6B78
:104650005943B142A8BF314621EAE17126E5296BF1
:1046600001F30F0122E5394B226893F81712501C11
:104670002060117093F8162216E70B683C4D5A1C07
:104680000A6064221A702B681A780B68591C216022
:104690001A7000232A681A44D17822680133501C0A
:1046A000032B20601170F5D12B6820469A7923687E
:1046B000591C21601A702B685A782368591C216094
:1046C0001A702B689A782368591C21601A702B681D
:1046D00019890CF07DF82B68DA79E5E60B685A1C2D
:1046E0000A6002221A707AE6002106251C4E326802
:1046F000236805FB012292F893005F1C2760187065
:10470000236892F88E005F1C27601870236892F867
:104710008F005F1C27601870236892F890005F1C60
:1047200027601870236892F891005F1C276018704A
:10473000236892F892200131581C0C2920601A70CD
:10474000D5D14CE65A3A0020F81100206024002010
:10475000FC2A0020382B00208C2B00202C0B002062
:10476000581F0020901F0020A8140020280B0020B4
:10477000B4390020C24D2046B5F8D2110CF028F80B
:10478000B5F8741020460CF023F8B5F876102046E2
:104790000CF01EF8B5F8781020460CF019F8B5F8B2
:1047A000201220460CF014F8236895F83E21591C7D
:1047B00021601A7023685A1C226000221A70236834
:1047C00095F83F11581C20601970236895F83B112B
:1047D000581C20601970236895F8CF11581C206070
:1047E000197023682046591C21601A700A23B5F9F4
:1047F000181191FBF3F189B20BF0EAFF236895F8E9
:104800003021591C21601A70236895F83421591CF5
:1048100021601A70236895F83321591C21601A70A1
:1048200095F8352140E601232268511C2160137060
:104830000133092BF8D1D2E50B6895F85820591CA3
:1048400021601A70236895F85920591C21601A704C
:10485000E96D20460BF0A8FF296E20460BF0A4FF5F
:104860006423696E204691FBF3F189B20BF0B0FF2F
:10487000B5F8741020460BF0ABFFB5F87610204663
:104880000BF0A6FFB5F87C1052E5B5F88010204675
:104890000BF09EFFB5F8821020460BF099FF95F8BB
:1048A000543003F001032268511C2160137096E517
:1048B000744A236892F88410581C20601970236889
:1048C00092F88510581C20601970236892F889109E
:1048D000581C20601970236892F88810581C2060BA
:1048E0001970236892F88610581C20601970B2F86D
:1048F0008A101DE5644D204629880BF069FF696820
:1049000020460BF051FFA96820460BF04DFFE968E7
:104910005C4D20460BF048FFB5F87C1020460BF0AC
:1049200057FFB5F8781020460BF052FFB5F87A1013
:10493000FEE4564B204619680BF036FF544B2046D8
:1049400019680BF031FF534BFFF7C8BA4C4B99680D
:1049500011E54B4B226893F83011501C2060117008
:10496000226893F83411501C20601170226893F86B
:104970003311501C2060117093F8352194E5404D9F
:104980002046B5F836110BF023FFB5F83811204654
:104990000BF01EFF236895F83A21591C21601A700C
:1049A000B5F83C11C4E4364B93F818227CE5344D3D
:1049B0000B6895F8C421591C21601A70B5F8D611FE
:1049C00020460BF005FFB5F8D21120460BF000FF92
:1049D000B5F8D41120460BF0FBFE236895F8CD21E5
:1049E000591C21601A70B5F8DA1120460BF0F0FE60
:1049F000B5F8DC1120460BF0EBFE002123682046C1
:104A00005A1C2260197023685A1C226019700BF01E
:104A1000DFFE236895F8C621591C21601A70D5F86D
:104A2000C81120460BF0C0FE95F8CC213CE5144D92
:104A30000B6895F81C22591C21601A70236895F8A0
:104A40001E22591C21601A70B5F8201220460BF066
:104A5000BFFE236895F82222591C21601A70B5F810
:104A6000241220460BF0B4FE236895F82622591C28
:104A700021601A7095F81D2216E5082206493CE4CB
:104A800060240020280B002068140020E8F7FF1F96
:104A9000ECF7FF1FF0F7FF1F1C260020A84DA94FC1
:104AA00005F12806002395F92A22D957914200F0F2
:104AB00024810C333C2BF8D10835AE42F2D18EE480
:104AC00005F0A2F92368A04D5A1C226018702988AD
:104AD00020460BF069FEE96820460BF065FE05F004
:104AE00073F9014647E400250B685A1C0A601D70E3
:104AF0000B685A1C0A601D700B685A1C0A601D70F6
:104B0000002120460BF050FE002134E40B685A1CB3
:104B10000A600022E6E50B228C4920460BF03AFEA3
:104B2000EEE78B4B1A6892F8D6102268501C206072
:104B300011701A6892F8D7102268501C206011700A
:104B40001B6893F8D9202368591C21601A707C4B8C
:104B5000B3F88410FFF7ECBB0125794E0B6896F88B
:104B60000521591C21601A70236820465A1C2260B6
:104B70001D7023685A1922601D70236896F87C20E6
:104B8000591921601A70B6F87A100BF021FEB6F8A8
:104B9000881020460BF01CFE236896F80421591952
:104BA00021609FE56A4D20462B6893F820200B6812
:104BB000591C21601A702B68997F0BF009FE2B6835
:104BC000204693F824100BF003FE012120460BF041
:104BD000FFFD012120460BF0FBFD012120460BF0DB
:104BE000F7FD012120460BF0F3FD012120460BF0DB
:104BF000EFFD0121FFF79CBB514D0B68AA7C591CAE
:104C000021601A70E9892046514E0BF0E1FD298A96
:104C100020460BF0DDFD3368204693F838202368EA
:104C2000591C21601A7023685A1C226002221A70D3
:104C3000B5F81A120BF0CCFD236895F80621591C23
:104C400021601A70336893F821202368591C216071
:104C50001A702268531C2360002313702268511CB1
:104C6000216013702268511C216013701BE6344BC5
:104C7000226893F80911501C20601170226893F883
:104C80001611501C20601170226893F81B11501CE3
:104C90002060117093F825212368591C21601A7037
:104CA00023685A1C226000221A70FFF7FDBB294BB3
:104CB0005B885B073FF593AB002A3FF490AB264B34
:104CC0001360FFF78CBB034493F83830FFF7ADB89F
:104CD0003B445D6B284610F08FFE29460246204675
:104CE0000BF058FDFFF7CBBA034493F83820236844
:104CF0005E1C26601A70FFF7A7BA23682046591C6D
:104D000021601A70B5F82C120BF062FD236895F83B
:104D10002E22591C21601A70236895F82F22591CE5
:104D200021601A70236895F83122591C21601A708D
:104D3000236895F83022591C21601A70BCE600BF28
:104D400060240020902C00206403002075C001081E
:104D5000581F0020280B0020457C00082DE9F04F4B
:104D6000A34BA44A00F59C4A1C780AF1200A97B08C
:104D70000746C2F800A09046002C65D19E4D9F4E7C
:104D8000A94695F800B05C45C0F2D28042F201021B
:104D90009B4B9C491B68096813400291059306D000
:104DA00098F8293088F82830974B5A781A7098F874
:104DB00028501DB1944B1D7885F001050F2388F80C
:104DC0002A308E4B00241B68DFF86492039398F816
:104DD0002B30A9F1040601930323019AB2FBF3F3EC
:104DE00003EB4303D31ADBB25B0009F170020693B5
:104DF000049209F128035C45C0F2C5807D4C814ACC
:104E000094F82A300F2B0CBF0123002384F8D630EE
:104E10007E4B40F034817E490968480304D57849C7
:104E20000968C90500F12B8112681969DA60521A04
:104E300099688A4202D9012283F8252094F82B3000
:104E4000013384F82B3005E0724A1268904201D990
:104E5000013C1C706A4B1A689B4612F4805F05D0B7
:104E60006B4B1B68DB0701D40EF06AFF634B1C68B9
:104E7000E07C002800F01E81674A637D013832F92A
:104E800010001BB1C0F53B60083000B2A0F57A708D
:104E9000B0F57A7FA8BF4FF47A7020EAE07011F085
:104EA000CDFD5E4911F0D2FE5D4911F01BFE12F0FE
:104EB0001BF85C4B1880DBF80030DFF878A113F4A6
:104EC000807F00F07B81584BDFF840919F4205D9ED
:104ED00099F8022012B9012289F8022099F80220DB
:104EE000002A00F06B814A49BAF8002099F8254061
:104EF000086802F004030193012C00F4802302935C
:104F0000039100F00E8112F0080F0CBF002602265C
:104F10003C4D464F99F82420062A00F24B81DFE8E9
:104F200012F00201EA0104024A026A027A029802BD
:104F3000072CD6BF3368E1B2195D2846D9F8043092
:104F40009847032C1ADC3268A3004633D118D25A92
:104F50004B8898B1811A4FF47A7048439B1A90FBA2
:104F6000F3F040F2EE2300F57A709842B8BF18468D
:104F700040F6CA039842A8BF184680B22C4B23F8CB
:104F800014000134FDE66100CDB139F91400039A33
:104F900080B2D28B824203D8039A128C824220D2F2
:104FA00053F82420029882420BD91B4A505A059A82
:104FB000002A41D1184A22F8140001341BE7284680
:104FC000E5E7E0B2079306F033FD032C079BEEDC28
:104FD000012296F82A10A24021EA020286F82A202D
:104FE000E5E7029A02F5967243F82420DFE700BF56
:104FF000E0140020B40B002054240020B41400203E
:10500000042C0020E414002008000020E8140020F4
:10501000B8120020DC140020B814002000007A44EC
:1050200000C07F44540B0020404B4C0090340020C3
:10503000B80B00202A0B0020062202FB04FC049976
:10504000069A96F8BCE061448852BEF1000F06D182
:10505000019A022AAED94FF0010286F8BC20049AC8
:10506000488832F80C2010448A881044B44A00B2B0
:1050700022F81400032290FBF2F080B29AE701209C
:10508000B049126848700870D9681A61521A596894
:1050900000258A4288BF0022AB4E88BF83F82520B6
:1050A0005D45BFF6CBAEE8B206F0C2FC26F81500AF
:1050B0000135F5E7DBF800301D047FF5FCAEA34AAF
:1050C000D2F8D830FB1A002BFFF6F5AEA04BC2F891
:1050D000D8A0D9799F4B33F81110237D89B291FB69
:1050E000F3F192F8DC30013303F00F0382F8DC3087
:1050F000134483F8DD100346DD32995C0133084424
:10510000102B00B2F9D190FBF3F000B2002806DBBF
:105110006428A8BF642011F091FC8F49C2E60020EA
:10512000F9E70026F4E6019B002B38D0B8F8EE1022
:10513000D8F8F0000BF067FA012807D164203A682C
:105140002968128900FB0212C9F81420029B63B17E
:105150003A6892794AB10DF09BF8042289F824202C
:105160004FF47A72C9F82020D4E6012C22D03A6894
:10517000128922B12A68D9F81410914203D3774AD0
:105180001268110607D50DF083F8042289F824204F
:1051900040F6B832E6E7012289F82420BAE6029BFD
:1051A0004FF48060002B00F0A38007F045F9002247
:1051B000C9F8142016B1304609F05EFE684CB4F808
:1051C000841004F5DE700BF01EFABAF8003001907E
:1051D00013F0040FA14623D0DBF80030DD061FD505
:1051E0005E4B1B68DC061BD45E4B584C1B78002BB7
:1051F00000F0538199F81732002840F03C81002BD1
:1052000000F04E81584B1A68D4F8F4309B1A002BEA
:1052100080F246810EF094FD9DF8043084F8F83059
:105220000022134699F8161299F81552B9F8D4616C
:10523000B9F8D671444830F912409B08B442C4BF53
:1052400063F07F03DBB20132BC42B8BF43F04003DE
:10525000042AF0D13D4C94F8F9209A4240F025817F
:1052600094F8FA20F92A02D8013284F8FA203D4E47
:1052700084F8F930327872B93C4B1B68D80740F19A
:105280001681019B84F8FB202BB9BAF80030D907AE
:1052900001D50EF0A3FB94F8FA30142B40F0FF83F5
:1052A0003378B3B194F8F9305F2B12D12B4B1B68D4
:1052B000DA0606D5DBF80030DB0602D5002D40F01B
:1052C000EE83BAF8003013F0040700F016810EF0F8
:1052D00037FDBAF800305F0700F1E18394F8F93048
:1052E000572B40F010814FF47A72214B1A80D6E38D
:1052F00007F092F85BE7012C01D106224CE73A68EF
:10530000927A012A3FF43FAF022A02D00CF0C0FF8C
:1053100000E604920CF0BCFF01201649487408F026
:1053200007FC08F0AAFF049A36E7012C114A23D1A2
:105330000021517408F0FCFB08F09FFFDDE700BF7F
:10534000720C002008000020B8140020B40B0020CC
:105350007C140020901400200000C8422412002079
:10536000602400207B030020E4140020B8120020F9
:10537000922E0020901F0020019B517C002B18BF13
:10538000032691B11278824901EB4211498901F457
:10539000027151B11F2A04D87E4B23FA02F2D207C0
:1053A00003D4019B002B7FF405AF47F23052C9F8BC
:1053B00020200422F0E6012C08BF0622019B08BF32
:1053C00089F824205BB10326D8F8F020B2F9161032
:1053D000714A11805180918039688988D1802A680A
:1053E000D9F818109142E0D3019B002BDDD0012C9D
:1053F0003FF490ADDEE6BAF8002042F00202AAF8CF
:1054000000200EF09DFC2968D9F820200A44C9F834
:105410001C200522C0E6012C14D12A68D9F81C10E2
:105420009142BFF4C7AE5D4A127822B9039B1A6855
:10543000D3073FF5BFAEBAF8002022F00202AAF867
:1054400000205AE72968D9F820200A44C9F81C200E
:10545000B0E664203A682968128900FB0212C9F894
:10546000142000224FF4806089F8242089F803205A
:1054700006F0D2FF4EE53BB14FF47A71484A12680C
:1054800001FB0323C4F8F43094F8F830002B3FF408
:10549000C7AE09F0D5FC0023C0E6019B002BF3D179
:1054A000102009F0E9FC0123B8E60022DDE6BAF895
:1054B000002052071DD55F0303D5DBF80030D80567
:1054C00017D494F82830A3B1364BDB788BB994F815
:1054D000FB300133DBB2032B84F8FB307FF6DBAE0D
:1054E00011B10EF02DFCD6E6019B002B7FF4D3AE5C
:1054F000F7E7002384F8FB30CDE60B2009F0BCFC75
:1055000084F8FA70E5E65D2B00F091825B2B00F0E9
:105510009B825E2B40F0A882032089E294F8F93048
:105520006F2B00F0BA8294F8F930972B03D14FF427
:10553000C8721D4BDAE6A72B05D11C4A136843F04D
:1055400004031360ABE2BB2B08D16FF00101002014
:1055500001F034FD0A2384F8FA30A0E2B72B01D120
:105560000221F4E7BE2B03D100216FF00100EFE729
:10557000BD2B40F0948200210220E9E717F803E0F8
:10558000BEF1000F00F0D4820CFA03F0CEE200BFAF
:105590001C9C010800202080B81400207B03002000
:1055A000E4140020E8140020260B00202412002020
:1055B000DFF8DC8206F18E05D6366A78AB789A423F
:1055C00022D2691C28780AF0EBFFE8B1EB78AE4AEA
:1055D000013B03EB430313440C22697995F804C0A3
:1055E00002FB01FE08EB0E00426893420CD04360C0
:1055F000012303FA01F194F8FC3008F80EC023EA05
:105600000101876084F8FC100635AE42D5D1002632
:105610009E4B9F4F1D689F4B1B68029394F8283048
:1056200003937A68002A65D01478002C62D0BB6896
:105630000299CB1A002B0DDB01F5FA73BB60012335
:1056400003FA06F1944B93F8FC3023EA01039249E4
:1056500081F8FC30039B002B4CD03B78517804330D
:10566000DBB2002940F022818C4931F91310B9F8DE
:10567000D23103F1C800814226DD92F80280864BC8
:1056800093F8FC203241D20734D4B8F1000FCCBFDC
:105690000220012009F030FCA21E122A3BD8DFE8CC
:1056A00012F02F004400540073007E009900B400F3
:1056B000CF00DB00E7003A00540066007E0099004E
:1056C000B4008D00A800C300C83B994203DA91786A
:1056D000C1F10008D3E7012303FA06F26E4B93F8F9
:1056E000FC3023EA02036C4A82F8FC30029B03F58B
:1056F000FA73BB600136042E07F10C0791D121E249
:105700002978022041446429A8BF642121EAE1717B
:1057100029700AF095FF01235F4AB34092F8FC20FC
:1057200013435D4A82F8FC30E4E7AC785C4B4444B8
:10573000642CA8BF642424EAE474AC701968284679
:105740000AF0DAFE21460320E3E729790D204144DF
:10575000B429A8BFB4210629B8BF062129710AF0CF
:105760006FFF0D2C03D101224E4B1A70D3E7E9785D
:105770000E204144B429A8BFB4210629B8BF062190
:10578000E9700AF05DFFEEE7697905204144B4292C
:10579000A8BFB4210229B8BF02216971F1E7424ACA
:1057A0000F20126851784144C829A8BFC82121EAB6
:1057B000E17151700AF044FF0F2CD4D03A4A122004
:1057C000126811784144C829A8BFC82121EAE171B3
:1057D0001170D6E7344A10201268D17A4144C829A2
:1057E000A8BFC82121EAE171D1720AF029FF102C6B
:1057F000B9D02D4A13201268917A4144C829A8BF14
:10580000C82121EAE1719172BBE7274A1120126891
:10581000517D4144C829A8BFC82121EAE1715175D1
:105820000AF00EFF112C9ED01F4A14201268117D21
:105830004144C829A8BFC82121EAE1711175A0E738
:10584000194A0920126891784144C829A8BFC82183
:1058500021EAE171917094E7134A0A201268117BE2
:105860004144C829A8BFC82121EAE171117388E722
:105870000D4A0B201268917D4144C829A8BFC82158
:1058800021EAE17191757CE79CA00108B439002000
:1058900068110020E4140020B40B0020B81400208C
:1058A000802C0020240B0020842C002001297FF470
:1058B00032AF0C2C7FF42FAF64494FF4966031F96E
:1058C000133040F633018B42A8BF0B469278B3F5F4
:1058D000617FB8BF4FF4617390FBF2F0A3F5617381
:1058E00093FBF0F35A4ADBB212789A423FF413AFBB
:1058F000032B94BF1A4602220A210493544B1A70B8
:1059000001FB0292534902F25A620A6001F0D0F898
:10591000049B204619460AF093FE049B581CC0B213
:1059200009F0EAFAF7E6012006F076FD012728E102
:10593000002726E1022006F06FFD32E14FF400500F
:1059400006F06AFD40E14FF4804006F065FD4BE152
:105950004FF4004006F060FD51E1042006F05CFDCC
:1059600066E1402006F058FD6CE14FF4807006F0CF
:1059700053FD80E1019A384B002A40F08F81226864
:10598000D50243D5354AD278002A3FD12F49B9F8FC
:10599000D221B1F9025002F11800A842C0F276817A
:1059A000183A9542C0F27281B1F900108842C0F2F3
:1059B0006D818A4200F36A811A6842F020021A60FF
:1059C00099F8183203F0EF02082A01D00E2B02D109
:1059D000402006F021FDDBF8003059050FD599F87D
:1059E0005432C3B9BAF8003013F0040F1AD00022B1
:1059F0001B4B1A704FF44F7009F0DCF978B9012293
:105A0000184B83F8002117B0BDE8F08F1A6822F018
:105A100020021A6037E1236813F4803FE6E70FF0B5
:105A200007F9E7E70CF0FEFF0FF018F9E7E70120B0
:105A3000C5B26B1E89F8583600F088FF01F042F8B5
:105A4000284609F059FA2AE00220F1E7B8140020AC
:105A50005C3A0020B439002024120020E814002011
:105A6000892C0020B40B0020562B01D101F09CFAA8
:105A70003378002B3FF457AD8A4B1B68D8067FF56F
:105A80004DADDBF80030D9067FF548AD002D3FF471
:105A900045AD019B002B3FF446AD0DF09FFF824BBF
:105AA0001C221E68002108A896F88D500FF040FEB9
:105AB0001C2200210FA80FF03BFE06F18F0306F118
:105AC0003F07029317F8028C16AB984418F8383C3D
:105AD0003A78013308F8383C7B789A420AD2394642
