:020000040800F2
:10000000002000100D7F02082D5602080579010816
:100010002B56020829560208275602080000000045
:10002000000000000000000000000000255602084B
:1000300023560208000000002156020863F601085A
:100040009D7F02089D7F02089D7F02089D7F020818
:100050009D7F02089D7F02080F0C0208230C0208F6
:100060001F0C02081B0C0208170C0208755A020824
:10007000655A0208555A0208455A0208315A0208C0
:100080001D5A0208095A02089D7F02089D7F020836
:10009000255B02089D7F02089D7F0208130C020861
:1000A00041560208955602082F560208B956020812
:1000B0008556020875560208655602089D7F02089B
:1000C0009D7F02089D7F02089D7F02089D7F020898
:1000D0009D7F02088959020881590208795902084E
:1000E0000B0C02089D7F0208135602089D7F020830
:1000F000615602089D7F0208515602089D7F020842
:100100000000000000000000000000009D7F0208C9
:100110009D7F02089D7F02089D7F02089D7F020847
:10012000F5590208E1590208CD590208B9590208E7
:10013000A55902089D7F0208000000000000000091
:100140009D7F02089D7F02089D7F0208000000003D
:10015000000000000000000000000000000000009F
:1001600000000000000000009D7F02089D7F020843
:100170009D7F020800000000000000000000000059
:08018000000000009D7F020851
:1001880030B5264B10201C78A4F13002092A1946F4
:1001980003F1010329D9214A00208B1A022B27DCFD
:1001A800002391422ED82E2C36D10131042400226E
:1001B8000D7802EB8202303D5200092D92B298BFB1
:1001C800521904F1FF349CBF013192B214F0FF04BC
:1001D800EED164214A43124901FB03230622B3FBF3
:1001E800F2F3104A02FB003001E00138CBD130BDF8
:1001F80000EB800012F8013B40003038184400F052
:10020800FF00CAE703EB830312F8015B5B00303B96
:100218002B4403F0FF03C4E70022DAE7300900208B
:1002280040420F008096980070B51B4C94F83C53E0
:1002380065B3D4F844630B68DFED186A9B1B07EEBF
:10024800103AB8EEC77A4B68D4F8486327EE267A96
:100258009B1B07EE903A80ED007A94EDD07A8B687C
:10026800012AF8EEE77A27EE267A18BFD4F84C234D
:1002780067EE877A18BF9B1AC0ED017A07EE903AAD
:10028800F8EEE77AC0ED027A284670BD00230360D5
:1002980043608360F8E700BF300900202C7D8E3F63
:1002A800F0B5114C014600200246264607464FF09D
:1002B8000A0CA35C03B9F0BD2E2B04D1013200292E
:1002C800F9D0A3185F54B55CA5F13003092B0CFBDA
:1002D80000F09CBFA0F13003E8180E2A01D80132C3
:1002E800E7E70020E7E700BF3009002007B5322321
:1002F8008DF800300368CDF801308388ADF80530FB
:10030800034B6846D3F88439984703B05DF804FB7B
:1003180030090020094BD3F8880910F080000BD071
:10032800D3F88C29920706D4D3F8900980F00800F6
:10033800C0F3C00070470120704700BF300900209B
:1003480007B510238DF80030054BADF80100D3F840
:100358008439CDF803106846984703B05DF804FB6C
:10036800300900200C4AD2F8A83910B519810021AB
:100378009981D2F8A019596019684C1C1C60087042
:10038800D2F8A839D2F8A0294FF6F67199811968E0
:10039800C3E9002110BD00BF30090020064B93F8C7
:1003A800BF29012A03D1054AC3F8EC297047022A5C
:1003B8000CBF034A034AF7E7300900200000002079
:1003C8000A0000201400002070B50028124D134EBA
:1003D800B8BF40423C22B0FBF6F305FB030002FB2A
:1003E80000F494FBF6F20E4E96F8B6699BB290B202
:1003F8007EB903EB830303EB830300EB83031BB298
:100408000B8005FB02424FF47A7392FBF3F24A80A9
:1004180070BDC3EB0313F0E7806967FF809698000F
:100428003009002000207047094A08B5D2E9003297
:10043800C01A61EB020127F03FFBDFED067A07EEF9
:10044800100A67EE277AFCEEE77A17EE900A08BDE5
:10045800201300206F12833A0B4B93F9642918215B
:1004680001FB023292F8B023082A0BD093F8070A4E
:10047800012808D0022806BFD3F8780AC0F3402024
:100488000020704701207047300900201FB54B68D5
:1004980001938B6802930122CB68039301A9FFF7AC
:1004A800C3FE05B05DF804FB044B187EDB7E002814
:1004B80018BF03200BB140F004007047300900203A
:1004C8003A4AD2F8903913F0040F134667D03849E6
:1004D800127C242000FB0212D289910565D45205B2
:1004E80008D593F96429182101FB023292F8B02348
:1004F800042A5AD093F8032A052A47D8DFE802F0DD
:10050800030A46152530D3F8DC22C3F87823C3F84C
:100518007C237047B3F8202A93EDB77A07EE902A28
:10052800F8EEE77A77EE877A0AE0D3EDDE7A93ED94
:10053800B77AF4EEC77AF1EE10FAD8BFF0EE477A40
:10054800C3EDDE7AC3EDDF7A7047B3F8202A93ED66
:10055800DC7A07EE902AF8EEE77A77EE877AE6E714
:10056800B3F8202A93EDDC7A07EE902AF8EEE77AC2
:1005780077EE877A93EDB77AF4EE477AF1EE10FAD0
:10058800C8BFB0EE677A83EDDE7ADBE7B3F8202ADE
:1005980093EDDC7A07EE902AF8EEE77AC2E7D2F814
:1005A800DC32C2F87833C2F87C3370473009002057
:1005B800F8C702080A4B93F80A0A78B11A7E62B99A
:1005C800D3F87C2AD3F83433D21A4FF47A735843C9
:1005D800824294BF0020012070470020704700BF6E
:1005E80030090020012303700023436303638363FE
:1005F8008362C362C363836103647047074A08B5B3
:1006080002F50070FFF7EEFF002382F8803AA2F8A7
:100618007A3902F684220023136008BD30090020CD
:10062800DFED137A80ED010AF4EEE70AF1EE10FA35
:10063800C0ED020A80ED031AC0ED051A13DDB4EE11
:10064800E70AF1EE10FA0EDD81EE007AC0EE207AAC
:10065800F0EE006A77EE877A86EEA77A80ED047A64
:1006680080ED092ABEE7002383600361F8E700BF35
:10067800BD378635324BA3F11C0210B5044607CAB4
:1006880083E807001846032C47D8DFE804F002087F
:10069800474B2C4BD3F87823C3F88C233DE0294BE8
:1006A800D3F88C29D3EDE07AD3EDDF5AD20649BFCF
:1006B800B3F8562ADFED246A06EE902AF8EEE66AC9
:1006C80077EEE66ADFED217AF4EEE76AF1EE10FAEA
:1006D80021DBD3EDE47AB8EE676AF7EE007A86EEAE
:1006E800267AB5EEC07AF1EE10FA11D4B4EE677A34
:1006F800F1EE10FAC8BFB0EE677A77EEC77AD3ED9D
:10070800DE6A67EEA57AE6EE877AC3EDE37A04E05F
:100718009FED0D7AF1E7C3EDE35A10BD094BD3F80D
:100728007C23B9E7074BB3F8222A002AF7D007EE53
:10073800902A93EDDC7AF8EEE77A77EE277AE4E709
:10074800B40C002030090020000000000000C8425E
:10075800054B197C814205D0242242431874034872
:10076800825C5A740846704730090020F8C70208AE
:10077800034B93F8F839002B0CBF02200020704778
:10078800300900200020704770B50F4B002193F905
:10079800510918240D46CAB2824208DB1A7E0AB1F2
:1007A800DB7E13B9FFF706FF58B9002070BD04FBC4
:1007B8000232013192F8B063062E08BFA2F8C45382
:1007C800E9E70A20F2E700BF300900200A4A92F957
:1007D8006439182101FB032191F8C613A52909D012
:1007E80092F9511901398B4204DA013382F86439DC
:1007F800022070470D207047300900200D4A92F9F9
:100808006439D2F87C1A182000FB0323B3F9C033EB
:10081800002B0CDDD2F8740950B14FF47A72081A23
:1008280013FB02F398422CBF0220002070470220DD
:10083800704700BF300900200A4A92F9643918212C
:1008480001FB032191F8C613A52909D092F9511982
:1008580001398B4204DA013382F864390020704789
:100868000D207047300900207047481E83B2032BC3
:100878001AD80E4B93F8882AB2B10D4A02EB8002BF
:10088800D3F89C0AD2F8C82482420DD3D3F8A00A20
:10089800824209D8C3F8B02AD3F8902AC3F8B41A08
:1008A80042F00202C3F8902A704700BF30090020C6
:1008B800F8C7020830B54C1EE3B2012B22D8501EEF
:1008C800C3B2072B1ED8104B93F8885AD5B100EB4A
:1008D800C4000E4C04EB4000D3F8944AB0F8D80496
:1008E800A0420FD3D3F8984AA0420BD8C3F8AC0A59
:1008F800D3F8900AC3F8A41A40F00100C3F8900A8C
:10090800C3F8A82A30BD00BF30090020F8C7020884
:1009180028B1044BD3F8E80A08B193F8880A00F024
:10092800010070473009002070B5FFF7F1FF00B3F0
:10093800104BD3F8AC2AD3F8A44AD3F8A85A8A6043
:10094800D3F8B42AD3F8B03A0B610B4B0C6003EB25
:10095800840603EB8503D6F8F8648E61074ED3F856
:100968000435A45DCA6030324D600C75CB6181F8E6
:10097800202070BD30090020F8C70208CD120308F6
:1009880010B5FFF7C5FF30B1034BD3F8B44A0C706C
:10099800D3F8B03A138010BD3009002008B5FFF72E
:1009A800B7FF18B1024BD3F8AC3A0B8008BD00BFB3
:1009B8003009002008B5FFF7ABFF08B100230B7022
:1009C80008BD08B5FFF7A4FF18B1024BD3F8B43A35
:1009D8000B7008BD3009002010B5FFF799FF30B142
:1009E800034BD3F8A44A0C70D3F8A83A137010BD7F
:1009F800300900200520704731B9044AD2F8FC3A82
:100A080043F00403C2F8FC3A704700BF30090020E5
:100A180048B1054BD3F85C0B28B193F8EC0A0228CF
:100A280094BF0020012070473009002070B5FFF7FF
:100A3800EFFFF8B1104BD3F8182BD3F80C4BD3F8C1
:100A4800105B8A60D3F8142BD3F81C3B0B610B4B5B
:100A58000C6003EB840403EB8503D4F82845CA60D3
:100A68004D602678D3F840350E7530328C61CB61F5
:100A780081F8202070BD00BF30090020F8C70208A7
:100A880010B5FFF7C5FF30B1034BD3F8144B0C700A
:100A9800D3F81C3B138010BD3009002008B5FFF7C0
:100AA800B7FF18B1024BD3F8183B0B8008BD00BF45
:100AB8003009002008B5FFF7ABFF18B1024B93F8D7
:100AC8002C3B0B7008BD00BF3009002008B5FFF7AC
:100AD8009FFF18B1024BD3F8143B0B7008BD00BF41
:100AE8003009002010B5FFF793FF30B1034BD3F85E
:100AF8000C4B0C70D3F8103B137010BD300900205C
:100B080008B5FFF785FFE0B1D9B10E4BD3F8302B0C
:100B1800914216DC01F10042013AD3F8340B30F867
:100B28001200D3F8082B904294BFC3F81C0BC3F8EB
:100B38001C2BD3F8FC2AC3F8141B42F00202C3F89A
:100B4800FC2A08BD3009002010B5FFF761FF18B373
:100B5800481EC3B2042B20D8531EDCB2072C1CD865
:100B680003EBC0030E4800EB4303B3F864050D4BD9
:100B7800D3F8004BA0420FD3D3F8044BA0420BD8B4
:100B8800C3F8102BD3F8FC2AC3F80C1B42F001025F
:100B9800C3F8180BC3F8FC2A10BD0020E7E700BF14
:100BA800F8C7020830090020042070472A4A92F842
:100BB800491B7229134603D076293CD00020704780
:100BC800B2F84A0BB3F84E1BC2F8000BB2F84C2B24
:100BD800C3F8042BC3F8081B0028F0D09042EDD2CC
:100BE800B3F8682B0AB1C3F8082BB3F8081B1B4AE3
:100BF800B1F5487F0BD31A49C3F8341B05200C31D3
:100C0800C3F8300B82F82600116301207047B1F554
:100C1800167F01D31349EFE7B1F5C87F04D3124912
:100C2800C3F8341B0420EAE7C729F3D90F49C3F8EE
:100C3800341B0320E3E7B2F84A3BC2F8203BB2F882
:100C48004C3BC2F8243B92F84F3B003B18BF0123B2
:100C580082F82C3B02207047300900200000002059
:100C6800ACCD0208D0CD0208F4CD020818CE020897
:100C7800034BD3F87C2AC3F8F02A83F8EC0A7047B0
:100C88003009002028B1034B93F93A00003818BF07
:100C9800012070470000002010B5FFF7F3FF30B1C6
:100CA800144B93F83B20D20702D59B8F0B8010BDC5
:100CB80093F93930002B1A46B8BFDA1DC2F3C702C0
:100CC800042A15D85C4204F0070403F0070358BF50
:100CD8006342DBB2072B0BD801320133D2B2DBB24D
:100CE80003EBC203044A02EB4303B3F85235DDE7D2
:100CF8000023DBE700000020F8C7020808B5FFF76B
:100D0800C1FF50B1054B93F83820012A9DBF93F8D5
:100D18003B30C3F340030B70002008BD00000020E7
:100D280038B5FFF7AFFF78B10D4A92F8383092F92D
:100D38003A40012B11D192F842304432013B5D1CFC
:100D480003D10023DBB20B7038BD02EBC305B5F944
:100D58000450AC42F6DA013BF1E7E3B2F3E700BF37
:100D68000000002037B50D460DF107011446FFF7C6
:100D7800D7FF40B19DF807302B701BB1034A02EB37
:100D8800C3039B8F238003B030BD00BF0000002049
:100D980010B5FFF777FFB8B10D4C94F9393094F8D6
:100DA8003B40E40711D4002B1C46B8BFDC1DE410FF
:100DB8000134E4B20C70594201F0070103F0070353
:100DC80058BF4B420133137010BD0024F2E700BF37
:100DD8000000002073B50C460DF101020DF102016F
:100DE8000546FFF7D5FF10B9002002B070BD01A974
:100DF8002846FFF751FF0028F6D00DF106020DF145
:100E080003012846FFF7AEFF0028EDD0BDF8062005
:100E18009DF8021022610D4A9DF80150216002EBF5
:100E28008101BDF80430D1F82815A36002EB8502D2
:100E38009DF80330E36065600E78D2F8402526758A
:100E48003033A161E26184F82030CEE7F8C70208A8
:100E58000320704770B50B4A92F86A3B06255E1C62
:100E6800B6FBF5F405FB146492F86B5BAC421FBF4C
:100E780002EBC30382F86A4BC3F86C0BC3F8701B10
:100E880070BD00BF30090020002230B5044610466E
:100E9800914200DC30BDA35C0825584010F0800F5B
:100EA8004FEA400318BF83F0D503013DD8B2F5D10E
:100EB8000132EDE710B5FFF7E5FE50B349B3154C25
:100EC80094F842308B4224D394F838300139022BFD
:100ED800C9B20AD0032B15D0012B08D104EBC101EC
:100EE800B1F8483084F8703001E084F870100521BA
:100EF8000948FFF7C9FF062184F87100BDE81040D2
:100F08000548A7E704EBC10191F8483063F07F0377
:100F1800E8E710BD000000206C0000200139C9B2CC
:100F2800042910B515D8013AD2B2072A11D8094CAC
:100F380002EBC10204F17200052184F87620FFF764
:100F4800A3FF062184F8770004F17200BDE8104081
:100F580080E710BD0000002010B50D4C40F00802DD
:100F680084F87C2094F83820022A06D9420704D550
:100F780083071CBF012384F8403005210548FFF78B
:100F880083FF062184F87D00BDE81040014861E731
:100F9800000000207800002010B5FFF773FE00283D
:100FA80033D01A4C94F838307BB351B3022B2CD978
:100FB80094F8403093B969B180230521144884F826
:100FC8008230FFF761FF062184F88300BDE81040F6
:100FD8000F483FE70420BDE81040BDE7002914BFD3
:100FE8000020042094F83B301A0748BF40F0020064
:100FF8005B0703D40029EED00028ECD140F00100B3
:10100800E9E7022BD4D80420ECE710BD000000204B
:101018007E00002030B51E4AA8B1B2F89C3B1D4C9A
:10102800032B4FEA530096BF48F20503A2F89C0B26
:10103800A2F89C3BD1E900301B194FF0000444EBA7
:101048000000C1E90030B2F89C3B13F0010306D15F
:10105800114901F5C27492F8340E834200DB30BDA9
:1010680051F8040BC0F30535400406D428070CD505
:10107800D2F8200D0B382B2807D892F8180D02EB60
:101088008000D0F8B00C44F823000133E3E700BF38
:1010980030090020A0860100D01400202DE9F0437B
:1010A8002E4B2F4C18B393F88420F02A34D97F2282
:1010B80093F9850083F8842094F8362E824201DD66
:1010C800002804DA93F88620524283F8862093F8A1
:1010D8008620024483F88520D1E9002044F21A15BD
:1010E80052194FF0000545EB0000C1E9002093F8C4
:1010F800840094F8345E1B4C93F9856093F98670EC
:101108000022C0F1FF0EA0F17F0C114604F5C27851
:10111800954205D8BDE8F0830F3283F88420DBE7D9
:1011280054F8043B9B0412D5CBB29B1B83EAE379AA
:10113800A9EBE379B9F1010F0BDC63B1BB4214BF32
:101148007346634608EB8209013189F8033001329E
:10115800DEE70823F6E70346F4E700BF00000020B7
:1011680030090020D0140020F0B5244A90B192F83C
:10117800383ECBB1D1E90045013BDBB2D2F8200DB6
:1011880082F8383E1E4B93FBF0F3E41845EBE37509
:10119800C1E900451B4E0024254606F5C27792F8A2
:1011A800343EA34203DCF0BD92F8373EE2E756F83E
:1011B800041BC1F30323062B1AD1D2F890395B071D
:1011C80018D592F8383E92F837CE5819B0FBFCF390
:1011D8000CFB1303012BCCBF002301233BB1C1F34C
:1011E800834102EB8101D1F8B00C47F824000135A6
:1011F8000134D4E7EB4303F00103EFE730090020A3
:1012080080841E00D01400200A4A70B50023A2F57D
:101218003A6502F5C27695F8344E9C4200DC70BD02
:1012280052F8044B30EA040404BF0C6846F8234023
:101238000133F0E7D014002030B4214B93F8444E2A
:1012480078B193F8742EDAB1013A83F8742ED1E9A3
:1012580000201C4D52194FF0000545EB0000C1E974
:10126800002019491CB1D3F8782E140616D493F827
:10127800193D443330BC01EB83014FF4A060C3E750
:1012880093F8750E651EA842B5BF013083F8752E18
:1012980083F8750E0422B8BF0122D6E7D3F88C096B
:1012A80093F8742E800706D512B993F81B3DE0E732
:1012B80093F8173DDDE7002AD9D193F81A3DD8E70E
:1012C80030090020801A0600D014002030B41A4AD1
:1012D800D8B1B2F87C0E642343434CF6CC30834239
:1012E80020DD002382F87E3E0123D1E9004592F8F3
:1012F8007E0E80F0010082F87E0E1048B0FBF3F3FA
:10130800E41845EBE375C1E9004592F87E3E83B9E0
:1013180092F8173D0A49443330BC01EB83014FF47E
:10132800806071E745F2EA308342CCBF022308238C
:10133800DBE730BC704700BF3009002040420F0097
:10134800D014002030B4164BB0B193F87F2E02B3FE
:10135800012A14BF08240224124AB2FBF4F2D1E98C
:101368000045A41893F8800E45EBE275C1E90045E5
:1013780080F0010083F8800E93F8802E6AB993F804
:10138800173D0949443330BC01EB83014FF44070E9
:101398003AE783F8802E0124DEE730BC704700BFAF
:1013A8003009002040420F00D01400207047084B3D
:1013B800002283F8812EC3F88C2EC3F8882EC3F838
:1013C800A42EC3F8A02EC3F8BC2EC3F8B82E7047BD
:1013D8003009002038B504464FF48872002104F51E
:1013E80088752BF08CF93822002128462BF087F9D4
:1013F8000B4A002352F8230045F8230001330E2B33
:10140800F8D10849242204F5A8702AF08DFF04F5C4
:10141800BA700549BDE838400B222AF085BF00BFE5
:101428003CCE020874CE020898CE0208F8B5134CD8
:101438000546D4F8D00E03791E3B012B02D90021B2
:101448001EF0B2F90E4F0026AE42D4F8D00E0FDBD4
:1014580000211EF0A9F9D4F87C3AC4F8F83E094BEB
:1014680000225A60B4F8003F0133A4F8003FF8BDE9
:1014780017F8011B1EF098F90136E5E7300900203E
:10148800041800202818002038B5154C94F86B3B38
:1014980094F86A2B9A421CD004EBC30304F6D46177
:1014A800D3F86C2BD3F8700B0023984212DC937896
:1014B800C4F8100F5B0884F8143FFFF7B7FF94F8DF
:1014C8006B3B06210133B3FBF1F201FB123384F8C5
:1014D8006B3B38BDD55C01F8015B0133E5E700BF24
:1014E80030090020F8B500220D464FF6FF73023987
:1014F8008A4210D346194354094F1B0A06F8013C87
:10150800044614F8011BD7F8180F1EF04DF9A6422F
:10151800F7D1E8B2F8BD845C1B1B9BB20132E7E748
:101528003009002007B50B1408228DF8043060F04C
:101538005F000B0E8DF80100ADF802108DF8053034
:101548001146002368468DF80020ADF80630FFF7F5
:10155800C9FF03B05DF804FB07B5062360F05F0020
:101568008DF80100ADF802100022194668468DF882
:101578000030ADF80420FFF7B5FF03B05DF804FBB9
:10158800014610B50A4C5E29D4F81C0F09D15D211B
:101598001EF00AF93E21D4F81C0FBDE810401EF0D9
:1015A80003B95D29F9D11EF0FFF83D21F3E700BF2B
:1015B8003009002070B51D4D95F83C332DED028B98
:1015C80004460E4663B3D5F844330360D5F8483370
:1015D800436095EDD08AD5F84C338360DFED148AEB
:1015E80096ED000A80EE280A28F0BCFE236818440D
:1015F800206028EE288A96ED010A80EE080A28F075
:10160800B1FE63681844606096ED020A28F0AAFEED
:10161800BDEC028BA3681844A06095F83C0370BD2C
:10162800C0E900338360B7EE008AD7E730090020AD
:101638002C7D8E3F10B50A4C04F55A7104F5726082
:10164800FFF7B8FF6421D4F89023D4F89433B2FBA1
:10165800F1F293FBF1F3C4F82C2FA4F8303F10BD3E
:101668003009002012F0010F70B51E4C0FD006682B
:1016780094F86453C4F868634668C4F86C63DE077A
:101688004CBF45F0010525F0010584F86453950722
:101698000CD594F864238068C4F8700398074CBF8D
:1016A80042F0020222F0020284F864235B0794F8F5
:1016B8006423C4F8741302D402F0FB0201E042F080
:1016C80004020023C4E9E43384F86423FEF7F8FE37
:1016D800FFF7B0FFD4F88C3943F00103C4F88C3914
:1016E80070BD00BF30090020022803D0431E5842B5
:1016F80058417047054B93F8B42912B1102011F0E6
:101708003DBAD3F89009C0F3800070473009002033
:1017180010B5134BD3F8343F93F88830012B19D008
:10172800022B1AD10F4BB3F904200F4B12F1FA0F09
:101738000CDA012283F8872093F98740282011F0DA
:101748001DFA08B1644264B2204610BDFA2AF3DDDE
:10175800FF22EFE74FF0FF34F0E70124EEE700BF88
:1017680030090020000000100000002008B5064BDA
:10177800D3F88C39DB0605D4182011F0FFF900F0F6
:10178800010008BD0020FAE73009002038B5174CE1
:101798000F2384F8C03A84F8C10A04F6C222F9B1CA
:1017A8000B68C4F8C23A4B6853608B689360104A60
:1017B800002312F8011B013308440C2BC0B2F8D1E6
:1017C800002584F8CE0A0B49D4F8E80A84F8CF5AE1
:1017D80010221DF0ECFF84F8E45AC4F8E05A38BD32
:1017E800C4F8C21A51609160E1E700BF30090020D7
:1017F800F2130020F013002038B5124B00220F24FA
:1018080083F8384BA3F83A1BC3F83C2BC3F8402B9A
:10181800C3F8442B83F8390B0D2503F639311C46E0
:1018280011F8013B013D1A44D2B2F9D184F8462B94
:101838000549D4F85C0B10221DF0B9FFC4F8585BB9
:1018480038BD00BF300900206814002038B50D4CA1
:10185800D4F88C3913F0100503D0BDE838401DF0DA
:1018680093BE1DF091FE04F63873C3E9000104F538
:10187800746300200021C3E90001C4F8485FC4F87C
:101888004C5F38BD3009002008B51DF07DFE054BC2
:10189800012283F8F82903F51F63C3E90001022038
:1018A80008BD00BF3009002070B50C4C0546B4F8DF
:1018B800606A10F01DF886422246094E04DD1DB903
:1018C800B4F8603AF38070BDD2F88C3943F08003E5
:1018D800C2F88C3910F00CF8F080F4E730090020D9
:1018E8000000001008B50020FFF7DEFF002008BD4B
:1018F800F7B50746019112F0CCFA274E0446B6F820
:10190800685A002844D101993846FEF78DFDA8424F
:1019180040D807EE900AB6F8623AB8EEE77A07EED2
:10192800905AF8EE676A07EE903A1C4BB3F9062016
:10193800F8EE675A07EE902AF8EEE77A204677EE37
:10194800E57A67EE877A87EEA66A76EE257AFDEE67
:10195800E77A17EE902ADA8096F8702AB3F90230FF
:1019680007EE902AB8EE676A07EE903AF8EEE77A43
:1019780077EEC67A67EE877A87EEA67A77EE067AEA
:10198800FCEEE77A17EE903A86F8F93903B0F0BD25
:101998000320FBE70120F9E73009002000000010D0
:1019A80010B5194604461046FEF73EFD064BB3F83F
:1019B8006A3A2044984204D912F06BFA00F0010008
:1019C80010BD0020FAE700BF300900202DE9F743D9
:1019D800DFF890800191024604460B46B8F8640A85
:1019E800FFF7DEFF0546D0BB20460199DFF8789067
:1019F800FEF71AFDB8F8667AB8F8624A87420646D2
:101A080005D2A9F80640012003B0BDE8F0830FF025
:101A18006FFFB8F8603A8342B8BF03469BB207EE3F
:101A2800903A07EE104AF8EE677AB8EE477A06EE73
:101A3800906A37EE677AF8EEE66A284627EE267A45
:101A480006EE907AB8EE666AC7EE066A76EEA77A70
:101A5800FDEEE77A17EE903AA9F80630D4E70320AE
:101A6800D2E700BF300900200000001038B5054655
:101A78000C460020FFF718FF2A4623460020FFF7F0
:101A88008FFF58B928462146FEF7CEFC044BB3F821
:101A9800643A984294BF0020012038BD0320FCE737
:101AA800300900202DE9F04107462DED048B002078
:101AB8000E4611F061FF002868D0354B9FED357A4E
:101AC800D3ED047A344DD3ED058AF0EEE76AF4EEEF
:101AD800C76AF1EE10FACABF93ED067A9FED2F9A06
:101AE80087EE279A10F004F995F8713AB0EE408A1B
:101AF80000EE103ADFED2A7AB8EEC00A20EE270A87
:101B080022F03CFBB5F85C3A07EE903AF8EEE77A3B
:101B1800F4EEE78AF1EE10FA2EDDB4EEC08AF1EEAB
:101B280010FAACBF01240024B5F85A3A07EE903AEF
:101B3800F8EEE77AF4EEC97AF1EE10FA1ED5F5EE72
:101B4800C08AF1EE10FACCBF4FF001084FF0000840
:101B58000020FFF7A9FE54EA080412D0384631469F
:101B6800FEF762FCB5F85E4AA04294BF002001204F
:101B7800BDEC048BBDE8F0810024D5E74FF00008E8
:101B8800E6E7084B2046C3E90076F1E70420EFE7D3
:101B980000000010F366DF3F30090020000000005D
:101BA80035FA8E3C2013002010B52DED028B82B043
:101BB80004460020019111F0DFFE002846D001996B
:101BC8002046FEF731FC40F2DC53984207D900204A
:101BD800FFF76AFE012002B0BDEC028B10BD07EED4
:101BE800900AB8EEE78A0FF083FE194A9FED196A4A
:101BF800B2F8603A07EE900AF8EEE76A07EE903A14
:101C0800F8EE677A144B77EEE67A002067EE887A6A
:101C180087EE867A77EE267A9FED107AFDEEE77AE0
:101C280017EE901AD98092F8703A07EE903AF8EECB
:101C3800677A27EE888AC8EE067A77EE877AFCEE0E
:101C4800E77A17EE903A82F8F939C4E70420C2E738
:101C5800300900200080BB44000000100000000094
:101C680038B5002011F088FE0B4D044660B1B5F878
:101C7800604A0FF03DFE84420CDC95F8703A85F816
:101C8800F9390224204638BD0120FFF70DFE85F8FA
:101C9800F949F7E70124F5E73009002038B5154D73
:101CA8001DF072FC95F8F839042B09D1052385F845
:101CB800F839C5F8F009C5F8F4190224204638BDEA
:101CC800D5F8884914F08044F8D0002011F054FE6B
:101CD800044668B912F0DDF80028EFD085F8F84915
:101CE800002205F51F650023C5E900230424E5E764
:101CF8000024E3E73009002008B50FF095FC022026
:101D080008BD124B93F96429182101FB023090F8A1
:101D1800B0030138072805D8DFE800F015040F06DE
:101D2800040404040C20704701FB0233B3F9C033E8
:101D3800002B14BF0C2002207047D3F87C2AC3F86C
:101D480074290E2070470220704700BF3009002018
:101D580008B5064BD3F88C29920202D593F8063AB7
:101D680013B107201BF012FB022008BD3009002028
:101D7800F8B5284C2546D4F8E80A1DF012FD0028CD
:101D880047D094F8E43A0BB1002042E0D4F8E80ACE
:101D98001DF001FDD4F8E03A3BB90F28EBD101233F
:101DA800C4F8E03A84F8D00AE5E70F2B9FBF5A1C25
:101DB8001B19C4F8E02A83F8D00AD5F8E03A102BAA
:101DC800D9D195F8D03A0F2B15D195F8D13A95F885
:101DD800C12A9A420FD195F8DF2A62B90E4995F8BF
:101DE800DE6A084611F8017B01323B440C2ADBB25B
:101DF800F8D19E4205D0002385F8E43AC5F8E03AC8
:101E0800B9E706492AF053FC0028F4D0012085F8E8
:101E1800E40AF8BD3009002002140020F213002063
:101E28007FB5934CD4F8503F40F2071293427AD0D2
:101E3800B3F5847F0EDA002B3AD0F52B4AD0D4F8CC
:101E4800503F002BBEBF0023C4F8543FC4F8503F96
:101E580004B070BD40F20D12934200F0B88040F219
:101E68001B129342EBD194F8E43A002B00F0E18086
:101E78000021B4F8D23AC4F88C1AD4F8AC1AB4F8E1
:101E8800D42AC4F8B83A8B42C4F8BC2A40F0E98096
:101E9800D4F8B03A9A4205D0D4F8903A43F0020305
:101EA800C4F8903A94F8883A002B00F0A2802CE00D
:101EB80084F8883A00217220FFF768FC6D4BD4F84B
:101EC8007C2A9A600022DA60FA23C4F8603FF5237E
:101ED800C4F8503F94F8E43A002B41D0B4F8D23A11
:101EE800C4F8943AB4F8D43AC4F8983A0023C4F839
:101EF8009C3AB4F8D63AC4F8A03A012384F8883A50
:101F08000023C4F88C3AC4F8903A5A4BD4F87C2A87
:101F18009A600022DA604FF47A73C4F8603F40F2A6
:101F28000713C4F8503FD4F8905A7DBB514ED4F8EB
:101F38007C3AB2689B1AD4F8602F93427FF77FAF40
:101F480029467620FFF722FCD4F87C3AC6E9023508
:101F5800FA23C4F8603F40F21B13C4F8503F82E7ED
:101F6800FFF706FF48B9434AD4F87C3A92689B1AAF
:101F7800D4F8602F93427FF762AF94F8E43A002BCD
:101F8800ACD194F8883A002BBAD193E715F0010345
:101F980037D0B4F8AC3A002501A94620CDE901555F
:101FA8000395ADF80430FFF7F1FBD4F8903AD4F874
:101FB8007C2A23F00103C4F8903A2E4BC3E902258A
:101FC800FA23C4F8603F40F20D13C4F8503F294A81
:101FD800D4F87C3A92689B1AD4F8602F93427FF722
:101FE8002EAFD4F88C3A022B7FF75CAF002384F82D
:101FF800883A0023C4F8543F4FF0FF33C4F8503FE9
:102008001DE715F0020511D0B4F8B02A039301A911
:102018005020CDE90133ADF80420FFF7B7FBD4F821
:10202800903A23F00203C4F8903ADAE7C4F8905AD9
:10203800D7E7FFF79DFE48B90E4AD4F87C3A926874
:102048009B1AD4F8602F93427FF7F9AE94F8E43ADC
:10205800002B7FF40DAFD4F88C3A0133C4F88C3AD6
:10206800BFE7D4F8903A43F00103C4F8903A0FE779
:10207800300900208018002070B5284C2546D4F877
:102088005C0B1DF08EFB002847D0D4F85C0B1DF0CC
:1020980082FBD4F8583B3BB90F28F0D10123C4F890
:1020A800583B84F8480BEAE7012B10D1A0F17203E2
:1020B800DBB2012B01D9762805D10223C5F8583B9C
:1020C80085F8490BDBE70023C5F8583BD7E70F2B0A
:1020D8009FBF5A1C1B19C4F8582B83F8480BD5F816
:1020E800583B102BCBD195F8560B0D490D220023E8
:1020F80011F8016B013A3344DBB2F9D19842E2D1CD
:1021080095F8573B002BDED106481022A0F11001AC
:102118002AF0CDFA0028D6D0012070BD3009002061
:10212800791400207814002010B5554CD4F85C3B85
:10213800002B5AD094F8EC3A062B56D8DFE803F077
:10214800040E142A565E68000023C4F8F83AC4F84E
:10215800FC3A0120BDE81040FEF78ABD722000213C
:10216800FFF74AFB0220F5E7FFF786FF40B1FEF7CD
:102178001DFD01280CD10023C4F8F83A0520E9E731
:10218800D4F87C3AD4F8F02A9B1AB3F57A7F2CD984
:102198000020DFE7D4F8FC3AFBB1590709D523F052
:1021A8000403C4F8FC3A00217320FFF725FB042040
:1021B800D0E7DA0707D523F00103B4F8181BC4F8F1
:1021C800FC3A4620F1E798070FD523F00203B4F84C
:1021D8001C1BC4F8FC3A5020E7E7D4F87C3AD4F842
:1021E800F42A9B1AB3F5FA6FC8D810BDD4F87C3A14
:1021F800D4F8F02A9B1AB3F57A7FF5E77620002108
:10220800FFF7FAFAD4F87C3AC4F8F43A0620A1E7C2
:10221800FFF732FF20B30023C4F8F83AFEF7C6FCF4
:102228000228ABD1D4F8FC3AD90709D4D4F8201B3A
:10223800D4F8182B91421CBF43F00103C4F8FC3AB0
:10224800D4F8FC3A9A0709D4D4F8241BD4F81C2BE8
:1022580091421CBF43F00203C4F8FC3A032079E71B
:10226800D4F87C3AD4F8F02A9B1AB3F57A7FBCD913
:10227800D4F8F83A0133032BC4F8F83A88DC7DE740
:1022880030090020F7B5464C94F8683F07460E46DB
:10229800002B4FD1D4F86C5F002D4BD0B4F8602BD5
:1022A80094F8623BA4F8702FD4F8902984F8723F10
:1022B800B4F8643BA4F8743F500794F8663B94F86C
:1022C800601B84F8763F0BD494F8800F40B9012B3B
:1022D80003D0022B04D1130702D4012384F8723FE0
:1022E80094F8B03F012B27D0022B43D083B92B6839
:1022F800DB696BB10DF107012846984740B194F8A6
:10230800721F9DF807308B4202D028461DF011F944
:102318002B68196819B13A4633462846884794F815
:10232800B03F03220133B3FBF2F202EB42029B1AE5
:1023380084F8B03F03B0F0BD0029E9D02B689B6951
:10234800002BE5D00DF107020DF10601284698474C
:102358000028DDD094F8701F9DF8063094F8712F8E
:102368008B4203D19DF807309342D1D028461DF007
:10237800EEF8CDE70DF1070128461DF0CDF800284D
:10238800C6D094F8B13F002BC2D09DF80730002189
:1023980084F8B11F002BBBD028461DF0C4F8B7E75E
:1023A8003009002038B5374C0D4600283ED094F847
:1023B800B23F013303F00F0384F8B23F63BB84F8E4
:1023C800B33FD4F88839990705D594F87F3E13B1FF
:1023D800022384F8B33F94F8803F2BB194F8B33FBD
:1023E80043F0040384F8B33FD4F890395A070AD469
:1023F80023F0704323F07F032BB194F8B33F43F0ED
:10240800010384F8B33F0BF0E1F828B994F8B33F1F
:1024180043F0080384F8B33FD5E900321A495B1842
:102428004FF0000141EB0202C5E9003294F8B33FD6
:1024380033B394F8B21F8A081341DB0720D501F0A3
:102448000101032A1CD8DFE802F0020F13170F4B13
:1024580003F11802002914BF194611464FF4003041
:10246800BDE83840FEF7D0BE084B03F10802F1E79B
:10247800074BA3F11802EDE7044B03F12802E9E743
:1024880038BD00BF30090020A08601003CCE0208FC
:1024980064CE020810B5054C94F8B43F23B109F096
:1024A80029F9002384F8B43F10BD00BF300900208B
:1024B8002DE9F041B14CD4F8883E002B00F027817B
:1024C80040F21112934200F02681BDE8F0812A28DB
:1024D80002D02C2840F03C8194F8DD3F94F8DC8F42
:1024E8000022E254B8F1000F31D1A549A34884F87D
:1024F800DF8F24F02BFD20B1A249A04824F026FD4F
:10250800C0B9012384F8DF3F08F1010800232A2F0E
:1025180084F8DC8F84F8DD3F40F02681012305F83C
:10252800F43C01E1002384F8DC3F84F8DD3F84F8C3
:10253800DE3FF9E09449914824F008FD28B1934919
:102548008E4824F003FD0028DED10223DAE794F850
:10255800DF3F012B1AD0022BD6D108F1FF33082B0D
:10256800D2D801A252F823F01F260008112500082E
:10257800112500081125000811250008112500085B
:102588002B2600084526000851260008A8F102035A
:10259800072BB9D8DFE803F00409121720282E37D3
:1025A800FDF7EEFDC4F8E40FAEE72378532BABD16B
:1025B800D4F8E43F5B42C4F8E43FA5E7FDF7E0FD4B
:1025C800C4F8E80FA0E72378572B9DD1D4F8E83F4B
:1025D8005B42C4F8E83F97E72378302B8CBF012390
:1025E800002384F8E03F8FE70020FDF759FE84F8C8
:1025F800EC0F89E70120FDF753FE00EB8000400057
:10260800A4F8F80F80E70120FDF74AFE0A23584393
:10261800C4F8F00F78E70220FDF742FEC4F8FC0F7B
:1026280072E70120FDF73CFE41F2184358434FF48E
:102638007A73B0FBF3F0A4F8F40F65E70120FDF717
:102648002FFEA4F8F60F5FE70020FDF729FE3060A3
:102658005AE715F8F43C002B66D023786278402BB3
:1026680085BF373B1B011B01DBB298BF03F0F003AA
:10267800402A8CBF373A303AD2B2134494F8DE2F4E
:10268800DBB29A4240F0D38055F8E43C013345F878
:10269800E43C94F8DF3F012B03D0022B7CD00023CD
:1026A8003DE794F8EC3F84F8443E94F8E03F002B73
:1026B80060D0022384F8433ED4F8E43FC4F8483E8F
:1026C800D4F8E83FC4F84C3ED4F8F03FC4F8503E84
:1026D800B4F8F83F42F20F72194693424FEA4303A7
:1026E80028BF1146934228BF13469BB2A4F8643E04
:1026F800A4F8663E0023A4F8681E84F8413E00232F
:1027080005F8F43CA4F83E3E012384F8813E40F2EB
:102718001113C4F8883ED4F8C00F1DF042F8002801
:102728003FF4D3AE1A4D1B4ED4F8C00F1DF039F844
:102738000028ECD0D4F8C00F1DF02DF82428074647
:102748003FF4F0AE3FF6C3AE0A2882D00D2880D001
:1027580094F8DD3F0E2BE7D85A1CE75415F8F43CE3
:1027680084F8DD2F002BDFD194F8DE0F474084F882
:10277800DE7FD9E784F8433EC1E700BF3009002077
:10278800D1120308D7120308DD120308E312030865
:10279800281A0020301900203168D4F8F43FC4F812
:1027A800603E00293FD0D4F8FC2FE2B36423B1FB8C
:1027B800F3F703FB171000F5FA60A4F86A0EB7FBED
:1027C800F3F003FB107084F86C0E42F21070B1FB4A
:1027D800F0F1B1FBF3F703FB171184F86D1E1749ED
:1027E800B2FBF1F1B1FBF3F703FB171184F86E1E8E
:1027F800B2FBF0F1B1FBF3F003FB1011B2FBF3F005
:1028080002F0640284F86F1E02EB8202B0FBF3F15F
:1028180003FB110384F8703E52000123A4F8722EC2
:1028280084F8423E3BE7002384F8423E77E655F8B9
:10283800EC3C013345F8EC3C31E700BF40420F0067
:1028480010B53C4CFFF734FED4F8A03EB3F5C97F71
:1028580050D011DC40F28D12DBB193421BD0D4F87A
:10286800883E002B03DBD4F8A03E002B60DABDE8DD
:102878001040032008F094BFB3F5D07FEFD194F84F
:10288800813E002BEBD0002384F8813E08F032FF14
:102898003DE0C4F8A02ED4F8C00F1CF057FF002864
:1028A800DDD0D4F8B83FD4F8C00FDA78224B9AB309
:1028B80094F8CA2F1A4492F8F02603EB8203D3F84F
:1028C800AC161CF065FF94F8CA3F06210133B3FB30
:1028D800F1F201FB123384F8CA3F184BD4F87C2A72
:1028E8009A600022DA606423C4F8B03E4FF4C973DA
:1028F800C4F8A03E114AD4F87C3A92689B1AD4F8DE
:10290800B02E9342ABDD4FF47A7008F0E7FE4FF437
:10291800D073C4F8A03EB2E794F8C92F1A4492F8CD
:10292800F02603EB8203D3F8AC161CF031FFEAE77C
:1029380010BD00BF30090020F8C70208D0170020DA
:1029480038B5B74CFFF7B4FDD4F8B83EB3F5B27F4D
:102958006FDAB3F5AC7F21DC40F23F12934200F00E
:10296800C680B3F5A07F37DA40F23112934200F007
:10297800818040F235118B4200F08C80002B77D09B
:10298800D4F8883E002B04DBD4F8B83E002B80F244
:102998004581BDE83840032008F002BF6FF4AC72EF
:1029A80013440A2BECD801A252F823F0B72B0008E5
:1029B8008929000889290008D72B000889290008D7
:1029C8008929000889290008072C00088929000896
:1029D80089290008D72B0008B3F5A87F00F0C2802A
:1029E800B3F5AA7F00F0CE8040F245129342C7D1DA
:1029F8008C4AD4F87C3A92689B1AD4F8C82E934231
:102A0800BEDDD4F8B83F9B78002B40F0A2804FF48D
:102A18007A7008F063FE4FF4BA73C4F8B83E94F8BD
:102A2800813E002BACD0002384F8813E08F062FE82
:102A3800F1E7B3F5B67F14D0B3F5BA7FEFD0B3F5AD
:102A4800B47F9DD1D4F8C00F1CF080FE002897D029
:102A58007549D4F8C00F1CF0CBFE4FF4B673C4F818
:102A6800B83ED4F8C00F1CF071FE0028CFD187E71C
:102A7800C4F8B82ED4F8C00F1CF068FE00283FF444
:102A88007FAFD4F8B83FDB78002B53D040F2351332
:102A9800C4F8B83ED4F8C00F1CF058FE00283FF424
:102AA8006FAF624D94F8CA3FD4F8C00F2B4493F827
:102AB800F03605EB8303D3F8AC161CF069FE94F8E6
:102AC800CA3FD4F8C00F06210133B3FBF1F201FB72
:102AD800123384F8CA3F94F8C93F05EB8305D5F84B
:102AE800F8161CF085FE40F23F13C4F8B83ED4F83F
:102AF800C00F1CF02BFE00283FF442AF4B4B94F85C
:102B0800C92FD4F8C00F1A4492F8F02603EB8203B9
:102B1800D3F8AC161CF03CFE424BD4F87C2A9A60E1
:102B28000022DA606423C4F8C83E40F24513C4F8B2
:102B3800B83E5DE73D4B94F8C92FD4F8C00F1A444E
:102B480092F8F02603EB8203D3F8AC161CF020FEB3
:102B580057E73749D4F8C00F1CF04AFE4FF4A87362
:102B6800C4F8B83ED4F8C00F1CF0F0FD00283FF4BC
:102B780007AF3049D4F8C00F1CF03AFE4FF4AA73DF
:102B8800C4F8B83ED4F8C00F1CF0E0FD00283FF4AC
:102B9800F7AED4F8B83FD4F8C00F5B78052B27D030
:102BA80025491CF025FE40F25913C4F8B83ED4F864
:102BB800C00F1CF0CBFD00283FF4E2AE1F49D4F84B
:102BC800C00F1CF015FE4FF4AE73C4F8B83ED4F82D
:102BD800C00F1CF0BBFD00283FF4D2AE1849D4F852
:102BE800C00F1CF005FE4FF4B473C4F8B83E29E7D3
:102BF80014491CF0FDFD4FF4B073C4F8B83ED4F886
:102C0800C00F1CF0A3FD00283FF4BAAE0E49D4F85B
:102C1800C00F1CF0EDFD40F26313D6E738BD00BFCE
:102C280030090020E81700207F130308F8C70208BE
:102C3800E91203081D1303082D1303083D130308A5
:102C48004D1303085F1303086F1303084209012398
:102C580000F01F00022A03FA00F008D0032A0BD064
:102C68009A420DD1074B5A69104358617047054B7A
:102C78009A69104398617047024BDA691043D8612A
:102C8800704700BF0010024070B583890A444FF4B2
:102C98007A734FF6FF74FF25914201D1012016E0A7
:102CA8000689B6070AD505734FF47A730689F607BD
:102CB8000ED4013B9BB2A342F8D103E0013B9BB287
:102CC800A342EDD124F00EF8003818BF012070BDE2
:102CD800067B01F8016BDFE72DE9F341044618078D
:102CE8009DF820700D46164603F0010817D503F02D
:102CF8001103002B14BF4E213E211CB14FF4E16398
:102D0800E3802772072220461DF082F9B8F1000FF0
:102D180025D1204602B0BDE8F0411DF008BBB8F14E
:102D2800000F14BF4E212E21B2070AD51CB14FF453
:102D3800A163E38027720722204601911DF068F9FC
:102D48000199F3070BD51DB14FF4C163EB802F72C6
:102D58000722284602B0BDE8F0411DF059B902B07B
:102D6800BDE8F081016821F01F0202F1804202F5FE
:102D7800823270B50123146801F01F0103FA01F1D2
:102D880024EA0101116002682A4C22F01F0502F0B2
:102D98001F02295903FA02F221EA02022A51017993
:102DA800026801F1804122F01F0401F5823102F02E
:102DB8001F02655803FA02F22A43625002681E4D48
:102DC80022F01F0402F01F02615903FA02F221EAFD
:102DD800020262510268194C22F01F0602F01F021B
:102DE800315903FA02F221EA0202325141790268AA
:102DF800102912D122F01F0102F01F024E5903FAC6
:102E080002F232434A51026822F01F0102F01F0207
:102E18000859934003430B5170BD01F1804122F0E2
:102E28001F0001F5823102F01F02445893402343EA
:102E38004350F1E704040140080401400C04014038
:102E480010B523F0C5FC4FF43024012806D10CB985
:102E5800052010BD23F0BCFC013CF6E7002C08BFA0
:102E68000520F6E72DE9F04790B0DDE9184A0D4650
:102E78000746904600213C2201A899461A9E29F04F
:102E88003EFC344B02938DF80450CDF834A0002D4D
:102E980054D0022D54D0032D54D0042D54D10323E3
:102EA8002D4A02EB430393F811378DF805302B4B6D
:102EB8000394D3F87C3A06971C440123CDE90446D1
:102EC8008DF83130B8F1000F06D04A46414607A8C0
:102ED80029F02AFA8DF83090DFF884C01CF89EECAF
:102EE8000023BEF1010F0E931DD80DF1040ABAE8B4
:102EF8000F001CF89F6C3C2404FB06C49C3C0FC4C8
:102F0800BAE80F000FC4BAE80F000FC49AE8070028
:102F1800B6FA86F60EF1010E760984E807000CF879
:102F28009EEC0CF89F6C3B6883B14B4642462946A1
:102F3800384610B0BDE8F0470BF0D2BE2B46AFE7DD
:102F48000123ADE70223ABE70023AEE710B0BDE8ED
:102F5800F08700BF48190020F8C702083009002090
:102F6800281A0020031EB8BF2D2210B5B8BF58423A
:102F78000C46AEBF0A2201F8012B0A221EF0EAFF16
:102F880000230370204610BD2DE9F04FBA4D2DEDFA
:102F9800028BD5F8D03E8BB0002B00F027829FED36
:102FA800B48BB64EB64CD5F8D00E1CF0FAFB18BB55
:102FB800B5F8002F092A0CD9B5F8021F64234B4332
:102FC800B3FBF2F3452B40F38581A5F8000FA5F874
:102FD800020F94F84070012F00F0A881022F00F032
:102FE8000A82002F40F0EA81A6480521FDF732FF4A
:102FF800012384F84030E1E1D5F8D00E1CF0CBFB7A
:1030080014F8203C8146052BCDD8DFE803F00309EE
:1030180014182B36AA28C5D1012304F8203CC1E78F
:10302800552801D10223F8E7B5F8043F0133A5F884
:10303800043F0023F1E704F81F0C0323EDE71328EE
:1030480004F81E0C44F8040C05DDB5F8063F0133FE
:10305800A5F8063FEDE708B90523DEE7002323605E
:103068000423DAE72368E218013302F81D0C54F848
:10307800042C2360934295D1EEE754F8043C82482F
:1030880003F102084FFA88F1FDF7FEFE814514F8B6
:103098001F7C40F0178195F8143FBB4219D10023DB
:1030A80085F8143F7B1E102B00F20681DFE813F031
:1030B8001D007C007C00F0007C0004010401040178
:1030C8001D000401040104010401040104010401B8
:1030D8001D00092F01D0112F01D1012BDFD0B5F828
:1030E8000A3F0133A5F80A3FDCE7B8F1060F5BDDBC
:1030F800012F03D0092F0CBF0227032714F81A0C3D
:1031080014F81B2C14F8191C14F91D3C14F91BBCD9
:10311800009341EA0021900786F8393086F8387024
:1031280014F81C3C86F83BB00191B18706D512F023
:103138000C0F14BF0122002286F84020032F40F014
:103148009080B8F1090F2FDD14F9179CB9F1050F1C
:10315800A8BF4FF0050929EAE9795FFA89F386F8EB
:10316800423086F88E304FF0000A4FFA8AF8C84588
:1031780020DB002314F818CC86F83A3019461A4692
:103188004A45104662DB0BB186F83A10637F0C2B78
:103198000AD1642303FB07B7009B6362019BA36208
:1031A80096F93A302762E362B5F8023F0133A5F891
:1031B800023F3EE704EB080306EBC80113F8152CA1
:1031C800A1F8482007EE902AB8EEE77AF2EE047AE2
:1031D800C7EE277A4FEAC8030793069217EE900ABC
:1031E80024F02AF8B0EE480AF0EE680A41EC110B18
:1031F80027F006F951EC100B24F076FB069A079B92
:103208000E2A80B20AD919303222B0FBF2F080B20D
:1032180000EB800000EB8000400080B2334458642B
:103228004FFA8AF3052B0EDC08A9FFF79BFE174A15
:1032380008EB8803134408A9184629F084FA06EB1A
:103248008808C8F8A4000AF1010A8EE706EBC00056
:103258000132B0F9480052B2844504BF1146012337
:103268008EE7013386F83A3090E700BFAFF300806D
:103278000000000000002440300900200000002069
:10328800281A0020BE000020091A00202C1A00204D
:10329800B8F1040F88DD14F81D2C14F81C3C43EA1F
:1032A800022359041AB203D5C3F30D03F3877BE74E
:1032B800002AF9DBB38777E7B5F80C3F0133A5F8A7
:1032C8000C3F71E7FA075EBFB5F8083F0133A5F870
:1032D800083FAEE65C4BD3F8B820B3F8BC10012A1F
:1032E8001DD141F25632914203D14FF0FF32C3F85B
:1032F800B820D3F8B820D5F8D00E02EB820202EB42
:10330800820201EB420189B2A3F8BC1003681B6971
:1033180098470023A5F8003FA5F8023F59E6013277
:10332800E7D1B1F5965FE4D10122E0E7464E96F881
:103338003830002B42D0022B3BD106F1C3090023C1
:103348004FF0400A0621484686F8C83086F8C7A0DC
:10335800FDF79AFD96F83B3086F8C900DB071AD4CA
:10336800B38FB3F5804F16D1DFF8EC80D6F8C330B1
:10337800C4F84130C3B288F806300621404684F8C4
:1033880045A084F84670FDF77FFD072184F84700C3
:103398004046FDF75FFD2D480721FDF75BFD022341
:1033A80084F8403096F83B30C3F3400386F8403049
:1033B80004E00322012B84F84020F3D895F8143F49
:1033C800D5F87C6AEBB12249D1E90021B31A0293FE
:1033D80061EB41030393DDE90223002B08BF792A3F
:1033E8000FD3D5F8100FFEF721F8A6640BB0BDEC8B
:1033F800028BBDE8F08F144BDB8F002BDED003234C
:10340800F7E595F86A2B95F86B3B9A4202D0FEF7E0
:103418003BF8EAE7A36CF31AB3F57A7FE6D20C4AD5
:10342800D2E90032F31A049362EB42030593DDE913
:103438000434002C08BF962BD8D306480521FDF785
:1034480009FDFEF721F8D1E700000020C3000020A5
:1034580028180020BE000020691A00202DE9F04F2E
:1034680089B08046894614461D46002705AE217856
:1034780081B3252907D0B8F1FF3F01D04046C8479E
:1034880001340137F3E761782D2907BFA1780334A8
:103498000234002308BF0123302908BF14F8011B98
:1034A800A1F130020CBF4FF0010B4FF0000B092ABD
:1034B8004FF0000A17D96C2940F08C8014F8012BC2
:1034C800642A00F09E8029D8252A00F08F8018D819
:1034D800002ACCD1384609B0BDE8F08F0A2214F88A
:1034E800011B02FB0A0A0846039302911EF046FDDF
:1034F8000A28DDE90213F1D9002BDCD0CAF1000A51
:10350800D9E7582A3AD0632AB1D1B8F1FF3FB8D0E9
:1035180055F8041BC9B24046C847B2E7662A4CD0E2
:10352800A2F16E03D9B20A29A1D80A2B9FD801A10A
:1035380051F823F0BB3500087734000877340008C9
:1035480077340008773400089F350008773400087E
:103558006935000877340008773400088535000895
:10356800334600220A2155F8040B58E0334600225E
:103578000A2155F8040B1FF00FFA52E0A2F1580087
:103588004242334642411021EDE758394A424A4106
:1035980033461021EDE755F8043B019300230093CF
:1035A80053464A464FF0FF31404620F095FB07440A
:1035B8005DE755F8043B1F6059E7073525F0070517
:1035C800F5E8020124F040F900EE100A30461EF03A
:1035D80041FA26E06629F0D026D85829D5D00BD84C
:1035E80000293FF477AF25297FF441AFB8F1FF3FB9
:1035F8003FF447AF25218EE7632986D064297FF4FD
:1036080036AF55F8040B0028BFBF2D238DF81430B2
:1036180040420DF11503A8BF334600220A211FF0CE
:10362800BBF9CDE900B6BBE7A1F16E03DAB20A2A0D
:103638003FF61DAF0A2B3FF61AAF01A252F823F04E
:10364800BB35000877340008773400087734000861
:10365800773400089F35000877340008753500086E
:103668007734000877340008933500080CB470B537
:103678002A4CE36CADF5267D0BB9236D63B3284B5B
:10368800D3F87C1A4FF47A7306A8B1FBF3F203FB64
:103698001213244920F00BFB06AB0344AA9A2249D3
:1036A80000930546ABAB68460193FFF7D7FE009B36
:1036B800591C00910A211970009B591C0091002186
:1036C80019700246E06C68B10268126A02B190474C
:1036D800E06C06A91CF08CF80DF5267DBDE870405D
:1036E80002B07047246D002CF6D0A6AB2A44CDE971
:1036F800040026AE039306A9FD2302A80232ADF802
:103708001030029620F0ABFA029B022202A9204652
:10371800CDE902630BF092F9DEE700BF281A00201A
:103728003009002091130308FDF00108064B074AF1
:103738005A67D3F884304FF478719A1E223322F8EE
:10374800021F9A42FBD17047281A00206DB000086A
:1037580070B50E4C05460C2694F89030032B01D911
:10376800002011E05A1C06FB034384F89020D3F88C
:103778009420D107F0D51542EED093F998000CF0BB
:10378800DDFF0028E8D0406870BD00BF281A00207F
:10379800024B002283F89020DAE700BF281A0020A5
:1037A80030B5002351F8234052F82350641B40F8E9
:1037B80023400133032BF5D130BD2DE9F04180467C
:1037C8008CB0084615461FF06FFB4FF47A72002341
:1037D80007460E4624F0B6F93C2405FB040431469E
:1037E80038464FF47A72002324F0ACF9002796B2D9
:1037F8004FF47A73C3FB04673B46324609A81FF0AF
:1038080059F96A4B93F8CA30012B65D0022B00F0A6
:10381800918032463B4609A81FF04CF93C2195FBA4
:10382800F1F31AB201FB13531BB2BDF82410002B9D
:10383800B8BF5B42B1F5FA6F9BB21BD39DF8261057
:1038480001390B2916D89DF8271001391E2911D8DE
:103858009DF8281017290DD89DF829103B2909D85B
:103868009DF82A103B2905D8BDF82C10B1F57A7FB0
:10387800C0F0998000204E490991ADF828008DF8D4
:103888002A00ADF82C000446079382EAE2739DF8FB
:1038980028009DF829609DF82A70BDF82CC09DF875
:1038A8002710009115F13B0FA3EBE273B4BF2D2550
:1038B8002B259BB2CDE90553CDE90106CDE9037C63
:1038C8009DF82630BDF824203A49404620F0EFF90B
:1038D80020460CB0BDE8F0819DF82640E31E072B7A
:1038E80097D8231F052B0DD9BDF8240021461FF0BA
:1038F8008FF89DF8273098420DD0E11E18BF01219E
:10390800002986D02C4B3C35F6184FF000032DB219
:1039180043EB07077DE7032C03D19DF828100039F6
:10392800ECE70A2C7FF475AF9DF82810B1FA81F105
:103938004909E5E79DF82640E31E082B3FF669AFE5
:10394800231F062BDED9BDF8240021461FF060F89E
:10395800032C12D10E280ADC9DF82730984208D192
:103968009DF82810012994BF00210121C8E70738D4
:10397800F0E7B4BF01210021C2E70B2C7FF449AF67
:1039880007280ADC9DF82730984208D19DF82810AE
:1039980001298CBF00210121B2E70738F0E7CCBF2D
:1039A80001210021ACE701246EE700BF281A00209E
:1039B800000001019D13030880EE360008B5044895
:1039C8001DF0B1F9BDE8084002481DF07FBF00BFF7
:1039D800CB130308D71303080C4608B505460CF0AB
:1039E8001EFE20460CF01BFE002108461CF08AF83B
:1039F800002101201CF086F828461BF0D2FE70B189
:103A0800012100201CF07EF828461BF0C4FE014668
:103A180020461BF0C9FE002108461CF073F820461A
:103A28001BF0BFFE0028E7D0012100201CF06AF837
:103A380020461BF0B0FE014628461BF0B5FE0021CB
:103A48000846D7E7F0B505460C4689B01422002190
:103A5800204628F054FE2A681D4E04A8C2F385515A
:103A68000023054641FA03F7FF0744BF9F5D00F8AE
:103A7800017B0133062BF5D1164900230370C2F3ED
:103A880003200844C2F3053690F81E078DF8180085
:103A980001F225710DF1190046FA03F7FF0744BF3B
:103AA8005F5C00F8017B0133062BF5D1002303701E
:103AB800C2F38343029306ABCDE90053064902F0F3
:103AC8000F032046C2F3031220F0F1F809B0F0BD4D
:103AD80010CF0208F8C70208E41303081FB53249DB
:103AE80001A891F83520783109F0D6FD0398019A9C
:103AF80080EAE073A3EBE07307EE903AF8EEE77A1A
:103B0800F7EE086AC7EEA65A82EAE273A3EBE273FD
:103B180007EE103AB8EEC77A029BF4EEC75AF1EEF8
:103B280010FA13DD83EAE371A1EBE37106EE101AD4
:103B3800B8EEC66AF4EEC65AF1EE10FA06DD0028B1
:103B4800CCBF0020012005B05DF804FBC7EE265A63
:103B580083EAE371A1EBE37106EE101AB8EEC66AC8
:103B6800F4EEC65AF1EE10FA09DDF4EEE57AF1EE5C
:103B780010FA04D5002ACCBF02200320E3E7C6EEE2
:103B8800265AB4EEE57AF1EE10FA09D5F4EEE57AA4
:103B9800F1EE10FA04D5002BCCBF04200520D2E7A3
:103BA8004FF0FF30CFE700BF0000001030B5284AC3
:103BB800DFED286A92F8CC10D2F8F05002EB4104FD
:103BC800013101F00F0182F8CC1092F80811B4F815
:103BD800CE30A4F8CE0007EE101AB8EEC77AC31A92
:103BE80027EE267A2B44FDEEC77AC2F8F03092F819
:103BF8000921194817EE901A07EE902AF8EEE77A8D
:103C08001B0967EEA67AA0F87C3EFDEEE77A17EE70
:103C1800902A91420FDD9BB29A42D4BF9B1A00238F
:103C28009942A6BFCB1A9BB20023A0F87C3E0B4654
:103C380017EE901A1A46B0F87C3E5B1AC3EB832342
:103C4800521A93FBF2F282F30A02A0F87C2E30BDDE
:103C5800281A002014AE23413009002030B51A4D2F
:103C6800D5ED227A89B0F1EE677ACDED057AD5EDFA
:103C7800237A00230093F1EE677A0B680193CDED68
:103C8800067A4B68D5ED247A02938B680393044631
:103C9800D5F884300493F1EE677A6A4604A9684639
:103CA800CDED077A0EF0E4F8694605F1840208467E
:103CB8000EF0DEF8019B2360029B6360039BA36008
:103CC800204609B030BD00BF0000001038B50278AA
:103CD8002DED088B70EE609AD0ED01AA044669EECE
:103CE800AAAAB0EE40AAB0EE419AF0EE618AB0EE10
:103CF80042BA0D46F0EE62BA01F001034AB1002B58
:103D08000CBFF0EE607AF0EE697A0022C0ED0B7A13
:103D18000270D4ED0B7A002B62D079EEE77AF0EEE0
:103D2800690A87EE890AC4ED0B0AD4ED090A94EDF5
:103D3800038AF5EEC00AF1EE10FA05DDB0EE491A75
:103D480004F118001AF09CFF20EE088A94ED0A7A14
:103D580094ED050A68EE2B2A7AEE877A2AEE00AAF5
:103D680077EEA27A77EE8A7AF4EEE87AF1EE10FA34
:103D780008D4F4EECB7AF1EE10FAD4BFF0EE678AED
:103D8800F0EE4B8AD4ED026A94ED046AC4ED0DAAF4
:103D980069EEA69AF0EE476AE9EE296A6B0778EEB3
:103DA800E77A84ED0C7A67EE867AC4ED0E2AE9EE9E
:103DB800276A84ED0FAAC4ED108AF0EE667A08D55A
:103DC800F0EEE66AB0EEC77AF4EEC76AF1EE10FAE2
:103DD80001D5C4ED0A7AB0EE680ABDEC088B38BD8F
:103DE80070EEE77AF1EE677A87EE890A9BE710B5FD
:103DF80088B0002300930B6801934B6802938B688B
:103E080015490393D1ED227AD1F884300493F1EE69
:103E1800677ACDED057AD1ED237AF1EE677ACDEDAB
:103E2800067AD1ED247A0446F1EE677A6A4684313F
:103E38006846CDED077A0EF01BF8694604AA0846D5
:103E48000EF016F8019B2360029B6360039BA3603E
:103E5800204608B010BD00BF0000001010B5204C6F
:103E680094ED220AD4ED217A20EE000AA7EEA70AE3
:103E7800D4ED237AA7EEA70AD4ED247AA7EEA70AF1
:103E880026F01EFEDFED177AB4EEE70AF1EE10FA1F
:103E98000CD54FF07E53C4F884300023C4F8883022
:103EA800C4F88C30C4F890300F4810BD94ED217AD6
:103EB800C7EE007A94ED227AC4ED217AC7EE007A33
:103EC80094ED237AC4ED227AC7EE007A94ED247A31
:103ED800C4ED237AC7EE007AC4ED247AE4E700BF84
:103EE80000000010BD3786358400001030B5D0F8CA
:103EF800D010ADF50B7D00F10A0206920A448AAB98
:103F08000792B0F8D6200393ADF820204FF6FF7340
:103F180090F8D520ADF81030044600230AAD8DF88E
:103F2800222002A901AA06A802958DF81230ADF840
:103F38001430ADF82430019311F072FD40B1029BAA
:103F480094F8D42002A92046CDE902530AF076FD60
:103F58000198002363720DF50B7D30BD054991F87A
:103F68001F210023042A036028BF042201F592714F
:103F780028F0DAB9281A002010B4074991F81F214F
:103F880000240480022A5DF8044B28BF022201F5B0
:103F9800927128F0C9B900BF281A0020F8B5204C42
:103FA8001D270E46054684F82C720CF03DFA0020B9
:103FB8000CF0CCF908200CF0C9F90E200CF0C6F969
:103FC80038460CF0C3F904200CF0C0F904200CF0BA
:103FD800BDF900200CF0BAF930200CF0B7F9002038
:103FE8000CF0B4F930460CF0B1F900200CF0AEF941
:103FF8000CF0FCF904F22D200CF013F9234670B1F3
:1040080094F82D2252B994F82E22302A00D02AB9D9
:1040180093F82F2212B993F830322B700120F8BD93
:10402800281A002010B50246041D0020A24200D123
:1040380010BD12F8013B0821584010F0800F4FEADC
:10404800400318BF83F031030139D8B2F5D1EDE749
:104058000F4B062230B483F83F22242283F84022F3
:1040680083F84122002283F842220A4A03F24321BC
:1040780002F1240452F8045B41F8045BA242F9D12E
:10408800032230BC83F8450283F8462207F0C6BAFB
:10409800281A002023CF0208036813F0400004D038
:1040A80013F4057F14BF012000207047F0B5214CA0
:1040B80085B004F5207304F52A770646C4F88430E1
:1040C800C4F88870FFF732FB122342F6F82284F80E
:1040D80058300023C4E918234020174BA3670CF07D
:1040E8000BFB024618B3FFF7D7FF054692F9040009
:1040F80094F8FA2094F8FB100096002D14BF0323BF
:104108000123002A0CBF0722062201290CBF08211F
:1041180000210A43CDE901324021084A3B460CF010
:104128001FFB0DB1C4F8E802003818BF012005B024
:10413800F0BD00BF281A00204794000839AC0008D9
:10414800F0B5BF4CD4F8EC6294F8F07285B076B153
:104158003046FFF7A1FF50B15FBBD4F8E83243B354
:10416800B84AC2F81C3F012384F8F03221E094F8E1
:10417800F102FDF7B9FA874205461AD0002800F087
:104188000081B6B1AF4D96F9040095F8B539B3FA88
:1041980083F35B09029302264FF41653CDE90036E8
:1041A80000231A4604210CF0DBFAC5F81C0F00287E
:1041B800D9D194F8F202FDF797FA94F8F3328342D2
:1041C80005461ED0002800F0E680D4F8F422C2B1DB
:1041D8009C4B92F9040093F8BC39002B18BF0823B4
:1041E800029303254FF49643CDE9003500231A4680
:1041F80008210CF0B5FAC4F8F80210B1012384F8CC
:10420800F33294F8FC32012B28D194F8FD02FDF723
:104218006BFAD4F800330546002800F0C580EBB9E6
:10422800D4F80403D0B1874990F9040091F8BC2967
:1042380091F8B519002A14BF08220022002908BFE6
:1042480042F00102029203214FF46142CDE90021BC
:104258001A4620210CF084FAC4F80003D4F8086345
:1042680094F80C73002E00F0A8803046FFF714FF76
:10427800002800F0A2804FB9D4F8E83233B1C4F86E
:104288001033FCF78BF8012384F80C3394F81603E9
:10429800FDF72AFA94F81733834205463AD00028E6
:1042A80000F0D880D4F81833D3B11A7A93F90400FF
:1042B80003210023002ACDE90113634908BF07221F
:1042C80001EB82024FF48071D2F8AC2600921A46B4
:1042D8000CF046FAC4F81C0310B1012384F8173314
:1042E800584A5A4B92F8E61983F8CC1092F8E71915
:1042F80083F8CD1092F8E81983F8D01092F8E919EC
:1043080083F8D41092F8EA1992F8EB2983F8D510BB
:1043180083F8D62094F82003FDF7E6F994F82133C2
:10432800834205462BD0002800F09D80474B4FF470
:10433800FA72C3F82423D4F8243303B31A6802F4B6
:104348001072B2F5107F1AD093F9040008220323E3
:10435800CDE901324FF4E133009300231A464FF4BC
:1043680000710CF0FDF9C4F8280340B1354BC3F8CF
:10437800180F012384F82133002384F82C3305B067
:10438800F0BD304ED6F81C0F0CF054F9C6F81C5F7F
:1043980084F8F0520DE7D4F8F8020CF04BF9C4F8A1
:1043A800F85284F8F3522CE7002B3FF457AF184625
:1043B8000CF040F9C4F8005350E794F81403FDF7E3
:1043C80093F9874205463FF461AF78B3FBF7E6FF00
:1043D800002E3FF45BAF317A31B302291FD1194B5C
:1043E80093F8BF2912B9194AC3F8EC29002502230A
:1043F80096F90400CDE90135134B03EB81012A46F8
:10440800D1F8AC36009310212B460CF0A9F9C4F86A
:10441800100300283FF43AAF84F8155333E7012915
:10442800E4D1084B0A4ADFE70521DFE7D4F8100397
:104438000CF000F9C4F8105384F80C5326E700BFB9
:10444800281A002030090020F8C7020800000020C0
:104458000A000020D4F81C030CF0ECF8C4F81C5334
:1044680084F8175356E7D4F828030CF0E3F8C4F897
:10447800285384F8215382E737B50446A4F17D0315
:10448800012B0D4610460ED87D2101921BF08CF9A8
:10449800019884F020011BF087F915B1288804449D
:1044A8002C8003B030BD2146F5E773B504460D46B0
:1044B800ADF80620C61D14F8010B2A460DF10601B9
:1044C800FFF7DAFFA642F6D10DF1060009F0EAFE81
:1044D8009DF806002A460021FFF7CEFF02B070BD06
:1044E800024B0022D3F80013DFE700BF281A002090
:1044F8002DE9F04F4D4ADFF838E183B0C31D03F4CE
:10450800FC7300AFD2F8A849ADEB030DC7F800D093
:1045180025689EF82D33AC46D2F8A0590E46591C92
:104528006844C9B2AC45E84678609246754603F0DF
:104538000F038EF82D1338D1B4F90C2043F0100373
:10454800002A4146B8BF43F0200301F8023B08F1B6
:1045580001023A60D4E900239B1A396088F80130D7
:104568003B68D4E90012A0EB03095FFA89F9521AF3
:1045780009F107035FFA82FB03F4FC73CB45ADEB4B
:10458800030D18D34A46684627F0CEFE23684B44ED
:1045980023604A46694638461FF061FB4046B047EB
:1045A80001200C37BD46BDE8F08F0DF101023A60DD
:1045B8008DF80030D4E75A46684627F0B5FE2368E0
:1045C8005B4423605A46694638461FF048FBDAF8D0
:1045D800A829DAF8A0392168127AC4E90031CB1A7F
:1045E8005340DBB285F82E3300202268914212D165
:1045F80008B185F82E333B6895F82E23591C39608D
:104608001A700021D7E900239B1A012B09DC4046C8
:10461800B0470020C5E7501C2060127801205340A5
:10462800E3E7531C3B601170ECE700BF3009002042
:10463800281A00202DE9F04F714C724E83B0D4F83F
:10464800A829D2E900239B1A002BC4BF002386F8AF
:104658002F3396F82F3300AFA3B96B4AC4F89C29BF
:1046680002F18005C6E9EC22C4F8A45902F19005CC
:1046780002F5C872C4F8A059C4F8A829C6F8C054ED
:10468800C6F8C4540144421CC4F89819C4F89429C3
:104698000278D4F8A4595109012905D00021084607
:1046A800FBF760FE01204EE002F00F0A12F0100244
:1046B8003DD0831CC4F89439C31C90F801C0C4F8D9
:1046C800943900228378AA81D4F89C292B812A6006
:1046D80083EA0C0362446A6086F8D03486F82F13A4
:1046E800D5E90032D4F89489A2EB0309D4F89829C3
:1046F800A2EB08025FFA82FB0BF107035FFA89F964
:1047080003F4FC73D945ADEB030D20D35A4641465B
:10471800684627F009FE08EB0B01C4F894195A46BD
:10472800694628461FF09BFA86F8D1A40AE0002BB8
:1047380064D096F8D134013303F00F035345CFD03A
:1047480086F82F2300200C37BD46BDE8F08F4A4677
:104758004146684627F0E8FD08EB0901C4F89419BA
:10476800284669464A461FF07AFAD4F89C392868E0
:10477800C5E9003096F8D03400212A68904211D15A
:1047880009B186F8D034D4F89439197896F8D03429
:1047980099424FF0000386F82F3309D0B5F9081075
:1047A80001207DE7511C2960127801215340E4E77C
:1047B800D4F89C19D4F8A409C5E90012D4F8A819AA
:1047C800D4F8A0294A600B818B813A1D7B6011F0D7
:1047D80027F9013006D1D4F8A8291368591C1160AB
:1047E80002221A707B680BB100209847D4F8A839C8
:1047F800D4F8A0291968C3E9002153E71846A2E7AD
:1048080030090020281A0020581D0020F0B5114D4D
:1048180095F8D544C3B0A61D324605F2D441684682
:1048280027F082FDB5F8D2340DF806300DEB0602FC
:104838001B0A04F1080653706C46002714F8011B84
:10484800D5F81C0301371AF0AFFFBE42F6DC43B0BF
:10485800F0BD00BF281A00200C4B034493F8CA305F
:1048680093B10B4A024492F8E21551B9322B28BF92
:10487800322318463223B3FBF0F082F8E205012018
:104888007047013982F8E2150020704700000020C7
:10489800281A00200A88504080EA0010C0B2030994
:1048A80083EA122343EA002383EAC00008807047A2
:1048B8002DE9F743284C1F46FE2384F8D43494F896
:1048C800F63584F8D634013384F8F6354FF6FF739D
:1048D800164684F8D52484F8D70484F8D814ADF89B
:1048E8000630062504F2D548013DADB23DBBDFF8E0
:1048F8007080BDF8063094F8D554A4F8D2344FF639
:10490800FF79A8F10801013DADB24D451ED13846E9
:104918001249FFF7BFFF94F8D534B4F8D2242344E2
:1049280006F1080083F8DA2494F8D534B4F8D224D0
:104938002344120A83F8DB2403B0BDE8F08318F897
:10494800010B0DF10601FFF7A5FFCDE718F8010BE4
:10495800FFF7A0FFD7E700BF281A0020FA1E0020A3
:10496800021F002017B48DF805308DF804200A4B7B
:10497800BDF804209DF81040A3F8DA242F2283F80C
:10498800D92483F8DC44032299238DF8064003B028
:104998005DF8044B8CE700BF281A002010B40368A8
:1049A8000B4900228B420FD8591C01601A70094B21
:1049B8000268426003F5C46101605DF8044BD3F8F6
:1049C8001003521A1AF0F3BE11F8014B6240E9E7DE
:1049D8004B200020281A0020074B03F23262426065
:1049E80003F221620260242283F8202603685A1CFD
:1049F800026054221A707047281A002010B5064C1D
:104A0800D4F8F8021AF0CDFE00B910BDD4F8F802B7
:104A18001AF0C1FEF4E700BF281A002010B50649B5
:104A280091F8324684421EBF81F83206C1F8382612
:104A3800C1F83C3610BD00BF281A002010B5044646
:104A4800C0B2FCF79DFDC4F30720BDE81040FCF799
:104A580097BD034B5E21D3F81C0F1AF0A5BE00BF0B
:104A68003009002038B5074D04465E21D5F81C0FE3
:104A78001AF09AFED5F81C0F2146BDE838401AF006
:104A880093BE00BF3009002013B5044601A9006891
:104A9800FBF79AFC1320FFF7E5FFBDF90400FFF7C9
:104AA800CDFF1B20FFF7DEFFBDF90600FFF7C6FFAD
:104AB8002320FFF7D7FF2368002BB4BF53204E20D5
:104AC800FFF7BCFF01A96068FBF77EFC1220FFF727
:104AD800C9FFBDF90400FFF7B1FF1A20FFF7C2FFB5
:104AE800BDF90600FFF7AAFF2220FFF7BBFF6368A6
:104AF800002BB4BF57204520FFF7A0FF02B010BD20
:104B080038B51D4D95F8444EB5F8683E632CA8BFDE
:104B18006324012B2BD940F22622934229D8333B18
:104B2800322293FBF2F3C3F10903642202FB03442C
:104B3800D5F88C39A4B2990744BF04F57A74A4B2A5
:104B4800DA07D5F8903944BF04F5FA64A4B25B07D4
:104B58000BD515200EF012F838B1D5F8783A13F4C1
:104B6800016F04BF04F57A64A4B2204638BD00235F
:104B7800D9E70923D7E700BF30090020274BD3F82E
:104B88009019D3F8783A21F0704222F07F02002A77
:104B98000CBF012002204A0748BF0430D90744BF90
:104BA8000A3080B29A0744BF143080B2D90544BF96
:104BB800283080B25A0744BF643080B2190744BF16
:104BC800C83080B29A0644BF00F5C87080B2D906D2
:104BD80044BF00F57A7080B2DA040FD500F5FA50B8
:104BE80080B2990442BF00F51C50103080B29A057B
:104BF8000ED5A0F5C740403880B27047190502D5D8
:104C080000F5FA60ECE75A06EBD500F57A60E7E7BD
:104C18005B05F2D500F59C402030EDE73009002017
:104C280038B503680B4D591C95F8402601601A7079
:104C38000468446005F24161641A402CA8BF40240E
:104C48000160224605F2816027F06EFB85F8C146B7
:104C580038BD00BF281A0020036810B5054C5A1C3F
:104C6800026094F8400619701FF086FE84F840062A
:104C780010BD00BF281A002070B506460C468D18D6
:104C8800AC4200D170BD14F8011B3046FFF7E4FFB9
:104C9800F6E738B505460C46090EFFF7DDFFC4F305
:104CA80007412846FFF7D8FFC4F307212846FFF736
:104CB800D3FFE1B22846BDE83840CDE738B5054610
:104CC8000C46090AFFF7C8FFE1B22846BDE838409C
:104CD800C2E7074B002283F8402603F28162426054
:104CE80003F242620260C82283F84126704700BF7F
:104CF800281A002013B504466846FFF7EAFF009B10
:104D08005A1C00923E221A7068467B21FFF7A4FFC6
:104D18006846EA21FFF7A0FF6846C821FFF79CFF15
:104D28003A2221466846FFF7A7FF6846FFF778FF53
:104D380002B010BD08B50CF0EFFF074AD2F8782E84
:104D4800120606D430B9054B93F8C906003818BFC7
:104D5800012008BD0120FCE730090020281A0020A6
:104D6800104B93F8C72607EE902A012283F8E02714
:104D78000D4AD2F87C2AC3F8E42703F5E2614FF420
:104D8800FA62F8EE677AC3F8E82700200022C1ED3E
:104D9800397A83F8EC27C3F8F027C1F8E800C3F89C
:104DA8000C287047281A0020300900202DE9F04F00
:104DB8002DED028B93B01AF0E7FB114BD3F8502E70
:104DC8001192D3F8782ED3F848EED3F84CCECDF81C
:104DD8003CE012F0800FCDE90001CDF840C01C4640
:104DE80000F04E83D3F88C0982070DD4054B0122BD
:104DF80083F8C82413B0BDEC028BBDE8F08F00BF68
:104E08003009002000000020DE49009DD1E9003271
:104E1800EE1A019B63EB02070023DB4ABB4208BF83
:104E2800B2423EBFD94B012283F8C824C3070F46BC
:104E380040F1CB80D64D95F8C436002B00F0C580E4
:104E480095F86838002B40F0C08007EE90EA9FED97
:104E5800D17AF8EEE77AC7EE875ADFEDCF7AF4EE2B
:104E6800E75AF1EE10FA00F17781DFEDCC7AF4EE33
:104E7800E75AF1EE10FA00F36F8107EE90CAF8EEE8
:104E8800E77A87EE875ADFEDC67AB4EEE75AF1EE95
:104E980010FAB0EE673A00F15F819FEDC26AB4EE96
:104EA800C65AF1EE10FA00F35781F2EE047AC5EE15
:104EB800A76ABD4E4FF0250C85EE277AFDEEE66A0F
:104EC800DFEDBA4A9FEDBA4AF8EEE66AF4EEE45A24
:104ED80066EEA76ABDEEC77AF1EE10FAF4EEC45A90
:104EE8008CBFFDEEE64ADFEDB34AB8EEC77AF1EEC5
:104EF80010FAA8BF76EEE76A27EE277AB4EEC35A0F
:104F0800A8BFFDEEE64AF1EE10FAB4EEC65AF0EE8E
:104F1800443A8CBFBDEEC74A9FEDA74AF1EE10FA9E
:104F2800F8EEE46AA8BF37EE677A75EEE65AA8BFCE
:104F3800BDEEC74A36EEA37AC7EE274ABCEEE47A3E
:104F480017EE103AB8EEC47A0CFB036137EE066A26
:104F580035EE475AC6EE274A03FB0CC33344BCEE72
:104F6800E46AC5EE274A16EE102A881890F94F070A
:104F780000EE100A501C1A44014492F94F2706EE1D
:104F8800102A91F94F2707EE102AB8EEC00AB8EE9A
:104F9800C77A034437EE407A93F94F37A4EE870A6D
:104FA80007EE103AB8EEC66AB8EEC77A37EE467A18
:104FB800A4EE876A85EEA77A36EE406AA7EE060A5F
:104FC8000CF0DAFE012385F8683894F83C33002B9E
:104FD80040F0C880012384F83C330F9BC4F8443365
:104FE800002BB8BF5B4207EE903A9FED6A7A109AA1
:104FF800C4F84823F8EEE77A119AC4F84C2387EEF0
:10500800870ADFED6E7A20EE270A1FF0B7F8DFED8A
:105018006C7AB4EEE70AF1EE10FA00F1A080F7EE30
:10502800007AB4EE670AF1EE10FAC8BFB0EE670A6C
:1050380084EDD00A94F83C33002B3FF4DBAE534E9A
:105048006048534D00220FA9FBF7EEF896F8C834D4
:10505800002B40F07281D7E90001009B181A019BD0
:1050680063EB0101584B10EB030841F1FF394FF096
:10507800000B4CF2503ACB4508BFC24580F0C280C5
:10508800524BC318029341F1FF330393DDE90289C0
:10509800002349F640424B4508BF424580F0B480A2
:1050A8004B4BC318049341F1FF330593DDE9042307
:1050B8004FF0000944F62068994508BF904580F0F4
:1050C800A580DFF814C110EB0C03069341F1FF3300
:1050D8000793DDE906234FF0000942F2107899455D
:1050E80008BF904580F09480DFF8F0C010EB0C0307
:1050F800089341F1FF330993DDE908234FF00009D4
:1051080041F27078994508BF904580F02A81DFF810
:10511800D0C010EB0C030A9341F1FF330B93DDE988
:105128000A234FF000094FF47A68994508BF904563
:1051380080F01A81DFF8ACC010EB0C030C9341F13E
:10514800FF330D93DDE90C23994508BF904561D3E2
:1051580044F6206000215DE09FED1E0A30E7B0EEC6
:10516800670A65E70A4B93F8C536012B3CD0022B3A
:105178007FF460AFD4F8903983F00403C3F380035D
:1051880039E000BF8822002060E3160000000020FC
:10519800281A00208096184B0000B4C20000B442C0
:1051A800000034C300003443F8C70208000070C28E
:1051B80000007042C4FFFFFF4CFFFFFF35FA8E3C32
:1051C8000AD7233C4C2100201891FCFFE040FDFF4A
:1051D80070A0FEFF000000003850FFFFD08AFFFFDC
:1051E80028A6FFFFB0B9FFFFD4F8903913F00C0FD1
:1051F8000CBF01230023002B3FF41CAF119BC4F804
:105208004C3317E7A148A5E7A148A3E7A148A1E7C0
:105218005046594622F050FCD4F8489E9FED9E8A8D
:105228009FED9E7A07EE900A89EAE973A3EBE9738A
:1052380067EE888A07EE903AF8EEE77A87EE870AF3
:10524800DFED977A20EE270A1EF098FFDFED957ABA
:10525800B4EEE70AF1EE10FA00F18980F7EE007A71
:10526800B4EE670AF1EE10FAC8BFB0EE670A95F817
:10527800C826DFF85082002A7CD094F83E3E002BE6
:1052880078D0B4F95A3E07EE903AB4F95C3EF8EE9D
:10529800E77AC8ED087A07EE903AF8EEE77AC8EDB3
:1052A800097A94F83F3E002B00F09680B4F95E3EF0
:1052B8005B4207EE903AF8EEE77A7B49C8ED0A7A46
:1052C800D1E9002352EA03008B4601F1080A01F1F3
:1052D800140940F09580009BCBF80030019BCBF877
:1052E8000430724B93E807000C338AE8070093E810
:1052F800070089E8070095F8203785F8213700234B
:1053080085F8203794F8413E002B00F0B280B4F8BD
:10531800643E07EE903AB4F8663EF8EE677AC8ED58
:105328000B7A07EE903AF8EE677AC8ED0C7A009B94
:10533800C8F80830019BC8F80C30D4F8483EC5F8C6
:105348006C38D4F84C3EC5F87038D4F8503EC5F8DF
:105358007438002386F8C834009B3B60019B7B604F
:1053680048E548F23520F5E646F2A810F2E6B0EE38
:10537800670A7CE7D5F86C389FED4D6AD5F8701848
:10538800A9EB030307EE903AF8EEE77AD4F84C3E1F
:1053980067EE867A5B1A87EEA87AD8ED087A37EE38
:1053A800277A07EE903A20EE060AF8EEE77AF6EE4C
:1053B800006A27EE800A27EE267AC0EE287A88ED62
:1053C800087A98ED097A77EE877A67EEA67AC8EDBB
:1053D800097A002A7FF465AFD4F8503ED5F87428CE
:1053E8009B1A07EE903AB8EEE77AC7EE287A98ED5E
:1053F8000A7A77EE877AB6EE007A67EE877A5CE704
:105408000099881A019961EB030122F055FB07EE18
:10541800900ADAED006A99ED016A27EE888AD9EDDB
:10542800007AB0EE667AA8EE277AF0EE477A9AED1F
:10543800017AB0EE470AA8EE060A77EEE67A30EE71
:10544800470A20EE000AA7EEA70A25F039FB9FEDD0
:10545800197ADFED197A28EE077AE8EE077AB4EEC2
:10546800E70AF1EE10FA7FF636AF0123A5F82037E8
:1054780048E7124BC8F82C30114BC8F8303056E7C3
:10548800104B00200021C3E90201B3E490D00300CF
:10549800400D0300A0860100BD3786358096184B65
:1054A80035FA8E3C0AD7233CA02200204C2100204C
:1054B8002C7D8E3F0000FA4300007A4300004843E9
:1054C8000000FA4338210020D2ED017A91ED017AEB
:1054D800D2ED026A92ED006A37EE277AD1ED027AB0
:1054E80077EEA67AD1ED006A80ED017A76EE866ACB
:1054F800C0ED027AC0ED006A7047B0EEC00AC0EE97
:10550800207ADFED186A77EEA67AF4EEE67AF1EE05
:1055180010FA21D4B7EE007AF4EE477AF1EE10FAD9
:10552800C8BFF0EE477A77EEE17A72EE611A67EE5D
:10553800817A87EEA17A77EE267AF5EEC07AF1EED7
:1055480010FA0CD4B4EEE71AF1EE10FA58BFB0EE28
:10555800671AB0EE410A7047F0EE667AE3E79FED0E
:10556800011AF6E7000000000B4A10B502F1F0003E
:10557800FBF738F8094B03F6980403F69C03002060
:1055880000212060186002F59A70A2F87819FBF7DC
:1055980029F8A2F87A1910BD30090020281A00202D
:1055A8002DE9F041324E334DD6ED007AF5EE407AD2
:1055B800F1EE10FA2DED028B0F4608EE100ADFED22
:1055C8002E8A0BD1D5F8343FB3F8AE3007EE903AB7
:1055D800F8EEE77A67EEA87AC6ED007A95F8751ABC
:1055E800264C6423002A01FB03F1384614BF4FF010
:1055F80004084FF000081EF095FCB8EEC88A07EEC4
:10560800900A96ED002A9FED1E1A9FED1E0A1E486D
:1056180028EE011AF8EEE70AF7EE002A4146F1EE05
:10562800421AFEF753FB637F112B80EE287A18D1BC
:10563800E762D5EDAF7AFDEEE77AC4ED087AD5EDED
:10564800AE7AFDEEE77AC4ED097AD5EDB07AFDEED3
:10565800E77AC4ED0A7AD5EDB27AFDEEE77AC4EDC1
:105668000C7ABDEC028BB0EE470ABDE8F08100BFB2
:10567800C8220020300900200000C842281A002053
:10568800BD37863500000000B80B00200E4A10B563
:105698000E4C02F6A403002104F51170196059603C
:1056A8009960FAF79FFF04F52270FAF79BFF002331
:1056B80082F8B03882F8B13802F6B402A4F8783922
:1056C800A4F87C39116010BD281A00203009002088
:1056D80038B5074DD5F88C49E30602D5BDE8384002
:1056E800D4E724F46054FFF73FFFC5F88C4938BD70
:1056F8003009002008B50B4B5A7F0A2A04BF032241
:105708001A62094B1A7F4AB1D3F80423C3F8A423B9
:10571800D3F87C2AC3F8AC23002008BDFFF7D8FFD4
:105728000220FAE7281A00203009002010B5124C90
:10573800D4F88C39DA061AD5104B242202FB003033
:105748000F4BC1895A7F0A2A04BF01221A62FAF74D
:1057580031FF70B98B0701D4FFF7BAFFD4F80433CF
:10576800C4E9E9330023C4F8AC33022010BD032098
:10577800FCE70420FAE700BF30090020F8C7020858
:10578800281A002008B50E200DF0F8F928B9044BA6
:10579800D3F88809C0F3807008BD0120FCE700BF7A
:1057A8003009002008B5084B084A1B7C242101FB5E
:1057B800032344F21900DB89184004D00EF00AF9DB
:1057C800003818BF012008BD30090020F8C70208BA
:1057D80038B5A34A9FEDA36A92F83F3A07EE903A8C
:1057E800F8EE677A92F8403A87EE867A02F110046A
:1057F80000250021F2EE045A82EDB37A07EE103A42
:10580800B8EE477AB3EE045AC7EE067AB7EE007AD6
:10581800F4EE477AF1EE10FAC8BFF0EE477AC2ED1F
:10582800B47AD2F8343F93F83D30E16107EE903A0C
:10583800F8EE677A216287EE867AA162616204F1E6
:105848001400C4ED0E5A84ED067AFAF7CBFED2F8AE
:10585800343F93F8440093ED232A01EE900A93F81D
:10586800430001EE100A93F8420000EE900A93F804
:10587800410000EE100AF8EE611AB8EE411AF8EE8F
:10588800600AB8EE400A04F1E000C1EE861A44341A
:1058980081EE061AC0EE860A80EE050AFAF7C0FE07
:1058A800002D00F0DB80D2F8343F6F4893F8904029
:1058B80007EE904AF8EEE77A93F8914087EE867AF9
:1058C80007EE904AF8EEE77A80ED007A87EE867A5E
:1058D80093F8924093F83930C2F8B410C2F8B8106F
:1058E800C2F8C010C2F8BC1007EE904AF8EEE77A8A
:1058F80080ED017A87EE867A92F8364A07EE904A6A
:10590800F8EE677A80ED027A87EE867A07EE903AAB
:10591800F8EE677A80ED037A87EE867A02F1AC00BA
:10592800C2ED345A82ED2C7AFAF75CFED2F8343F95
:10593800DFED4E7A93F85300DFED4D1A01EE100AB1
:1059480093F8520093F8513000EE900A00EE103AA6
:10595800B8EE411AF8EE600AB8EE400A81EE061A6F
:1059680002F5BC7080EE270AC0EE850AB2EE042A62
:10597800FAF756FEB0EE005AC2F8C411C2F8C811C0
:10598800C2F8D011C2F8CC1102F5DE7082ED705A5F
:10599800C2ED785AFAF726FED2F8343FDFED341A12
:1059A800D97C01EE101A997C5B7C00EE901A00EE0F
:1059B800103AB8EE411AF8EE600AB8EE400A81EEE5
:1059C800061A02F51170C0EE860A80EE060AB2EEDB
:1059D800042AFAF725FED2F8343FDFED251AD97BE1
:1059E80001EE101A997B5B7B00EE901A00EE103ADC
:1059F800B8EE411AF8EE600AB8EE400A81EE251AB0
:105A080002F50070C0EEA50A80EE250AB2EE042A5F
:105A1800FAF706FED2F8343FDFED151A93F82B108B
:105A280001EE101A93F82A1093F8293000EE901A14
:105A380000EE103AB8EE411AF8EE600AB8EE400AE5
:105A480081EE061ABDE8384002F52270C0EEA50ABC
:105A580080EE250AB0EE452AFAF7E2BD0125E0E618
:105A6800300900200000C842E8220020666685420E
:105A780000000000094A0A49137C242000FB031394
:105A8800D889830607D410F0400005D0D2F88C09D5
:105A9800C0F3001070470120704700BF3009002094
:105AA800F8C70208734AD2F8903913F004032DE9B5
:105AB800F047924600F0CC8092F8803F6E495BB187
:105AC80092F8813F43B192F8A42F062303FB0212F8
