:020000040800F2
:100000000050002089A201083DA3010885BC00081A
:100010003DA301083DA301083DA301080000000025
:100020000000000000000000000000003DA30108E7
:100030003DA30108000000003DA30108353A010876
:100040003DA301083DA301083DA301083DA301080C
:100050003DA301083DA30108B71A0108C11A010810
:10006000BF1A0108BD1A0108BB1A01086186000801
:100070005186000841860008318600082186000864
:100080000D860008FB8500083DA301083DA301087B
:100090003DA301083DA301083DA30108B91A0108C9
:1000A0003DA30108195801083DA30108095801089A
:1000B000FD570108ED570108DD5701088789000841
:1000C0008D8900087D890008838900083DA3010807
:1000D0003DA3010859130108511301083DA301086C
:1000E000B51A01083DA301083DA301080000000066
:1000F0000000000000000000000000000000000000
:0C01000000000000000000005FF808F1A3
:100110002DE9F04F0025B14CA3B04FF48062294681
:10012000AF48257018F0E0FAAE4B1D6015F0FEFCEC
:1001300018B90DF037FC15F01FFD15F0D5FD0021A5
:10014000084611F07AFD2378A74E43F0010323708F
:1001500000230B930C930D934FF4E0130E9333682D
:1001600043F480333360B36943F01003B361336801
:1001700003F400330C930B9B01330B930C9B1BB9C3
:100180000B9BB3F5A06FF2D1336813F4003300F08A
:100190002B8302230D93954B95491A68884642F0AC
:1001A00010021A601A6822F003021A601A6842F0FC
:1001B00002021A607368736073687360736843F453
:1001C000806373608B4B1A68043B22F070425A6064
:1001D000894A0A60726822F47C1272605A6842F09E
:1001E00000425A60DA6822F40042DA609B6813F435
:1001F000004F17BF814B4FF4E0130B604FF4801397
:100200000E930D9B012B00F00783022B05D10E9B53
:100210007268134343F480337360336843F0807330
:10022000336033689801FCD5736823F0030373606F
:10023000736843F002037360736803F00C03082BC8
:10024000FAD173686E4D03F00C03042B00F0E882C2
:10025000082B00F0E882684B4FF6FF714FF0000B5F
:100260002B607368674AC3F3031313449A782B68AF
:10027000654CD3402B60654A654B0DF18809D3600E
:10028000B369029243F00103B361736ADFF8A8A176
:10029000C4F8A431736A504643F080737362B36943
:1002A00022AF43F01C03B36129F82C1D49468DF899
:1002B0005EB008F067F94946564808F063F94946C8
:1002C000554808F05FF910218DF8421002218DF891
:1002D00043104FF4007127F8481D5046CAF810101B
:1002E000394608F04FF94D48416841F000714160CE
:1002F000484608F0E2FE179B4949C4F8ACB1B3FB8D
:10030000F1F34FF47A71C4F8A8312B68C4F8B0B196
:10031000B3FBF1F34349013B4B60F023029A424D9A
:1003200082F823300723C1F808B00B602B7C3F4ACA
:10033000B3EB0B0318BF0123D371D374314B514678
:10034000224699464FF0010ADFF8F0C003F1100091
:10035000002330F802EF4EFA03FB1BF0010F18BF29
:100360000AFA03FB03F101031EBF1160A2F804B0F7
:100370000C32102BEFD101F580616145E8D1D8F83E
:1003800000301D4A934240F061820122284B1A70CE
:100390000021AB68DFF8A8800846C8F8003011F0EB
:1003A00080FB0021012011F07CFB4FF0170B002394
:1003B0004FF0020A1F4A52F823000133002841D0AF
:1003C000037280F806B080F807A01221039202930E
:1003D00011F0ECF9039A029B34E000BF8022002068
:1003E000183100201431002000100240002002408B
:1003F0000C0000200410014000127A00001BB7001E
:10040000C003002028A501083804002000ED00E00A
:100410000005FA05000C01400010014000000140F9
:1004200040420F0010E000E0BC280020C002002085
:100430004416002040A501080008014000140140B6
:10044000881E0020032BB6D10021084611F029FB9D
:100450000021012011F025FBB369402243F0010384
:10046000B3610021CE4818F03FF94FF0FF33CD4A79
:10047000C4F8F4310021C2F80330012011F0DDFB93
:10048000D8F800301A070FD595F82431012B0BD876
:1004900010F056FF95F82DA1064628B90AF1FF3A4B
:1004A000BAF1090F41F20E874FF4FA7015F0F1FA24
:1004B000A0220021BC4818F017F90026DFF81CA381
:1004C0000AF1A80B002356F80A005BF83320D90084
:1004D000904240F0ED8109EB010393F8D0000C3617
:1004E0000FF066F8A82EEDD14FF0040BD8F800609D
:1004F000AE4A06F040030393AD4BDFF8E4921A6076
:1005000000213022AB4889F800B018F0EDF8002344
:10051000594618464FF0FF0ADFF8C8E2DFF894C2E8
:100520001EF9012F03EB0C0B02929DF8082003F833
:100530000C20039A52B9029A1E3AD2B2012A9FBFE6
:10054000012001F1FF318BF800A0C9B20C33302B30
:10055000E6D108B189F800106B79974A84F8A03287
:10056000C4F8A42203F0EF02082A944A117802D0BA
:100570000E2B40F0A3810E2B41F0100040F0A5811E
:1005800041F0500111708E4A4FEAC30EC4F8A82200
:100590008C4A02EB0E014878897884F8AC0284F822
:1005A000AD120C21884801FB03014978002940F075
:1005B0009181C6F3401184F8AE12002940F08C817D
:1005C000C6F30056002040F2DC5CC4F8B0627F4EF7
:1005D00026F810C001300828FAD1002940F07E81A9
:1005E000173B022B09D811F0F5FC94F8B43223B173
:1005F0000123C4F8B03284F8AE321C220021384600
:1006000018F072F8D8F80060B3050CD52022212329
:10061000012184F8152384F816338DF84D108DF8D8
:100620005A208DF85B306B790E2B03D003F0EF036B
:10063000082B02D101238DF85430012016F0F6FE6C
:1006400018B14088003018BF0120C6F340038DF870
:100650004930C6F380138DF84B30C6F340338DF824
:100660004130C6F3C0338DF8443016F400638DF882
:10067000460007D095F8183103F1FF3EDEF1000384
:1006800043EB0E038DF84530C6F300438DF84C3034
:1006900006F001038DF84230C6F3C0038DF84330F5
:1006A00094F8AE32003318BF01238DF84E30C6F3F4
:1006B00000538DF84F30B5F8C630ADF85230B5F86C
:1006C000C830ADF8503095F8C4305A1E022A8CBF9D
:1006D000002201228DF84A20B5F8C220F604ADF8B8
:1006E0005620B5F8C0208DF85530ADF8582044BFDD
:1006F000B5F8CE20ADF85820042B08D100244FF4D3
:1007000080508DF84A4015F0DDFAADF85840D8F821
:1007100000302F48C3F300738DF840302D4B782202
:1007200093F87431002180F8173300F5467017F004
:10073000DBFF9DF85430BDF84220002B14BF02238C
:10074000002302B10133244A214C02EB8303D3F886
:10075000EC300393002302931E4602F1240304931A
:100760004FF6FF72039B33F81630934200F0548229
:100770009DF84620DDB21B0A5FFA83FA002A00F0DA
:10078000CF80AA1E012A00F2CB80032294F81933ED
:10079000019294F818230092B2B2012135E200BF11
:1007A000EC0500202C06002038060020C82A002076
:1007B000E0300020E4300020D8280020082200206B
:1007C0001829002088B5010834B701086C160020EC
:1007D00038040020BC28002028A501084CA50108E9
:1007E000D8410020F9B60108326842F001023260B7
:1007F0000B93336803F002030C930B9B01330B93B1
:100800000C9B1BB90B9BB3F5A06FF2D133689C070F
:1008100001D50123BEE4FEE7736843F46013FBE4F3
:10082000D8F8003018E573687268C3F38343D103C6
:1008300003F1020302D4B04A53430DE5726812F487
:10084000003FD8F8002018BF5208F5E7AB4A9342A2
:100850007FF49EAD022299E50021084611F021F9AE
:100860000021D4F8FC0111F012F9782015F006F9F6
:100870000121002011F015F90121D4F8FC0111F03B
:1008800006F9782015F0FAF8013695F82D319E42D8
:10089000E2DB95F82E31012B7FF406AE10F050FD0F
:1008A00000287FF401AE85F82D0115F0B5FCFBE5BD
:1008B0000133042B7FF409AE002010E621F0100173
:1008C0001170117821F040015CE6182B3FF458AE0E
:1008D0001070F6E701216EE60E4673E612F83360FB
:1008E0007244D2F804E084F8B462BEF1000F3FF421
:1008F00077AE00204FF00609DFF81CC2B042BFF609
:100900006FAE09FB00F20EEB0201D1F800B002EB72
:100910000C0A42F80CB08A880130AAF80420EDE7EE
:100920009DF84B2042B10C22754902FB0512516A19
:10093000744A91423FF429AF9DF84C1041B10C220A
:100940006F4802FB0502506A6E4A90423FF41DAFA9
:100950009DF8492042B10C22694802FB050292F839
:100960002820142A3FF411AF9DF8442042B10C22F4
:10097000634802FB050292F82820112A3FF405AFD4
:100980009DF8452042B10C225D4802FB050292F819
:100990002820212A3FF4F9AE9DF84D207AB10C228F
:1009A000574802FB05029DF85A0092F82820904211
:1009B0003FF4EBAE9DF85B0090423FF4E6AE022BB5
:1009C00040F090809DF84130002B00F021819DF88F
:1009D0004E3083B19DF854306BB9A5F10803012B5B
:1009E00009D80C23464A03FB05235A6A464B9A4210
:1009F00008BF4FF0040A0C27049B07FB05379DF83E
:100A00004F304BB19DF8543033B9002970D0A5F167
:100A10000C03012B40F25E84BAF1010F7ED1FF235B
:100A20000C224FF0000984F8D43384F8D533344BCA
:100A300084F8DC9302FB0535C4F8E87395F82800C8
:100A400084F89093C4F89493C4F89893C4F89C9352
:100A5000C4F8D09384F8D69384F8D79384F8D893C5
:100A600010F07EFE022280F807A0827180F80890C4
:100A700095F82C1010F09AFE4A4695F82910686AED
:100A800013F0D4F952464946384614F083FF1F4B01
:100A90001F4AC4F8EC331F4B111FC4F8F033C4F8DD
:100AA000F493384614F0BAFE202294F81A3304EB7B
:100AB000C30383F8212394F81C33013384F81C33D7
:100AC00094F81933CDF8049094F818230092B2B238
:100AD0000021132011F098F894F81A33013384F8A8
:100AE0001A3395E0012B7FF472AF9DF842306BE72B
:100AF0002B1F032B8EE700BF00093D00001BB70032
:100B000028A5010800040040002C014089130108B9
:100B100028080020D5140108ED060020BAF1020FC4
:100B200062D14FF01C0A9DF808300C210AFB03FA31
:100B300004EB0A094FF0000B89F8DD3305934FF001
:100B40000103254A89F8DC3301FB052589F8DEB36A
:100B500095F8280089F8E6B3C9F8E87310F000FEAC
:100B60004FF001038371C371059B95F82C1001337D
:100B7000037210F01BFE5A4695F82910686A13F0AC
:100B800055F901225946384614F004FF134B144915
:100B9000C9F8EC33134B0AF114020AF1100A0A44A3
:100BA000C9F8F033C9F8F4B35144384614F036FEAE
:100BB000402294F81A3304EBC30383F82123012263
:100BC00094F81B33013384F81B33029B01330293E7
:100BD00094F81933019277E728A501084115010817
:100BE0001408002061130108BAF1030F40F06E836E
:100BF00094F81993B9F1030F40F2E98201210191B0
:100C000094F81833B2B200934B46122010F0FCFF58
:100C100001360E2E7FF4A4AD0024CD4DCD4E95F8B7
:100C2000A0123470A1F11703022B00F29C834FF045
:100C3000000B05F2DC4AD5F8A4325946185903EBEB
:100C4000040919F0BFF8002800F07F83D8F80030BD
:100C5000DC0400F1A48311F051FA9DF84A3013B975
:100C6000012385F81C350021022010F0E6FFBA4A66
:100C7000BA4C13781C2043F0040313702378012B23
:100C80008BBF012700270026012610F069FD85F89B
:100C90002475C5F8200558B1112282710222C27153
:100CA0000022964202720CBF1221162110F07EFD26
:100CB000002012F0D7FE152385F8DE30022385F8D8
:100CC000DF300023122185F8E030A54810F0E2FC67
:100CD000B5F8DC30D5F8D820A24E1B041361307E65
:100CE0000EF066FC0123327E02F01F015209022A37
:100CF00003FA01F300F07983032A00F07B83707D0F
:100D000010F02EFD4FF00C080B234FF00209C371B9
:100D100080F8068080F808900746F07D10F020FDEE
:100D20000D2380F80680C37180F80890B07D10F024
:100D300017FD1B2180F8068080F8078080F8089056
:100D4000384610F033FDF07D10F00AFD072110F059
:100D50002DFDB07D10F004FD1B2110F027FD307D2E
:100D600020B110F0FDFC132110F020FD33697E4A04
:100D7000934240F0448302F56042D16841F48051CF
:100D8000D160D16821F48051D160B28B002A00F08B
:100D9000528300221046198801F4415141F44571F3
:100DA0000A4302431A809A8B307D22F400621204B7
:100DB000120C9A8307221A821A8892B242F04002D9
:100DC0001A8018B110F0CCFC10F05CFE2C2010F052
:100DD000C7FC9F238DF83C300023C5F828058346C7
:100DE00032208DF83D308DF83E308DF83F3014F0D4
:100DF00050FED5F8280510F0DCFC04220FA917A836
:100E00000EF0A2FCD5F8280510F03CFE9DF85E30EF
:100E10009DF85D201B0243EA02439DF85F201343C7
:100E2000524A93421BD0322014F033FED5F82805E5
:100E300010F0BFFCF5200EF0BFFCFF200EF0BCFC54
:100E40008DF85C00D5F8280510F01CFE9DF85C308C
:100E5000702B04D12378022B01D103232370237834
:100E6000032B0CBF1F20022016F065FA2378032BFA
:100E700000F0E482012007F0FBFB14263C4BDFF876
:100E8000FCA01D68324600215046029394F8008071
:100E900017F02AFC029B15F0020F05F4004905F437
:100EA00000670493504618BF8AF80060B9F1000F3C
:100EB00002D011238AF80530B8F1010F84BF152341
:100EC00083720FB12123C373DFF8B0804FF00F0995
:100ED000474600254FF0060A264B03F1FC023878FE
:100EE00000B303920293002610F03AFC314680F8DA
:100EF00006A080F80790067210F058FC3878039A24
:100F0000029B12F816E07100864540F0A282194457
:100F100091F8FD100720387101207970691CBD70AF
:100F2000F870CDB209F101095FFA89F9B9F1130F2F
:100F300007F10507D3D1104E492073681F2743F4EA
:100F4000404373600EF034FB20200EF031FB17E0BD
:100F500038040020C44100208022002044160020D4
:100F600010050020D802002000300140152020008C
:100F7000881E002028A5010800100240F01D002056
:100F8000BB4808F00EF917A808F0E0F8B94B022D9D
:100F90001793B94B28BF802218934FF0000338BF36
:100FA0001A461C924FF480721D924FF480621E927A
:100FB00020221F924FF400520596A6F6F87617A944
:100FC000304619931A951B932092219308F0CBF881
:100FD000012D94BF002101213368A84A43F0010389
:100FE00033605368013D23F4702323F4807343EA94
:100FF000012353609168A24BEDB20B4043F4602390
:1010000043F002039360D36A4FF0070C23F470039C
:1010100043EA05550123DFF8B092D56298F8031032
:1010200031B398F801105E1C0929F6B298F8045003
:1010300040F21582A1F10A00D2F80CE000EB40006A
:101040000CFA00FA2EEA0A0E05FA00F040EA0E0049
:10105000D060062B00F21082013B506B03EB830340
:1010600007FA03F520EA050099400143516333462E
:1010700008F10508C145D1D1804B9A6842F48072CD
:101080009A609A6842F001029A609A6842F00802F7
:101090009A609A681007FCD49A6842F004029A6039
:1010A000764B9A685107FCD49A6842F4A0029A6081
:1010B00010F046F90546F8B92946032010F0BDFDA9
:1010C0000121084610F0EDFC2946284610F0E9FC05
:1010D0000525012010F0D0FA002010F0CDFA642090
:1010E00014F0D7FC013DF4D12946284610F0D9FC74
:1010F0002946012010F0D5FC0EF098FD0026049B37
:10110000604D1B6831461A0644BF5F4A5F4B60481A
:1011100048BF1A6095F8DC3095F8F87003935D4B82
:1011200095F8E6801A680893B2F93E305A4A02935D
:10113000EB891660566096601822079395F8119017
:1011400095F812A017F0D0FA2278544C0695012A8F
:1011500098BF013C524D18223146A5F8446505F56B
:10116000A96017F0C1FA2320C5F8604514F091FC7E
:101170000FAA012175200FF0C7FE002800F096810C
:10118000484B17AAC5F84C35474B0121C5F85035D7
:101190004323304685F848350FF0B6FE9DF85C30A5
:1011A00003F07E038DF85C30002840F0D3819DF879
:1011B0003C303B4A03F07E03682B8DF83C3040F016
:1011C000EE84022382F8443510F07CF8CBE19DF8E0
:1011D00055A0BDF856E00AF1FF32BDF858309DF831
:1011E0004000032A34D8DFE802F0362D30021821FF
:1011F00000232E4D2E4A00904A43B2FBFEF23846A1
:1012000092B210F0DBFA2B4B43F829009DF84A30DC
:10121000C5601BB3192294F81A3304EBC30383F897
:10122000212394F81A2394F81933013204EBC202F3
:1012300082F818330133DBB2C2F81C7384F8193317
:101240000222C7E41C4D1821D4E71C4D4821D1E7E8
:101250001B4D0121CEE71B4D0821CBE794F81A3333
:10126000BAF1040F04EBC3030CBF0D220922D6E729
:10127000080002404C240140041E002000240140CC
:10128000FDF7F1FFBC2800204A2A0020402300205F
:1012900064090020A8230020B041002029A50108EE
:1012A00038040020090F0108B30C01081D150108BE
:1012B00040420F00C8410020D11501089D150108CA
:1012C0000D150108FD150108041E0020BAF1040FD8
:1012D0007FF49EAC94F818531FFA86F9072D07D9AE
:1012E000022294F81933019200954A46FFF755BA45
:1012F000BDF850108E4ABDF8523092FBF1F29DF8C5
:10130000401092B200913846012110F057FA0A229B
:10131000032194F81A3304EB8505013304EBC3036E
:1013200083F8192394F81823C3F81C7383F818233F
:101330000132D2B284F81823C5F8BC0494F81933EA
:10134000009201914A46FFF7C3BB04EB0A0799E8F4
:101350000F0087E80F00337810340133402C3370CE
:101360007FF469AC72E40C234B43724AD11812F833
:1013700003E0D1F804C086F800E0BCF1000F3FF4B0
:1013800065AC05F2DC497445BFF660AC230103EBA4
:10139000090763440FCB013487E80F00F3E7367881
:1013A000012E7FF658AC4FF07C57634B1C1D03EBAE
:1013B000061303F114061034A6423FF44CAC394630
:1013C00054F80C0C18F06AFB394644F80C0C54F82D
:1013D000100C18F063FB394644F8100C54F8080C54
:1013E00018F05CFB44F8080CE5E7544AD1680B435D
:1013F000D36084E4514A11690B4313617FE4504A7E
:1014000093420AD102F5EC32116941F48041116135
:10141000116921F480411161B7E44A4A93427FF493
:10142000B4AC02F5EA32116941F40041116111696D
:1014300021F40041EFE701220220ACE4022015F084
:10144000F5FF00283FF416AD4388002B3FF412ADA2
:1014500013E501360A2E7FF454AD00215AE51069D8
:1014600001EB410E0CFA0EFA20EA0A0A05FA0EF018
:1014700040EA0A001061ECE50C2B0BD8073B106B1F
:1014800003EB830307FA03F520EA050099400143C3
:101490001163ECE50D3BD06A03EB830307FA03F518
:1014A00020EA050099400143D162E0E595F86435F2
:1014B00013BB14228BF806200E228BF808308BF811
:1014C000072013215846C5F868B510F06FF91C4A7B
:1014D000138823F040031B041B0C1380138823F094
:1014E00038031B041B0C138013889BB243F040038A
:1014F0001380012385F8643517AA012175200FF0A8
:10150000D7FC9DF85C30A3F17002012A01D9AF2B02
:1015100029D105220C4B83F84425432283F8482522
:101520000A4AC3F84C250A4AC3F850251BE000BFFD
:1015300040420F0034B70108140900200010024097
:1015400000380040003C004038040020B10E010883
:10155000E10E0108682B7FF42AAE012385F844359B
:101560001D2385F848350026BD4C94F8443584F891
:101570006C65042B40F08A86BA4BC4F82C35BA4B04
:101580000726C4F83035B94BC4F83835B84BC4F821
:101590003C35012384F86C350023324601930093D7
:1015A0001946092010F030FB002E00F09083B14B5B
:1015B00001201E70099310F04BFB099BDFF8A0B2CD
:1015C0001E46B9F1000F00F0F082B8F1000F14BF11
:1015D0004FF47A737D2303FB0AF30AF1FF3284F898
:1015E0006D25C4F840354046D4F82C35984794F81A
:1015F0006E35002B40F0DD82012040F2026E40F299
:10160000FD1C9BF84425039B0B2B28BF002300FAED
:1016100003F111EA0E0F40F0DE8211EA0C0F00F028
:10162000DA82042A40F03886934B944A1A60944A2E
:101630004FF008085A60012384F8C435002342465D
:101640000193009319460A2010F0DEFAB8F1010F59
:101650001BD0022086F8018010F0FAFA4FF4807354
:101660008548038103689847864B1A7E022A40F01A
:10167000BC829B8A844890FBF3F0844B80B2186054
:10168000834B1B780BB107F01DFF00230022C4F829
:10169000C835804B062F1A70984640F2CB824FF027
:1016A0000108002342460193009319460C2010F0D4
:1016B000ABFA0FB1474532D1B8F1010F2FD0082056
:1016C00086F8038010F0C4FA0121084610F0E9F909
:1016D000714B1B68984707460021012010F0E1F983
:1016E000002F00F0E0856420029B93FBF0F700FBE5
:1016F000173000B218F07EF9684918F0CFF980462B
:10170000384618F077F90146404618F0BFF86449AA
:1017100018F0C4F90122634BC4F8C8051A70049B81
:101720000D201F68002307F40078C7F340270193BA
:1017300000933A46194610F067FA3771B8F1000F76
:1017400002D0102010F084FA4FF0FF32564B1A608E
:10175000B8F1000F00F0B682059B059A9B690A2735
:1017600043F00103936195F815030FF0F9FF00268C
:1017700002221221C27187710672C5F8CC0510F0E1
:1017800015F895F816030FF0EBFF01228771C2716F
:1017900006720621C5F8D00510F008F8434B8022E8
:1017A000C5F8D43542491023D5F8D00510F089F991
:1017B000D5F8D0050EF026F83E4B3F4A17A81A6020
:1017C0003E4A5A603E4A9A600AF0BCFABDF85C3064
:1017D000BDF96000A4F8D835022390FBF3F018F0AF
:1017E00009F92F4918F00EFA364918F057F90DF09B
:1017F0002BF8244BC4F8DC0593F8D2200AB184F806
:101800006C2593F8D3200AB18BF8C42593F8D43013
:101810000BB1204A13700021042010F00EFA0121B0
:10182000294A08461378174F43F00203137010F04B
:1018300038F90021084610F034F90A253E46012007
:101840000FF01AFF00200FF017FF192014F021F9F4
:10185000D7F8E837D80339D4012012F003F935E07E
:1018600038040020850F0108250B0108110B010821
:1018700090C1793DC4030020B0410020650F0108EC
:10188000690B0108BC28002040420F00201E0020E8
:10189000241E002079220020142200208988883C00
:1018A00000002041782200208C16002099BD0008FD
:1018B0000C0A00209820002045BD000829C7000818
:1018C00029BD000835FA8E3C80220020192014F032
:1018D000E0F8013D002012F0C5F815F0FF05AED18B
:1018E0002946284610F0DDF82946012010F0D9F8E5
:1018F000D4F8E0354FF0000B187C18F07BF8BC49A9
:1019000018F0CCF80CF0A0FFB949C4F8E405D4F8FD
:101910003C0518F0C3F8C4F8ECB5C4F8E805C4F801
:10192000F0B5C4F8F4B513F0A3FEB24B1B22FF21AF
:10193000184616F0D9FE4FF0010E0570AE4DAF49B6
:101940002A6881F800E012F0020CA84607D00223B2
:10195000837004230B701A2380F801E0C3701425F0
:101960004FF0170E0B7812F00A09C55403F1010766
:1019700003F10205EDB2FFB20D7000F807E00BD0E5
:10198000042747550527DD1CEDB24755DD190D70BD
:1019900006210433DBB2C154994F3B68990607D541
:1019A000964D297801F1010E85F800E00725455490
:1019B000717901F0EF05082D00F08D81A1F10E0E77
:1019C000DEF1000545EB0E05520702D49DB11A0663
:1019D00011D54FF0030ADFF824E29EF8002000F84A
:1019E00002A002F1020A8EF800A04FF0180E013298
:1019F000D2B200F802E013F0800203D0B9F10A0F6E
:101A000000F06E818DB1BCF1000F40F066814FF0A7
:101A10000A0E7A4D2A7800F802E002F1020E85F8EB
:101A200000E00E250132D2B285540E29734A01D04E
:101A3000182907D14FF0190E11784D1C15706D4DF6
:101A400005F801E04FF00B0E117813F4803F01F11F
:101A5000010500F801E0EDB218BF023115701CBF9E
:101A600011700C214FF00F0E18BF4155117813F46F
:101A7000806F01F10105EDB2157000F801E008D0AA
:101A800096F830E2BEF1000F03D002311170102140
:101A90004155190305D511251178481C107055487A
:101AA0004554DB0505D51378591C11701221514A94
:101AB000D1544FF4CC720021524816F015FE07F0B5
:101AC000F7FD069BDFF860E1B3F8D0304E48A4F88C
:101AD000FC3500234D4DC0F800E04D484D4A68608C
:101AE0004D48138093704D4AA86006981168B0F86D
:101AF00032A101F14002DFF82C91DFF830C1C4F8C7
:101B0000F8E5029284F8FE350FFA8AF0CDF80CE081
:101B1000DCF800E0424A0EF5967E29F8130042F800
:101B200023E00133122BF3D1354B029AD3F800E0B6
:101B30003C4B1EF4805F08BFB6F93A019031D88063
:101B400018461378ABB9937892F803C0634510D266
:101B5000002B00F0F380013B03EB830303EB8303D3
:101B600003F5617392F801C09BB20CF1040C20F8EC
:101B70001C3004329142E4D11EF0080F00F00381C2
:101B800096F82431072B00F2F880DFE813F0F30019
:101B9000F300E502F600F600F600F6001103702BE4
:101BA00004BF042382F84435DDE4079B8BF86D9570
:101BB00017E54FF00008DFF8789009EB0800D4F83B
:101BC000402594F86E1508F11C080DF0CDFFB8F112
:101BD000540FF2D110E50021012B03913FF613AD14
:101BE0008BF8C4154FF0010828E50CF0B3F944E573
:101BF00035FA8E3C9C160020AC410020B716002020
:101C0000881E0020E01E0020841E0020B028002036
:101C1000658C0008BC1E0020618C0008A8230020F1
:101C2000380A00208C1E0020D8290020B81E002071
:101C3000A80900200123BB4013F0580A1AD0444BD6
:101C40001B681B067FF52BAD424B434A1B68197876
:101C50000C234B43D118897800293FF420ADD35C85
:101C6000012B29D03D4B3E4A4FF004081A603D4AF3
:101C70005A6016E513F0050F3FF411AD4FF005095A
:101C800017AB01220A211E208DF85CA00DF016FD75
:101C900070B19DF85C30482B0AD1304B324A1A6043
:101CA000324A5A60032388F800304FF00208F8E403
:101CB000B9F10109E4D1C2E7022015F0EDFB0028DB
:101CC000D0D1ECE4CDF85C80ADF860807EE50120F9
:101CD00013F0E9FE9FE5012576E6002A3FF497AE72
:101CE0004FF0090E4FF00809DFF884C09CF800207F
:101CF00000F802E002F1010E5FFA8EFE00F80E908D
:101D00004FF0130902F1020E5FFA8EFE00F80E90FA
:101D10004FF0150902F1030E5FFA8EFE00F80E90E7
:101D200002F1050E8CF800E04FF0160E0432D2B22C
:101D300000F802E0002D7FF46AAE76E60CF1010CAB
:101D40000CEB8C0C0CEB8C0C0CF561730AE700BFF0
:101D5000881E00204023002044B2010814220020E5
:101D6000292D0108C52C0108BD0C0108B9970008F0
:101D7000B71600200DF09EFE28B9082013F0A2FF30
:101D8000B14AB24B5A6042F20102B14B1B68134296
:101D900009D044F620626A809A0440F12282082227
:101DA0002A70AC4A6A60190627D54FF00009AA4D7F
:101DB000AA4B85F811906B607E3B2B60A84BC3F853
:101DC0000490C3F8089010F0B1FFA64B48461B687A
:101DD00085F813902B6210F0F3FF2B681A780C2310
:101DE0005343A14AD35C022B40F00282012010F041
:101DF000E7FF002105200FF020FF4FF0000A4FF011
:101E00000109089B994D1B68994AC5F828B1DFF86C
:101E1000BCB21846C5F82421C5F82C21C5F888B4F1
:101E200085F8009085F801A085F802A085F803A048
:101E300085F804A085F807A085F808A085F809A012
:101E400085F80AA085F811A085F869A485F87CA416
:101E500085F868A4029312F041FD029B0BF5007215
:101E6000D933C5F88C34039BC5F89434ABF1D8034F
:101E7000C5F89C34ABF1CA03C5F898340BF1B00334
:101E8000C4F848367B4B0BF5097B1A607A4BBBE8EC
:101E900003009BF802205960BBF8001018609A728A
:101EA00019816B4B754D1A6885F800A012F4803FBC
:101EB0009B4611D014F0EEFC514640F28A62704805
:101EC00085F8009016F010FC07F0E8FF07F0D0FE50
:101ED000514606200FF0B1FEDBF800305A0515D54B
:101EE000102015F0D9FAC4F8D80C38B1438813F093
:101EF000100003D0102B14BF0220012084F8DC0C4A
:101F000012F014FB002107200FF097FE5D4B1B78A9
:101F1000022B01D10DF088FC5B4BDD68CDB14FF099
:101F2000000AED0A17ABAA450EDA0AEB05094FEADB
:101F30006909194610224FEAC920029308F094F962
:101F40000F28029B00F3948108F050F94F4BED02EB
:101F50001D60DBF800104E4B11F4002218BF012267
:101F60001A704FF47A734B4AA4F8DE3C137843F0AE
:101F700008031370484A137823F00203137040F6E5
:101F8000020319420DD0454A454B1A600322454BC6
:101F90001A700122444B1A700023444A1380444AA9
:101FA00013800124B368DFF8289100213C224148C6
:101FB0003B6089F81C4516F097FB00233E4A3F4DD5
:101FC00013603F4A2846136007F08EFA0BF0C2FFF9
:101FD000642838BF64202146E863204607F0BCFA35
:101FE000337E4BB1D9F840352146642B38BF64238A
:101FF0000220EB6607F0B0FA337E022B6AD1314B38
:102000001B689B0766D5B38A2F4C012194FBF3F321
:102010009BB2642B38BF64230320C5F89C3007F0C3
:102020009BFA337E022B40F02D81F08A94FBF0F472
:10203000A0B2642838BF64200121C5F8CC00042078
:1020400007F08AFA46E000BF658C0008B02800203F
:10205000881E0020798C000840230020C82A002018
:10206000F0160020B81E002044B201080C24002005
:10207000000080BF183500201C350020A42000205F
:10208000840A002044160020F8020020A423002027
:10209000F441002008220020DC210020CA29002071
:1020A000EC1D0020A8410020BC0300207C42002041
:1020B0007E4200207C1C0020781C002010000020A4
:1020C0007C1E0020AC41002040420F00502A00201E
:1020D000380400200121052007F03EFA01210620E6
:1020E00007F03AFA40F602023B6807201A4214BF92
:1020F0000121002107F030FA0121082007F02CFA15
:1021000039680920C1F3C01107F026FAD8F8001089
:102110000A20C1F3C00107F01FFAD8F800100B2005
:10212000C1F3001107F018FA39680C20C1F38021BF
:1021300007F012FA79880D2001F0010107F00CFA7E
:10214000002108200FF079FD6E4A137863F07F03B9
:10215000137023B0BDE8F08F0A224FEA0A1393FBF5
:10216000F2F300226849A3F5B06341F8223001324E
:10217000122AFAD142F6F8236B80644B40206B6040
:10218000634B2A70AB6015F087F900283FF4F5AD7A
:1021900001234FF0070E90F900005E4A8DE80840D9
:1021A0005D4B402115F0F6F8003018BF0120E3E543
:1021B0000A232B7044F620636B80584B40206B60E1
:1021C000574BAB6015F068F900283FF4D6AD0023FB
:1021D000012190F90000534A8DE80A004FF4E133E1
:1021E000DFE7D8077FF5DFAD0C222A704E4AD9E52C
:1021F000012B7FF4FEAD022015F04EF960B980206E
:1022000013F060FDF5E50133DBB2042B4FF0010163
:1022100009D900236B740EE0DFF824E149467246C9
:1022200090F805C06B7C0EEB030999F81091E1451D
:10223000E9D10029EED16B7C4FF00C0C1A4492F8D6
:102240001011002290F9000001922B68DFF8F4E0F1
:102250001B780CFB03E35B780093344B53F821307D
:10226000022115F097F8A86000287FF4BFADC6E7FB
:10227000002253F82210013120D10132042AF8D172
:102280004D4650E60BF066FE80B2D2E6052B7FF499
:1022900083A9274BFFF771B9052A7FF49CAC254B26
:1022A000254AFFF7C3B902210E200FF0C6FC234ACE
:1022B000136823F008031360FFF731BA09F1010A2C
:1022C000A946DDE7012108460FF0EBFB13200FF0D4
:1022D00047FA1822827102220672C2711221C4F8D2
:1022E000FC010FF063FA0121D4F8FC010FF0CFFBE1
:1022F0003C2013F0CEFB314601200FF0D2FBFEF75D
:10230000C4BA00BF80220020001D0020B18A00084E
:10231000E18A0008C98D0008A0860100898C0008A8
:10232000998C00081D8E0008698C00087CB101089A
:102330005D100108B0410020750F0108AC4100207C
:1023400028A5010844B20108BE4B2DE9F04F1B68D7
:102350000446BD4D988C95B0288017F047FBBB49CB
:1023600017F09CFBBA4BBB4E1A7E30600896059363
:1023700012B9204611F078FD059B1B7E022B08D078
:10238000B54B1B689E0704D512F02CFF20460FF0BA
:1023900001FFDFF80893B14BD9F800A0D3F800B0E3
:1023A0009AF800809BF8D930AD4E1A464146B6F9EE
:1023B0000000049312F07CF8AA4C049B41461A4694
:1023C00020800746B6F9020012F072F860809AF891
:1023D00007109BF8DA208046B6F9040012F068F87E
:1023E000059BB6F90620B3F8341140428A42A0801A
:1023F000CDF81C90C0F20184B2F5FA6FA8BF4FF47B
:10240000FA624FF47A73521A5A43C1F5FA61B2FB79
:10241000F1F2642692FBF6F3934903F1010E31F9D0
:10242000130031F91E106FF0630E0EFB0323091A1F
:102430004B4393FBF6F30344E3808C4B1B68580635
:102440003ED58B4BB3F904000A2390FBF3F0894B84
:102450001B88C01A00B217F0CDFA874917F01EFB8F
:1024600006460CF0F1F98146304615F0A5FC06460B
:10247000404617F0BFFA8046384617F0BBFA0146CF
:102480000746484617F00AFB41468246304617F099
:1024900005FB0146504617F0F7F917F0DBFC414603
:1024A0002080484617F0FAFA39468046304617F041
:1024B000F5FA0146404617F0E9F917F0CBFC6080C9
:1024C0006E4B1A78510740F19A83012100200FF0DA
:1024D000E8FA6B4B9B680BB16A489847059B694EBD
:1024E00093F83831002B59D0674B1F78B37843B934
:1024F0000BF030FD01210246301D0DF035FB0123AC
:10250000B370288817F072FA0146604815F0CCFCC9
:1025100017F0C6FC5E4B80B25B88B3FBF0F0411C49
:1025200009B23184002F00F0D2830023554DB6F953
:102530002290DFF830A105F1240805F12C0E38F9BE
:1025400013203AF913C009FB02F292FBF1F23EF8B4
:1025500013702EF813C0ACEB07073A4428F8132089
:102560000133042BEBD16884464A0023B2F92200E0
:10257000002840F3B083B2F9205002F12C07243236
:1025800032F9131037F813E0414391FBF5F1AEEB4C
:10259000010124F813100133042BF1D13A4B1D78BB
:1025A000002D00F0FF80354BDFF8F4801B78394FA9
:1025B00013F0040FDFF8ECB040F08F839BF8083085
:1025C000BBB10722DBF818110BF5807012F00CFC80
:1025D0009BF808306BB13B78DA070AD5DFF8A49096
:1025E00099F834302BB90E200FF076FB012389F8CF
:1025F00034309BF80E3033B1D8F800305B025CBF4A
:1026000001238BF80F30D8F80030DFF85890C3F36F
:102610008052C3F300638BF80E208BF8103012F059
:1026200057FA0AF034F99BF800201B4B03EB4213D6
:10263000B3F80A8018F4006F00F0A7830B4B1B68F7
:1026400032E000BF801E0020BC410020BD3786352F
:10265000BC280020D8350020AC410020A823002051
:102660008C1E002084420020DC410020E821002054
:1026700084160020B217002035FA8E3CDC210020A1
:102680006409002020110020B4170020241100202C
:10269000B02800200822002084AC0108A4410020BA
:1026A000A82000200C240020580500F16E8397F824
:1026B00000A01AF0100A00F03983DBF88C34B9F965
:1026C000020093F803A051460CF019F800B2C0B113
:1026D000DBF888344042B3F84830584317F08AF9A1
:1026E0000490504617F086F90146B94817F0CCF827
:1026F000049B0146184617F085FA012112F0CCFA26
:1027000028468BF80C0018F4805F00F0E283B14B90
:102710001B68590500F1DD833B7813F0100FDBF8DF
:102720008C3400F069839978B9F900000BF0E7FF69
:1027300000B2003018BF0120A74BD87218F4005F18
:10274000A54C00F0CE83A34B1A6812F4806240F0CF
:10275000C883A24B1B7813F0100340F0BE83A04A3D
:10276000B2F9041081EAE172A2EBE172D4F88C14A0
:1027700089788A4240F3B383D4F81831C4F84C31D5
:10278000657341F2B8002278964B03EB42139D89A2
:1027900020EA05000FF064FA28460FF071FA22785B
:1027A000914BDA860022904C904B94F838501A7076
:1027B000CDBB894B8E49D3F88834186B17F066F877
:1027C0000023C4F8C400C4F8C8004FF49672294628
:1027D00004F1D000C4F8BC30C4F8C030C4F8B8303C
:1027E000C4F89030C4F8A030C4F8AC30C4F89430C9
:1027F000C4F8A430C4F8B030C4F89830C4F8A83095
:10280000C4F8B430E5636566256784F8CC5015F0EC
:102810006BFF4FF49672294604F5FE7015F064FFC5
:10282000012384F8383013F0DFF8D4F83433714AD8
:10283000C31A9342074663D9C4F838336E4BC4F8C1
:1028400034031B68002213F0100300F0598313F0C7
:102850001FFF6A4B8146D3F82080694B41461868B8
:1028600017F0D8FA674D38B9484617F0C3F817F093
:10287000F1FA421C40F038834FF0FF332B60286898
:1028800017F0B8F80021804617F0C4FA002837D0B6
:102890005D49404617F0AAFA002831D0306F381A47
:1028A00016F016FD48A3D3E9002316F087FD16F0B5
:1028B00097FF37674FF07A51054617F08DFA0028D9
:1028C00000F01B83D6F878904946284617F0E6F8C2
:1028D000716F16F0DBFF01460546404616F0D4FF47
:1028E0004A49804617F0DAF8294616F0CFFF4849E2
:1028F0007067404617F0D2F8494616F0C7FFB06738
:102900000FF038FC002840F0FF820023C4F8843028
:10291000C4F88830C4F88C30384610F023FC0A2004
:102920003C4B2D4CB3F904304FF001095843C4F827
:10293000180117F05FF8384917F064F9374917F0B4
:10294000ADF8054615F038FAC4F81C0128460BF01E
:102950007BFF44F61F62244DC4F82001D5F84433B0
:1029600084F80490FB1A9342DFF8B48040F2B280FE
:10297000C5F84833D4F88834C5F84473196BD5F8D2
:10298000C40017F029FA0027002800F04F834846BA
:10299000D5F8B0300093D5F8AC30D5F8A420D5F8F0
:1029A000A01012F061FBD4F88834D5F8C800196B78
:1029B00017F012FA002800F040830120D5F8B42067
:1029C000D5F8A8102EE000BF8DEDB5A0F7C6B03E3B
:1029D0000000FA43E82100200C24002008220020F7
:1029E0008442002084AC010820110020B41700208C
:1029F0006F12833A69040100AC4100208437002043
:102A0000140A00208C16002000005C42029A583FF5
:102A10004182C640841600200000C84235FA8E3C30
:102A2000DC21002012F0EAFAD5F8BC9000214846DB
:102A300017F0F0F9002800F00B83D5F8C030C4F887
:102A40002491C4F8283198F800305B0740F1FC82EB
:102A5000D4F82C710021384617F0DCF9002800F07A
:102A6000F0823946484617F0D5F900B94F46C4F808
:102A70002C71012348466372E37017F0EBF9A5F857
:102A80004C030C2396F8CC70DFF860E303FB07637C
:102A90009EE80700013703F1D00CFFB203F5FE7387
:102AA000182F8CE807000EF10C0207CA83E8070014
:102AB0008ABF002386F8CC7086F8CC30D5F8C400E5
:102AC00017F0EEF9A5F84E03D5F8C80017F0E8F9AD
:102AD000A5F8500312F088FF0023E1790746A5F816
:102AE000523311B10123A5F8523394F809B0BBF168
:102AF000000F05D0B5F8523343F00203A5F8523366
:102B0000237A2BB1B5F8523343F00403A5F85233BE
:102B1000A04A137898070DD59F4890F805E0D4F89F
:102B200088040078864522BFB5F8520340F00800BB
:102B3000A5F8520395F8400028B1B5F8520340F0CB
:102B40001000A5F85203A07A28B1B5F8520340F05E
:102B50002000A5F8520303F07F00107098F80020C1
:102B600012F0040240F0878262748C4B8C4C1B780C
:102B7000CBB18C4BB3F90620059BB3F834319A42A4
:102B800011DC059B5B79012B01D0192B03D1059A30
:102B900092F888213AB90E2B05D003F0EF03082BE9
:102BA0001CBF0023A3807B4B7F4E93F800B01BF02B
:102BB0001003049340F068867C4B1A787C4B03EB3F
:102BC00042135B89DF0502F14D80336893F8DD70B5
:102BD000002F00F05986774B1B689D0700F0548644
:102BE0003FB2754B75491D6A284617F0F5F8002865
:102BF00000F00786714D00F00CBE0A4601E47049F2
:102C00000968CF075CBF42F001021A70614A12786E
:102C1000160758BF18786B4E5CBF20F00100187083
:102C20006948008818B169480068800706D4684878
:102C3000008818B967480088632805D902203070D9
:102C4000187820F00100187011F4804704D0624811
:102C5000014214BF01270027DFF850E1DEF88804A5
:102C600090F8390000B35D48007840B9DFF880C1C2
:102C7000DCF800C09CF808C0BCF1020F06D19EF839
:102C8000080010B382F0010202F001001A7812F07D
:102C9000040F05D1DFF85CE111EA0E0F00D007B197
:102CA00010B122F001021A701B78DA074CBF002322
:102CB0000223337012F098FE494B1B68C01A00289B
:102CC000FFF607AC06F034FD03E40120DEE7738C69
:102CD000013B738448E4538460E4D8F800309B02DD
:102CE00013D541F21002334B1B681A420DD19BF8E9
:102CF000083053B13B78DBF81811D8074CBF0522D8
:102D000007220BF5807012F06FF83B78D9077FF53A
:102D10005FAC344812F04EF9CBF89001314812F014
:102D200095F8CBF8940112F045F851E42E4BB9F820
:102D30000600B3F90020DBF88C34801A00B280EA78
:102D4000E071DB78A1EBE071994213DDDBF88834A8
:102D50000028B3F8483000FB03F0DBF89C34CBBF0D
:102D60005B881B889A1AD21A90FBF2F016F042FE8A
:102D70000221C3E49BF80C0000283FF4C2AC002001
:102D8000022111F089FF5046BBE400238BF80C3080
:102D9000B9E400BF08220020B81600200903002073
:102DA000844200208C1E0020A82300200C24002038
:102DB00084AC0108E8210020843700209A99193F4B
:102DC000A82000207820002042160020AC410020DE
:102DD00016110020701C002000010800DC300020CB
:102DE0007C2000207C25002000000020C011002055
:102DF0000C4100200003080093F80290B4F902008F
:102E000049460BF07CFC494607B2B4F900000BF0D0
:102E100076FC04B20FB9002C4CD0DBF8883493F860
:102E20003A20012A44D14FF4FA7AB3F8469009FBCC
:102E300007F090FBFAF016F0DDFD074609FB04F001
:102E400090FBFAF016F0D6FDDBF820A104465146BF
:102E5000384616F023FEDBF81C91049049462046C4
:102E600016F01CFE049B0146184616F00DFDDBF81B
:102E7000141016F0C7FEDBF8001116F007FD4946E6
:102E8000CBF83401384616F009FE51460746204675
:102E900016F004FE0146384616F0F8FCDBF8181070
:102EA00016F0B0FEDBF8041116F0F0FCCBF8380198
:102EB000284641E49BF80B0000283FF43DAC0DA8E8
:102EC0000AF0AAFC0DA80122214611F0EBFF2046D2
:102ED00032E400238BF80B3030E4154650E41D46F5
:102EE0004EE4002363734CE416F084FD414616F073
:102EF000D5FD16F0AFFF2860C1E44FF00009E3E410
:102F00006267A2672367FBE4A04CD6F890102068A4
:102F100016F0BAFCD6F894108146606816F0B4FC3E
:102F2000D6F898108046A06816F0AEFC984C05467E
:102F30002168484616F0B2FD61688246404616F0A8
:102F4000ADFD0146504616F0A1FCA1688246284618
:102F500016F0A4FD0146504616F098FCA169824681
:102F6000484616F09BFDE1698346404616F096FD03
:102F70000146584616F08AFC216A8346284616F018
:102F80008DFD0146584616F081FCE16883464846AF
:102F900016F084FD21698146404616F07FFD01460A
:102FA000484616F073FC61698046284616F076FDA7
:102FB0000146404616F06AFC764B00F100451B784E
:102FC000C6F884A013F0040FC6F88850C6F88CB079
:102FD000DFF8E88112D1704BD3F888345B786BB19D
:102FE000D8F804405846214616F04EFC6B4916F0BE
:102FF00055FD214616F04AFCC8F80400D8F8041024
:10300000584616F041FC0446C6F88C00504616F0AF
:1030100021FFA6F83C03284616F01CFFA6F83E0345
:10302000204616F017FFA6F8400375E400973B46CC
:10303000D5F8A420D5F8A010B3E40022D5F8A81044
:10304000F0E4C4F82C9114E5554BC4F82C3110E58C
:1030500098F80020524BC4F828715707C4F824315F
:1030600058BFC4F82C3100236372E3704FF6FF732E
:10307000A5F84C3305E5002220786271A271494A17
:1030800013F0100302EB40125289049228D0394603
:10309000104609F00BFF40494B790BB100234B70F0
:1030A0008B790BB100238B70CA7A3F4B2AB1B3F8EE
:1030B000522342F04002A3F852230A7B2AB1B3F80C
:1030C000522342F08002A3F852234A7B002A3FF4A5
:1030D0004CADB3F8522342F48072A3F8522344E576
:1030E000049A12076CD53148D5F854230380C5F8EB
:1030F000547343808380064600293CD0BB1A2C4A77
:10310000934204D9C5F858730AF0C6FBC3E7A37805
:10311000DBB1D5F85833C5F85873A7EB0308254B36
:10312000984525D8D4F88834B3F8500016F062FCDE
:10313000012100F1004011F0AFFD404611F016FBF7
:10314000404611F0C9FA0123A371D4F88834B4F9C8
:103150008424D4F89C14B3F9583013440A8849885D
:10316000934203DB99420A46A8BF1A46F28092E7CF
:103170000AF092FBE7E7104B1B6813B15B88C38032
:1031800089E7D4F89C341B88F9E700BF240A0020A3
:1031900084370020DC2100200C2400200AD7233BA8
:1031A000000080BF84AC0108201100208442002070
:1031B000400D03003F0D03000C41002000000020E3
:1031C000049BDB070BD5D5F85C33504AFB1A9342BE
:1031D000C5F85C7329D9C5F860730AF05DFB049BE0
:1031E000980715D5D4F88894D5F86C3399F83A2017
:1031F000FB1AC5F86C73002A40F08680E27A0692CA
:10320000424A934240F29880C5F870730AF022FB5C
:10321000049B5B077FF53FAF64223D4BD3F84C31F5
:1032200093FBF2F33B4A138035E7A378002B4CD095
:10323000D5F86033C5F86073A7EB0308364B9845A3
:103240005FD8237C53B3D4F850910021484616F040
:10325000D7FD18B3D4F824A10021504616F0D0FDB4
:10326000002849D0BBF1000F46D0404616F0BEFB07
:103270002A4916F013FC00230293294B02460193BE
:10328000284B514600934846274B09F09BFA0146CC
:10329000D4F8080116F0FAFAC4F83C01D4F83C015D
:1032A00015F0A8F847F6FF739842A8BF18461F4BC1
:1032B0009842B8BF1846A5F86803404611F056FA80
:1032C000404611F009FA0123A371D4F88834D4F8E8
:1032D0009C14B3F95820B4F984341A440B884988F3
:1032E0009A4203DB91420B46A8BF1346104A1BB219
:1032F000D380A5F86A3372E700210E4811F0CCFCA8
:10330000CCE70AF0C9FADEE7002278E7400D0300B7
:103310000C240020EE1600203F0D0300BD3786353B
:1033200000000C420000A0C0982400205A80FFFF3B
:10333000844200200000A0C1237A002B00F05C82B0
:103340006378002B00F02682069AD5F87033C5F812
:103350007073002A40F01B82A7EB030BB04B9B4518
:1033600000F24782D4F80011D4F8340116F08CFA38
:10337000616916F093FBD4F804118046D4F8380143
:1033800016F082FAA16916F089FB2278A54B074650
:1033900003EB42135B89B9F84200590513D594F940
:1033A0006934002B0FDD182294F97C3402FB0343AF
:1033B00093F89821012A06D1B3F8A831312B02D90C
:1033C000984228BF184616F011FB414681464046F8
:1033D00016F064FB39460546384616F05FFB014699
:1033E000284616F053FA15F03FF84946824616F083
:1033F00011FD80B15146404616F004FC494616F0D6
:103400004DFB51468046384616F0FCFB494616F007
:1034100045FBCA4607462278824B03EB42135B8981
:103420005A0529D5D4F81831D4F84C01C01A0BF03C
:1034300075F942F228339842A8BF18467A4B984251
:10344000B8BF184616F0D6FA784916F0DBFB784973
:1034500016F024FB0BF0F8F9014616F01FFB754936
:10346000054616F0B9FC002840F0B1814FF07E51BE
:10347000284616F0CFFC08B14FF07E55494650461D
:1034800016F0C0FB6C49814616F0A6FC002840F0FF
:10349000A0814FF07E51484616F0BCFC08B14FF0B9
:1034A0007E594946484616F0F9FA01464FF07E50DB
:1034B00016F0EAF9D4F8FC1016F0F0FA01464FF0D5
:1034C0007E5016F0E1F981462946404616F0E6FAAC
:1034D000494616F0E3FA2946C4F8400180463846CA
:1034E00016F0DCFA494616F0D9FAC4F84401404611
:1034F00014F080FF47F6FF75A842A8BF28464F4F3B
:10350000B842B8BF3846A6F87403D4F8440114F0A2
:1035100071FFA842A8BF2846B842B8BF3846D4F8C1
:103520000C11A6F87603D4F8400116F0ADF9D4F8E2
:1035300010110546D4F8440116F0A6F929460446B0
:10354000284616F0ABFA21460646204616F0A6FAA3
:103550000146304616F09AF914F086FF38490646BF
:1035600016F058FC002800F037813146354816F037
:1035700049FB064625F00040314616F08FFA3146E9
:10358000074624F0004016F089FA0446584616F023
:103590002DFA2D4916F082FA2C49064616F07EFACD
:1035A0002B4B0146D3F87C538246284616F06CF923
:1035B00007F100494946804616F00EFC002840F00D
:1035C0000E813946404616F025FC00B1B846294622
:1035D000504616F05BF905460146484616F01AFCBF
:1035E000002840F0FE802946384616F0F5FB00B171
:1035F0003D46174B5146D3F880B304F10049584675
:1036000016F042F94946074616F0E6FB002840F05E
:10361000EA802146384616F0FDFBD8B1274619E06E
:103620003F0D030084AC0108D8DCFFFF0000C84256
:1036300035FA8E3CCDCC4C3D0AD7233C5A80FFFF57
:10364000CDCCCC3D00007544BD3786350080D444D8
:10365000201100205946504616F018F982460146BE
:10366000484616F0D7FB002840F0BF805146204660
:1036700016F0B2FB00B1A2464FF00009B64CCDF8EF
:1036800008900195CDF80080324604F12003D4F86B
:103690000C11D4F8400109F095F8CDF80890009786
:1036A000CDF804A00546324604F14403D4F81011C5
:1036B000D4F8440109F086F8A84F8046C7F8800383
:1036C00033462946022207F56170C7F87C5314F08F
:1036D00017FC334602220546414607F5647014F094
:1036E0000FFCD4F81C910646494605F1004016F03F
:1036F000D5F9D4F8207180463946304616F0CEF917
:103700000146404616F0C2F839468046284616F073
:10371000C5F949460546304616F0C0F90146284627
:1037200016F0B4F88E490BF00BF807460BF08CF846
:103730000146404616F0B2F989490BF001F8894973
:1037400016F0ACF9884916F05DFA16F083FBD4F850
:10375000883493F8565005EB85056D006E42B042F3
:1037600045DBA842A8BF2846A4F87E047D49384618
:1037700016F094F97C4916F045FA16F06BFB864278
:1037800003DC8542A8BF05462E46A4F880640122CA
:10379000714B5A71069B002B7FF43AAD6E4CD4F8F6
:1037A0009064B4F98004B6F9365016F023F929462E
:1037B0000EF0C8FB6D4DB6F934606880B4F97E0434
:1037C00016F018F931460EF0BDFB288020E5684D53
:1037D00054E6DFF8AC9164E6664C2746D6E6C84668
:1037E000F5E64D4605E74F4634E7CA4644E730461E
:1037F000BAE70AF02FF8CAE7A4F88034A4F87E34B8
:1038000006E54FF07E51284616F004FB08B14FF054
:103810007E55059B29464FF07E50B3F8BC8016F0CC
:10382000F1F94FF07E5116F02FF80546384616F0A4
:10383000E1F8514916F0E6F90146284616F02EF94E
:103840004FF07E5116F022F80546B4F90600A0EBC1
:10385000080016F0CFF80146284616F01FF9054675
:10386000404616F0C7F80146284616F00FF816F045
:10387000F1FA059B8045B3F8BE3003DC8342A8BF54
:1038800003469846A4F80680079B344D1A68B4F99D
:103890000640B5F89C3336689C4218BF0121374B6F
:1038A0001CBFA5F89C4319701B78002B00F0CC803E
:1038B000049B9779002B00F00A81002F62D0059BB2
:1038C0001089B3F8BC8040455CD944453FDDA0EB8E
:1038D000080016F08FF88146A4EB080016F08AF86D
:1038E0000146484616F08EF94FF07C5116F0D6F896
:1038F0004FF07C5115F0CAFF4FF07C51044616F092
:103900006BFA08BB4FF08041204616F083FA08B1ED
:103910004FF08044C5F8A0434FF07E51D5F8A00386
:1039200015F0B2FF0446384616F064F8124916F056
:1039300069F90146204616F0B1F84FF07E5115F0B6
:10394000A5FFC5F8A00321E04FF07C54E2E74FF05B
:103950008043C5F8A033DFE70C24002020110020AD
:103960008F2A75440000204135FA8E3C84420020A5
:10397000CDCC4C3DC23D2D440000C8424016002035
:103980000AD7233C4FF07E53C5F8A0330027D5F863
:10399000A053804C013E16F8019F484616F02AF8C5
:1039A0007D4916F02FF9206096F80A80069040466F
:1039B00016F020F84FF07A5116F070F860608246E9
:1039C000307D16F017F8754916F01CF9049B8346F4
:1039D000A060069A002B00F096801046294616F04B
:1039E0005DF829462060504616F058F82946606078
:1039F000284616F053F8594616F050F8A060B9F171
:103A0000000F00F08B80B8F1000F00F08780D4F831
:103A100000806168404616F0F5F841468146A0688E
:103A200016F0F0F80146484615F030FF01464FF019
:103A3000804016F0E7F8E0600137032F04F16C04D2
:103A4000A9D10022564B1A70564B1B680493079B52
:103A50001B680693544B1C6814F0080415D0534B94
:103A60001B7813F0080410D05149524A087802EB31
:103A700040125289140641F11581D80601F11281D4
:103A80004B7B002B41F01C810224424E0027B046A4
:103A90003546DFF84091484B53F8270015F0AAFF50
:103AA000464B196915F0FAFF022FC8F8100038D1FB
:103AB000022C36D1049816F043FC4946824616F093
:103AC0008BF9002801F00781C5F8EC908DE0002FFC
:103AD0003FF458AF12899442FFF654AF059BB3F8F8
:103AE000BE309C42BFBFA01A78439B1A90FBF3F0F4
:103AF000ACBFC7F16400C0F1640015F07BFF304932
:103B000016F080F81DE7022F3FF479AF29461046E2
:103B100015F0C4FF2946206058466DE70023E36096
:103B20008AE7069B3B4493F803B0584615F05EFFC6
:103B30008246CBF1000015F05DFF0146504615F0BE
:103B4000A3FE83461F4B33F9170015F053FF1E49A0
:103B500015F09CFE594615F0A1FF1C4916F052F8CD
:103B6000594615F091FE514615F090FE16F072F987
:103B70000A23584315F03EFF4946824616F02CF9B9
:103B800050BB1349504616F045F930B3DFF840A05A
:103B900023E000BFE83500200000F8410020EE449B
:103BA00040160020A8230020AC410020082200205D
:103BB0000C24002084AC0108541600206409002065
:103BC0000000C842844200200000FA4300007A440A
:103BD0000000E1440000E1C4CA460137032FC8F8E1
:103BE00014A008F16C087FF456AFB24F3B689B07F6
:103BF0004CD0059BB3F83221AF4BB3F90200B3F9B7
:103C00000030801A9B1A80EAE071A1EBE07183EA30
:103C1000E372A2EBE372B1F5FA7FA8BF4FF4FA7139
:103C2000B2F5FA7FA8BF4FF4FA729142B8BF1146BD
:103C3000084615F0DFFEA14915F0E4FF049B80461D
:103C4000D87E6428A8BF642015F0D4FE9C4915F0E6
:103C5000D9FF81460146404616F0C8F8002800F01A
:103C600091824046494615F0CDFF80460023954A93
:103C700006990498CDF800800EF086F8CDF8008003
:103C80000123914A069904980EF07EF83F68B80423
:103C900019D5022C17D0D5F8EC400021204616F09B
:103CA0009BF8002800F0718204F100404FF0804141
:103CB00016F0B0F820B9854B1B78590700F16782E0
:103CC0000023C5F818313A0417D500230D930E933D
:103CD000D5F8EC300DA80F9311F072FC0D996869BE
:103CE00015F0D4FD0E996861D5F8800015F0CEFD71
:103CF0000F9BC5F88000C5F8EC3000254FF0000997
:103D0000089BD3F80080022D049B00F0AE87186B4F
:103D1000322828D915F06AFE49467769044616F01C
:103D200079F8002800F05C824146204615F0B6FE86
:103D3000D6F850B001468246584615F0A5FD044617
:103D40000146384616F048F850B95946504615F025
:103D50009DFD04460146384616F05CF800B93C4625
:103D60003465336D73610135032D06F16C06CAD1DC
:103D70000026049B564C1433089354F8501C54F8F6
:103D80004C0C15F081FD54F8601C079015F086FE70
:103D9000022E81461ED14F4B1B78032B0FD9049B5B
:103DA0005D8C65B116F056F86B42984203DBA84271
:103DB0000346A8BF2B46184615F01CFE8146049BFF
:103DC00093F8242032B1444B49461B68434814F011
:103DD00097F88146089A12F8013B0892002B00F0F0
:103DE000108214F82C2C54F8341C013A9200081D4F
:103DF00054F8505C14F014FC54F8348C0027C8F8C4
:103E00000050002514F82BAC5545C0F2EB81324B25
:103E100054F8580C1D6800F10040294615F0F2FED8
:103E2000394615F03BFE049B07469A7F2AB10146AE
:103E30002B46204614F064F807462949384615F009
:103E4000CBFF002840F0DF812649384615F0E2FF1D
:103E500000B1244F54F828BC3946484615F016FDE9
:103E6000594615F013FD2049804615F0B5FF00288E
:103E700040F0CB811D49404615F0CCFF002800F0F2
:103E8000C6811A4B0693049B022E0CBF188DD88C4A
:103E900015F0B0FD54F84C3C05460021184605933A
:103EA00015F09AFF002800F0DF81059B03F1004028
:103EB0001EE000BFE82100208C1E00200000FA4315
:103EC0000000C842E835002054360020DC210020E4
:103ED00048360020C4410020D83500201437002087
:103EE000000096C30000964300007AC400007A44A4
:103EF000294615F087FE01464FF07E5015F0C4FCB0
:103F00000021054615F068FF002840F0AF814FF012
:103F10007E51284615F07EFF08B14FF07E55BD4B0F
:103F200054F85C1CD3F800A0079815F0B7FD29469B
:103F300015F0B4FD514615F0B1FD41460546069811
:103F400015F0A2FC54F8541C15F0A8FD514615F0CC
:103F5000A5FD0146284615F099FC594615F096FC3A
:103F6000AD4B80461B7844F8280C13F0200F0793C4
:103F7000AA4D04D195F8A433002B00F07B8154F8AE
:103F800024AC40460AF1004B594615F025FF38B9DC
:103F90005146404615F03EFF002800F06981D346A7
:103FA00044F828BC079BDB061DD5049BB3F83AB048
:103FB000BBF1000F17D0CBF1000015F01BFD54F83A
:103FC000288C82460146404615F006FF48B95846FF
:103FD00015F00CFD82460146404615F01BFF00B966
:103FE000C24644F828AC069815F034FFDFF86C821E
:103FF0006C3428F81600484615F02CFF08F1060A24
:104000004AF8260054F8940C15F024FF08F1120920
:1040100049F82600384615F01DFF08F11E0949F839
:104020002600059815F016FF08F12A0848F8260022
:104030000136032E7FF4A1AE794B7A4E1C78032C07
:1040400017D933685888B0F5FA7F12D2764BB5F994
:10405000AA73B3F90430424283EAE371A1EBE3713E
:10406000531A9F4203DB4318BB42A8BF3B46A5F847
:10407000AA3300273368B9463E46DFF8E48104934B
:104080000DF1340BA145C0F2FE80684BF01B1A689D
:104090000FFA80FB12F4805F0493634ADFF8C49147
:1040A00000F047816249B2F90660097811F0040F07
:1040B000604908BF08680A685F4908BFC08A0F687E
:1040C00008BFA5F8DC03D28AF888111A8E4200F3E3
:1040D0001281D9F80010B7F90020B1F90070A5F8E5
:1040E000DC63A2EB07080FFA88F8C34540F33A8176
:1040F0000122404685F8A42315F07CFC054658466D
:1041000015F078FC0146284615F07CFD4FF0000BB9
:1041100082460DAA5C4500F315814849284615F0F2
:10412000BDFC4FF0020A4FF07C5115F0B7FC98FB34
:10413000FAFA054607EB0A0015F05CFC294615F073
:10414000A3FB15F087FE0FFA80F808EB0A0015F0C4
:1041500051FC294615F09AFB15F07CFE344A0FFA03
:1041600080FA127812F0040240F03F81134634497D
:10417000344A9C4240F3608131F8130022F8130066
:104180000133F6E74FF07E5870E520468EE5D5F80E
:10419000E810204615F078FB1E4B196815F07EFCE0
:1041A000D5F8181115F072FB2749044615F014FED6
:1041B000A0B92649204615F02DFE00B1234C049BE2
:1041C000C5F81841187A15F015FC214915F01AFDAB
:1041D000214615F063FCC5F8EC0074E51A4CEEE7D7
:1041E0003765BEE554F8303C58F8251053F82500E3
:1041F00015F054FC0146384615F048FB01350746DA
:1042000002E6002726E6134F24E6134B3AE6CDF8E4
:10421000188038E6D8350020082200202011002020
:10422000C44100204841002084420020881E002014
:10423000DC2100204C4100202C370020C3F5A83E93
:10424000382300207C160020000034C200003442D5
:104250000000A042000096C300007AC4C6140020EB
:104260001409002030370020059841E6002556E665
:10427000C34695E6002115F0AFFD08B108F10048EE
:1042800044F8248C8EE6B5F9A80315F0B3FBD8F8F2
:10429000081015F003FC8246B5F9A60315F0AAFB39
:1042A000D8F8041015F0FAFB0146504615F0EEFA66
:1042B000049B824693F90030B5F9AA035B42584348
:1042C00015F098FBD8F80C1015F0E8FB01465046A5
:1042D00015F0DCFA15F0BEFD00B2B0422BF8190063
:1042E00003DC8742A8BF0746304609F1010908F1FF
:1042F00010080646C6E60244964206DBD9F80020BE
:10430000B7F90270B2F90220E9E6B5F9DC2391426F
:10431000A7BFB7F90060D9F80020D9F80020B7F995
:104320000260ABBFB2F90070B2F9022032463746E4
:10433000D7E6B2F90660D9F80020B2F90070B2F9F8
:104340000220CEE632F91B00059215F053FB5146D0
:1043500015F0A4FB15F07EFD059A22F81B000BF169
:10436000010BD7E60021404685F8A413059215F00D
:1043700041FBB14915F092FB4FF0020A4FF07C511E
:1043800015F08CFB9BFBFAF598FBFAFA834607EBDA
:104390000A0015F02FFB594615F076FA8046781979
:1043A00015F028FB01460746404615F033FD059AF7
:1043B00000B947463846059215F04CFD0FFA80F8D3
:1043C00008EB0A0015F016FB594615F05FFA059A3E
:1043D0000746501B15F00EFB05460146384615F002
:1043E000FBFC00B93D462846B6E64FF0000B934A69
:1043F0009349D378D9F800500793049BD1F80090E3
:104400001A68904F02F4805302F0100209928E4A0B
:104410000893B2F906208D4B0592B3F9DC338C4A30
:10442000049392F900208B4B06921B6862000A925B
:104430000A9A5A4540F03A81874B1B78002B00F0CE
:104440009A80864B86481B687F4CB3F8502193F8BE
:1044500052110368049213F4807F824D00F073813F
:10446000814B1A88ADF834205A889B88ADF83620E5
:10447000ADF838304FF47A724FF461667B4FB7F97C
:10448000023003F5E163534393FBF6F3A3F5FA73AC
:10449000ADF84C30B7F9003003F5E1635A4392FBB5
:1044A000F6F2734BA2F5FA721B88ADF84E20A3F218
:1044B000DC53ADF83A302B682288DB8AD21AADF88B
:1044C0003C206288D21AADF83E20A288D21AADF8FC
:1044D0004020E288D21AADF842202289D21AADF8E3
:1044E00044206289D21AADF84620A289D21AADF8CA
:1044F0004820E289D31AADF84A3000231C465D4AB1
:1045000022F813400133082BFAD15B4B0129D3F871
:10451000008003684FF0060203F48043079314BF42
:1045200001234FF0FF334FF0640C0893534B544971
:104530001B78544802FB0313DFF838A10993099B49
:104540008B4240F01B8100254FF00E0964274E4E30
:1045500009FB0583B6F9024093F90600444394FB36
:10456000F7F4E8B274800DF06DFD01352044082D9C
:1045700026F8020FECD1454D2B68990632D5002064
:104580000DF060FD3B4C0646208001200DF05AFDE9
:104590003F4B60801B681A0624D53E4B33491B688D
:1045A0001B78012B344B40F06381D3F800E03227B5
:1045B0009EF906305A42B1F90230B1F90010534366
:1045C0009EF9142093FBF7F351436FF0310291FBF6
:1045D000F2F291FBF7F19BB21A44B21A22800B441B
:1045E000184460802C4B1B68002B40F054812B4BEF
:1045F0001B780BB10DF040FD294B1E78002E40F0CA
:1046000047822B68190340F1438211F0EDF9254CE4
:1046100007462378033B052B00F20782224BDFF885
:104620002C8093F8E237002B00F0EB81012B00F097
:104630000C823046E9E100BFC3F5A83EBC1E002055
:104640002C3700207A1600208C1E0020201100201C
:10465000082200204C410020E6060020A82300206C
:10466000E8210020584100208442002084160020C8
:104670007C1600206C1600209C230020EC060020F5
:10468000ED060020FE1400206A160020881E00207F
:10469000A820002054410020E806002054090020F2
:1046A00098230020F4410020BC2800200B933046C2
:1046B0000DAB33F80B4015F09DF9A94B53F83B10A7
:1046C00015F0ECF915F0C6FB404541460B9B03DBAA
:1046D00050450146A8BF51460C44079A24B227F81A
:1046E000024F12B1A98868880BE0089AB2B1D98A42
:1046F000B9F80600049A091A8A420CDC2988B9F82C
:1047000000008C4203DBA0420146A8BF214639804D
:104710000BF1020B8CE6B9F80210E4E729886888EF
:104720008C4203DBA0420146A8BF2146099A39808A
:10473000002AEDD0198B059A8A4202DB069A002ADC
:10474000E6DAA988E3E7874BB3F8A623ADF834206F
:10475000B3F8A823B3F9AA33ADF83620824AADF8EE
:1047600038301268D6047FF585AE2A68B4F9066041
:10477000D28A9642BFF67EAE5B4279E60E230F7870
:1047800091F9054003FB0789B9F90220B9F9003016
:1047900091F801E0D21A91F9043092B2534393FB9D
:1047A000FCF34FEA520BA3EB0B030694CC781BB23D
:1047B00005934FEA4E06002C3FD114AC264436F840
:1047C0001C4C0480079C74B1FC1E012C0BD8042FD8
:1047D00014BF01244FF0FF34049D089E6C430588EC
:1047E00006FB045404800123D9F80A4003FA0EFEA4
:1047F00014EA0E0FB0F9006091F9024008BF1D469F
:1048000004FB06F494FBFCF4059B18BF4FF0FF3546
:104810009C4209DB069B5A4392FBFCF2A2EB0B0382
:104820001BB2A342A8BF23463AF81720023005FB6B
:10483000032306312AF8173081E614AB1E44B0F981
:10484000005036F91C6CB54208DA2C44A54203DC52
:10485000A6423546A8BF25460580B3E7B2DD2C1B2E
:10486000B44203DBA542A8BF25462E460680A9E731
:104870001B68B1F9022093F906707A43322792FB44
:10488000F7F23244228093F91420B1F900305343F7
:1048900093FBF7F3A4E6354F3B6893F90430002B04
:1048A0007AD1334B334A1B6803F17004B2F902002A
:1048B000B3F90010B3F90260884203DB8642314647
:1048C000A8BF01460E339C4222F8021FEED12A4BAC
:1048D0001B78012B02D0192B40F08780274B1B78C7
:1048E0005B0700F182803B681F78B7FA87F77F0982
:1048F000234B1C788CB1234B1C7874B10026224BBF
:10490000DFF8908093F80090DFF880A098F80020FE
:1049100009EB06039A42344669DA2B689E060AD5EB
:104920001A4FE0B2661C39880CF09AFE7988F0B212
:1049300002340CF095FE2B68D8027FF558AE0026A5
:10494000134FE4B2A01937F8021FC0B20CF088FE72
:104950000D2E06F101033FF44AAE1E46F2E700BFFA
:104960001409002020110020881E00205041002042
:104970009C2300206A160020D8060020DC2100209D
:10498000E6060020EC060020E40600206C1600205D
:10499000921E0020E5060020B74E96F8FE4306F56D
:1049A00080687CB9DFF8F8923B6808EB0400D9F81E
:1049B000142059881C340BF0D7F8E02CF4D10123D3
:1049C00086F8FE330024AD4EB6F9020015F012F859
:1049D000014608EB040013F067FA15F03BFA1C34AB
:1049E000E02C26F8020FEFD15BE7002780E7F0B25A
:1049F00027B100210CF034FE013687E73AF8131096
:104A0000F8E7D8F8E0040FF0EAF9D8F8E42498F8C9
:104A1000E8341344B3F5807FA8BF4FF4807383421A
:104A2000D4BFC8F8E434C8F8E4042378023B092B67
:104A300029D8DFE813F00F001C00550078008E0025
:104A4000A600B900CA00EC00F80005F001F9C0F1B9
:104A50007F00DAE70022884BC3F8E424C3F8EC2493
:104A6000874A1268C3F8F024032323700BE0844BB9
:104A7000814D1A68D5F8F0346433934203D2402054
:104A800007F09AFF38B112F0CFFD08B1012323706F
:104A900015B0BDE8F08F7B4F4026B846D5F8EC3412
:104AA000F85C78B112F06CFED5F8E434013E03F105
:104AB000FF33C5F8E434D5F8EC3403F10103C5F84D
:104AC000EC34EBD1D5F8EC3418F80330002BDAD104
:104AD000C5F8EC344FF0FF33C5F8F0340423C4E7D5
:104AE000694A5021A2F10C030193442302920093DE
:104AF0004920A2F10A03163A06F06AFA0028C2D148
:104B00002A685D4B12F080024FF0FF3105D0C3F8E8
:104B1000EC04C3F8F0140523A7E7C3F8EC24C3F8AA
:104B2000F0140723A1E7022300210093574B0291C1
:104B30000191A3F10802482006F04AFA0028A2D108
:104B40004FF0FF324C4BC3F8EC04C3F8F0240623BB
:104B50008BE74F4A0021A2F10C0301930B23029231
:104B600000934720A2F10803143A06F031FA002816
:104B700089D14FF0FF32404BC3F8EC04C3F8F02466
:104B8000CFE7052300210093424B02910191A3F14D
:104B90000802532006F01CFA00287FF474AF364B4D
:104BA000C3F8EC04082360E705F0A8FF00283FF4F1
:104BB0006AAF12F04FFD00283FF465AF4FF480520A
:104BC0002D4BA3F8F4240A234FE7334B1B689A03B9
:104BD0001AD5294DB5F8F634B3B9D5F8F86445209F
:104BE00012F0CEFD0E2012F0CBFD304612F081FE09
:104BF000384612F07EFE4FF48053A5F8F4340A23B1
:104C00002370384605F06EFB05F05AFF3BE71A4B60
:104C100093F8FC34002BF4D01F4B1B689B03F0D49B
:104C200009232370F0E7164B134D1A68D5F8F034BA
:104C3000C833934211D2194B93F8E2675EB9D5F8A5
:104C4000E00412F093FB95F8FD34C5F8E064022B04
:104C500001D104F02DFD012307E712F0FBFC002831
:104C6000E9D110E76427FDF7BCBFD86A32287FF688
:104C70007FA8FFF74FB800BF201100206A16002060
:104C8000B81E0020ACA6010822A7010844AA01080A
:104C900060AA0108D8AA0108A8200020BC2800208A
:104CA00064090020124BB3F9042082EAE273A3EBFB
:104CB000E2730E2B04DC0F4B1B685A073EF5E4AE83
:104CC0000A220D4B0124B3F9043093FBF2F30B4A93
:104CD0001380FEF7DABEDFF828B05046594615F0CB
:104CE00099F800283EF479AFC8F814B0FEF77DBFFC
:104CF00084420020E821002084160020EE160020C7
:104D00000000E1442DE9F04FB34BAFB01E780093A3
:104D1000002E00F0C880B14B186800286CD00CF051
:104D20004DFFDFF8F0A2AE4CDAF800000FF05AF8B1
:104D3000002861D0DAF800000FF04EF80928A94DDC
:104D400001D03F284FD14FF00008C14646462F689A
:104D5000DFF8C4B208EB0B0347B13A4658F80B1022
:104D60002046019313F052FE019B08B96EB3994699
:104D700008F10808B8F5847FECD196B1D6F800E0C8
:104D8000D9F800C02B681EF803001CF803108142FC
:104D900007D15A1CE1B92D2B1AD820202A60E054E3
:104DA000A1542B680BB14E4507D08F4811F06EFF10
:104DB0004E4510D912F0A6FA00272B689F42B3D2B5
:104DC000E05D11F0D8FD0137F7E71E469946CFE7C1
:104DD000E0542A60D6E756F8080B11F057FF092077
:104DE00011F0C9FDE4E72B68002B41F06D81042828
:104DF00005D17B4809F0B6FF2FB0BDE8F08F0C2835
:104E000041F08681794811F041FF12F07BFA8BE77F
:104E100001220B4601F06BB9591E605C2028F7D0C7
:104E200002B12B600026E654714BDFF8EC81D3F819
:104E300000B056F8081006EB08090846019113F077
:104E4000B7FD019907460246204613F0DFFD20B961
:104E5000E35D5B445B785B0707D00836B6F5847F7B
:104E6000E7D1644811F012FF07E0634B9945F8D28F
:104E7000781CD9F8043020449847002301F03BB94E
:104E80002F2B3FF651AFA0F12002D2B25E2A3FF69F
:104E90004BAF13B920283FF447AF5A1C2A60E054A7
:104EA00011F069FD40E7554B554C93F8009009F01F
:104EB0000403009354F8093C002B41F0D1800136E3
:104EC000022E04F1CC0497D0F4E7012B06D14D2833
:104ED00008BF022318BF002301F0D8B8022B03D16A
:104EE0003C2808BF0323F5E7032B0BD10023C02880
:104EF0009FBF04F8053C04F8040C04F8030C0423D9
:104F000001F0C4B8042B09D114F8033C04F8020CD6
:104F10005F4004F8037C052301F0B8B8052B13D1DA
:104F200014F8051C14F8043C14F8032C8B424AD9DD
:104F30004B1C04F8053CCC23424004F8032C314AB6
:104F400003FB06230B44587214F8018CB8F1060FCA
:104F500041F087802C4B0DF1140A93E807008AE892
:104F60000700002214F8043C14F8027C234409933F
:104F7000ADF82A203BB20492514604AA3846089460
:104F8000ADF82830ADF81C3001F0DCF805460028FB
:104F900040F0C880762F40F0D880089B5A1C0892B9
:104FA0001F78002F6AD1194B1B78D80740F1BC80BD
:104FB0004FF0A5083D46BA46BB46154B93E806029E
:104FC0004FF0040E83E0824202D1062301F05EB866
:104FD000002301F05BB800BF982300209C41002013
:104FE0006423002094230020ABD30108B0D3010830
:104FF000CC030020BBD30108ACB30108DC210020A6
:10500000E91E0020E01E0020F8AA01080822002066
:10501000FC210020C0410020A4B20108009B002B0D
:1050200041F01F8023281DD10121A24B54F8092CE7
:105030001970A14BA1491A60A14BA2481A609A604D
:105040009DF8002059605A7310221A739E4A043347
:10505000136011F01BFE12F055F99C4A137843F0CF
:10506000020313709A4B1B681B78BB427FF46CAF32
:10507000984B994A1A60994BDD6065E7FF2F0BD179
:105080000EA997480AF08CFC0EA991E806024FF091
:10509000A508AA46AB4693E7791ECBB21D2B4CD888
:1050A000904A92F969349F4247DC18234B4303F539
:1050B000CC739818B0F910B0B0F912A0B0F9145030
:1050C00090F81680011D13F802E091E80602059899
:1050D0000192431C0593077005982EAF431C47F8B7
:1050E000A43D80F800E0384608F070FF019A384689
:1050F000114608F06BFF4946384608F067FF1FFA73
:105100008BF1384608F076FF1FFA8AF1384608F02E
:1051100071FFA9B2384608F06DFF059B5A1C059235
:1051200083F80080012352E04FF0A5083D46BA46BF
:10513000BB46B9463A46394642E74FF0A508AA466B
:10514000AB46A9462A4629463AE7472F23D108A865
:1051500008F00CFF07460146504608F037FF624B47
:105160000DF13808DD6807F18003AB4294BF80255C
:10517000ED1B05F03BF82A464146384605F074F829
:1051800000238342CEDA059A18F80310551C0595C2
:1051900001331170F5E7089B099A5B2FA2EB030A14
:1051A00000F0868400F27981352F00F0BE8200F293
:1051B0000F81292F00F0008600F29C80232F00F041
:1051C000998260D8072F00F0CD844FF0FF33ADF8FF
:1051D0001E30002B00F03487059B54F8090C069311
:1051E000424B059303681B6A03B1984724228DF84C
:1051F00038204D22059B069F8DF83920FF1ABDF9F6
:105200001E20FF2F3B46A8BFFF23511C14BF3E2288
:1052100021228DF83B30BDF81C308DF83A200EA9C4
:10522000052254F8090C8DF83C300EF0E1FD9DF894
:105230003C509DF83B30FE2F85EA030540F3F28693
:10524000F9B254F8090C4FEA27280EF0CEFD5FFAA8
:1052500088F154F8090C0EF0C8FD7D406DB285EA66
:105260000805EDB23A46059954F8090C0EF0C0FD58
:1052700005990A46BB1A0B44002B40F3D68612F858
:10528000013B5D40F6E7252F00F08B85272F9CD151
:1052900008A808F081FE164DA5F8D60008A808F069
:1052A0007BFEA5F8D80008A808F076FEA5F8DA007D
:1052B00038E700BF98230020C04100202B3E0108A2
:1052C00020160020DBD301089C410020DC210020B7
:1052D000E0300020F04F0020EFBEADDE00ED00E03A
:1052E0000C2500200C240020F8020020C4420020DD
:1052F000BC2800202F2F00F036865CD82B2F00F022
:1053000073852D2F7FF461AF5A1C2EAD45F8982D73
:105310001B78BE4F284687F8243108F03DFEA7F8D9
:105320003601284608F038FEA7F83201284608F072
:1053300033FE089BA7F834015A1C08921B78BAF177
:10534000080F87F82D317FF6EDAE284608F024FED1
:10535000A7F83A01284608F01FFEBAF10C0FA7F88B
:105360003C017FF6DFAE284608F021FE284608F013
:105370001EFE284608F010FEBAF1100F7FF6D2AEDE
:10538000089BBAF1110F03F1010208921B7887F80C
:1053900026313FF4C7AE284608F0E8FDBAF1150FF4
:1053A000C7F828017FF6BEAE089B5A1C08921B78EE
:1053B00087F82C31B6E6312F00F0F485332F7FF4D7
:1053C00004AF5A1C08921A78904B83F82F21A9E653
:1053D000432F00F05A8533D83C2F3FF4A3AE1CD89E
:1053E000372F00F08685392F7FF4EFAE19465A1C0F
:1053F000089211F8020B854A089182F80E0159783B
:1054000082F81211D91C0891997882F81111191D8E
:105410000891DB7882F8133184E63E2F00F0428158
:10542000412F7FF4D2AE00237848089A511C08918E
:1054300011781A180133082B82F81C11F5D171E686
:105440004C2F00F0D8840BD8482F00F0D4834A2F7B
:105450007FF4BBAE08A808F09FFD6C4BD88161E6D5
:105460004E2F00F0EE84512F7FF4AFAE684A1278D1
:10547000012A00F2D48519465A1C089211F8020B31
:10548000624A089182F8E207597882F8E017D91C3D
:1054900008919B7882F8E13744E6D12F00F0C88369
:1054A00000F28480CA2F00F00A815DD85F2F00F0DF
:1054B00023831ED85D2F7FF488AE5A1C2EAD554F26
:1054C00045F8982DD7F800801B78284688F82030BA
:1054D00008F062FDFF28A8BFFF2088F81E002846BC
:1054E0003F6808F059FDFF28A8BFFF2087F8240077
:1054F00018E6C82F3FF416AEC92F7FF466AE5A1CCB
:1055000008921978444A002900F08083117841F00C
:105510000201424D11702A782EAF02F0F9026FF3AA
:1055200004122A709A1C47F8982D5B7838466B71E4
:1055300008F01CFDA860384608F018FDE860384601
:1055400008F02AFD2861384608F026FD00236B8309
:10555000AB83EB83642328844020AB84EB840CF082
:1055600077FB07F055FADDE5CE2F00F038830FD832
:10557000CC2F00F00281CD2F7FF427AE284B1B7873
:105580005B073FF5CFAD4FF4C872264B5A84C9E58F
:10559000CF2F00F03C81D02F7FF417AE204B1B782B
:1055A0005A073FF5BFAD08F0FDF976E0DA2F00F0BD
:1055B00017823BD8D42F00F0A3810AD8D22F5CD019
:1055C000D32F7FF402AE08A808F0E6FC164B188033
:1055D000A8E5D62F00F07881D92F7FF4F6AD08A882
:1055E00008F0DAFC094DA5F8CA0008A808F0D4FCB8
:1055F000A5F8CC0008A808F0CFFCA5F8CE0008A8B4
:1056000008F0CAFCA5F8D0008CE500BFBC2800203B
:10561000F4410020A823002008220020B816002012
:10562000DC21002020160020EE160020DD2F00F0E7
:10563000CF8417D8DB2F00F0E781DC2F7FF4C5ADD6
:1056400019465A1C089211F8020BA64A089182F8D2
:10565000D200597882F8D310D91C08919B7882F82F
:10566000D4305FE5F22F00F08F81FA2F7FF4ADADDB
:105670009D4B1B785D0710D5A7E59B4A127812F069
:1056800004027FF44FAD591C08911978954B0229FB
:1056900083F8C01701D983F8C02710F06DFA10F015
:1056A00023FB3FE55A1C08921A468E4912F8020B5A
:1056B00081F8820108925B7881F8813132E501221C
:1056C0008A4B83F820208A4B19684B1E0931089AAF
:1056D000501C0890104610F8025B03F8015F089018
:1056E00050788B42987202F10300089092781A75F4
:1056F000EDD117E55A1C08921D78132D3FF665ADC4
:105700007B4A4FF00C0E11689A1C089200225F78B9
:10571000DFF8E8C10EFB02C090F80880B84500F041
:10572000B98401321C2AF5D14FE55A1C0892197828
:105730000B293FF64AAD6E4A10689A1C08925A78B7
:10574000032A3FF642AD08FB010888F89620DA1CD0
:1057500008929A7888F891201A1D0892DA7888F8C9
:1057600092201A7988F893205A7988F89420DA1DC3
:105770009B79089288F89530D4E4BAF1090F7FF646
:1057800024AD08A808F013FC0021089B594F5A1CAF
:1057900008923D681B782B70089A022902F10103D8
:1057A000089313782AD1B42BA8BFB423022BB8BF17
:1057B00002236B7101310329EED1931C08935378B6
:1057C00008A8642BA8BF6423AB71D31C08939378FB
:1057D0006B70131D0893D378AB7008F0DDFBBAF142
:1057E0000A0F288105D0089B3A68591C08911B783C
:1057F000D37101233D4A82F82030E8E4B42BA8BFDE
:10580000B423062BB8BF06236818C370D2E708A8D4
:1058100008F0C2FB6FF4AF614318324D9BB2C62B48
:1058200098BFA5F8320108A808F0B6FBA5F8BC009F
:1058300008A808F0B1FBA5F8BE0008A808F0ACFB6A
:10584000A5F8C00008A808F0A7FB089BA5F87801F8
:105850005A1C08921B7808A885F88E3108F0A7FB1F
:10586000089B08A85A1C08921A4612F8021B85F8D1
:105870008F1108925A7885F81921DA1C08929B78C2
:1058800085F82F3108F093FB194B08A81F6808F022
:1058900083FB089B00EB80005A1C08921A464000CC
:1058A000F88712F8021B089285F80E115A7885F8CD
:1058B0001221DA1C08929A7885F811211A1D089293
:1058C000DB7885F813312DE400250B4F08A808F08C
:1058D00063FB032DD8BF27F815000135082DF5D13E
:1058E00020E400BFBC280020DC210020201600207E
:1058F000A8230020A44100203823002034AB010855
:10590000BAF10F0F7FF461AC5A1C08921D78072D75
:105910003FF65BACBF4F08A8D7F8008008F03CFB0F
:105920000E235D43A844A8F8DE0008A8D7F800803D
:1059300008F032FBA844A8F8E00008A8D7F80080D7
:1059400008F02AFB089A3B68A8441D441346511CE2
:10595000A8F8E200089113F8021B08A8089385F83C
:10596000E410537885F8E530D31C0893937885F8D4
:10597000E630131D0893D37885F8E73008F0F6FA7F
:10598000C5F8E800FFF7CEBB5A1C08921A780F2A18
:105990003FF61BAC0625A048991C05FB02020891A6
:1059A00059782EA882F85C10D91C0891997882F851
:1059B0005D10191D0891D97882F85E10197982F866
:1059C0005F10597982F86010D91D9B7940F8981DB5
:1059D00082F8613008F0EBFA0CF0FCFAFFF7A2BB9A
:1059E000591C089119468B4A11F8020B126808914C
:1059F00082F8D900597882F8DA10D91C08919B787E
:105A000082F8DC30FFF78EBB1722824B00211B6827
:105A100028271A755A7555229A702D221A73412219
:105A20001A7178229A73B4225A7105221A740822C4
:105A30009A761422DA714B22DA763C221E25322025
:105A40004FF00A0C4FF00F0E4FF064081A7283F8F3
:105A50002020C82299755973D9751F709D725F7087
:105A6000DD72D87083F818C083F80FE083F81980CE
:105A700083F806C083F811E083F80980D87483F8AE
:105A80001DC083F821E09F7783F82450DA8442F226
:105A90001072DA624FF4967219635A845A219A8608
:105AA000DA86A522188583F838105A87FFF73ABBA3
:105AB0005A1C2EAD45F8982D574F1B782846BB74BD
:105AC00008F075FA284608F072FA089B28465A1C16
:105AD00008921B7887F8C43008F05EFAA7F8C20075
