:020000040800F2
:1000000000500020999F01084DA00108B9C60008C2
:100010004DA001084DA001084DA0010800000000FE
:100020000000000000000000000000004DA00108DA
:100030004DA00108000000004DA00108B9E400082F
:100040004DA001084DA001084DA001084DA00108D8
:100050004DA001084DA001082F40010839400108BA
:100060003740010835400108334001081589000870
:1000700005890008F5880008E5880008D58800088B
:10008000C1880008AF8800084DA001084DA00108F4
:100090004DA001084DA001084DA001083140010804
:1000A0004DA00108D54701084DA00108C54701082A
:1000B000B9470108A9470108994701083B8C000886
:1000C000418C0008318C0008378C00084DA00108D5
:1000D0004DA0010871BB000865BB000859BB0008B2
:1000E0002D4001084DA001084DA0010800000000AE
:1000F0000000000000000000000000000000000000
:0C01000000000000000000005FF808F1A3
:100110002DE9F04F0025B14CA1B04FF48062294683
:10012000AF48257018F068F9AE4B1D6009F078FCF7
:1001300018B909F0E5FF09F099FC09F04FFD00211D
:10014000084613F0BAFF2378A74E43F0010323704B
:10015000002309930A930B934FF4E0130C93336835
:1001600043F480333360B36943F01003B361336801
:1001700003F400330A93099B013309930A9B1BB9CB
:10018000099BB3F5A06FF2D1336813F4003300F08C
:10019000198302230B93954B95491A68884642F0C0
:1001A00010021A601A6822F003021A601A6842F0FC
:1001B00002021A607368736073687360736843F453
:1001C000806373608B4B1A68043B22F070425A6064
:1001D000894A0A60726822F47C1272605A6842F09E
:1001E00000425A60DA6822F40042DA609B6813F435
:1001F000004F17BF814B4FF4E0130B604FF4801397
:100200000C930B9B012B00F0F582022B05D10C9B6C
:100210007268134343F480337360336843F0807330
:10022000336033689901FCD5736823F0030373606E
:10023000736843F002037360736803F00C03082BC8
:10024000FAD173686E4C03F00C03042B00F0D682D5
:10025000082B00F0D682684B4FF6FF714FF0000B71
:1002600023607368674AC3F3031313449A782368BF
:10027000654DD3402360654A654B0DF18009D3601D
:10028000B369029243F00103B361736ADFF8A8A176
:10029000C5F8A431736A504643F080737362B36942
:1002A00020AF43F01C03B36129F82C1D49468DF89B
:1002B00056B008F0C1FA4946564808F0BDFA49461A
:1002C000554808F0B9FA10218DF83A1002218DF83E
:1002D0003B104FF4007127F8481D5046CAF8101023
:1002E000394608F0A9FA4D48416841F00071416073
:1002F000484609F03CF8159B4949C5F8ACB1B3FB39
:10030000F1F34FF47A71C5F8A8312368C5F8B0B19C
:10031000B3FBF1F34349013B4B60F023029A424C9B
:1003200082F823300723C1F808B00B60237C3F4AD2
:10033000B3EB0B0318BF0123D371D374314B514678
:100340002A4699464FF0010ADFF8F0C003F1100089
:10035000002330F802EF4EFA03FB1BF0010F18BF29
:100360000AFA03FB03F101031EBF1160A2F804B0F7
:100370000C32102BEFD101F580616145E8D1D8F83E
:1003800000301D4A934240F04F820122284B1A70E0
:100390000021A368DFF8A8800846C8F8003013F0F1
:1003A0003CFE0021012013F038FE4FF0170B002314
:1003B0004FF0020A1F4A52F823000133002841D0AF
:1003C000037280F806B080F807A01221039202930E
:1003D00013F0A8FC039A029B34E000BFE41F002046
:1003E000F0270020EC2700200010024000200240EF
:1003F000B40000200410014000127A00001BB70076
:1004000094030020ACA101081004002000ED00E0DE
:100410000005FA05000C01400010014000000140F9
:1004200040420F0010E000E0F83000203C030020C4
:10043000C8120020C4A101080008014000140140B6
:10044000141B0020032BB6D10021084613F0E5FD54
:100450000021012013F0E1FDB369402243F00103C4
:10046000B3610021C54817F0C7FF4FF0FF33C44AFE
:10047000C5F8F4310021C2F80330012013F01DFE4D
:10048000D8F800301B070FD594F84431012B0BD856
:100490000BF05AFB94F84DA1064628B90AF1FF3A31
:1004A000BAF1090F41F266874FF4FA7014F0CFFAEF
:1004B000A0220021B34817F09FFF0026DFF8F8A222
:1004C0000AF1A80B002356F80A005BF83320D90084
:1004D000904240F0DB8109EB010393F8D0000C3629
:1004E0000FF058FEA82EEDD14FF0050BD8F80060A4
:1004F000A54A06F040030393A44BDFF8C0921A60AC
:1005000000213C22A24889F800B017F075FF0023B3
:10051000594618464FF0FF0ADFF8A4E2DFF870C230
:100520001EF9012F03EB0C0B02929DF8082003F833
:100530000C20039A52B9029A1E3AD2B2012A9FBFE6
:10054000012001F1FF318BF800A0C9B20C333C2B24
:10055000E6D108B189F8001063798E4A85F8A03297
:10056000C5F8A42203F0EF02082A8B4A117802D0C2
:100570000E2B40F091810E2B41F0100040F0938142
:1005800041F050011170854A4FEAC30EC5F8A82208
:10059000834A02EB0E014878897885F8AC0285F829
:1005A000AD120C217F4801FB03014978002940F07E
:1005B0007F81C6F3401185F8AE12002940F07A81A0
:1005C000C6F30056002040F2DC5CC5F8B062764EFF
:1005D00026F810C001300828FAD1002940F06C81BB
:1005E000173B022B09D811F031FA95F8B43223B138
:1005F0000123C5F8B03285F8AE321C2200213846FE
:1006000017F0FAFE63790E2B03D003F0EF03082BEB
:1006100002D101238DF84C30012017F001F818B1F8
:100620004088003018BF0120D8F800308DF83E0017
:10063000C3F340028DF84120C3F380128DF84320AC
:10064000C3F340328DF83920C3F3C0328DF83C201B
:1006500013F4006207D094F8382102F1FF3EDEF176
:10066000000242EB0E028DF83D20C3F300428DF8EC
:10067000442003F001028DF83A20C3F3C0028DF844
:100680003B2095F8AE22003218BF01228DF845209C
:10069000C3F300528DF84620B4F8E620ADF84A20A6
:1006A000B4F8E820ADF8482094F8E420511E02295F
:1006B0008CBF002101218DF84210B4F8E210DE0455
:1006C00048BFB4F8EE30ADF84E10B4F8E0108DF835
:1006D0004D20ADF8501048BFADF85030042A08D175
:1006E00000264FF480508DF8426009F065FAADF8AD
:1006F0005060D8F800307822C3F300738DF838309A
:1007000094F894310021294885F8153317F074FEC8
:100710009DF84C30BDF83A20002B14BF0223002373
:1007200002B10133224A234C02EB8303D3F8EC30AD
:100730000393002302931E4602F1240304934FF611
:10074000FF72039B33F81630934200F03F829DF80E
:100750003E20DDB21B0A5FFA83FA002A00F0CE8049
:10076000AA1E012A00F2CA80032294F819330192CA
:1007700094F818230092B2B2012120E2C4050020AF
:10078000040600201006002024330020B438002086
:10079000B8380020143100206C1F00207431002074
:1007A00094B3010850B50108F0120020280700207A
:1007B000ACA1010810040020D0A1010810400020C5
:1007C000A7B70108326842F001023260099333682A
:1007D00003F002030A93099B013309930A9B1BB997
:1007E000099BB3F5A06FF2D13368980701D50123B7
:1007F000D0E4FEE7736843F460130DE5D8F80030E9
:100800002AE573687268C3F38343D20303F10203DA
:1008100002D4A64A53431FE5726812F4003FD8F889
:10082000002018BF5208F5E7A14A93427FF4B0AD0B
:100830000222ABE50021084613F0EFFB0021D5F8BA
:10084000FC0113F0E0FB782014F0F6F80121002001
:1008500013F0E3FB0121D5F8FC0113F0D4FB782061
:1008600014F0EAF8013694F84D319E42E2DB94F838
:100870004E31012B7FF418AE0BF066F900287FF49F
:1008800013AE84F84D0109F031FC0DE60133042B61
:100890007FF41BAE002022E621F0100111701178C8
:1008A00021F040016EE6182B3FF46AAE1070F6E7B7
:1008B000012180E60E4685E612F833607244D2F8D4
:1008C00004E085F8B462BEF1000F3FF489AE002069
:1008D0004FF00609DFF8F4C1B042BFF681AE09FB64
:1008E00000F20EEB0201D1F800B002EB0C0A42F864
:1008F0000CB08A880130AAF80420EDE79DF8432067
:1009000042B10C226B4902FB0512516A6A4A9142BC
:100910003FF42AAF9DF8441041B10C22654802FB18
:100920000502506A644A90423FF41EAF9DF8412090
:1009300042B10C225F4802FB050292F82820142ADB
:100940003FF412AF9DF83C2042B10C22594802FB03
:10095000050292F82820112A3FF406AF9DF83D20A9
:1009600042B10C22534802FB050292F82820212AAA
:100970003FF4FAAE022B40F090809DF83930002B06
:1009800000F020819DF8453083B19DF84C306BB963
:10099000A5F10803012B09D80C23464A03FB0523C4
:1009A0005A6A464B9A4208BF4FF0040A0C27049B30
:1009B00007FB05379DF846304BB19DF84C3033B9F5
:1009C000002970D0A5F10C03012B40F26784BAF125
:1009D000010F7DD1FF230C224FF0000984F8D4339E
:1009E00084F8D533334B84F8DC9302FB0535C4F827
:1009F000E87395F8280084F89093C4F89493C4F8A9
:100A00009893C4F89C93C4F8D09384F8D69384F850
:100A1000D79384F8D89313F05FF9022280F807A0E7
:100A2000827180F8089095F82C1013F07BF94A46F3
:100A300095F82910686A0DF09DFF524649463846E0
:100A400013F086FF1E4B1F4AC4F8EC331E4B111FD8
:100A5000C4F8F033C4F8F493384613F0BDFE2022F6
:100A600094F81A3304EBC30383F8212394F81C335E
:100A7000013384F81C3394F81933CDF8049094F8BA
:100A800018230092B2B20021132013F0FDFA94F85B
:100A90001A33013384F81A3394E0012B7FF472AFD8
:100AA0009DF83A306BE72B1F032B8EE700093D00C2
:100AB000001BB700ACA1010800040040002C01405D
:100AC00001390108000800204D3A0108C506002040
:100AD000BAF1020F62D14FF01C0A9DF808300C21C8
:100AE0000AFB03FA04EB0A094FF0000B89F8DD3327
:100AF00005934FF00103254A89F8DC3301FB0525F6
:100B000089F8DEB395F8280089F8E6B3C9F8E873E8
:100B100013F0E2F84FF001038371C371059B95F860
:100B20002C100133037213F0FDF85A4695F8291082
:100B3000686A0DF01FFF01225946384613F008FF7E
:100B4000134B1449C9F8EC33134B0AF114020AF1A0
:100B5000100A0A44C9F8F033C9F8F4B351443846CE
:100B600013F03AFE402294F81A3304EBC30383F8DF
:100B70002123012294F81B33013384F81B33029B99
:100B80000133029394F81933019278E7ACA101087C
:100B9000B93A0108EC070020D9380108BAF1030F6F
:100BA00040F0788394F81993B9F1050F40F2F2827E
:100BB0000121019194F81833B2B200934B461220F0
:100BC00013F062FA01360E2E7FF4B9AD0025CF4C3A
:100BD000CF4E94F8A0123570A1F11703022B00F24A
:100BE000A6834FF0000B04F2DC4AD4F8A432594635
:100BF000585903EB050918F06DFF002800F08983B0
:100C0000D8F80030DD0400F1AE8310F0B3FF9DF89A
:100C1000423013B9012384F83C350021022013F03F
:100C20004CFABC4ABC4D13781C2043F004031370EB
:100C30002B78012B8BBF012700270026012613F0FC
:100C40004BF884F84475C4F8400558B111228271FC
:100C50000222C2710022964202720CBF122116219A
:100C600013F060F800200DF03FFC152384F8DE300F
:100C7000022384F8DF300023122184F8E030A748F3
:100C800012F0C4FFB4F8DC30D4F8D820A44E1B0412
:100C90001361307E0FF07EFA0123327E02F01F01D5
:100CA0005209022A03FA01F300F08383032A00F0B9
:100CB0008583707D13F010F84FF00C080B234FF074
:100CC0000209C37180F8068080F808900746F07D1D
:100CD00013F002F80D2380F80680C37180F80890A5
:100CE000B07D12F0F9FF1B2180F8068080F80780A4
:100CF00080F80890384613F015F8F07D12F0ECFFFC
:100D0000072113F00FF8B07D12F0E6FF1B2113F05E
:100D100009F8307D20B112F0DFFF132113F002F843
:100D20003369804A934240F04E8302F56042D168B5
:100D300041F48051D160D16821F48051D160B28BEF
:100D4000002A00F05C8300221046198801F441510A
:100D500041F445710A4302431A809A8B307D22F494
:100D600000621204120C9A8307221A821A8892B225
:100D700042F040021A8018B112F0AEFF13F03EF9B3
:100D80002C2012F0A9FF9F238DF834300023C4F8E3
:100D90004805074632208DF835308DF836308DF80D
:100DA000373013F054FED4F8480512F0BEFF042289
:100DB0000DA915A80FF0BAFAD4F8480513F01EF9DA
:100DC0009DF856309DF855201B0243EA02439DF8DA
:100DD00057201343544A93421BD0322013F037FE5E
:100DE000D4F8480512F0A1FFF5200FF0D7FAFF2044
:100DF0000FF0D4FA8DF85400D4F8480513F0FEF83B
:100E00009DF85430702B04D12B78022B01D1032391
:100E10002B702B78032B0CBF1F20022016F07DFBBC
:100E20002B78032B00F0EE82012007F07BFD1426C7
:100E30003E4B3F4CD3F800B032460021204602938F
:100E400095F800900BF4004A17F0D6FA1BF0020F49
:100E50000BF40068204618BF2670BAF1000F01D0CD
:100E600011236371B9F1010F84BF15238372B8F1A7
:100E7000000F01D02123C373DFF8B4904FF00F0AA5
:100E8000C84600244FF0060B2A4B03F1FC0298F8E9
:100E9000000028B304920393002612F01DFF314690
:100EA00080F806B080F807A0067212F03BFF98F8B1
:100EB0000000049A039B12F816E07100864540F08A
:100EC000AC82194491F8FD10072088F80400012035
:100ED00088F80110611C88F8024088F80300CCB241
:100EE0000AF1010A5FFA8AFABAF1130F08F105084C
:100EF000CDD1114A49205368104E43F4404353600A
:100F00000FF048F920200FF045F919E010040020F7
:100F1000F43F0020E41F0020C8120020E804002055
:100F2000540300200030014015202000141B002035
:100F30007C1A0020ACA10108001002400800024009
:100F4000BD4808F088FA15A808F05AFABB4B022CE5
:100F50001593BB4B28BF802216934FF0000338BF78
:100F60001A461A924FF480721B924FF480621C92C0
:100F700020221D924FF4005215A930461793189461
:100F800019931E921F9308F048FA012C94BF002178
:100F900001213368AB4A43F0010333605368013CDD
:100FA00023F4702323F4807343EA01235360916890
:100FB000A54BE4B20B4043F4602343F0020393607B
:100FC000D36A4FF01F0E23F4700343EA04544FF02A
:100FD00007080123DFF8B4A2D46299F8031031B3F3
:100FE00099F801105E1C0929F6B299F8044040F204
:100FF0001A82A1F10A00D2F80CB000EB400008FA06
:1010000000FC2BEA0C0C04FA00F040EA0C00D06063
:10101000062B00F21582013B506B03EB83030EFAA3
:1010200003F420EA0400994001435163334609F177
:101030000509CA45D1D1834B9A6842F480729A60FF
:101040009A6842F001029A609A6842F008029A6037
:101050009A681407FCD49A6842F004029A60794BAB
:101060009A685007FCD49A6842F4A0029A600AF089
:101070006BFD0446F8B92146032013F01EF8012148
:10108000084612F0CAFF2146204612F0C6FF05248A
:10109000012012F0ADFD002012F0AAFD642013F033
:1010A000D6FC013CF4D12146204612F0B6FF214681
:1010B000012012F0B2FF0FF099FB0024029B634E57
:1010C0001B68DFF8CCB1190644BF614A614B214669
:1010D00048BF1A6096F8FC301822049396F818312D
:1010E0005D480293DBF8003096F80681B3F93E3094
:1010F00096F811900393F38996F812A00793574B33
:101100001C605C609C6017F077F92B780596544E54
:10111000544D012B98BF013E18222146A5F8644585
:1011200005F5AD60CDF818B017F066F92320C5F8C5
:10113000806513F08CFC0DAA012175200AF0D0F80F
:10114000002800F09781484B15AAC5F86C35474B2D
:101150000121C5F870354323204685F868350AF02B
:10116000BFF89DF8543003F07E038DF8543000280A
:1011700040F0D0819DF834303A4A03F07E03682B6A
:101180008DF8343040F07C84022382F864350AF014
:101190009DFCC8E19DF84DA0BDF84EE00AF1FF327C
:1011A000BDF850309DF83800032A34D8DFE802F04B
:1011B000362D3002182100232D4D2E4A00904A432F
:1011C000B2FBFEF2384692B212F0B4FD2A4B43F85D
:1011D00029009DF84230C5601BB3192294F81A33D8
:1011E00004EBC30383F8212394F81A2394F81933EA
:1011F000013204EBC20282F818330133DBB2C2F8C9
:101200001C7384F819330222BEE41C4D1821D4E764
:101210001B4D4821D1E71B4D0121CEE71A4D082176
:10122000CBE794F81A33BAF1040F04EBC3030CBFF5
:101230000D220922D6E700BF080002404C240140DD
:10124000901A002000240140FDF7F1FFF830002043
:10125000A6320020642000205C090020E03F00202E
:10126000ADA1010810040020E1B20008EDB20008B1
:10127000953A010840420F00F83F0020493B010821
:10128000153B0108853A0108753B0108901A0020BA
:10129000CC200020BAF1040F7FF494AC94F81853DA
:1012A0001FFA86F9072D07D9022294F81933019203
:1012B00000954A46FFF760BABDF848108C4ABDF861
:1012C0004A3092FBF1F29DF8381092B20091384604
:1012D000012112F02FFD0A22032194F81A3304EBA6
:1012E0008505013304EBC30383F8192394F818230D
:1012F000C3F81C7383F818230132D2B284F8182380
:10130000C5F8BC0494F81933009201914A46FFF7DE
:10131000BABB05EB0A0799E80F0087E80F0033789E
:1013200010350133602D33707FF45FAC68E40C231B
:101330004B43704AD11812F803E0D1F804C086F884
:1013400000E0BCF1000F3FF45BAC04F2DC497545F2
:10135000BFF656AC2B0103EB090763440FCB0135F5
:1013600087E80F00F3E73678012E7FF64EAC4FF09A
:101370007C57614B1D1D03EB061303F1140610355A
:10138000AE423FF442AC394655F80C0C18F00EFA58
:10139000394645F80C0C55F8100C18F007FA394688
:1013A00045F8100C55F8080C18F000FA45F8080C30
:1013B000E5E7524AD1680B43D3607AE44F4A11699A
:1013C0000B43136175E44E4A93420AD102F5EC32A5
:1013D000116941F480411161116921F48041116169
:1013E000ADE4484A93427FF4AAAC02F5EA321169AF
:1013F00041F400411161116921F40041EFE701223C
:101400000220A2E4022016F00BF900283FF40CADF4
:101410004388002B3FF408AD09E501360A2E7FF41E
:101420004AAD002150E5106901EB410C08FA0CFBB4
:1014300020EA0B0B04FA0CF040EA0B001061E7E520
:101440000C2B0BD8073B106B03EB83030EFA03F452
:1014500020EA0400994001431163E7E50D3BD06A9F
:1014600003EB83030EFA03F420EA040099400143DE
:10147000D162DBE595F88435FBB91422BA710E22EE
:101480003B72FA7113213846C5F8887512F04AFC90
:101490001B4A138823F040031B041B0C1380138882
:1014A00023F038031B041B0C138013889BB243F0FA
:1014B00040031380012385F8843515AA0121752086
:1014C00009F0A0FE9DF85430A3F17002012A01D961
:1014D000AF2B28D105220C4B83F86425432283F8D7
:1014E00068250A4AC3F86C25094AC3F870251AE032
:1014F00040420F0050B50108EC08002000100240E7
:1015000000380040003C00401004002005B20008F4
:1015100035B20008682B7FF42DAE012385F86435C1
:101520001D2385F868350026C44C94F8643584F88A
:101530008C65042B40F0C286C14BC4F84C35C14BBE
:101540000726C4F85035C04BC4F85835BF4BC4F813
:101550005C35012384F88C350023324601930093D7
:101560001946092012F090FD002E00F0FB82B84AC7
:10157000B24F1670B74E9346336843F001033360A1
:10158000B9F1000F00F08282B8F1000F14BF4FF4E0
:101590007A737D2303FB0AF30AF1FF3284F88D2569
:1015A000C4F860354046D4F84C35984794F88E35E9
:1015B000002B40F06F82012040F2026E40F2FD1CD1
:1015C00097F86425049B0B2B28BF002300FA03F136
:1015D00011EA0E0F40F0708211EA0C0F00F06C82DD
:1015E000042A40F071869C4B9C4A1A609C4A4FF03A
:1015F00008085A60012384F8E43500234246019329
:10160000009319460A2012F03FFDB8F1010F1CD0DB
:101610003368914843F0020333604FF480738BF8D2
:1016200001800381036898478E4B1A7E022A40F09E
:101630004D829B8A8C4890FBF3F08C4B80B21860F3
:101640008B4B1B780BB108F097F800230022C4F8ED
:10165000E835884B1A70029A9846062A40F2398279
:101660004FF00108002342460193009319460C20D5
:1016700012F00AFD029B0BB1434534D1B8F1010FC2
:1016800031D001213368084643F008038BF803800A
:10169000336012F0C2FC784B1B68984780460021EB
:1016A000012012F0BAFCB8F1000F00F0148664209B
:1016B000039B93FBF0F600FB163000B218F022F803
:1016C0006E4918F073F88046304618F01BF8014652
:1016D000404617F063FF6A4918F068F80122694B29
:1016E000C4F8E8051A705F4B93F8F2200AB187F846
:1016F0008C2593F8F3200AB187F8E42593F8F430A9
:101700000BB15C4A13700021042012F0D6FC0121B9
:101710005D4A08461378534F43F00203137012F0EA
:101720007CFC0021084612F078FC4FF00A083E4687
:10173000012012F05DFA002012F05AFA192013F07D
:1017400086F9D7F88037DB0302D401200CF0CCFEF9
:10175000192013F07CF908F1FF3800200CF0C4FECA
:1017600018F0FF08E4D14146404612F056FC4146CD
:10177000012012F052FCD5F8EC354FF0000B187C2C
:1017800017F0C0FF414918F011F814F0BBFB3F49B6
:10179000C5F8F005D5F85C0518F008F8C5F8F8B5F7
:1017A000C5F8F405C5F8FCB5C5F800B612F03EFF63
:1017B000374B1B22FF21184616F01EFE012103465F
:1017C000244D34482A6883F8008012F0020C01701E
:1017D000A84606D0597002219970042101701A217F
:1017E000D97014254FF0170E017812F00A095D54D4
:1017F00001F1010701F10205EDB2FFB2057003F836
:1018000007E00BD004275F550527CD1CEDB25F55CF
:10181000CD19057006200431C9B258541E4F1D4D14
:101820003B6813F0200F39D04FF0070E2978481C81
:101830002870174800F801E030E000BF10040020D5
:101840004DB6000871B100085DB1000890C1793D46
:1018500098030020DC3F0020E03F00202DB6000868
:10186000B5B10008F830002040420F00AC1A00204B
:10187000B01A0020DD1F0020781F00208988883CD6
:1018800000002041DC1F0020E41F002035FA8E3CC0
:10189000201300203B130020141B0020717901F05D
:1018A000EF00082800F06281A1F10E0EDEF10000C9
:1018B00040EB0E00520702D488B11A060FD54FF044
:1018C000030A2A78DFF824E30EF802A002F1020AE4
:1018D00085F800A018250132D2B20EF8025013F09C
:1018E000800203D0B9F10A0F00F0458190B1BCF13C
:1018F000000F40F03D814FF00A0EBB48BB4D02780F
:1019000005F802E002F1020E80F800E00E2001323C
:10191000D2B2A8540E29B548B34A01D0182904D12F
:1019200011784D1C1570192545544FF00B0E117888
:1019300013F4803F01F1010500F801E0EDB218BF9A
:10194000023115701CBF11700C214FF00F0E18BF23
:101950004155117813F4806F01F10105EDB2157056
:1019600000F801E008D096F858E2BEF1000F03D06D
:101970000231117010214155190304D511784D1C05
:10198000157011254554DB0504D51378591C1170C9
:101990001222C2544FF4CC720021954816F02CFD4F
:1019A00007F0E0FF059BDFF888E2B3F8F0309148DC
:1019B000A4F808360023904DC0F800E08F48904A04
:1019C0006860904813809370069AA8600598116823
:1019D000B0F852A101F14002DFF83492DFF854C2AE
:1019E000C4F804E6029284F80A360FFA8AF0CDF8B9
:1019F0000CE0DCF800E0844A0EF5967E29F813002E
:101A000042F823E00133122BF3D1804B029AD3F832
:101A100000E07F4B1EF4805F08BFB6F95A01903199
:101A2000D88018461378ABB9937892F803C0634511
:101A300010D2002B00F0CE80013B03EB830303EBBD
:101A4000830303F5617392F801C09BB20CF1040C9F
:101A500020F81C3004329142E4D11EF0080F00F04F
:101A6000F68096F84431072B00F2EB80DFE813F0A4
:101A7000E600E6008603E900E900E900E900B203B8
:101A8000702B04BF042382F864354CE5079B87F86C
:101A90008D9585E54FF00008DFF89C9109EB080073
:101AA000D4F8602594F88E1508F11C080EF03CFE61
:101AB000B8F1540FF2D17EE50021012B04913FF6DD
:101AC00081AD87F8E4154FF0010896E508F0F2FDC6
:101AD000B3E50123029A934013F0580A1AD04B4BF6
:101AE0001B681A067FF5BCAD4A4B4B4A1B68197838
:101AF0000C234B43D118897800293FF4B1ADD35C56
:101B0000012B29D0454B464A4FF004081A60454A3C
:101B10005A60A7E513F0050F3FF4A2AD4FF0050999
:101B200015AB01220A211E208DF854A00EF0B8FB3F
:101B300070B19DF85430482B0AD1384B3A4A1A609C
:101B40003A4A5A60032388F800304FF0020889E5CA
:101B5000B9F10109E4D1C2E7022015F097FD002890
:101B6000D0D17DE5012012F07CFFCCE50120A1E67B
:101B7000002A3FF4C0AE4FF0090E4FF00809DFF81D
:101B800068C01A4D9CF8002005F802E002F1010E31
:101B90005FFA8EFE05F80E904FF0130902F1020E67
:101BA0005FFA8EFE05F80E904FF0150902F1030E54
:101BB0005FFA8EFE05F80E9002F1050E8CF800E03B
:101BC0004FF0160E0432D2B205F802E000287FF47E
:101BD00092AE9FE60CF1010C0CEB8C0C0CEB8C0C18
:101BE0000CF561732FE700BF3B130020201300208A
:101BF0006C1B0020101B0020EC300020198F000807
:101C0000481B0020158F00081C0A0020141B002010
:101C1000181B00206420002080B00108781F0020DD
:101C200059B10008EDAA0008F7B200085DB200083B
:101C300034320020441B0020A00900200EF01AFDC1
:101C400028B9082007F0B8FFCB4ACC4B5A6042F2C3
:101C50000102CB4B1B68134209D044F620626A8014
:101C60009A0440F1D08208222A70C64A6A60190696
:101C700027D54FF00009C44DC44B85F811906B6017
:101C80007E3B2B60C24BC3F80490C3F8089014F05D
:101C90009FF9C04B48461B6885F813902B6214F0DF
:101CA000A7F92B681A780C235343BB4AD35C022B49
:101CB00040F0B082012014F09BF90021052012F0C1
:101CC000FCF900254FF00109069BDFF808A31B680B
:101CD000B24ACAF828B1DFF800B31846CAF824217E
:101CE000CAF82C21CAF888B48AF800908AF8015002
:101CF0008AF802508AF803508AF804508AF807508C
:101D00008AF808508AF809508AF80A508AF811505F
:101D10008AF869548AF87C548AF8685402930BF064
:101D200053FB029B0BF5BC72D933CAF88C34039B6E
:101D3000CAF89434ABF1D803CAF89C34ABF1CA03A7
:101D4000CAF898340BF1B803C4F85436944B0BF529
:101D5000CE7B1A60934BBBE803009BF802205960CE
:101D6000BBF8001018609A721981854BDFF86CB2CD
:101D70001A688BF8005012F4803F9A4600F0D28027
:101D800009F088F940F22A32294687488BF80090FA
:101D900016F032FBDFF848B2844BDBF81410D3F8AE
:101DA000882015A80A43CBF81420814AC3F88C5028
:101DB000C3F8802093F885308DF855908DF8543015
:101DC0008DF856508DF857900EF002FA162011F04B
:101DD00083FF1622827102220572C2711B21C4F890
:101DE000840911F09FFF734B734803F1CC0151F844
:101DF00035204FEAC50E824240F04C82734493F87E
:101E0000D0000EF0C7F96D4B6B4D1B686C4A4FF05C
:101E10000009B3FBF2F32A88013B22F45C7212043E
:101E2000120C2A801D22AA8501229BB22B85AA8230
:101E30002B8C029223F001031B041B0C2B842B8C94
:101E4000A888298B23F0020321F0730109041B04E5
:101E5000090C1B0C134341F0600180B2A880298358
:101E6000A5F834902B842B8B23F008031B041B0C48
:101E700043F008032B83B5F844306FEA43436FEA1D
:101E800053439BB2A5F84430DBF814301343CBF82E
:101E90001430DFF850B1584607F0DDFA15A807F006
:101EA000AFFA484B15A915933F4B5846169310238C
:101EB000179340F22A33189380231A934FF48073B8
:101EC0001B934FF40053CDF864901E93CDF870909F
:101ED000CDF87490CDF87C9007F09FFAAB89029A08
:101EE0009BB243F40073AB81DBF80030484643F00B
:101EF0000203CBF8003084F88829FF22324909EB2D
:101F0000010329F8010009F10409B9F1800F9A7061
:101F1000DA70F4D109F042FC09F040FC00210620FF
:101F200012F0CBF8DAF800305A0515D5102015F06C
:101F3000ADFBC4F88C0938B1438813F0100003D00E
:101F4000102B14BF0220012084F8900910F054FFD8
:101F50000021072012F0B1F81C4B1B78022B01D195
:101F60000EF042FA1A4BDD68002D53D04FF0000BF3
:101F7000ED0A15AB38E000BF198F0008EC300020E7
:101F8000141B00202D8F0008642000202433002023
:101F900074130020441B002080B00108000080BFA3
:101FA000F02B0020F42B0020680A00200000002005
:101FB000BD0A0108ACA10108000400409403002000
:101FC00000366E0134040040A01E0020C81200201C
:101FD00074030020482C0020AC320020981E002002
:101FE000001002406C000240AB450EDA0BEB050915
:101FF0004FEA6909194610224FEAC920029309F0F5
:1020000017FD0F28029B00F34B810FF035FBB94BF6
:10201000ED021D60DAF80010B74B11F4002218BF72
:1020200001221A704FF47A73B44AA4F892391378E3
:1020300043F008031370B24A137823F002031370BD
:1020400040F6020319420DD0AE4AAF4B1A6003228C
:10205000AE4B1A700122AE4B1A700023AD4A1380AA
:10206000AD4A13800124B368DFF8FC9200213822C6
:10207000AA483B6089F83C4516F0BEF90023A84AFF
:10208000A84D1360A84A2846136007F087FB08F0A4
:1020900011FB642838BF64202146E863204607F01E
:1020A000B5FB337E4BB1D9F860352146642B38BF80
:1020B00064230220EB6607F0A9FB337E022B22D1BA
:1020C000D8F800309B071ED5B38A984C012194FBA9
:1020D000F3F39BB2642B38BF64230320C5F89C3014
:1020E00007F094FB337E022B40F0E480F08A94FBEF
:1020F000F0F4A0B2642838BF64200121C5F8CC00F8
:10210000042007F083FB0121052007F07FFB01215C
:10211000062007F07BFB40F602023B6807201A42CC
:1021200014BF0121002107F071FB0121082007F0F5
:102130006DFB39680920C1F3C01107F067FBD8F8BF
:1021400000100A20C1F3C00107F060FB39680B20C2
:10215000C1F3802107F05AFB79880C2001F00101BE
:1021600007F054FB0021082011F0A7FF704A1378F4
:1021700063F07F03137021B0BDE8F08F0A224FEAAD
:102180000A1393FBF2F300226A49A3F5B06341F806
:1021900022300132122AFAD142F6F8236B80664BC4
:1021A00040206B60654B2A70AB6015F06FFA002819
:1021B0003FF447AD01234FF0070E90F90000604A4D
:1021C0008DE808405F4B402115F0D6F9003018BF6C
:1021D000012035E50A232B7044F620636B805A4BAF
:1021E00040206B60594BAB6015F050FA00283FF46B
:1021F00028AD0023012190F90000554A8DE80A001E
:102200004FF4E133DFE7D8077FF531AD0C222A70B8
:10221000504A2BE5012B7FF450AD022015F036FA21
:1022200060B9802007F0C8FC47E50133DBB2042B1E
:102230004FF0010109D900236B740EE0DFF82CE1A7
:102240004946724690F805C06B7C0EEB030999F87D
:102250001091E145E9D10029EED16B7C4FF00C0CD7
:102260001A4492F81011002290F9000001922B6894
:10227000DFF8FCE01B780CFB03E35B780093364B44
:1022800053F82130022115F077F9A86000287FF477
:1022900011ADC6E70135042D7FF4A9AD0020B0E5EE
:1022A000002253F8221001311FD10132042AF8D143
:1022B0004D4699E608F0FEF980B21BE7052B7FF446
:1022C0004BA9264BFFF739B9052A7FF4F5AB244B10
:1022D000244AFFF78AB902210E2011F0EEFE33687E
:1022E00023F008033360FFF7FEB909F1010BA9469B
:1022F000DEE700BFC82000202C4000206C1F00201B
:10230000401F002026320020781A0020D83F0020ED
:102310009003002034400020364000200C1900209B
:1023200008190020B8000020081B002040420F00C0
:10233000E41F00208C190020658D0008958D000891
:102340007D900008A08601003D8F00084D8F000899
:10235000D19000081D8F0008F4AD010825B70008D2
:10236000E03F00203DB6000810040020ACA10108A9
:1023700080B001080121084611F04FFE132011F032
:10238000ABFC1822827102220672C2711221C5F8BA
:10239000FC0111F0C7FC0121D5F8FC0111F033FE5E
:1023A0003C2012F054FB3146012011F036FEFEF7BE
:1023B0005ABA00BFBE4B2DE9F04F1B680446BD4D15
:1023C000988C95B0288017F099F9BB4917F0EEF971
:1023D000BA4BBB4E1A7E30600796059312B9204661
:1023E00010F0ACF9059B1B7E022B08D0B54B1B6887
:1023F0009E0704D511F0D4FE20460FF007FCDFF84D
:102400000893B14BD9F800A0D3F800B09AF8008037
:102410009BF8D930AD4E1A464146B6F900000493F8
:1024200010F0ACFCAA4C049B41461A46208007469B
:10243000B6F9020010F0A2FC60809AF807109BF831
:10244000DA208046B6F9040010F098FC059BB6F936
:102450000620B3F8541140428A42A080CDF8209063
:10246000C0F28683B2F5FA6FA8BF4FF4FA624FF458
:102470007A73521A5A43C1F5FA61B2FBF1F264263B
:1024800092FBF6F3934903F1010E31F9130031F990
:102490001E106FF0630E0EFB0323091A4B4393FBD0
:1024A000F6F30344E3808C4B1B6858063ED58B4BF8
:1024B000B3F904000A2390FBF3F0894B1B88C01A80
:1024C00000B217F01FF9874917F070F9064613F0AC
:1024D00019FD8146304613F09DFC0646404617F034
:1024E00011F98046384617F00DF90146074648466F
:1024F00017F05CF941468246304617F057F901461D
:10250000504617F049F817F02DFB41462080484609
:1025100017F04CF939468046304617F047F9014626
:10252000404617F03BF817F01DFB60806E4B1A78A1
:10253000510740F11F830121002011F06EFD6B4B0C
:102540009B680BB16A489847059B694E93F85831D0
:10255000002B59D0674B1F78B37843B908F0AAF81D
:1025600001210246301D0EF0DFF80123B3702888E8
:1025700017F0C4F80146604813F0CEFC17F018FBC2
:102580005E4B80B25B88B3FBF0F0411C09B2318432
:10259000002F00F057830023554DB6F92290DFF845
:1025A00030A105F1240805F12C0E38F913203AF971
:1025B00013C009FB02F292FBF1F23EF813702EF801
:1025C00013C0ACEB07073A4428F813200133042B5F
:1025D000EBD16884464A0023B2F92200002840F378
:1025E0003583B2F9205002F12C07243232F913104E
:1025F00037F813E0414391FBF5F1AEEB010124F80C
:1026000013100133042BF1D13A4B1D78002D00F04B
:10261000FE80354BDFF8F4801B78394F13F0040F40
:10262000DFF8ECB040F014839BF80830BBB1072210
:10263000DBF818110BF5807010F06EFE9BF8083077
:102640006BB13B78DB070AD5DFF8A49099F83430FA
:102650002BB90E200FF07CF8012389F834309BF859
:102660000E3033B1D8F8003058025CBF01238BF82C
:102670000F30D8F80030DFF85890C3F38052C3F31E
:1026800000638BF80E208BF8103010F0B9FC11F0BD
:102690008EF89BF800201B4B03EB4213B3F80A8023
:1026A00018F4006F00F02C830B4B1B68590531E0C8
:1026B0000C1B0020EC3F0020BD378635F830002091
:1026C000FC380020DC3F0020CC200020181B00201C
:1026D0003C400020144000204C1F00200C13002020
:1026E0004414002035FA8E3C401F00205C09002075
:1026F000AC0D002046140020B00D0020EC3000206E
:102700006C1F0020FCA80108D43F00209C1E002064
:10271000482C002000F1F48297F800A01AF0100A6B
:1027200000F0BF82DBF88C34B9F9020093F803A003
:10273000514613F0CAFA00B2C0B1DBF88834404207
:10274000B3F84830584316F0DDFF0490504616F0B9
:10275000D9FF0146CE4816F01FFF049B01461846DC
:1027600017F0D8F8012110F02FFD28468BF80C0047
:1027700018F4805F00F06383C64B1B685A0500F1B4
:102780005E833B7813F0100FDBF88C3400F0EA82A4
:102790009978B9F9000013F098FA00B2003018BF28
:1027A0000120BD4BD87218F4005FBB4C00F04F8382
:1027B000B84B1A6812F4806240F04983B74B1B781B
:1027C00013F0100340F03F83B54AB2F9041081EAD8
:1027D000E172A2EBE172D4F88C1489788A4240F35A
:1027E0003483D4F81831C4F84C31657341F2B80021
:1027F0002278AC4B03EB42139D8920EA050011F0CF
:1028000067FC284611F074FC2278A74BDA86002278
:10281000A54CA64B94F838501A70CDBB9E4BA449DA
:10282000D3F88834186B16F0B9FE0023C4F8C4003E
:10283000C4F8C8004FF49672294604F1D000C4F8D9
:10284000BC30C4F8C030C4F8B830C4F89030C4F814
:10285000A030C4F8AC30C4F89430C4F8A430C4F844
:10286000B030C4F89830C4F8A830C4F8B430E56388
:102870006566256784F8CC5015F0BEFD4FF496725E
:10288000294604F5FE7015F0B7FD012384F83830B1
:1028900012F088F807460FF0A9F9002840F0DA8214
:1028A0000023C4F88430C4F88830C4F88C3038462B
:1028B00013F0A8FB0A207F4B774CB3F904304FF09C
:1028C00001095843C4F8180116F01CFF7A4917F0A3
:1028D00021F87A4916F06AFF054613F09BFAC4F80E
:1028E0001C01284613F00EFB44F61F626E4DC4F81F
:1028F0002001D5F83C3384F80490FB1A9342DFF8AA
:10290000C48140F28280C5F84033D4F88834C5F8D9
:102910003C73196BD5F8C40017F0E6F800270028BF
:1029200000F02A834846D5F8B0300093D5F8AC3093
:10293000D5F8A420D5F8A01010F02EFED4F88834D5
:10294000D5F8C800196B17F0CFF8002800F01B83EA
:102950000120D5F8B420D5F8A81010F0E7FDD5F87F
:10296000BC900021484617F0DDF8002800F01683DF
:10297000D5F8C030C4F82491C4F8283198F8003054
:102980005B0740F10783D4F82C710021384617F01B
:10299000C9F8002800F0FB823946484617F0C2F813
:1029A00000B94F46C4F82C71012348466372E370A6
:1029B00017F0D8F8A5F844030C2396F8CC70DFF88C
:1029C00008E103FB07639EE80700013703F1D00C21
:1029D000FFB203F5FE73182F8CE807000EF10C020E
:1029E00007CA83E807008ABF002386F8CC7086F800
:1029F000CC30D5F8C40017F0DBF8A5F84603D5F8BD
:102A0000C80017F0D5F8A5F8480311F0CBFF002354
:102A1000E1790746A5F84A3311B10123A5F84A33F5
:102A200094F809B0BBF1000F05D0B5F84A3343F074
:102A30000203A5F84A33237A2BB1B5F84A3343F0A1
:102A40000403A5F84A33154A137898070DD51C4896
:102A500090F805E0D4F888040078864522BFB5F8E0
:102A60004A0340F00800A5F84A0395F8400028B151
:102A7000B5F84A0340F01000A5F84A03A07A28B33D
:102A8000B5F84A0340F02000A5F84A031EE000BF55
:102A90000000FA434C1F0020482C00206C1F00202F
:102AA0003C400020FCA80108AC0D0020461400208A
:102AB0006F12833A0C1300200000C84235FA8E3C96
:102AC0003C130020401F00204C0E002003F07F002C
:102AD000107098F8002012F0040240F072826274C4
:102AE000894B8A4C1B78CBB1894BB3F90620059BE7
:102AF000B3F854319A4211DC059B5B79012B01D06C
:102B0000192B03D1059A92F8A8213AB90E2B05D0BA
:102B100003F0EF03082B1CBF0023A3807D4B7E4EE8
:102B200093F800B01BF01003049340F053867B4BE6
:102B30001A787B4B03EB42135B89DF0502F17C8043
:102B4000336893F8DD70002F00F04486754B1B68E6
:102B50009D0700F03F863FB2734B74491D6A2846BB
:102B600016F0C2FF002800F0F285704D00F0F7BDAE
:102B70000A467CE46E490968CF075CBF42F0010257
:102B80001A70644A1278160758BF1878694E5CBFED
:102B900020F0010018706848008818B16748006884
:102BA000800706D46648008818B9664800886328FC
:102BB00005D902203070187820F00100187011F447
:102BC000804704D06048014214BF01270027DFF886
:102BD0004CE1DEF8880490F8390000B35B480078D7
:102BE00040B9DFF878C1DCF800C09CF808C0BCF13F
:102BF000020F06D19EF8080010B382F0010202F025
:102C000001001A7812F0040F05D1DFF854E111EA3F
:102C10000E0F00D007B110B122F001021A701B781C
:102C2000DF074CBF00230223337011F0BBFE484B7B
:102C30001B68C01A0028FFF682AC06F0D3FE7EE4C3
:102C40000120DEE7738C013B7384C3E45384DBE42F
:102C5000D8F80030980213D541F21002314B1B68AE
:102C60001A420DD19BF8083053B13B780BF58070B8
:102C7000D9074CBF05220722DBF8181110F04CFBD6
:102C80003B78DA077FF5DAAC324810F02BFCCBF852
:102C90009001304810F072FBCBF8940110F022FB49
:102CA000CCE42D4BB9F80600B3F90020DBF88C34E6
:102CB000801A00B280EAE071DB78A1EBE071994202
:102CC00013DDDBF888340028B3F8483000FB03F04C
:102CD000DBF89C34CBBF5B881B889A1AD21A90FB16
:102CE000F2F016F00FFD02213DE59BF80C000028E4
:102CF0003FF43CAD0020022110F066FA504635E565
:102D000000238BF80C3033E5850300203C40002085
:102D1000181B00206C1F0020CC200020482C002015
:102D2000FCA801084C1F00209C3A00209A99193FEA
:102D30009C1E0020041D0020C6120020DC3F002045
:102D4000A20D00200019002000010800B03800206A
:102D5000081D0020B82D0020A8000020183F0020EA
:102D60000003080093F80290B4F90200494612F0FB
:102D7000ACFF494607B2B4F9000012F0A6FF04B256
:102D80000FB9002C4CD0DBF8883493F83A20012A94
:102D900044D14FF4FA7AB3F8469009FB07F090FB60
:102DA000FAF016F0AFFC074609FB04F090FBFAF0CE
:102DB00016F0A8FCDBF820A104465146384616F070
:102DC000F5FCDBF81C9104904946204616F0EEFC19
:102DD000049B0146184616F0DFFBDBF8141016F0D2
:102DE00099FDDBF8001116F0D9FB4946CBF8340108
:102DF000384616F0DBFC51460746204616F0D6FC56
:102E00000146384616F0CAFBDBF8181016F082FDB2
:102E1000DBF8041116F0C2FBCBF838012846C0E4F9
:102E20009BF80B0000283FF4BCAC0DA80AF060F939
:102E30000DA80122214610F0CDFA2046B1E400236E
:102E40008BF80B30AFE41546CFE41D46CDE40023EC
:102E50006373CBE4A04CD6F89010206816F09CFB6E
:102E6000D6F894108146606816F096FBD6F8981054
:102E70008046A06816F090FB984C054621684846AD
:102E800016F094FC61688246404616F08FFC0146BD
:102E9000504616F083FBA1688246284616F086FC51
:102EA0000146504616F07AFBA1698246484616F064
:102EB0007DFCE1698346404616F078FC01465846A1
:102EC00016F06CFB216A8346284616F06FFC01461B
:102ED000584616F063FBE1688346484616F066FCE8
:102EE00021698146404616F061FC0146484616F0CD
:102EF00055FB61698046284616F058FC014640465D
:102F000016F04CFB764B00F100451B78C6F884A008
:102F100013F0040FC6F88850C6F88CB0DFF8E881CB
:102F200012D1704BD3F888345B786BB1D8F8044079
:102F30005846214616F030FB6B4916F037FC214607
:102F400016F02CFBC8F80400D8F80410584616F008
:102F500023FB0446C6F88C00504616F003FEA6F884
:102F60003403284616F0FEFDA6F83603204616F078
:102F7000F9FDA6F838039AE400973B46D5F8A4205B
:102F8000D5F8A010D8E40022D5F8A810E5E4C4F8DC
:102F90002C9109E5554BC4F82C3105E598F8002033
:102FA000524BC4F828715707C4F8243158BFC4F8ED
:102FB0002C3100236372E3704FF6FF73A5F844339E
:102FC000FAE4002220786271A271494A13F01003DA
:102FD00002EB40125289049228D03946104609F07B
:102FE000DFFB40494B790BB100234B708B790BB160
:102FF00000238B70CA7A3F4B2AB1B3F84A2342F0C0
:103000004002A3F84A230A7B2AB1B3F84A2342F0CC
:103010008002A3F84A234A7B002A3FF461ADB3F84B
:103020004A2342F48072A3F84A2359E5049A12070E
:103030006CD53148D5F84C230380C5F84C734380D8
:103040008380064600293CD0BB1A2C4A934204D9FF
:10305000C5F850730AF08CF8C3E7A378DBB1D5F854
:103060005033C5F85073A7EB0308254B984525D876
:10307000D4F88834B3F8500016F044FB012100F175
:10308000004010F0A1F840460AF0E4F840460AF08B
:1030900097F80123A371D4F88834B4F98424D4F8C0
:1030A0009C14B3F9583013440A884988934203DBCF
:1030B00099420A46A8BF1A46F28092E70AF058F8E9
:1030C000E7E7104B1B6813B15B88C38089E7D4F82E
:1030D0009C341B88F9E700BF080A00209C3A0020B6
:1030E000401F0020482C00200AD7233B000080BF4F
:1030F000FCA80108AC0D00203C400020400D03005E
:103100003F0D0300183F0020A8000020049BDB07B0
:103110000BD5D5F85433504AFB1A9342C5F8547373
:1031200029D9C5F858730AF023F8049B980715D5D8
:10313000D4F88894D5F8643399F83A20FB1AC5F886
:103140006473002A40F08680E27A0692424A9342F3
:1031500040F29880C5F8687309F0E8FF049B5B07AC
:103160007FF53FAF64223D4BD3F84C3193FBF2F334
:103170003B4A138035E7A378002B4CD0D5F8583361
:10318000C5F85873A7EB0308364B98455FD8237CE6
:1031900053B3D4F850910021484616F0B9FC18B347
:1031A000D4F824A10021504616F0B2FC002849D0E2
:1031B000BBF1000F46D0404616F0A0FA2A4916F09F
:1031C000F5FA00230293294B02460193284B5146FE
:1031D00000934846274B10F085FA0146D4F80801C1
:1031E00016F0DCF9C4F83C01D4F83C0114F08AFF75
:1031F00047F6FF739842A8BF18461F4B9842B8BFC6
:103200001846A5F8600340460AF024F8404609F045
:10321000D7FF0123A371D4F88834D4F89C14B3F9F0
:103220005820B4F984341A440B8849889A4203DB45
:1032300091420B46A8BF1346104A1BB2D380A5F893
:10324000623372E700210E480FF0BEFFCCE709F0B1
:103250008FFFDEE7002278E7400D0300482C0020B6
:10326000721300203F0D0300BD37863500000C426D
:103270000000A0C0D42C00205A80FFFF3C4000205A
:103280000000A0C1237A002B00F05C826378002B41
:1032900000F02682069AD5F86833C5F86873002ACC
:1032A00040F01B82A7EB030BB04B9B4500F247821B
:1032B000D4F80011D4F8340116F06EF9616916F0F3
:1032C00075FAD4F804118046D4F8380116F064F980
:1032D000A16916F06BFA2278A54B074603EB42135F
:1032E0005B89B9F84200590513D594F96934002B6C
:1032F0000FDD182294F97C3402FB034393F89821E4
:10330000012A06D1B3F8A831312B02D9984228BF3F
:10331000184616F0F3F941468146404616F046FA43
:1033200039460546384616F041FA0146284616F059
:1033300035F914F021FF4946824616F0F3FB80B1BF
:103340005146404616F0E6FA494616F02FFA514625
:103350008046384616F0DEFA494616F027FACA4685
:1033600007462278824B03EB42135B895A0529D525
:10337000D4F81831D4F84C01C01A12F0B5FC42F25E
:1033800028339842A8BF18467A4B9842B8BF1846CF
:1033900016F0B8F9784916F0BDFA784916F006FA31
:1033A00012F0B0FD014616F001FA7549054616F017
:1033B0009BFB002840F0B1814FF07E51284616F06B
:1033C000B1FB08B14FF07E554946504616F0A2FABF
:1033D0006C49814616F088FB002840F0A0814FF030
:1033E0007E51484616F09EFB08B14FF07E59494683
:1033F000484616F0DBF901464FF07E5016F0CCF847
:10340000D4F8FC1016F0D2F901464FF07E5016F0B9
:10341000C3F881462946404616F0C8F9494616F0D9
:10342000C5F92946C4F840018046384616F0BEF971
:10343000494616F0BBF9C4F84401404614F062FE58
:1034400047F6FF75A842A8BF28464F4FB842B8BFFD
:103450003846A6F86C03D4F8440114F053FEA84291
:10346000A8BF2846B842B8BF3846D4F80C11A6F811
:103470006E03D4F8400116F08FF8D4F81011054609
:10348000D4F8440116F088F829460446284616F078
:103490008DF921460646204616F088F90146304649
:1034A00016F07CF814F068FE3849064616F03AFB30
:1034B000002800F037813146354816F02BFA0646D1
:1034C00025F00040314616F071F93146074624F0E8
:1034D000004016F06BF90446584616F00FF92D49D6
:1034E00016F064F92C49064616F060F92B4B01469C
:1034F000D3F874538246284616F04EF807F1004977
:103500004946804616F0F0FA002840F00E81394610
:10351000404616F007FB00B1B8462946504616F063
:103520003DF805460146484616F0FCFA002840F0F2
:10353000FE802946384616F0D7FA00B13D46174BB3
:103540005146D3F878B304F10049584616F024F8F0
:103550004946074616F0C8FA002840F0EA8021469E
:10356000384616F0DFFAD8B1274619E03F0D0300C0
:10357000FCA80108D8DCFFFF0000C84235FA8E3CE9
:10358000CDCC4C3D0AD7233C5A80FFFFCDCCCC3D5F
:1035900000007544BD3786350080D444AC0D002052
:1035A0005946504615F0FAFF82460146484616F045
:1035B000B9FA002840F0BF805146204616F094FA30
:1035C00000B1A2464FF00009B64CCDF80890019525
:1035D000CDF80080324604F12003D4F80C11D4F861
:1035E000400110F07FF8CDF808900097CDF804A0C6
:1035F0000546324604F14403D4F81011D4F84401CE
:1036000010F070F8A84F8046C7F878033346294673
:10361000022207F55F70C7F8745312F0A9FC334615
:1036200002220546414607F5627012F0A1FCD4F86B
:103630001C910646494605F1004016F0B7F8D4F84B
:10364000207180463946304616F0B0F801464046B3
:1036500015F0A4FF39468046284616F0A7F84946DB
:103660000546304616F0A2F80146284615F096FFAA
:103670008E4912F04BFB074612F044FC01464046CF
:1036800016F094F8894912F041FB894916F08EF83A
:10369000884916F03FF916F065FAD4F8883493F8A3
:1036A000565005EB85056D006E42B04245DBA842E1
:1036B000A8BF2846A4F87E047D49384616F076F85F
:1036C0007C4916F027F916F04DFA864203DC854254
:1036D000A8BF05462E46A4F880640122714B5A719A
:1036E000069B002B7FF43AAD6E4CD4F89064B4F98D
:1036F0008004B6F9365016F005F829460EF05EF94A
:103700006D4DB6F934606880B4F97E0415F0FAFFA7
:1037100031460EF053F9288020E5684D54E6DFF875
:10372000AC9164E6664C2746D6E6C846F5E64D46BB
:1037300005E74F4634E7CA4644E73046BAE709F0A2
:10374000F5FCCAE7A4F88034A4F87E3406E54FF00F
:103750007E51284616F0E6F908B14FF07E55059BDC
:1037600029464FF07E50B3F8DC8016F0D3F84FF0C6
:103770007E5115F011FF0546384615F0C3FF51493B
:1037800016F0C8F80146284616F010F84FF07E51A2
:1037900015F004FF0546B4F90600A0EB080015F08B
:1037A000B1FF0146284616F001F80546404615F0DF
:1037B000A9FF0146284615F0F1FE16F0D3F9059B46
:1037C0008045B3F8DE3003DC8342A8BF0346984649
:1037D000A4F80680089B344D1A68B4F90640B5F881
:1037E000943336689C4218BF0121374B1CBFA5F8A3
:1037F000944319701B78002B00F0CC80049B9779C0
:10380000002B00F04581002F62D0059B1089B3F892
:10381000DC8040455CD944453FDDA0EB080015F055
:1038200071FF8146A4EB080015F06CFF0146484685
:1038300016F070F84FF07C5115F0B8FF4FF07C5146
:1038400015F0ACFE4FF07C51044616F04DF908BB64
:103850004FF08041204616F065F908B14FF08044E2
:10386000C5F898434FF07E51D5F8980315F094FEB3
:103870000446384615F046FF124916F04BF801464B
:10388000204615F093FF4FF07E5115F087FEC5F8E6
:10389000980321E04FF07C54E2E74FF08043C5F8F5
:1038A0009833DFE7482C0020AC0D00208F2A7544A8
:1038B0000000204135FA8E3C3C400020CDCC4C3DF0
:1038C000C23D2D440000C842C41200200AD7233C48
:1038D0004FF07E53C5F898330027D5F898539E4C87
:1038E000013E16F8019F484615F00CFF9B4916F063
:1038F00011F8206096F80A800690404615F002FF05
:103900004FF07A5115F052FF60608246307D15F01D
:10391000F9FE934915F0FEFF049B8346A060069ACA
:10392000002B00F0D1801046294615F03FFF2946B4
:103930002060504615F03AFF29466060284615F091
:1039400035FF594615F032FFA060B9F1000F00F0C5
:10395000C680B8F1000F00F0C280D4F80080616822
:10396000404615F0D7FF41468146A06815F0D2FFCA
:103970000146484615F012FE01464FF0804015F012
:10398000C9FFE0600137032F04F16C04A9D10022C4
:10399000744B1A70744B1B680493089B1B68069346
:1039A000724B1C6814F0080415D0714B1B7813F08F
:1039B000080410D06F49704A087802EB401252890F
:1039C000140641F15981D80601F156814B7B002B39
:1039D00041F060810224604E0027B0463546674BB7
:1039E00053F8270015F08EFE654B196915F0DEFEC1
:1039F000022FC8F8100077D1022C75D10A20614B34
:103A0000614AB3F9043093FBF0F310881B1A9BB2A0
:103A100018B210F1B30FBCBF03F5B47000B2049B31
:103A2000B328C8BFA0F5B4701B7AC8BF00B2584312
:103A30001E2390FBF3F015F065FE049B824693F87D
:103A400038B0CBF1000015F05DFE8146584615F008
:103A500055FE49468346504616F046F830B9594659
:103A6000504616F05FF800283CD0D946079B4946DF
:103A70001B680222454812F07BFA4549814616F040
:103A800033F8002801F01181414BC5F8EC3095E086
:103A9000002F3FF41DAF12899442FFF619AF059B2A
:103AA000B3F8DE309C42BFBFA01A78439B1A90FB4C
:103AB000F3F0ACBFC7F16400C0F1640015F022FE62
:103AC000344915F027FFE2E6022F3FF43EAF2946C6
:103AD000104615F06BFE29462060584632E7002359
:103AE000E3604FE7D146C1E7069B3B4493F803A050
:103AF000504615F003FE8146CAF1000015F002FEA3
:103B00000146484615F048FD8246234B33F917001D
:103B100015F0F8FD214915F041FD514615F046FE1E
:103B20001F4915F0F7FE514615F036FD494615F0D0
:103B300035FD16F017F80A23584315F0E3FD144934
:103B4000814615F0D1FF78BB1649484615F0EAFFCB
:103B500060B3DFF8509029E0003900200000F84100
:103B60000020EE44C4120020CC200020DC3F0020C6
:103B70006C1F0020482C0020FCA80108D81200204F
:103B80005C0900200C130020721300203814002060
:103B90000000E1C40000C8423C4000200000FA439D
:103BA00000007A440000E144DFF814930137032F4A
:103BB000C8F8149008F16C087FF411AFB14F3B685E
:103BC0009B074CD0059BB3F85221AF4BB3F90200D1
:103BD000B3F90030801A9B1A80EAE071A1EBE07122
:103BE00083EAE372A2EBE372B1F5FA7FA8BF4FF468
:103BF000FA71B2F5FA7FA8BF4FF4FA729142B8BFDA
:103C00001146084615F07EFDA04915F083FE049B81
:103C10008046D87E6428A8BF642015F073FD9C49B7
:103C200015F078FE81460146404615F067FF0028F2
:103C300000F092824046494615F06CFE8046002313
:103C4000944A06990498CDF800800DF0D9FDCDF87E
:103C500000800123904A069904980DF0D1FD3F6839
:103C6000B80419D5022C17D0D5F8EC400021204615
:103C700015F03AFF002800F0728204F100404FF086
:103C8000804115F04FFF20B9844B1B78590700F194
:103C900068820023C5F818313A0417D500230D9324
:103CA0000E93D5F8EC300DA80F9310F067FC0D992A
:103CB000686915F073FC0E996861D5F8800015F0FD
:103CC0006DFC0F9BC5F88000C5F8EC3000254FF067
:103CD0000009079BD3F80080022D049B00F0AF87FA
:103CE000186B322828D915F009FD49467769044632
:103CF00015F018FF002800F05D824146204615F0BF
:103D000055FDD6F850B001468246584615F044FCA1
:103D100004460146384615F0E7FE50B9594650466C
:103D200015F03CFC04460146384615F0FBFE00B990
:103D30003C463465336D73610135032D06F16C0625
:103D4000CAD10026049B564C1433089354F8501CD7
:103D500054F84C0C15F020FC54F8601C079015F03A
:103D600025FD022E81461ED14E4B1B78032B0FD909
:103D7000049B5D8C65B115F0F5FE6B42984203DB48
:103D8000A8420346A8BF2B46184615F0BBFC814647
:103D9000049B93F8242032B1434B49461B684348A7
:103DA00012F0E6F88146089A12F8013B0892002BBF
:103DB00000F0118214F82C2C54F8341C013A9200B3
:103DC000081D54F8505C14F0B3FA54F8348C0027F2
:103DD000C8F80050002514F82BAC5545C0F2EC8112
:103DE000314B54F8580C1D6800F10040294615F07D
:103DF00091FD394615F0DAFC049B07469A7F2AB1FB
:103E000001462B46204612F0B3F8074628493846AB
:103E100015F06AFE002840F0E0812649384615F08A
:103E200081FE00B1234F54F828BC3946484615F0AE
:103E3000B5FB594615F0B2FB1F49804615F054FEFC
:103E4000002840F0CC811D49404615F06BFE00284B
:103E500000F0C781194B0693049B022E0CBF188DEE
:103E6000D88C15F04FFC54F84C3C05460021184600
:103E7000059315F039FE002800F0B681059B03F18B
:103E800000401FE04C1F0020181B00200000FA43D8
:103E90000000C842003900206C390020401F00207B
:103EA00060390020F43F0020FC3800202C3A00202C
:103EB000000096C30000964300007AC400007A44D4
:103EC0000000E1C4294615F025FD01464FF07E5063
:103ED00015F062FB0021054615F006FE002840F0B3
:103EE000AF814FF07E51284615F01CFE08B14FF00F
:103EF0007E55BE4B54F85C1CD3F800A0079815F013
:103F000055FC294615F052FC514615F04FFC414630
:103F10000546069815F040FB54F8541C15F046FC75
:103F2000514615F043FC0146284615F037FB59462B
:103F300015F034FBAE4B80461B7844F8280C13F088
:103F4000200F0793AB4D04D195F89C33002B00F064
:103F50007B8154F824AC40460AF1004B594615F0D9
:103F6000C3FD38B95146404615F0DCFD002800F08D
:103F70006981D34644F828BC079BDB061DD5049B0A
:103F8000B3F83AB0BBF1000F17D0CBF1000015F039
:103F9000B9FB54F8288C82460146404615F0A4FD32
:103FA00048B9584615F0AAFB82460146404615F02E
:103FB000B9FD00B9C24644F828AC069815F0D2FD08
:103FC000DFF870826C3428F81600484615F0CAFDF8
:103FD00008F1060A4AF8260054F8940C15F0C2FDC0
:103FE00008F1120949F82600384615F0BBFD08F122
:103FF0001E0949F82600059815F0B4FD08F12A08B5
:1040000048F826000136032E7FF4A0AE7A4B7B4E93
:104010001C78032C17D933685888B0F5FA7F12D270
:10402000774BB5F9A273B3F90430424283EAE371E6
:10403000A1EBE371531A9F4203DB4318BB42A8BFB5
:104040003B46A5F8A23300273368B9463E46DFF861
:10405000E88104930DF1340BA145C0F2FE80694B59
:10406000F01B1A680FFA80FB12F4805F0493644A15
:10407000DFF8C89100F047816349B2F9066009781A
:1040800011F0040F614908BF08680A68604908BF59
:10409000C08A0F6808BFA5F8D403D28AF888111A1D
:1040A0008E4200F31281D9F80010B7F90020B1F95F
:1040B0000070A5F8D463A2EB07080FFA88F8C3458F
:1040C00040F33A810122404685F89C2315F01AFB03
:1040D0000546584615F016FB0146284615F01AFC11
:1040E0004FF0000B82460DAA5C4500F3158149494B
:1040F000284615F05BFB4FF0020A4FF07C5115F09B
:1041000055FB98FBFAFA054607EB0A0015F0FAFA98
:10411000294615F041FA15F025FD0FFA80F808EB55
:104120000A0015F0EFFA294615F038FA15F01AFDD5
:10413000354A0FFA80FA127812F0040240F03F81FB
:1041400013463549354A9C4240F3608131F81300EB
:1041500022F813000133F6E74FF07E586FE5204652
:104160008DE5D5F8E810204615F016FA1F4B1968B2
:1041700015F01CFBD5F8181115F010FA2849044663
:1041800015F0B2FCA0B92749204615F0CBFC00B1D0
:10419000244C049BC5F81841187A15F0B3FA22494B
:1041A00015F0B8FB214615F001FBC5F8EC0073E5EE
:1041B0001B4CEEE73765BDE554F8303C58F8251048
:1041C00053F8250015F0F2FA0146384615F0E6F9E5
:1041D0000135074601E6002725E6144F23E6144B78
:1041E00039E6CDF8188037E605986BE6FC380020F4
:1041F0006C1F0020AC0D0020F43F0020401D00206B
:104200003C400020141B0020401F0020441D0020C3
:10421000443A0020C3F5A83E582000200013002097
:10422000000034C2000034420000A042000096C3E7
:1042300000007AC44A110020EC080020483A00200F
:10424000002556E6C34695E6002115F04DFC08B161
:1042500008F1004844F8248C8EE6B5F9A00315F067
:1042600051FAD8F8081015F0A1FA8246B5F99E0364
:1042700015F048FAD8F8041015F098FA014650469F
:1042800015F08CF9049B824693F90030B5F9A2032E
:104290005B42584315F036FAD8F80C1015F086FA40
:1042A0000146504615F07AF915F05CFC00B2B042B8
:1042B0002BF8190003DC8742A8BF0746304609F1F6
:1042C000010908F110080646C6E60244964206DBDC
:1042D000D9F80020B7F90270B2F90220E9E6B5F981
:1042E000D4239142A7BFB7F90060D9F80020D9F8CC
:1042F0000020B7F90260ABBFB2F90070B2F902203A
:1043000032463746D7E6B2F90660D9F80020B2F94E
:104310000070B2F90220CEE632F91B00059215F0CA
:10432000F1F9514615F042FA15F01CFC059A22F8F5
:104330001B000BF1010BD7E60021404685F89C13CA
:10434000059215F0DFF9B14915F030FA4FF0020A85
:104350004FF07C5115F02AFA9BFBFAF598FBFAFA1C
:10436000834607EB0A0015F0CDF9594615F014F90C
:104370008046781915F0C6F901460746404615F003
:10438000D1FB059A00B947463846059215F0EAFB7D
:104390000FFA80F808EB0A0015F0B4F9594615F049
:1043A000FDF8059A0746501B15F0ACF90546014685
:1043B000384615F099FB00B93D462846B6E64FF061
:1043C000000B934A9349D378D9F800500793049B84
:1043D000D1F800901A68904F02F4805302F0100256
:1043E00009928E4A0893B2F906208D4B0592B3F9D3
:1043F000D4338C4A049392F900208B4B06921B68AD
:1044000062000A920A9A5A4540F03A81874B1B781B
:10441000002B00F09A80864B86481B687F4CB3F8CF
:10442000502193F852110368049213F4807F824D57
:1044300000F07381814B1A88ADF834205A889B882C
:10444000ADF83620ADF838304FF47A724FF461662B
:104450007B4FB7F9023003F5E163534393FBF6F367
:10446000A3F5FA73ADF84C30B7F9003003F5E1630A
:104470005A4392FBF6F2734BA2F5FA721B88ADF821
:104480004E20A3F2DC53ADF83A302B682288DB8A49
:10449000D21AADF83C206288D21AADF83E20A2882C
:1044A000D21AADF84020E288D21AADF84220228913
:1044B000D21AADF844206289D21AADF84620A289FA
:1044C000D21AADF84820E289D31AADF84A30002359
:1044D0001C465D4A22F813400133082BFAD15B4B8E
:1044E0000129D3F8008003684FF0060203F48043EB
:1044F000079314BF01234FF0FF334FF0640C089370
:10450000534B54491B78544802FB0313DFF838A17E
:104510000993099B8B4240F01B8100254FF00E0947
:1045200064274E4E09FB0583B6F9024093F9060055
:10453000444394FBF7F4E8B274800DF0BFFA013500
:104540002044082D26F8020FECD1454D2B68990622
:1045500032D500200DF0B2FA3B4C064620800120F7
:104560000DF0ACFA3F4B60801B681A0624D53E4B19
:1045700033491B681B78012B344B40F06381D3F81F
:1045800000E032279EF906305A42B1F90230B1F903
:10459000001053439EF9142093FBF7F351436FF03F
:1045A000310291FBF2F291FBF7F19BB21A44B21A7D
:1045B00022800B44184460802C4B1B68002B40F079
:1045C00054812B4B1B780BB10DF092FA294B1E78BE
:1045D000002E40F047822B68190340F1438210F00F
:1045E000E1F9254C07462378033B052B00F20782AF
:1045F000224BDFF82C8093F87A37002B00F0EB8108
:10460000012B00F00C823046E9E100BFC3F5A83E63
:10461000481B0020443A0020FE120020181B0020F6
:10462000AC0D00206C1F0020441D0020BE060020A1
:10463000CC2000204C1F0020501D00203C400020BA
:104640000C13002000130020F0120020C0200020D6
:10465000C4060020C506002082110020EE120020B2
:10466000141B00209C1E00204C1D0020C0060020B2
:104670004C090020BC2000202C400020F8300020F5
:104680000B9330460DAB33F80B4015F03BF8A94BBC
:1046900053F83B1015F08AF815F064FA404541468E
:1046A0000B9B03DB50450146A8BF51460C44079ABB
:1046B00024B227F8024F12B1A98868880BE0089A43
:1046C000B2B1D98AB9F80600049A091A8A420CDCF8
:1046D0002988B9F800008C4203DBA0420146A8BF3C
:1046E000214639800BF1020B8CE6B9F80210E4E7A1
:1046F000298868888C4203DBA0420146A8BF214676
:10470000099A3980002AEDD0198B059A8A4202DB7A
:10471000069A002AE6DAA988E3E7874BB3F89E23D6
:10472000ADF83420B3F8A023B3F9A233ADF83620A6
:10473000824AADF838301268D6047FF585AE2A6813
:10474000B4F90660D28A9642BFF67EAE5B4279E645
:104750000E230F7891F9054003FB0789B9F9022070
:10476000B9F9003091F801E0D21A91F9043092B20F
:10477000534393FBFCF34FEA520BA3EB0B0306945A
:10478000CC781BB205934FEA4E06002C3FD114ACF7
:10479000264436F81C4C0480079C74B1FC1E012C86
:1047A0000BD8042F14BF01244FF0FF34049D089E42
:1047B0006C43058806FB045404800123D9F80A40A1
:1047C00003FA0EFE14EA0E0FB0F9006091F90240F0
:1047D00008BF1D4604FB06F494FBFCF4059B18BFC0
:1047E0004FF0FF359C4209DB069B5A4392FBFCF2DB
:1047F000A2EB0B031BB2A342A8BF23463AF8172033
:10480000023005FB032306312AF8173081E614AB8A
:104810001E44B0F9005036F91C6CB54208DA2C443D
:10482000A54203DCA6423546A8BF25460580B3E76E
:10483000B2DD2C1BB44203DBA542A8BF25462E46A1
:104840000680A9E71B68B1F9022093F906707A4344
:10485000322792FBF7F23244228093F91420B1F907
:104860000030534393FBF7F3A4E6354F3B6893F9CD
:104870000430002B7AD1334B334A1B6803F17004A8
:10488000B2F90200B3F90010B3F90260884203DB09
:1048900086423146A8BF01460E339C4222F8021FD1
:1048A000EED12A4B1B78012B02D0192B40F08780C8
:1048B000274B1B785B0700F182803B681F78B7FAB3
:1048C00087F77F09234B1C788CB1234B1C7874B17C
:1048D0000026224BDFF8908093F80090DFF880A04C
:1048E00098F8002009EB06039A42344669DA2B68EF
:1048F0009E060AD51A4FE0B2661C39880FF06CF993
:104900007988F0B202340FF067F92B68D8027FF58E
:1049100058AE0026134FE4B2A01937F8021FC0B2F8
:104920000FF05AF90D2E06F101033FF44AAE1E4670
:10493000F2E700BFEC080020AC0D0020141B0020A3
:10494000481D0020C0200020EE120020B0060020EC
:10495000401F0020BE060020C4060020BC06002028
:10496000F01200201E1B0020BD060020B74E96F856
:10497000F64306F57E787CB9DFF8F8923B6808EBE1
:104980000400D9F8142059881C340BF0CDFEE02C1B
:10499000F4D1012386F8F6330024AD4EB6F90200B7
:1049A00014F0B0FE014608EB040011F0B5FA15F062
:1049B000D9F81C34E02C26F8020FEFD15BE7002772
:1049C00080E7F0B227B100210FF006F9013687E742
:1049D0003AF81310F8E7D8F8D80409F0A4FFD8F88B
:1049E000DC2498F8E0341344B3F5807FA8BF4FF47B
:1049F00080738342D4BFC8F8DC34C8F8DC04237861
:104A0000023B092B29D8DFE813F00F001C005500EA
:104A100078008E00A600B900CA00EC00F8000CF087
:104A200069FEC0F17F00DAE70022884BC3F8DC247E
:104A3000C3F8E424874A1268C3F8E82403232370E8
:104A40000BE0844B814D1A68D5F8E8346433934207
:104A500003D240200AF088FC38B10AF0B1FC08B15A
:104A60000123237015B0BDE8F08F7B4F4026B84678
:104A7000D5F8E434F85C78B110F0BAF8D5F8DC3445
:104A8000013E03F1FF33C5F8DC34D5F8E43403F11B
:104A90000103C5F8E434EBD1D5F8E43418F8033059
:104AA000002BDAD1C5F8E4344FF0FF33C5F8E83411
:104AB0000423C4E7694A5021A2F10C030193432364
:104AC000029200934920A2F10A03163A0CF076FAFA
:104AD0000028C2D12A685D4B12F080024FF0FF31EE
:104AE00005D0C3F8E404C3F8E8140523A7E7C3F826
:104AF000E424C3F8E8140723A1E70223002100936C
:104B0000574B02910191A3F1080248200CF056FA8C
:104B10000028A2D14FF0FF324C4BC3F8E404C3F895
:104B2000E82406238BE74F4A0021A2F10C030193EE
:104B30000B23029200934720A2F10803143A0CF0D1
:104B40003DFA002889D14FF0FF32404BC3F8E4040E
:104B5000C3F8E824CFE7052300210093424B0291DC
:104B60000191A3F1080253200CF028FA00287FF4E9
:104B700074AF364BC3F8E404082360E70BF0B4FFCE
:104B800000283FF46AAF0AF031FC00283FF465AF1B
:104B90004FF480522D4BA3F8EC240A234FE7334BFC
:104BA0001B689A031AD5294DB5F8EE34B3B9D5F878
:104BB000F064452010F01CF80E2010F019F8304673
:104BC0000AF0B6FC38460AF0B3FC4FF48053A5F85F
:104BD000EC340A232370384610F05AF810F032FCF7
:104BE0003BE71A4B93F8F434002BF4D01F4B1B68AF
:104BF0009B03F0D409232370F0E7164B134D1A687A
:104C0000D5F8E834C833934211D2194B93F87A6738
:104C10005EB9D5F8D80412F09BFC95F8F534C5F8C8
:104C2000D864022B01D104F09DFE012307E70AF0AE
:104C3000DDFB0028E9D110E76427FDF78DBFD86AB6
:104C400032287FF67EA8FFF74EB800BFAC0D0020DB
:104C5000EE120020441B002030A30108A6A3010887
:104C6000BCA60108D8A6010850A701089C1E002078
:104C7000F83000205C090020124BB3F9042082EACE
:104C8000E273A3EBE2730E2B04DC0F4B1B685A0795
:104C90003EF5A0AE0A220D4B0124B3F9043093FB7C
:104CA000F2F30B4A1380FEF796BEDFF828A04846C1
:104CB000514614F037FF00283EF478AFC8F814A02E
:104CC000FEF77CBF3C4000204C1F00200C1300204E
:104CD000721300200000E1442DE9F04FB34BAFB058
:104CE0001E780093002E00F0C880B14B1868002891
:104CF0006CD00FF0A2F9DFF8F0A2AE4CDAF80000A9
:104D000009F014FE002861D0DAF8000009F008FE6E
:104D10000928A94D01D03F284FD14FF00008C146C6
:104D200046462F68DFF8C4B208EB0B0347B13A469A
:104D300058F80B102046019313F0F0FC019B08B9C2
:104D40006EB3994608F10808B8F5847FECD196B1A6
:104D5000D6F800E0D9F800C02B681EF803001CF854
:104D60000310814207D15A1CE1B92D2B1AD82020FB
:104D70002A60E054A1542B680BB14E4507D08F48F0
:104D800012F076F84E4510D912F0AEFB00272B68D2
:104D90009F42B3D2E05D11F0E0FE0137F7E71E4617
:104DA0009946CFE7E0542A60D6E756F8080B12F090
:104DB0005FF8092011F0D1FEE4E72B68002B41F0E9
:104DC0007181042805D17B4808F082FE2FB0BDE830
:104DD000F08F0C2841F08A81794812F049F812F0DE
:104DE00083FB8BE701220B4601F06FB9591E605C13
:104DF0002028F7D002B12B600026E654714BDFF873
:104E0000EC81D3F800B056F8081006EB0809084604
:104E1000019113F055FC019907460246204613F014
:104E20007DFC20B9E35D5B445B785B0707D0083607
:104E3000B6F5847FE7D1644812F01AF807E0634BB7
:104E40009945F8D2781CD9F80430204498470023BB
:104E500001F03FB92F2B3FF651AFA0F12002D2B2A3
:104E60005E2A3FF64BAF13B920283FF447AF5A1CD8
:104E70002A60E05411F071FE40E7554B554C93F811
:104E8000009009F00403009354F8093C002B41F012
:104E9000D5800136022E04F1CC0497D0F4E7012B23
:104EA00006D14D2808BF022318BF002301F0DCB84B
:104EB000022B03D13C2808BF0323F5E7032B0BD1BA
:104EC0000023C0289FBF04F8053C04F8040C04F834
:104ED000030C042301F0C8B8042B09D114F8033CD7
:104EE00004F8020C5F4004F8037C052301F0BCB811
:104EF000052B13D114F8051C14F8043C14F8032CEA
:104F00008B424AD94B1C04F8053CCC23424004F8A0
:104F1000032C314A03FB06230B44587214F8018C0E
:104F2000B8F1060F41F08B802C4B0DF1140A93E879
:104F300007008AE80700002214F8043C14F8027CF9
:104F400023440993ADF82A203BB20492514604AAA7
:104F500038460894ADF82830ADF81C3001F0E0F880
:104F60000546002840F0C880762F40F0D880089B86
:104F70005A1C08921F78002F6AD1194B1B78D8074A
:104F800040F1BC804FF0A5083D46BA46BB46154BE4
:104F900093E806024FF0040E83E0824202D106231A
:104FA00001F062B8002301F05FB800BFBC20002010
:104FB000CC3F002088200020B82000207ED00108AF
:104FC00083D00108A00300208ED00108B8B10108E9
:104FD000401F0020751B00206C1B002070A70108DB
:104FE0006C1F0020601F0020F03F0020B0B00108BF
:104FF000009B002B41F0238023281DD10121A24BCF
:1050000054F8092C1970A14BA1491A60A14BA24870
:105010001A609A609DF8002059605A7310221A7322
:105020009E4A0433136011F023FF12F05DFA9C4A8C
:10503000137843F0020313709A4B1B681B78BB4232
:105040007FF46CAF984B994A1A60994BDD6065E725
:10505000FF2F0BD10EA997480BF082FA0EA991E809
:1050600006024FF0A508AA46AB4693E7791ECBB2DD
:105070001D2B4CD8904A92F969349F4247DC182383
:105080004B4303F5CC739818B0F910B0B0F912A0E7
:10509000B0F9145090F81680011D13F802E091E861
:1050A000060205980192431C0593077005982EAFE0
:1050B000431C47F8A43D80F800E0384610F06CFA35
:1050C000019A3846114610F067FA4946384610F002
:1050D00063FA1FFA8BF1384610F072FA1FFA8AF160
:1050E000384610F06DFAA9B2384610F069FA059BFF
:1050F0005A1C059283F80080012352E04FF0A50866
:105100003D46BA46BB46B9463A46394642E74FF0B5
:10511000A508AA46AB46A9462A4629463AE7472F9C
:1051200023D108A810F008FA07460146504610F0AF
:1051300033FA624B0DF13808DD6807F18003AB42AA
:1051400094BF8025ED1B0CF097FA2A46414638465D
:1051500006F06EFC00238342CEDA059A18F803109D
:10516000551C059501331170F5E7089B099A5B2FD3
:10517000A2EB030A00F08A8400F27981352F00F057
:10518000C28200F20F81292F00F0048600F29C8079
:10519000232F00F09D8260D8072F00F0D1844FF0BC
:1051A000FF33ADF81E30002B00F03887059B54F814
:1051B000090C0693424B059303681B6A03B1984799
:1051C00024228DF838204D22059B069F8DF839202A
:1051D000FF1ABDF91E20FF2F3B46A8BFFF23511C1D
:1051E00014BF3E2221228DF83B30BDF81C308DF8D3
:1051F0003A200EA9052254F8090C8DF83C3009F02C
:105200009BFB9DF83C509DF83B30FE2F85EA030543
:1052100040F3F686F9B254F8090C4FEA272809F052
:1052200088FB5FFA88F154F8090C09F082FB7D4095
:105230006DB285EA0805EDB23A46059954F8090CB5
:1052400009F07AFB05990A46BB1A0B44002B40F380
:10525000DA8612F8013B5D40F6E7252F00F08F85D6
:10526000272F9CD108A810F07DF9164DA5F8F6005F
:1052700008A810F077F9A5F8F80008A810F072F95E
:10528000A5F8FA0038E700BFBC200020F03F00205E
:1052900073E90008A4120020AED00108CC3F002022
:1052A000401F0020B4380020F04F0020EFBEADDEDC
:1052B00000ED00E0482D0020482C00207403002061
:1052C0007C400020F83000202F2F00F03A865CD878
:1052D0002B2F00F077852D2F7FF461AF5A1C2EAD58
:1052E00045F8982D1B78BF4F284687F8443110F0B9
:1052F00039F9A7F85601284610F034F9A7F85201F9
:10530000284610F02FF9089BA7F854015A1C089260
:105310001B78BAF1080F87F84D317FF6EDAE2846BD
:1053200010F020F9A7F85A01284610F01BF9BAF13D
:105330000C0FA7F85C017FF6DFAE284610F01DF9D0
:10534000284610F01AF9284610F00CF9BAF1100F9F
:105350007FF6D2AE089BBAF1110F03F10102089259
:105360001B7887F846313FF4C7AE284610F0E4F8C2
:10537000BAF1150FC7F848017FF6BEAE089B5A1C5C
:1053800008921B7887F84C31B6E6312F00F0F8858B
:10539000332F7FF404AF5A1C08921A78914B83F88C
:1053A0004F21A9E6432F00F05E8533D83C2F3FF410
:1053B000A3AE1CD8372F00F08A85392F7FF4EFAECB
:1053C00019465A1C089211F8020B864A089182F875
:1053D0002E01597882F83211D91C0891997882F8F7
:1053E0003111191D0891DB7882F8333184E63E2FA4
:1053F00000F04681412F7FF4D2AE00237948089A0D
:10540000511C089111781A180133082B82F83C11AD
:10541000F5D171E64C2F00F0DC840BD8482F00F05A
:10542000D8834A2F7FF4BBAE08A810F09BF86D4BD1
:10543000D88161E64E2F00F0F284512F7FF4AFAE99
:10544000694A1278012A00F2D88519465A1C089236
:1054500011F8020B634A089182F87A07597882F8AA
:105460007817D91C08919B7882F8793744E6D12FB8
:1054700000F0CC8300F28680CA2F00F00E815FD846
:105480005F2F00F027831ED85D2F7FF488AE5A1C53
:105490002EAD564F45F8982DD7F800801B7828463A
:1054A00088F8203010F05EF8FF28A8BFFF2088F8A9
:1054B0001E0028463F6810F055F8FF28A8BFFF20BF
:1054C00087F8240018E6C82F3FF416AEC92F7FF4E2
:1054D00066AE5A1C08921978454A002900F0848368
:1054E000117841F00201434D11702A782EAF02F07D
:1054F000F9026FF304122A709A1C47F8982D5B7812
:1055000038466B7110F018F8A860384610F014F89F
:10551000E860384610F026F82861384610F022F886
:1055200000236B83AB83EB836423334AAB84EB842C
:105530001368288443F04003136011F0D3F8DBE5CF
:10554000CE2F00F03A830FD8CC2F00F00481CD2F5E
:105550007FF425AE294B1B785B073FF5CDAD4FF4AB
:10556000C872274B5A84C7E5CF2F00F03E81D02F59
:105570007FF415AE214B1B785A073FF5BDAD04F003
:10558000BFFD78E0DA2F00F019823DD8D42F00F06B
:10559000A5810AD8D22F5ED0D32F7FF400AE08A801
:1055A0000FF0E0FF174B1880A6E5D62F00F07A81A8
:1055B000D92F7FF4F4AD08A80FF0D4FF094DA5F85A
:1055C000EA0008A80FF0CEFFA5F8EC0008A80FF03D
:1055D000C9FFA5F8EE0008A80FF0C4FFA5F8F00079
:1055E0008AE500BFF83000202C400020CC200020AD
:1055F0006C1F00203C130020DC3F0020401F0020D7
:10560000A412002072130020DD2F00F0CF8417D8E1
:10561000DB2F00F0E781DC2F7FF4C1AD19465A1C67
:10562000089211F8020BA64A089182F8F200597804
:1056300082F8F310D91C08919B7882F8F4305BE56E
:10564000F22F00F08F81FA2F7FF4A9AD9D4B1B78CC
:105650005D0710D5A3E59B4A127812F004027FF48F
:105660004BAD591C08911978954B022983F85817AE
:1056700001D983F8582704F0F9F904F0AFFA3BE5B3
:105680005A1C08921A468E4912F8020B81F8A201A0
:1056900008925B7881F8A1312EE501228A4B83F8CC
:1056A00020208A4B19684B1E0931089A501C08901B
:1056B000104610F8025B03F8015F089050788B42A7
:1056C000987202F10300089092781A75EDD113E5F3
:1056D0005A1C08921D78132D3FF661AD7B4A4FF09E
:1056E0000C0E11689A1C089200225F78DFF8E8C15E
:1056F0000EFB02C090F80880B84500F0B984013272
:105700001C2AF5D14BE55A1C089219780B293FF653
:1057100046AD6E4A10689A1C08925A78032A3FF6E2
:105720003EAD08FB010888F89620DA1C08929A78AA
:1057300088F891201A1D0892DA7888F892201A7950
:1057400088F893205A7988F89420DA1D9B7908927A
:1057500088F89530D0E4BAF1090F7FF620AD08A89B
:105760000FF00BFF0021089B594F5A1C08923D680F
:105770001B782B70089A022902F101030893137811
:105780002AD1B42BA8BFB423022BB8BF02236B715C
:1057900001310329EED1931C0893537808A8642B98
:1057A000A8BF6423AB71D31C089393786B70131D4F
:1057B0000893D378AB700FF0D5FEBAF10A0F2881A9
:1057C00005D0089B3A68591C08911B78D3710123B6
:1057D0003D4A82F82030E4E4B42BA8BFB423062B62
:1057E000B8BF06236818C370D2E708A80FF0BAFE46
:1057F0006FF4AF614318324D9BB2C62B98BFA5F82A
:10580000520108A80FF0AEFEA5F8DC0008A80FF0C2
:10581000A9FEA5F8DE0008A80FF0A4FEA5F8E00098
:1058200008A80FF09FFE089BA5F898015A1C089243
:105830001B7808A885F8AE310FF09FFE089B08A8DA
:105840005A1C08921A4612F8021B85F8AF110892EA
:105850005A7885F83921DA1C08929B7885F84F31FF
:105860000FF08BFE194B08A81F680FF07BFE089BFA
:1058700000EB80005A1C08921A464000F88712F884
:10588000021B089285F82E115A7885F83221DA1C0D
:1058900008929A7885F831211A1D0892DB7885F8EC
:1058A000333129E400250B4F08A80FF05BFE052DCE
:1058B00000B2D8BF27F815000135082DF4D11BE43C
:1058C000F8300020401F0020A4120020CC2000202F
:1058D000D43F002058200020ACA70108BAF10F0FD8
:1058E0007FF45DAC5A1C08921D78072D3FF657AC2B
:1058F000BF4F08A8D7F800800FF034FE0E235D4399
:10590000A844A8F8DE0008A8D7F800800FF02AFE07
:10591000A844A8F8E00008A8D7F800800FF022FEFD
:10592000089A3B68A8441D441346511CA8F8E2009D
:10593000089113F8021B08A8089385F8E41053781F
:1059400085F8E530D31C0893937885F8E630131D6D
:105950000893D37885F8E7300FF0EEFDC5F8E8003E
:10596000FFF7CABB5A1C08921A780F2A3FF617ACE9
:105970000625A048991C05FB0202089159782EA81B
:1059800082F87C10D91C0891997882F87D10191D35
:105990000891D97882F87E10197982F87F105979A8
:1059A00082F88010D91D9B7940F8981D82F88130CB
:1059B0000FF0E3FD0CF04AF8FFF79EBB591C08916D
:1059C00019468B4A11F8020B1268089182F8D90027
:1059D000597882F8DA10D91C08919B7882F8DC306B
:1059E000FFF78ABB1722824B00211B6828271A75F4
:1059F0005A7555229A702D221A7341221A717822F3
:105A00009A73B4225A7105221A7408229A761422C3
:105A1000DA714B22DA763C221E2532204FF00A0C36
:105A20004FF00F0E4FF064081A7283F82020C8223E
:105A300099755973D9751F709D725F70DD72D8703A
:105A400083F818C083F80FE083F8198083F806C044
:105A500083F811E083F80980D87483F81DC083F8B7
:105A600021E09F7783F82450DA8442F21072DA62E0
:105A70004FF4967219635A845A219A86DA86A522BF
:105A8000188583F838105A87FFF736BB5A1C2EAD9D
:105A900045F8982D574F1B782846BB740FF06DFDC5
:105AA00028460FF06AFD089B28465A1C08921B786E
:105AB00087F8E4300FF056FDA7F8E20028460FF013
:105AC00051FD089BA7F8E8005A1C08921B787B74CC
:105AD000FFF712BB464F08A83D680FF043FDE8846E
