:020000040800F2
:10000000005000209DA2010851A3010885BC0008F2
:1000100051A3010851A3010851A3010800000000E9
:1000200000000000000000000000000051A30108D3
:1000300051A301080000000051A301083D3A010846
:1000400051A3010851A3010851A3010851A30108BC
:1000500051A3010851A30108C31A0108CD1A0108D0
:10006000CB1A0108C91A0108C71A010861860008DD
:100070005186000841860008318600082186000864
:100080000D860008FB85000851A3010851A3010853
:1000900051A3010851A3010851A30108C51A010881
:1000A00051A301082158010851A301081158010862
:1000B00005580108F5570108E55701088789000828
:1000C0008D8900087D8900088389000851A30108F3
:1000D00051A30108651301085D13010851A301082C
:1000E000C11A010851A3010851A301080000000032
:1000F0000000000000000000000000000000000000
:0C01000000000000000000005FF808F1A3
:100110002DE9F04F0025B14CA3B04FF48062294681
:10012000AF48257018F0EAFAAE4B1D6015F002FDDD
:1001300018B90DF037FC15F023FD15F0DFFD002197
:10014000084611F080FD2378A74E43F00103237089
:1001500000230B930C930D934FF4E0130E9333682D
:1001600043F480333360B36943F01003B361336801
:1001700003F400330C930B9B01330B930C9B1BB9C3
:100180000B9BB3F5A06FF2D1336813F4003300F08A
:100190002B8302230D93954B95491A68884642F0AC
:1001A00010021A601A6822F003021A601A6842F0FC
:1001B00002021A607368736073687360736843F453
:1001C000806373608B4B1A68043B22F070425A6064
:1001D000894A0A60726822F47C1272605A6842F09E
:1001E00000425A60DA6822F40042DA609B6813F435
:1001F000004F17BF814B4FF4E0130B604FF4801397
:100200000E930D9B012B00F00783022B05D10E9B53
:100210007268134343F480337360336843F0807330
:10022000336033689801FCD5736823F0030373606F
:10023000736843F002037360736803F00C03082BC8
:10024000FAD173686E4D03F00C03042B00F0E882C2
:10025000082B00F0E882684B4FF6FF714FF0000B5F
:100260002B607368674AC3F3031313449A782B68AF
:10027000654CD3402B60654A654B0DF18809D3600E
:10028000B369029243F00103B361736ADFF8A8A176
:10029000C4F8A431736A504643F080737362B36943
:1002A00022AF43F01C03B36129F82C1D49468DF899
:1002B0005EB008F067F94946564808F063F94946C8
:1002C000554808F05FF910218DF8421002218DF891
:1002D00043104FF4007127F8481D5046CAF810101B
:1002E000394608F04FF94D48416841F000714160CE
:1002F000484608F0E2FE179B4949C4F8ACB1B3FB8D
:10030000F1F34FF47A71C4F8A8312B68C4F8B0B196
:10031000B3FBF1F34349013B4B60F023029A424D9A
:1003200082F823300723C1F808B00B602B7C3F4ACA
:10033000B3EB0B0318BF0123D371D374314B514678
:10034000224699464FF0010ADFF8F0C003F1100091
:10035000002330F802EF4EFA03FB1BF0010F18BF29
:100360000AFA03FB03F101031EBF1160A2F804B0F7
:100370000C32102BEFD101F580616145E8D1D8F83E
:1003800000301D4A934240F061820122284B1A70CE
:100390000021AB68DFF8A8800846C8F8003011F0EB
:1003A00086FB0021012011F082FB4FF0170B002388
:1003B0004FF0020A1F4A52F823000133002841D0AF
:1003C000037280F806B080F807A01221039202930E
:1003D00011F0F2F9039A029B34E000BF34220020AE
:1003E000E0300020DC3000200010024000200240FD
:1003F0000C0000200410014000127A00001BB7001E
:10040000C00300203CA501083804002000ED00E0F6
:100410000005FA05000C01400010014000000140F9
:1004200040420F0010E000E074280020C0020020CD
:100430000416002054A501080008014000140140E2
:100440004C1E0020032BB6D10021084611F02FFBD3
:100450000021012011F02BFBB369402243F001037E
:10046000B3610021CE4818F049F94FF0FF33CD4A6F
:10047000C4F8F4310021C2F80330012011F0E3FB8D
:10048000D8F800301A070FD595F84431012B0BD856
:1004900010F05CFF95F84DA1064628B90AF1FF3A25
:1004A000BAF1090F41F20E874FF4FA7015F0F5FA20
:1004B000A0220021BC4818F021F90026DFF81CA377
:1004C0000AF1A80B002356F80A005BF83320D90084
:1004D000904240F0ED8109EB010393F8D0000C3617
:1004E0000FF068F8A82EEDD14FF0040BD8F800609B
:1004F000AE4A06F040030393AD4BDFF8E4921A6076
:1005000000213022AB4889F800B018F0F7F800233A
:10051000594618464FF0FF0ADFF8C8E2DFF894C2E8
:100520001EF9012F03EB0C0B02929DF8082003F833
:100530000C20039A52B9029A1E3AD2B2012A9FBFE6
:10054000012001F1FF318BF800A0C9B20C33302B30
:10055000E6D108B189F800106B79974A84F8A03287
:10056000C4F8A42203F0EF02082A944A117802D0BA
:100570000E2B40F0A3810E2B41F0100040F0A5811E
:1005800041F0500111708E4A4FEAC30EC4F8A82200
:100590008C4A02EB0E014878897884F8AC0284F822
:1005A000AD120C21884801FB03014978002940F075
:1005B0009181C6F3401184F8AE12002940F08C817D
:1005C000C6F30056002040F2DC5CC4F8B0627F4EF7
:1005D00026F810C001300828FAD1002940F07E81A9
:1005E000173B022B09D811F0F9FC94F8B43223B16F
:1005F0000123C4F8B03284F8AE321C220021384600
:1006000018F07CF8D8F80060B3050CD5202221231F
:10061000012184F8152384F816338DF84D108DF8D8
:100620005A208DF85B306B790E2B03D003F0EF036B
:10063000082B02D101238DF85430012016F000FF61
:1006400018B14088003018BF0120C6F340038DF870
:100650004930C6F380138DF84B30C6F340338DF824
:100660004130C6F3C0338DF8443016F400638DF882
:10067000460007D095F8383103F1FF3EDEF1000364
:1006800043EB0E038DF84530C6F300438DF84C3034
:1006900006F001038DF84230C6F3C0038DF84330F5
:1006A00094F8AE32003318BF01238DF84E30C6F3F4
:1006B00000538DF84F30B5F8E630ADF85230B5F84C
:1006C000E830ADF8503095F8E4305A1E022A8CBF5D
:1006D000002201228DF84A20B5F8E220F604ADF898
:1006E0005620B5F8E0208DF85530ADF8582044BFBD
:1006F000B5F8EE20ADF85820042B08D100244FF4B3
:1007000080508DF84A4015F0E7FAADF85840D8F817
:1007100000302F48C3F300738DF840302D4B782202
:1007200093F89431002180F8173300F5467017F0E4
:10073000E5FF9DF85430BDF84220002B14BF022382
:10074000002302B10133244A214C02EB8303D3F886
:10075000EC300393002302931E4602F1240304931A
:100760004FF6FF72039B33F81630934200F0548229
:100770009DF84620DDB21B0A5FFA83FA002A00F0DA
:10078000CF80AA1E012A00F2CB80032294F81933ED
:10079000019294F818230092B2B2012135E200BF11
:1007A000EC0500202C06002038060020A02A00209E
:1007B000A8300020AC30002090280020BC21002070
:1007C000F02800209CB5010848B701082C1600202D
:1007D00038040020742800203CA5010860A5010809
:1007E000B44100200DB70108326842F001023260C6
:1007F0000B93336803F002030C930B9B01330B93B1
:100800000C9B1BB90B9BB3F5A06FF2D133689C070F
:1008100001D50123BEE4FEE7736843F46013FBE4F3
:10082000D8F8003018E573687268C3F38343D103C6
:1008300003F1020302D4B04A53430DE5726812F487
:10084000003FD8F8002018BF5208F5E7AB4A9342A2
:100850007FF49EAD022299E50021084611F027F9A8
:100860000021D4F8FC0111F018F9782015F00AF9EC
:100870000121002011F01BF90121D4F8FC0111F035
:100880000CF9782015F0FEF8013695F84D319E42AE
:10089000E2DB95F84E31012B7FF406AE10F056FDE9
:1008A00000287FF401AE85F84D0115F0BFFCFBE593
:1008B0000133042B7FF409AE002010E621F0100173
:1008C0001170117821F040015CE6182B3FF458AE0E
:1008D0001070F6E701216EE60E4673E612F83360FB
:1008E0007244D2F804E084F8B462BEF1000F3FF421
:1008F00077AE00204FF00609DFF81CC2B042BFF609
:100900006FAE09FB00F20EEB0201D1F800B002EB72
:100910000C0A42F80CB08A880130AAF80420EDE7EE
:100920009DF84B2042B10C22754902FB0512516A19
:10093000744A91423FF429AF9DF84C1041B10C220A
:100940006F4802FB0502506A6E4A90423FF41DAFA9
:100950009DF8492042B10C22694802FB050292F839
:100960002820142A3FF411AF9DF8442042B10C22F4
:10097000634802FB050292F82820112A3FF405AFD4
:100980009DF8452042B10C225D4802FB050292F819
:100990002820212A3FF4F9AE9DF84D207AB10C228F
:1009A000574802FB05029DF85A0092F82820904211
:1009B0003FF4EBAE9DF85B0090423FF4E6AE022BB5
:1009C00040F090809DF84130002B00F021819DF88F
:1009D0004E3083B19DF854306BB9A5F10803012B5B
:1009E00009D80C23464A03FB05235A6A464B9A4210
:1009F00008BF4FF0040A0C27049B07FB05379DF83E
:100A00004F304BB19DF8543033B9002970D0A5F167
:100A10000C03012B40F25E84BAF1010F7ED1FF235B
:100A20000C224FF0000984F8D43384F8D533344BCA
:100A300084F8DC9302FB0535C4F8E87395F82800C8
:100A400084F89093C4F89493C4F89893C4F89C9352
:100A5000C4F8D09384F8D69384F8D79384F8D893C5
:100A600010F084FE022280F807A0827180F80890BE
:100A700095F82C1010F0A0FE4A4695F82910686AE7
:100A800013F0D8F952464946384614F087FF1F4BF9
:100A90001F4AC4F8EC331F4B111FC4F8F033C4F8DD
:100AA000F493384614F0BEFE202294F81A3304EB77
:100AB000C30383F8212394F81C33013384F81C33D7
:100AC00094F81933CDF8049094F818230092B2B238
:100AD0000021132011F09EF894F81A33013384F8A2
:100AE0001A3395E0012B7FF472AF9DF842306BE72B
:100AF0002B1F032B8EE700BF00093D00001BB70032
:100B00003CA5010800040040002C01409513010899
:100B100028080020E1140108ED060020BAF1020FB8
:100B200062D14FF01C0A9DF808300C210AFB03FA31
:100B300004EB0A094FF0000B89F8DD3305934FF001
:100B40000103254A89F8DC3301FB052589F8DEB36A
:100B500095F8280089F8E6B3C9F8E87310F006FEA6
:100B60004FF001038371C371059B95F82C1001337D
:100B7000037210F021FE5A4695F82910686A13F0A6
:100B800059F901225946384614F008FF134B14490D
:100B9000C9F8EC33134B0AF114020AF1100A0A44A3
:100BA000C9F8F033C9F8F4B35144384614F03AFEAA
:100BB000402294F81A3304EBC30383F82123012263
:100BC00094F81B33013384F81B33029B01330293E7
:100BD00094F81933019277E73CA501084D150108F7
:100BE000140800206D130108BAF1030F40F06E8362
:100BF00094F81993B9F1050F40F2E98201210191AE
:100C000094F81833B2B200934B46122011F002F858
:100C100001360E2E7FF4A4AD0024CD4DCD4E95F8B7
:100C2000A0123470A1F11703022B00F29C834FF045
:100C3000000B05F2DC4AD5F8A4325946185903EBEB
:100C4000040919F0C9F8002800F07F83D8F80030B3
:100C5000DC0400F1A48311F055FA9DF84A3013B971
:100C6000012385F83C350021022010F0ECFFBA4A40
:100C7000BA4C13781C2043F0040313702378012B23
:100C80008BBF012700270026012610F06FFD85F895
:100C90004475C5F8400558B1112282710222C27113
:100CA0000022964202720CBF1221162110F084FD20
:100CB000002012F0DBFE152385F8DE30022385F8D4
:100CC000DF300023122185F8E030A54810F0E8FC61
:100CD000B5F8DC30D5F8D820A24E1B041361307E65
:100CE0000EF068FC0123327E02F01F015209022A35
:100CF00003FA01F300F07983032A00F07B83707D0F
:100D000010F034FD4FF00C080B234FF00209C371B3
:100D100080F8068080F808900746F07D10F026FDE8
:100D20000D2380F80680C37180F80890B07D10F024
:100D30001DFD1B2180F8068080F8078080F8089050
:100D4000384610F039FDF07D10F010FD072110F04D
:100D500033FDB07D10F00AFD1B2110F02DFD307D1C
:100D600020B110F003FD132110F026FD33697E4AF7
:100D7000934240F0448302F56042D16841F48051CF
:100D8000D160D16821F48051D160B28B002A00F08B
:100D9000528300221046198801F4415141F44571F3
:100DA0000A4302431A809A8B307D22F400621204B7
:100DB000120C9A8307221A821A8892B242F04002D9
:100DC0001A8018B110F0D2FC10F062FE2C2010F046
:100DD000CDFC9F238DF83C300023C5F848058346A1
:100DE00032208DF83D308DF83E308DF83F3014F0D4
:100DF00054FED5F8480510F0E2FC04220FA917A80C
:100E00000EF0A4FCD5F8480510F042FE9DF85E30C7
:100E10009DF85D201B0243EA02439DF85F201343C7
:100E2000524A93421BD0322014F037FED5F84805C1
:100E300010F0C5FCF5200EF0C1FCFF200EF0BEFC4A
:100E40008DF85C00D5F8480510F022FE9DF85C3066
:100E5000702B04D12378022B01D103232370237834
:100E6000032B0CBF1F20022016F06FFA2378032BF0
:100E700000F0E482012007F0FBFB14263C4BDFF876
:100E8000FCA01D68324600215046029394F8008071
:100E900017F034FC029B15F0020F05F4004905F42D
:100EA00000670493504618BF8AF80060B9F1000F3C
:100EB00002D011238AF80530B8F1010F84BF152341
:100EC00083720FB12123C373DFF8B0804FF00F0995
:100ED000474600254FF0060A264B03F1FC023878FE
:100EE00000B303920293002610F040FC314680F8D4
:100EF00006A080F80790067210F05EFC3878039A1E
:100F0000029B12F816E07100864540F0A282194457
:100F100091F8FD100720387101207970691CBD70AF
:100F2000F870CDB209F101095FFA89F9B9F1130F2F
:100F300007F10507D3D1104E492073681F2743F4EA
:100F4000404373600EF036FB20200EF033FB17E0B9
:100F5000380400209841002034220020041600208C
:100F600010050020D802002000300140152020008C
:100F70004C1E00203CA5010800100240B41D0020BA
:100F8000BB4808F00EF917A808F0E0F8B94B022D9D
:100F90001793B94B28BF802218934FF0000338BF36
:100FA0001A461C924FF480721D924FF480621E927A
:100FB00020221F924FF400520596A6F6F87617A944
:100FC000304619931A951B932092219308F0CBF881
:100FD000012D94BF002101213368A84A43F0010389
:100FE00033605368013D23F4702323F4807343EA94
:100FF000012353609168A24BEDB20B4043F4602390
:1010000043F002039360D36A4FF0070C23F470039C
:1010100043EA05550123DFF8B092D56298F8031032
:1010200031B398F801105E1C0929F6B298F8045003
:1010300040F21582A1F10A00D2F80CE000EB40006A
:101040000CFA00FA2EEA0A0E05FA00F040EA0E0049
:10105000D060062B00F21082013B506B03EB830340
:1010600007FA03F520EA050099400143516333462E
:1010700008F10508C145D1D1804B9A6842F48072CD
:101080009A609A6842F001029A609A6842F00802F7
:101090009A609A681007FCD49A6842F004029A6039
:1010A000764B9A685107FCD49A6842F4A0029A6081
:1010B00010F04CF90546F8B92946032010F0C3FD9D
:1010C0000121084610F0F3FC2946284610F0EFFCF9
:1010D0000525012010F0D6FA002010F0D3FA642084
:1010E00014F0DBFC013DF4D12946284610F0DFFC6A
:1010F0002946012010F0DBFC0EF09AFD0026049B2F
:10110000604D1B6831461A0644BF5F4A5F4B60481A
:1011100048BF1A6095F8FC3095F8187103935D4B41
:1011200095F806811A680893B2F93E305A4A02933C
:10113000EB891660566096601822079395F8119017
:1011400095F812A017F0DAFA2278544C0695012A85
:1011500098BF013C524D18223146A5F8646505F54B
:10116000AD6017F0CBFA2320C5F8804514F095FC4C
:101170000FAA012175200FF0CDFE002800F0968106
:10118000484B17AAC5F86C35474B0121C5F8703597
:101190004323304685F868350FF0BCFE9DF85C307F
:1011A00003F07E038DF85C30002840F0D3819DF879
:1011B0003C303B4A03F07E03682B8DF83C3040F016
:1011C000EE84022382F8643510F082F8CBE19DF8BA
:1011D00055A0BDF856E00AF1FF32BDF858309DF831
:1011E0004000032A34D8DFE802F0362D30021821FF
:1011F00000232E4D2E4A00904A43B2FBFEF23846A1
:1012000092B210F0E1FA2B4B43F829009DF84A30D6
:10121000C5601BB3192294F81A3304EBC30383F897
:10122000212394F81A2394F81933013204EBC202F3
:1012300082F818330133DBB2C2F81C7384F8193317
:101240000222C7E41C4D1821D4E71C4D4821D1E7E8
:101250001B4D0121CEE71B4D0821CBE794F81A3333
:10126000BAF1040F04EBC3030CBF0D220922D6E729
:10127000080002404C240140C81D00200024014009
:10128000FDF7F1FF74280020222A0020F822002018
:101290008409002060230020844100203DA501082E
:1012A00038040020150F0108BF0C0108291501089A
:1012B00040420F009C410020DD150108A9150108DE
:1012C0001915010809160108C81D0020BAF1040FFC
:1012D0007FF49EAC94F818531FFA86F9072D07D9AE
:1012E000022294F81933019200954A46FFF755BA45
:1012F000BDF850108E4ABDF8523092FBF1F29DF8C5
:10130000401092B200913846012110F05DFA0A2295
:10131000032194F81A3304EB8505013304EBC3036E
:1013200083F8192394F81823C3F81C7383F818233F
:101330000132D2B284F81823C5F8BC0494F81933EA
:10134000009201914A46FFF7C3BB04EB0A0799E8F4
:101350000F0087E80F00337810340133602C3370AE
:101360007FF469AC72E40C234B43724AD11812F833
:1013700003E0D1F804C086F800E0BCF1000F3FF4B0
:1013800065AC05F2DC497445BFF660AC230103EBA4
:10139000090763440FCB013487E80F00F3E7367881
:1013A000012E7FF658AC4FF07C57634B1C1D03EBAE
:1013B000061303F114061034A6423FF44CAC394630
:1013C00054F80C0C18F074FB394644F80C0C54F823
:1013D000100C18F06DFB394644F8100C54F8080C4A
:1013E00018F066FB44F8080CE5E7544AD1680B4353
:1013F000D36084E4514A11690B4313617FE4504A7E
:1014000093420AD102F5EC32116941F48041116135
:10141000116921F480411161B7E44A4A93427FF493
:10142000B4AC02F5EA32116941F40041116111696D
:1014300021F40041EFE701220220ACE4022015F084
:10144000FFFF00283FF416AD4388002B3FF412AD98
:1014500013E501360A2E7FF454AD00215AE51069D8
:1014600001EB410E0CFA0EFA20EA0A0A05FA0EF018
:1014700040EA0A001061ECE50C2B0BD8073B106B1F
:1014800003EB830307FA03F520EA050099400143C3
:101490001163ECE50D3BD06A03EB830307FA03F518
:1014A00020EA050099400143D162E0E595F88435D2
:1014B00013BB14228BF806200E228BF808308BF811
:1014C000072013215846C5F888B510F075F91C4A55
:1014D000138823F040031B041B0C1380138823F094
:1014E00038031B041B0C138013889BB243F040038A
:1014F0001380012385F8843517AA012175200FF088
:10150000DDFC9DF85C30A3F17002012A01D9AF2BFC
:1015100029D105220C4B83F86425432283F86825E2
:101520000A4AC3F86C250A4AC3F870251BE000BFBD
:1015300040420F0048B70108140900200010024083
:1015400000380040003C004038040020BD0E010877
:10155000ED0E0108682B7FF42AAE012385F864356F
:101560001D2385F868350026BD4C94F8643584F851
:101570008C65042B40F08A86BA4BC4F84C35BA4BC4
:101580000726C4F85035B94BC4F85835B84BC4F8E1
:101590005C35012384F88C35002332460193009397
:1015A0001946092010F036FB002E00F09083B14B55
:1015B00001201E70099310F051FB099BDFF8A0B2C7
:1015C0001E46B9F1000F00F0F082B8F1000F14BF11
:1015D0004FF47A737D2303FB0AF30AF1FF3284F898
:1015E0008D25C4F860354046D4F84C35984794F8BA
:1015F0008E35002B40F0DD82012040F2026E40F279
:10160000FD1C9BF86425039B0B2B28BF002300FACD
:1016100003F111EA0E0F40F0DE8211EA0C0F00F028
:10162000DA82042A40F03886934B944A1A60944A2E
:101630004FF008085A60012384F8E435002342463D
:101640000193009319460A2010F0E4FAB8F1010F53
:101650001BD0022086F8018010F000FB4FF480734D
:101660008548038103689847864B1A7E022A40F01A
:10167000BC829B8A844890FBF3F0844B80B2186054
:10168000834B1B780BB107F01DFF00230022C4F829
:10169000E835804B062F1A70984640F2CB824FF007
:1016A0000108002342460193009319460C2010F0D4
:1016B000B1FA0FB1474532D1B8F1010F2FD0082050
:1016C00086F8038010F0CAFA0121084610F0EFF9FD
:1016D000714B1B68984707460021012010F0E7F97D
:1016E000002F00F0E0856420029B93FBF0F700FBE5
:1016F000173000B218F088F9684918F0D9F9804617
:10170000384618F081F90146404618F0C9F8644996
:1017100018F0CEF90122634BC4F8E8051A70049B57
:101720000D201F68002307F40078C7F340270193BA
:1017300000933A46194610F06DFA3771B8F1000F70
:1017400002D0102010F08AFA4FF0FF32564B1A6088
:10175000B8F1000F00F0B682059B059A9B690A2735
:1017600043F00103936195F815030FF0FFFF002686
:1017700002221221C27187710672C5F8EC0510F0C1
:101780001BF895F816030FF0F1FF01228771C27163
:1017900006720621C5F8F00510F00EF8434B8022C2
:1017A000C5F8F43542491023D5F8F00510F08FF94B
:1017B000D5F8F0050EF028F83E4B3F4A17A81A60FE
:1017C0003E4A5A603E4A9A600AF0BCFABDF85C3064
:1017D000BDF96000A4F8F835022390FBF3F018F08F
:1017E00013F92F4918F018FA364918F061F90DF07D
:1017F0002DF8244BC4F8FC0593F8F2200AB184F8C4
:101800008C2593F8F3200AB18BF8E42593F8F43093
:101810000BB1204A13700021042010F014FA0121AA
:10182000294A08461378174F43F00203137010F04B
:101830003EF90021084610F03AF90A253E460120FB
:101840000FF020FF00200FF01DFF192014F025F9E4
:10185000D7F8F837D80339D4012012F007F935E06A
:1018600038040020910F0108310B01081D0B0108FD
:1018700090C1793DC403002084410020710F01080C
:10188000750B01087428002040420F00E41D002061
:10189000E81D00202D220020C82100208988883CD6
:1018A000000020412C2200205016002099BD000885
:1018B0002C0A00205C20002045BD000829C7000834
:1018C00029BD000835FA8E3C34220020192014F07E
:1018D000E4F8013D002012F0C9F815F0FF05AED183
:1018E0002946284610F0E3F82946012010F0DFF8D9
:1018F000D4F800364FF0000B187C18F085F8BC497E
:1019000018F0D6F80CF0A2FFB949C4F80406D4F8D0
:101910005C0518F0CDF8C4F80CB6C4F80806C4F895
:1019200010B6C4F814B613F0A7FEB24B1B22FF2169
:10193000184616F0E3FE4FF0010E0570AE4DAF49AC
:101940002A6881F800E012F0020CA84607D00223B2
:10195000837004230B701A2380F801E0C3701425F0
:101960004FF0170E0B7812F00A09C55403F1010766
:1019700003F10205EDB2FFB20D7000F807E00BD0E5
:10198000042747550527DD1CEDB24755DD190D70BD
:1019900006210433DBB2C154994F3B68990607D541
:1019A000964D297801F1010E85F800E00725455490
:1019B000717901F0EF05082D00F08D81A1F10E0E77
:1019C000DEF1000545EB0E05520702D49DB11A0663
:1019D00011D54FF0030ADFF824E29EF8002000F84A
:1019E00002A002F1020A8EF800A04FF0180E013298
:1019F000D2B200F802E013F0800203D0B9F10A0F6E
:101A000000F06E818DB1BCF1000F40F066814FF0A7
:101A10000A0E7A4D2A7800F802E002F1020E85F8EB
:101A200000E00E250132D2B285540E29734A01D04E
:101A3000182907D14FF0190E11784D1C15706D4DF6
:101A400005F801E04FF00B0E117813F4803F01F11F
:101A5000010500F801E0EDB218BF023115701CBF9E
:101A600011700C214FF00F0E18BF4155117813F46F
:101A7000806F01F10105EDB2157000F801E008D0AA
:101A800096F850E2BEF1000F03D002311170102120
:101A90004155190305D511251178481C107055487A
:101AA0004554DB0505D51378591C11701221514A94
:101AB000D1544FF4CC720021524816F01FFE07F0AB
:101AC000F7FD069BDFF860E1B3F8F0304E48A4F86C
:101AD0001C3600234D4DC0F800E04D484D4A68606B
:101AE0004D48138093704D4AA86006981168B0F86D
:101AF00052A101F14002DFF82C91DFF830C1C4F8A7
:101B000018E6029284F81E360FFA8AF0CDF80CE03F
:101B1000DCF800E0424A0EF5967E29F8130042F800
:101B200023E00133122BF3D1354B029AD3F800E0B6
:101B30003C4B1EF4805F08BFB6F95A019031D88043
:101B400018461378ABB9937892F803C0634510D266
:101B5000002B00F0F380013B03EB830303EB8303D3
:101B600003F5617392F801C09BB20CF1040C20F8EC
:101B70001C3004329142E4D11EF0080F00F00381C2
:101B800096F84431072B00F2F880DFE813F0F300F9
:101B9000F300E502F600F600F600F6001103702BE4
:101BA00004BF042382F86435DDE4079B8BF88D9530
:101BB00017E54FF00008DFF8789009EB0800D4F83B
:101BC000602594F88E1508F11C080DF0CFFFB8F1D0
:101BD000540FF2D110E50021012B03913FF613AD14
:101BE0008BF8E4154FF0010828E50CF0B5F944E551
:101BF00035FA8E3C60160020804100207B160020C4
:101C00004C1E0020A41E0020481E00206828002032
:101C1000658C0008801E0020618C00086023002075
:101C2000580A0020501E0020B02900207C1E0020F1
:101C3000C80900200123BB4013F0580A1AD0444BB6
:101C40001B681B067FF52BAD424B434A1B68197876
:101C50000C234B43D118897800293FF420ADD35C85
:101C6000012B29D03D4B3E4A4FF004081A603D4AF3
:101C70005A6016E513F0050F3FF411AD4FF005095A
:101C800017AB01220A211E208DF85CA00DF018FD73
:101C900070B19DF85C30482B0AD1304B324A1A6043
:101CA000324A5A60032388F800304FF00208F8E403
:101CB000B9F10109E4D1C2E7022015F0F7FB0028D1
:101CC000D0D1ECE4CDF85C80ADF860807EE50120F9
:101CD00013F0EDFE9FE5012576E6002A3FF497AE6E
:101CE0004FF0090E4FF00809DFF884C09CF800207F
:101CF00000F802E002F1010E5FFA8EFE00F80E908D
:101D00004FF0130902F1020E5FFA8EFE00F80E90FA
:101D10004FF0150902F1030E5FFA8EFE00F80E90E7
:101D200002F1050E8CF800E04FF0160E0432D2B22C
:101D300000F802E0002D7FF46AAE76E60CF1010CAB
:101D40000CEB8C0C0CEB8C0C0CF561730AE700BFF0
:101D50004C1E0020F822002058B20108C8210020A3
:101D6000312D0108CD2C0108C90C0108B9970008D4
:101D70007B1600200DF0A0FE28B9082013F0ACFF60
:101D8000B14AB24B5A6042F20102B14B1B68134296
:101D900009D044F620626A809A0440F12282082227
:101DA0002A70AC4A6A60190627D54FF00009AA4D7F
:101DB000AA4B85F811906B607E3B2B60A84BC3F853
:101DC0000490C3F8089010F0B5FFA64B48461B6876
:101DD00085F813902B6210F0F7FF2B681A780C230C
:101DE0005343A14AD35C022B40F00282012010F041
:101DF000EBFF002105200FF026FF4FF0000A4FF007
:101E00000109089B994D1B68994AC5F828B1DFF86C
:101E1000BCB21846C5F82421C5F82C21C5F888B4F1
:101E200085F8009085F801A085F802A085F803A048
:101E300085F804A085F807A085F808A085F809A012
:101E400085F80AA085F811A085F869A485F87CA416
:101E500085F868A4029312F045FD029B0BF5F87219
:101E6000D933C5F88C34039BC5F89434ABF1D8034F
:101E7000C5F89C34ABF1CA03C5F898340BF1B00334
:101E8000C4F868367B4B0BF5057B1A607A4BBBE8D0
:101E900003009BF802205960BBF8001018609A728A
:101EA00019816B4B754D1A6885F800A012F4803FBC
:101EB0009B4611D014F0F8FC514640F22A6270485B
:101EC00085F8009016F01AFC07F0E8FF07F0D0FE46
:101ED000514606200FF0B7FEDBF800305A0515D545
:101EE000102015F0E3FAC4F8980C38B1438813F0C9
:101EF000100003D0102B14BF0220012084F89C0C8A
:101F000012F018FB002107200FF09DFE5D4B1B789F
:101F1000022B01D10DF08AFC5B4BDD68CDB14FF097
:101F2000000AED0A17ABAA450EDA0AEB05094FEADB
:101F30006909194610224FEAC920029308F094F962
:101F40000F28029B00F3948108F050F94F4BED02EB
:101F50001D60DBF800104E4B11F4002218BF012267
:101F60001A704FF47A734B4AA4F89E3C137843F0EE
:101F700008031370484A137823F00203137040F6E5
:101F8000020319420DD0454A454B1A600322454BC6
:101F90001A700122444B1A700023444A1380444AA9
:101FA00013800124B368DFF8289100213C224148C6
:101FB0003B6089F83C4516F0A1FB00233E4A3F4DAB
:101FC00013603F4A2846136007F08EFA0BF0C4FFF7
:101FD000642838BF64202146E863204607F0BCFA35
:101FE000337E4BB1D9F860352146642B38BF64236A
:101FF0000220EB6607F0B0FA337E022B6AD1314B38
:102000001B689B0766D5B38A2F4C012194FBF3F321
:102010009BB2642B38BF64230320C5F89C3007F0C3
:102020009BFA337E022B40F02D81F08A94FBF0F472
:10203000A0B2642838BF64200121C5F8CC00042078
:1020400007F08AFA46E000BF658C00086828002087
:102050004C1E0020798C0008F8220020A02A0020C5
:10206000B41600207C1E002058B20108C4230020B2
:10207000000080BFE0340020E4340020682000200D
:10208000A40A002004160020F80200205C2300208F
:10209000D0410020BC21002090210020A229002056
:1020A000B01D00207C410020BC0300205C420020C9
:1020B0005E420020401C00203C1C0020100000203C
:1020C000401E00208041002040420F00282A0020AE
:1020D000380400200121052007F03EFA01210620E6
:1020E00007F03AFA40F602023B6807201A4214BF92
:1020F0000121002107F030FA0121082007F02CFA15
:1021000039680920C1F3C01107F026FAD8F8001089
:102110000A20C1F3C00107F01FFAD8F800100B2005
:10212000C1F3001107F018FA39680C20C1F38021BF
:1021300007F012FA79880D2001F0010107F00CFA7E
:10214000002108200FF07FFD6E4A137863F07F03B3
:10215000137023B0BDE8F08F0A224FEA0A1393FBF5
:10216000F2F300226849A3F5B06341F8223001324E
:10217000122AFAD142F6F8236B80644B40206B6040
:10218000634B2A70AB6015F091F900283FF4F5AD70
:1021900001234FF0070E90F900005E4A8DE80840D9
:1021A0005D4B402115F000F9003018BF0120E3E538
:1021B0000A232B7044F620636B80584B40206B60E1
:1021C000574BAB6015F072F900283FF4D6AD0023F1
:1021D000012190F90000534A8DE80A004FF4E133E1
:1021E000DFE7D8077FF5DFAD0C222A704E4AD9E52C
:1021F000012B7FF4FEAD022015F058F960B9802064
:1022000013F06AFDF5E50133DBB2042B4FF0010159
:1022100009D900236B740EE0DFF824E149467246C9
:1022200090F805C06B7C0EEB030999F81091E1451D
:10223000E9D10029EED16B7C4FF00C0C1A4492F8D6
:102240001011002290F9000001922B68DFF8F4E0F1
:102250001B780CFB03E35B780093344B53F821307D
:10226000022115F0A1F8A86000287FF4BFADC6E7F1
:10227000002253F82210013120D10132042AF8D172
:102280004D4650E60BF068FE80B2D2E6052B7FF497
:1022900083A9274BFFF771B9052A7FF49CAC254B26
:1022A000254AFFF7C3B902210E200FF0CCFC234AC8
:1022B000136823F008031360FFF731BA09F1010A2C
:1022C000A946DDE7012108460FF0F1FB13200FF0CE
:1022D0004DFA1822827102220672C2711221C4F8CC
:1022E000FC010FF069FA0121D4F8FC010FF0D5FBD5
:1022F0003C2013F0D2FB314601200FF0D8FBFEF753
:10230000C4BA00BF34220020C41C0020B18A0008D7
:10231000E18A0008C98D0008A0860100898C0008A8
:10232000998C00081D8E0008698C000890B1010886
:102330006910010884410020810F010880410020BC
:102340003CA5010858B20108BE4B2DE9F04F1B68AF
:102350000446BD4D988C95B0288017F051FBBB49C1
:1023600017F0A6FBBA4BBB4E1A7E30600896059359
:1023700012B9204611F07CFD059B1B7E022B08D074
:10238000B54B1B689E0704D512F030FF20460FF0B6
:1023900005FFDFF80893B14BD9F800A0D3F800B0DF
:1023A0009AF800809BF8D930AD4E1A464146B6F9EE
:1023B0000000049312F080F8AA4C049B41461A4690
:1023C00020800746B6F9020012F076F860809AF88D
:1023D00007109BF8DA208046B6F9040012F06CF87A
:1023E000059BB6F90620B3F8541140428A42A080FA
:1023F000CDF81C90C0F20184B2F5FA6FA8BF4FF47B
:10240000FA624FF47A73521A5A43C1F5FA61B2FB79
:10241000F1F2642692FBF6F3934903F1010E31F9D0
:10242000130031F91E106FF0630E0EFB0323091A1F
:102430004B4393FBF6F30344E3808C4B1B68580635
:102440003ED58B4BB3F904000A2390FBF3F0894B84
:102450001B88C01A00B217F0D7FA874917F028FB7B
:1024600006460CF0F3F98146304615F0AFFC0646FF
:10247000404617F0C9FA8046384617F0C5FA0146BB
:102480000746484617F014FB41468246304617F08F
:102490000FFB0146504617F001FA17F0E5FC4146E4
:1024A0002080484617F004FB39468046304617F036
:1024B000FFFA0146404617F0F3F917F0D5FC6080AB
:1024C0006E4B1A78510740F19A83012100200FF0DA
:1024D000EEFA6B4B9B680BB16A489847059B694EB7
:1024E00093F85831002B59D0674B1F78B37843B914
:1024F0000BF032FD01210246301D0DF037FB0123A8
:10250000B370288817F07CFA0146604815F0D6FCB5
:1025100017F0D0FC5E4B80B25B88B3FBF0F0411C3F
:1025200009B23184002F00F0D2830023554DB6F953
:102530002290DFF830A105F1240805F12C0E38F9BE
:1025400013203AF913C009FB02F292FBF1F23EF8B4
:1025500013702EF813C0ACEB07073A4428F8132089
:102560000133042BEBD16884464A0023B2F92200E0
:10257000002840F3B083B2F9205002F12C07243236
:1025800032F9131037F813E0414391FBF5F1AEEB4C
:10259000010124F813100133042BF1D13A4B1D78BB
:1025A000002D00F0FF80354BDFF8F4801B78394FA9
:1025B00013F0040FDFF8ECB040F08F839BF8083085
:1025C000BBB10722DBF818110BF5807012F010FC7C
:1025D0009BF808306BB13B78DA070AD5DFF8A49096
:1025E00099F834302BB90E200FF07AFB012389F8CB
:1025F00034309BF80E3033B1D8F800305B025CBF4A
:1026000001238BF80F30D8F80030DFF85890C3F36F
:102610008052C3F300638BF80E208BF8103012F059
:102620005BFA0AF034F99BF800201B4B03EB4213D2
:10263000B3F80A8018F4006F00F0A7830B4B1B68F7
:1026400032E000BF441E002090410020BD37863597
:1026500074280020A0350020804100206023002045
:10266000501E002064420020B84100209C21002020
:10267000481600207617002035FA8E3C9021002065
:1026800084090020E010002078170020E4100020CA
:1026900068280020BC21002098AC01087841002067
:1026A0006C200020C4230020580500F16E8397F8A9
:1026B00000A01AF0100A00F03983DBF88C34B9F965
:1026C000020093F803A051460CF01BF800B2C0B111
:1026D000DBF888344042B3F84830584317F094F997
:1026E0000490504617F090F90146B94817F0D6F813
:1026F000049B0146184617F08FFA012112F0D0FA18
:1027000028468BF80C0018F4805F00F0E283B14B90
:102710001B68590500F1DD833B7813F0100FDBF8DF
:102720008C3400F069839978B9F900000BF0E9FF67
:1027300000B2003018BF0120A74BD87218F4005F18
:10274000A54C00F0CE83A34B1A6812F4806240F0CF
:10275000C883A24B1B7813F0100340F0BE83A04A3D
:10276000B2F9041081EAE172A2EBE172D4F88C14A0
:1027700089788A4240F3B383D4F81831C4F84C31D5
:10278000657341F2B8002278964B03EB42139D89A2
:1027900020EA05000FF06AFA28460FF077FA22784F
:1027A000914BDA860022904C904B94F838501A7076
:1027B000CDBB894B8E49D3F88834186B17F070F86D
:1027C0000023C4F8C400C4F8C8004FF49672294628
:1027D00004F1D000C4F8BC30C4F8C030C4F8B8303C
:1027E000C4F89030C4F8A030C4F8AC30C4F89430C9
:1027F000C4F8A430C4F8B030C4F89830C4F8A83095
:10280000C4F8B430E5636566256784F8CC5015F0EC
:1028100075FF4FF49672294604F5FE7015F06EFFB1
:10282000012384F8383013F0E3F8D4F83433714AD4
:10283000C31A9342074663D9C4F838336E4BC4F8C1
:1028400034031B68002213F0100300F0598313F0C7
:1028500029FF6A4B8146D3F82080694B41461868AE
:1028600017F0E2FA674D38B9484617F0CDF817F07F
:10287000FBFA421C40F038834FF0FF332B6028688E
:1028800017F0C2F80021804617F0CEFA002837D0A2
:102890005D49404617F0B4FA002831D0306F381A3D
:1028A00016F020FD48A3D3E9002316F091FD16F0A1
:1028B000A1FF37674FF07A51054617F097FA0028C5
:1028C00000F01B83D6F878904946284617F0F0F8B8
:1028D000716F16F0E5FF01460546404616F0DEFF33
:1028E0004A49804617F0E4F8294616F0D9FF4849CE
:1028F0007067404617F0DCF8494616F0D1FFB06724
:102900000FF03CFC002840F0FF820023C4F8843024
:10291000C4F88830C4F88C30384610F027FC0A2000
:102920003C4B2D4CB3F904304FF001095843C4F827
:10293000180117F069F8384917F06EF9374917F0A0
:10294000B7F8054615F042FAC4F81C0128460BF00A
:102950007DFF44F61F62244DC4F82001D5F84433AE
:1029600084F80490FB1A9342DFF8B48040F2B280FE
:10297000C5F84833D4F88834C5F84473196BD5F8D2
:10298000C40017F033FA0027002800F04F834846B0
:10299000D5F8B0300093D5F8AC30D5F8A420D5F8F0
:1029A000A01012F065FBD4F88834D5F8C800196B74
:1029B00017F01CFA002800F040830120D5F8B4205D
:1029C000D5F8A8102EE000BF8DEDB5A0F7C6B03E3B
:1029D0000000FA439C210020C4230020BC210020D9
:1029E0006442002098AC0108E01000207817002015
:1029F0006F12833A69040100804100204C370020A7
:102A0000340A00205016002000005C42029A583F11
:102A10004182C640481600200000C84235FA8E3C6C
:102A20009021002012F0EEFAD5F8BC900021484623
:102A300017F0FAF9002800F00B83D5F8C030C4F87D
:102A40002491C4F8283198F800305B0740F1FC82EB
:102A5000D4F82C710021384617F0E6F9002800F070
:102A6000F0823946484617F0DFF900B94F46C4F8FE
:102A70002C71012348466372E37017F0F5F9A5F84D
:102A80004C030C2396F8CC70DFF860E303FB07637C
:102A90009EE80700013703F1D00CFFB203F5FE7387
:102AA000182F8CE807000EF10C0207CA83E8070014
:102AB0008ABF002386F8CC7086F8CC30D5F8C400E5
:102AC00017F0F8F9A5F84E03D5F8C80017F0F2F999
:102AD000A5F8500312F08CFF0023E1790746A5F812
:102AE000523311B10123A5F8523394F809B0BBF168
:102AF000000F05D0B5F8523343F00203A5F8523366
:102B0000237A2BB1B5F8523343F00403A5F85233BE
:102B1000A04A137898070DD59F4890F805E0D4F89F
:102B200088040078864522BFB5F8520340F00800BB
:102B3000A5F8520395F8400028B1B5F8520340F0CB
:102B40001000A5F85203A07A28B1B5F8520340F05E
:102B50002000A5F8520303F07F00107098F80020C1
:102B600012F0040240F0878262748C4B8C4C1B780C
:102B7000CBB18C4BB3F90620059BB3F854319A4284
:102B800011DC059B5B79012B01D0192B03D1059A30
:102B900092F8A8213AB90E2B05D003F0EF03082BC9
:102BA0001CBF0023A3807B4B7F4E93F800B01BF02B
:102BB0001003049340F068867C4B1A787C4B03EB3F
:102BC00042135B89DF0502F14D80336893F8DD70B5
:102BD000002F00F05986774B1B689D0700F0548644
:102BE0003FB2754B75491D6A284617F0FFF800285B
:102BF00000F00786714D00F00CBE0A4601E47049F2
:102C00000968CF075CBF42F001021A70614A12786E
:102C1000160758BF18786B4E5CBF20F00100187083
:102C20006948008818B169480068800706D4684878
:102C3000008818B967480088632805D902203070D9
:102C4000187820F00100187011F4804704D0624811
:102C5000014214BF01270027DFF850E1DEF88804A5
:102C600090F8390000B35D48007840B9DFF880C1C2
:102C7000DCF800C09CF808C0BCF1020F06D19EF839
:102C8000080010B382F0010202F001001A7812F07D
:102C9000040F05D1DFF85CE111EA0E0F00D007B197
:102CA00010B122F001021A701B78DA074CBF002322
:102CB0000223337012F09CFE494B1B68C01A002897
:102CC000FFF607AC06F034FD03E40120DEE7738C69
:102CD000013B738448E4538460E4D8F800309B02DD
:102CE00013D541F21002334B1B681A420DD19BF8E9
:102CF000083053B13B78DBF81811D8074CBF0522D8
:102D000007220BF5807012F073F83B78D9077FF536
:102D10005FAC344812F052F9CBF89001314812F010
:102D200099F8CBF8940112F049F851E42E4BB9F818
:102D30000600B3F90020DBF88C34801A00B280EA78
:102D4000E071DB78A1EBE071994213DDDBF88834A8
:102D50000028B3F8483000FB03F0DBF89C34CBBF0D
:102D60005B881B889A1AD21A90FBF2F016F04CFE80
:102D70000221C3E49BF80C0000283FF4C2AC002001
:102D8000022111F08DFF5046BBE400238BF80C307C
:102D9000B9E400BFBC2100207C16002009030020FC
:102DA00064420020501E002060230020C423002025
:102DB00098AC01089C2100204C3700209A99193FBB
:102DC0006C2000203C2000200216002080410020C2
:102DD000D6100020341C002000010800A430002080
:102DE0004020002034250020000000208011002019
:102DF000E04000200003080093F80290B4F90200BC
:102E000049460BF07EFC494607B2B4F900000BF0CE
:102E100078FC04B20FB9002C4CD0DBF8883493F85E
:102E20003A20012A44D14FF4FA7AB3F8469009FBCC
:102E300007F090FBFAF016F0E7FD074609FB04F0F7
:102E400090FBFAF016F0E0FDDBF820A104465146B5
:102E5000384616F02DFEDBF81C91049049462046BA
:102E600016F026FE049B0146184616F017FDDBF807
:102E7000141016F0D1FEDBF8001116F011FD4946D2
:102E8000CBF83401384616F013FE5146074620466B
:102E900016F00EFE0146384616F002FDDBF818105B
:102EA00016F0BAFEDBF8041116F0FAFCCBF8380184
:102EB000284641E49BF80B0000283FF43DAC0DA8E8
:102EC0000AF0AAFC0DA80122214611F0EFFF2046CE
:102ED00032E400238BF80B3030E4154650E41D46F5
:102EE0004EE4002363734CE416F08EFD414616F069
:102EF000DFFD16F0B9FF2860C1E44FF00009E3E4FC
:102F00006267A2672367FBE4A04CD6F890102068A4
:102F100016F0C4FCD6F894108146606816F0BEFC2A
:102F2000D6F898108046A06816F0B8FC984C054674
:102F30002168484616F0BCFD61688246404616F09E
:102F4000B7FD0146504616F0ABFCA1688246284604
:102F500016F0AEFD0146504616F0A2FCA16982466D
:102F6000484616F0A5FDE1698346404616F0A0FDEF
:102F70000146584616F094FC216A8346284616F00E
:102F800097FD0146584616F08BFCE168834648469B
:102F900016F08EFD21698146404616F089FD0146F6
:102FA000484616F07DFC61698046284616F080FD93
:102FB0000146404616F074FC764B00F100451B7844
:102FC000C6F884A013F0040FC6F88850C6F88CB079
:102FD000DFF8E88112D1704BD3F888345B786BB19D
:102FE000D8F804405846214616F058FC6B4916F0B4
:102FF0005FFD214616F054FCC8F80400D8F8041010
:10300000584616F04BFC0446C6F88C00504616F0A5
:103010002BFFA6F83C03284616F026FFA6F83E0331
:10302000204616F021FFA6F8400375E400973B46C2
:10303000D5F8A420D5F8A010B3E40022D5F8A81044
:10304000F0E4C4F82C9114E5554BC4F82C3110E58C
:1030500098F80020524BC4F828715707C4F824315F
:1030600058BFC4F82C3100236372E3704FF6FF732E
:10307000A5F84C3305E5002220786271A271494A17
:1030800013F0100302EB40125289049228D0394603
:10309000104609F00BFF40494B790BB100234B70F0
:1030A0008B790BB100238B70CA7A3F4B2AB1B3F8EE
:1030B000522342F04002A3F852230A7B2AB1B3F80C
:1030C000522342F08002A3F852234A7B002A3FF4A5
:1030D0004CADB3F8522342F48072A3F8522344E576
:1030E000049A12076CD53148D5F854230380C5F8EB
:1030F000547343808380064600293CD0BB1A2C4A77
:10310000934204D9C5F858730AF0C6FBC3E7A37805
:10311000DBB1D5F85833C5F85873A7EB0308254B36
:10312000984525D8D4F88834B3F8500016F06CFCD4
:10313000012100F1004011F0B3FD404611F01AFBEF
:10314000404611F0CDFA0123A371D4F88834B4F9C4
:103150008424D4F89C14B3F9583013440A8849885D
:10316000934203DB99420A46A8BF1A46F28092E7CF
:103170000AF092FBE7E7104B1B6813B15B88C38032
:1031800089E7D4F89C341B88F9E700BF440A002083
:103190004C37002090210020C42300200AD7233B75
:1031A000000080BF98AC0108E010002064420020BD
:1031B000400D03003F0D0300E04000200000002010
:1031C000049BDB070BD5D5F85C33504AFB1A9342BE
:1031D000C5F85C7329D9C5F860730AF05DFB049BE0
:1031E000980715D5D4F88894D5F86C3399F83A2017
:1031F000FB1AC5F86C73002A40F08680E27A0692CA
:10320000424A934240F29880C5F870730AF022FB5C
:10321000049B5B077FF53FAF64223D4BD3F84C31F5
:1032200093FBF2F33B4A138035E7A378002B4CD095
:10323000D5F86033C5F86073A7EB0308364B9845A3
:103240005FD8237C53B3D4F850910021484616F040
:10325000E1FD18B3D4F824A10021504616F0DAFDA0
:10326000002849D0BBF1000F46D0404616F0C8FBFD
:103270002A4916F01DFC00230293294B02460193B4
:10328000284B514600934846274B09F09BFA0146CC
:10329000D4F8080116F004FBC4F83C01D4F83C0152
:1032A00015F0B2F847F6FF739842A8BF18461F4BB7
:1032B0009842B8BF1846A5F86803404611F05AFA7C
:1032C000404611F00DFA0123A371D4F88834D4F8E4
:1032D0009C14B3F95820B4F984341A440B884988F3
:1032E0009A4203DB91420B46A8BF1346104A1BB219
:1032F000D380A5F86A3372E700210E4811F0D0FCA4
:10330000CCE70AF0C9FADEE7002278E7400D0300B7
:10331000C4230020B21600203F0D0300BD378635C0
:1033200000000C420000A0C0502400205A80FFFF83
:10333000644200200000A0C1237A002B00F05C82D0
:103340006378002B00F02682069AD5F87033C5F812
:103350007073002A40F01B82A7EB030BB04B9B4518
:1033600000F24782D4F80011D4F8340116F096FA2E
:10337000616916F09DFBD4F804118046D4F8380139
:1033800016F08CFAA16916F093FB2278A54B07463C
:1033900003EB42135B89B9F84200590513D594F940
:1033A0006934002B0FDD182294F97C3402FB0343AF
:1033B00093F89821012A06D1B3F8A831312B02D90C
:1033C000984228BF184616F01BFB414681464046EE
:1033D00016F06EFB39460546384616F069FB014685
:1033E000284616F05DFA15F049F84946824616F06F
:1033F0001BFD80B15146404616F00EFC494616F0C2
:1034000057FB51468046384616F006FC494616F0F2
:103410004FFBCA4607462278824B03EB42135B8977
:103420005A0529D5D4F81831D4F84C01C01A0BF03C
:1034300077F942F228339842A8BF18467A4B98424F
:10344000B8BF184616F0E0FA784916F0E5FB78495F
:1034500016F02EFB0BF0FAF9014616F029FB754920
:10346000054616F0C3FC002840F0B1814FF07E51B4
:10347000284616F0D9FC08B14FF07E554946504613
:1034800016F0CAFB6C49814616F0B0FC002840F0EB
:10349000A0814FF07E51484616F0C6FC08B14FF0AF
:1034A0007E594946484616F003FB01464FF07E50D0
:1034B00016F0F4F9D4F8FC1016F0FAFA01464FF0C1
:1034C0007E5016F0EBF981462946404616F0F0FA98
:1034D000494616F0EDFA2946C4F8400180463846C0
:1034E00016F0E6FA494616F0E3FAC4F844014046FD
:1034F00014F08AFF47F6FF75A842A8BF28464F4F31
:10350000B842B8BF3846A6F87403D4F8440114F0A2
:103510007BFFA842A8BF2846B842B8BF3846D4F8B7
:103520000C11A6F87603D4F8400116F0B7F9D4F8D8
:1035300010110546D4F8440116F0B0F929460446A6
:10354000284616F0B5FA21460646204616F0B0FA8F
:103550000146304616F0A4F914F090FF38490646AB
:1035600016F062FC002800F037813146354816F02D
:1035700053FB064625F00040314616F099FA3146D5
:10358000074624F0004016F093FA0446584616F019
:1035900037FA2D4916F08CFA2C49064616F088FAAF
:1035A0002B4B0146D3F87C538246284616F076F919
:1035B00007F100494946804616F018FC002840F003
:1035C0000E813946404616F02FFC00B1B846294618
:1035D000504616F065F905460146484616F024FCAB
:1035E000002840F0FE802946384616F0FFFB00B167
:1035F0003D46174B5146D3F880B304F10049584675
:1036000016F04CF94946074616F0F0FB002840F04A
:10361000EA802146384616F007FCD8B1274619E063
:103620003F0D030098AC0108D8DCFFFF0000C84242
:1036300035FA8E3CCDCC4C3D0AD7233C5A80FFFF57
:10364000CDCCCC3D00007544BD3786350080D444D8
:10365000E01000205946504616F022F982460146F5
:10366000484616F0E1FB002840F0BF805146204656
:1036700016F0BCFB00B1A2464FF00009B64CCDF8E5
:1036800008900195CDF80080324604F12003D4F86B
:103690000C11D4F8400109F095F8CDF80890009786
:1036A000CDF804A00546324604F14403D4F81011C5
:1036B000D4F8440109F086F8A84F8046C7F8800383
:1036C00033462946022207F56170C7F87C5314F08F
:1036D00021FC334602220546414607F5647014F08A
:1036E00019FCD4F81C910646494605F1004016F035
:1036F000DFF9D4F8207180463946304616F0D8F903
:103700000146404616F0CCF839468046284616F069
:10371000CFF949460546304616F0CAF90146284613
:1037200016F0BEF88E490BF00DF807460BF08EF838
:103730000146404616F0BCF989490BF003F8894967
:1037400016F0B6F9884916F067FA16F08DFBD4F832
:10375000883493F8565005EB85056D006E42B042F3
:1037600045DBA842A8BF2846A4F87E047D49384618
:1037700016F09EF97C4916F04FFA16F075FB86425A
:1037800003DC8542A8BF05462E46A4F880640122CA
:10379000714B5A71069B002B7FF43AAD6E4CD4F8F6
:1037A0009064B4F98004B6F9365016F02DF9294624
:1037B0000EF0CCFB6D4DB6F934606880B4F97E0430
:1037C00016F022F931460EF0C1FB288020E5684D45
:1037D00054E6DFF8AC9164E6664C2746D6E6C84668
:1037E000F5E64D4605E74F4634E7CA4644E730461E
:1037F000BAE70AF02FF8CAE7A4F88034A4F87E34B8
:1038000006E54FF07E51284616F00EFB08B14FF04A
:103810007E55059B29464FF07E50B3F8DC8016F0AC
:10382000FBF94FF07E5116F039F80546384616F090
:10383000EBF8514916F0F0F90146284616F038F930
:103840004FF07E5116F02CF80546B4F90600A0EBB7
:10385000080016F0D9F80146284616F029F9054661
:10386000404616F0D1F80146284616F019F816F031
:10387000FBFA059B8045B3F8DE3003DC8342A8BF2A
:1038800003469846A4F80680079B344D1A68B4F99D
:103890000640B5F89C3336689C4218BF0121374B6F
:1038A0001CBFA5F89C4319701B78002B00F0CC803E
:1038B000049B9779002B00F00A81002F62D0059BB2
:1038C0001089B3F8DC8040455CD944453FDDA0EB6E
:1038D000080016F099F88146A4EB080016F094F859
:1038E0000146484616F098F94FF07C5116F0E0F882
:1038F0004FF07C5115F0D4FF4FF07C51044616F088
:1039000075FA08BB4FF08041204616F08DFA08B1D9
:103910004FF08044C5F8A0434FF07E51D5F8A00386
:1039200015F0BCFF0446384616F06EF8124916F042
:1039300073F90146204616F0BBF84FF07E5115F0A2
:10394000AFFFC5F8A00321E04FF07C54E2E74FF051
:103950008043C5F8A033DFE7C4230020E010002037
:103960008F2A75440000204135FA8E3C64420020C5
:10397000CDCC4C3DC23D2D440000C8420016002075
:103980000AD7233C4FF07E53C5F8A0330027D5F863
:10399000A053804C013E16F8019F484616F034F8BB
:1039A0007D4916F039F9206096F80A800690404665
:1039B00016F02AF84FF07A5116F07AF860608246D5
:1039C000307D16F021F8754916F026F9049B8346E0
:1039D000A060069A002B00F096801046294616F04B
:1039E00067F829462060504616F062F82946606064
:1039F000284616F05DF8594616F05AF8A060B9F15D
:103A0000000F00F08B80B8F1000F00F08780D4F831
:103A100000806168404616F0FFF841468146A06884
:103A200016F0FAF80146484615F03AFF01464FF005
:103A3000804016F0F1F8E0600137032F04F16C04C8
:103A4000A9D10022564B1A70564B1B680493079B52
:103A50001B680693544B1C6814F0080415D0534B94
:103A60001B7813F0080410D05149524A087802EB31
:103A700040125289140641F11581D80601F11281D4
:103A80004B7B002B41F01C810224424E0027B046A4
:103A90003546DFF84091484B53F8270015F0B4FF46
:103AA000464B196916F004F8022FC8F8100038D1F7
:103AB000022C36D1049816F04DFC4946824616F089
:103AC00095F9002801F00781C5F8EC908DE0002FF2
:103AD0003FF458AF12899442FFF654AF059BB3F8F8
:103AE000DE309C42BFBFA01A78439B1A90FBF3F0D4
:103AF000ACBFC7F16400C0F1640015F085FF304928
:103B000016F08AF81DE7022F3FF479AF29461046D8
:103B100015F0CEFF2946206058466DE70023E3608C
:103B20008AE7069B3B4493F803B0584615F068FFBC
:103B30008246CBF1000015F067FF0146504615F0B4
:103B4000ADFE83461F4B33F9170015F05DFF1E498C
:103B500015F0A6FE594615F0ABFF1C4916F05CF8AF
:103B6000594615F09BFE514615F09AFE16F07CF969
:103B70000A23584315F048FF4946824616F036F9A5
:103B800050BB1349504616F04FF930B3DFF840A050
:103B900023E000BFB03500200000F8410020EE44D3
:103BA000001600206023002080410020BC2100205E
:103BB000C423002098AC01081416002084090020BA
:103BC0000000C842644200200000FA4300007A442A
:103BD0000000E1440000E1C4CA460137032FC8F8E1
:103BE00014A008F16C087FF456AFB24F3B689B07F6
:103BF0004CD0059BB3F85221AF4BB3F90200B3F997
:103C00000030801A9B1A80EAE071A1EBE07183EA30
:103C1000E372A2EBE372B1F5FA7FA8BF4FF4FA7139
:103C2000B2F5FA7FA8BF4FF4FA729142B8BF1146BD
:103C3000084615F0E9FEA14915F0EEFF049B804609
:103C4000D87E6428A8BF642015F0DEFE9C4915F0DC
:103C5000E3FF81460146404616F0D2F8002800F006
:103C600091824046494615F0D7FF80460023954A89
:103C700006990498CDF800800EF08AF8CDF80080FF
:103C80000123914A069904980EF082F83F68B8041F
:103C900019D5022C17D0D5F8EC400021204616F09B
:103CA000A5F8002800F0718204F100404FF0804137
:103CB00016F0BAF820B9854B1B78590700F16782D6
:103CC0000023C5F818313A0417D500230D930E933D
:103CD000D5F8EC300DA80F9311F076FC0D996869BA
:103CE00015F0DEFD0E996861D5F8800015F0D8FD5D
:103CF0000F9BC5F88000C5F8EC3000254FF0000997
:103D0000089BD3F80080022D049B00F0AE87186B4F
:103D1000322828D915F074FE49467769044616F012
:103D200083F8002800F05C824146204615F0C0FE72
:103D3000D6F850B001468246584615F0AFFD04460D
:103D40000146384616F052F850B95946504615F01B
:103D5000A7FD04460146384616F066F800B93C4611
:103D60003465336D73610135032D06F16C06CAD1DC
:103D70000026049B564C1433089354F8501C54F8F6
:103D80004C0C15F08BFD54F8601C079015F090FE5C
:103D9000022E81461ED14F4B1B78032B0FD9049B5B
:103DA0005D8C65B116F060F86B42984203DBA84267
:103DB0000346A8BF2B46184615F026FE8146049BF5
:103DC00093F8242032B1444B49461B68434814F011
:103DD000A1F88146089A12F8013B0892002B00F0E6
:103DE000108214F82C2C54F8341C013A9200081D4F
:103DF00054F8505C14F01EFC54F8348C0027C8F8BA
:103E00000050002514F82BAC5545C0F2EB81324B25
:103E100054F8580C1D6800F10040294615F0FCFECE
:103E2000394615F045FE049B07469A7F2AB10146A4
:103E30002B46204614F06EF807462949384615F0FF
:103E4000D5FF002840F0DF812649384615F0ECFF09
:103E500000B1244F54F828BC3946484615F020FDDF
:103E6000594615F01DFD2049804615F0BFFF00287A
:103E700040F0CB811D49404615F0D6FF002800F0E8
:103E8000C6811A4B0693049B022E0CBF188DD88C4A
:103E900015F0BAFD54F84C3C054600211846059330
:103EA00015F0A4FF002800F0DF81059B03F100401E
:103EB0001EE000BF9C210020501E00200000FA439D
:103EC0000000C842B03500201C36002090210020A0
:103ED0001036002098410020A0350020DC3600205C
:103EE000000096C30000964300007AC400007A44A4
:103EF000294615F091FE01464FF07E5015F0CEFC9C
:103F00000021054615F072FF002840F0AF814FF008
:103F10007E51284615F088FF08B14FF07E55BD4B05
:103F200054F85C1CD3F800A0079815F0C1FD294691
:103F300015F0BEFD514615F0BBFD414605460698FD
:103F400015F0ACFC54F8541C15F0B2FD514615F0B8
:103F5000AFFD0146284615F0A3FC594615F0A0FC1C
:103F6000AD4B80461B7844F8280C13F0200F0793C4
:103F7000AA4D04D195F8A433002B00F07B8154F8AE
:103F800024AC40460AF1004B594615F02FFF38B9D2
:103F90005146404615F048FF002800F06981D3469D
:103FA00044F828BC079BDB061DD5049BB3F83AB048
:103FB000BBF1000F17D0CBF1000015F025FD54F830
:103FC000288C82460146404615F010FF48B95846F5
:103FD00015F016FD82460146404615F025FF00B952
:103FE000C24644F828AC069815F03EFFDFF86C8214
:103FF0006C3428F81600484615F036FF08F1060A1A
:104000004AF8260054F8940C15F02EFF08F1120916
:1040100049F82600384615F027FF08F11E0949F82F
:104020002600059815F020FF08F12A0848F8260018
:104030000136032E7FF4A1AE794B7A4E1C78032C07
:1040400017D933685888B0F5FA7F12D2764BB5F994
:10405000AA73B3F90430424283EAE371A1EBE3713E
:10406000531A9F4203DB4318BB42A8BF3B46A5F847
:10407000AA3300273368B9463E46DFF8E48104934B
:104080000DF1340BA145C0F2FE80684BF01B1A689D
:104090000FFA80FB12F4805F0493634ADFF8C49147
:1040A00000F047816249B2F90660097811F0040F07
:1040B000604908BF08680A685F4908BFC08A0F687E
:1040C00008BFA5F8DC03D28AF888111A8E4200F3E3
:1040D0001281D9F80010B7F90020B1F90070A5F8E5
:1040E000DC63A2EB07080FFA88F8C34540F33A8176
:1040F0000122404685F8A42315F086FC0546584663
:1041000015F082FC0146284615F086FD4FF0000BA5
:1041100082460DAA5C4500F315814849284615F0F2
:10412000C7FC4FF0020A4FF07C5115F0C1FC98FB20
:10413000FAFA054607EB0A0015F066FC294615F069
:10414000ADFB15F091FE0FFA80F808EB0A0015F0B0
:104150005BFC294615F0A4FB15F086FE344A0FFAE5
:1041600080FA127812F0040240F03F81134634497D
:10417000344A9C4240F3608131F8130022F8130066
:104180000133F6E74FF07E5870E520468EE5D5F80E
:10419000E810204615F082FB1E4B196815F088FCCC
:1041A000D5F8181115F07CFB2749044615F01EFEC2
:1041B000A0B92649204615F037FE00B1234C049BD8
:1041C000C5F81841187A15F01FFC214915F024FD97
:1041D000214615F06DFCC5F8EC0074E51A4CEEE7CD
:1041E0003765BEE554F8303C58F8251053F82500E3
:1041F00015F05EFC0146384615F052FB01350746C6
:1042000002E6002726E6134F24E6134B3AE6CDF8E4
:10421000188038E6A0350020BC210020E0100020E6
:10422000984100201C410020644200204C1E0020C8
:104230009021002020410020F4360020C3F5A83E44
:10424000EC2200203C160020000034C20000344262
:104250000000A042000096C300007AC4861400202B
:1042600014090020F8360020059841E6002556E69E
:10427000C34695E6002115F0B9FD08B108F10048E4
:1042800044F8248C8EE6B5F9A80315F0BDFBD8F8E8
:10429000081015F00DFC8246B5F9A60315F0B4FB25
:1042A000D8F8041015F004FC0146504615F0F8FA51
:1042B000049B824693F90030B5F9AA035B42584348
:1042C00015F0A2FBD8F80C1015F0F2FB0146504691
:1042D00015F0E6FA15F0C8FD00B2B0422BF819004F
:1042E00003DC8742A8BF0746304609F1010908F1FF
:1042F00010080646C6E60244964206DBD9F80020BE
:10430000B7F90270B2F90220E9E6B5F9DC2391426F
:10431000A7BFB7F90060D9F80020D9F80020B7F995
:104320000260ABBFB2F90070B2F9022032463746E4
:10433000D7E6B2F90660D9F80020B2F90070B2F9F8
:104340000220CEE632F91B00059215F05DFB5146C6
:1043500015F0AEFB15F088FD059A22F81B000BF155
:10436000010BD7E60021404685F8A413059215F00D
:104370004BFBB14915F09CFB4FF0020A4FF07C510A
:1043800015F096FB9BFBFAF598FBFAFA834607EBD0
:104390000A0015F039FB594615F080FA8046781965
:1043A00015F032FB01460746404615F03DFD059AE3
:1043B00000B947463846059215F056FD0FFA80F8C9
:1043C00008EB0A0015F020FB594615F069FA059A2A
:1043D0000746501B15F018FB05460146384615F0F8
:1043E00005FD00B93D462846B6E64FF0000B934A5E
:1043F0009349D378D9F800500793049BD1F80090E3
:104400001A68904F02F4805302F0100209928E4A0B
:104410000893B2F906208D4B0592B3F9DC338C4A30
:10442000049392F900208B4B06921B6862000A925B
:104430000A9A5A4540F03A81874B1B78002B00F0CE
:104440009A80864B86481B687F4CB3F8502193F8BE
:1044500052110368049213F4807F824D00F073813F
:10446000814B1A88ADF834205A889B88ADF83620E5
:10447000ADF838304FF47A724FF461667B4FB7F97C
:10448000023003F5E163534393FBF6F3A3F5FA73AC
:10449000ADF84C30B7F9003003F5E1635A4392FBB5
:1044A000F6F2734BA2F5FA721B88ADF84E20A3F218
:1044B000DC53ADF83A302B682288DB8AD21AADF88B
:1044C0003C206288D21AADF83E20A288D21AADF8FC
:1044D0004020E288D21AADF842202289D21AADF8E3
:1044E00044206289D21AADF84620A289D21AADF8CA
:1044F0004820E289D31AADF84A3000231C465D4AB1
:1045000022F813400133082BFAD15B4B0129D3F871
:10451000008003684FF0060203F48043079314BF42
:1045200001234FF0FF334FF0640C0893534B544971
:104530001B78544802FB0313DFF838A10993099B49
:104540008B4240F01B8100254FF00E0964274E4E30
:1045500009FB0583B6F9024093F90600444394FB36
:10456000F7F4E8B274800DF071FD01352044082D98
:1045700026F8020FECD1454D2B68990632D5002064
:104580000DF064FD3B4C0646208001200DF05EFDE1
:104590003F4B60801B681A0624D53E4B33491B688D
:1045A0001B78012B344B40F06381D3F800E03227B5
:1045B0009EF906305A42B1F90230B1F90010534366
:1045C0009EF9142093FBF7F351436FF0310291FBF6
:1045D000F2F291FBF7F19BB21A44B21A22800B441B
:1045E000184460802C4B1B68002B40F054812B4BEF
:1045F0001B780BB10DF044FD294B1E78002E40F0C6
:1046000047822B68190340F1438211F0F1F9254CE0
:1046100007462378033B052B00F20782224BDFF885
:104620002C8093F8F237002B00F0EB81012B00F087
:104630000C823046E9E100BFC3F5A83E801E002091
:10464000F43600203A160020501E0020E010002012
:10465000BC21002020410020E6060020602300202D
:104660009C2100202C41002064420020481600209C
:104670003C1600202C16002054230020EC060020BD
:10468000ED060020BE1400202A1600204C1E00203B
:104690006C20002028410020E8060020740900203A
:1046A00050230020D0410020742800200B93304676
:1046B0000DAB33F80B4015F0A7F9A94B53F83B109D
:1046C00015F0F6F915F0D0FB404541460B9B03DB96
:1046D00050450146A8BF51460C44079A24B227F81A
:1046E000024F12B1A98868880BE0089AB2B1D98A42
:1046F000B9F80600049A091A8A420CDC2988B9F82C
:1047000000008C4203DBA0420146A8BF214639804D
:104710000BF1020B8CE6B9F80210E4E729886888EF
:104720008C4203DBA0420146A8BF2146099A39808A
:10473000002AEDD0198B059A8A4202DB069A002ADC
:10474000E6DAA988E3E7874BB3F8A623ADF834206F
:10475000B3F8A823B3F9AA33ADF83620824AADF8EE
:1047600038301268D6047FF585AE2A68B4F9066041
:10477000D28A9642BFF67EAE5B4279E60E230F7870
:1047800091F9054003FB0789B9F90220B9F9003016
:1047900091F801E0D21A91F9043092B2534393FB9D
:1047A000FCF34FEA520BA3EB0B030694CC781BB23D
:1047B00005934FEA4E06002C3FD114AC264436F840
:1047C0001C4C0480079C74B1FC1E012C0BD8042FD8
:1047D00014BF01244FF0FF34049D089E6C430588EC
:1047E00006FB045404800123D9F80A4003FA0EFEA4
:1047F00014EA0E0FB0F9006091F9024008BF1D469F
:1048000004FB06F494FBFCF4059B18BF4FF0FF3546
:104810009C4209DB069B5A4392FBFCF2A2EB0B0382
:104820001BB2A342A8BF23463AF81720023005FB6B
:10483000032306312AF8173081E614AB1E44B0F981
:10484000005036F91C6CB54208DA2C44A54203DC52
:10485000A6423546A8BF25460580B3E7B2DD2C1B2E
:10486000B44203DBA542A8BF25462E460680A9E731
:104870001B68B1F9022093F906707A43322792FB44
:10488000F7F23244228093F91420B1F900305343F7
:1048900093FBF7F3A4E6354F3B6893F90430002B04
:1048A0007AD1334B334A1B6803F17004B2F902002A
:1048B000B3F90010B3F90260884203DB8642314647
:1048C000A8BF01460E339C4222F8021FEED12A4BAC
:1048D0001B78012B02D0192B40F08780274B1B78C7
:1048E0005B0700F182803B681F78B7FA87F77F0982
:1048F000234B1C788CB1234B1C7874B10026224BBF
:10490000DFF8908093F80090DFF880A098F80020FE
:1049100009EB06039A42344669DA2B689E060AD5EB
:104920001A4FE0B2661C39880CF0A0FE7988F0B20C
:1049300002340CF09BFE2B68D8027FF558AE00269F
:10494000134FE4B2A01937F8021FC0B20CF08EFE6C
:104950000D2E06F101033FF44AAE1E46F2E700BFFA
:1049600014090020E01000204C1E002024410020EB
:10497000542300202A160020D80600209021002071
:10498000E6060020EC060020E40600202C1600209D
:10499000561E0020E5060020B74E96F8FE4306F5A9
:1049A00080687CB9DFF8F8923B6808EB0400D9F81E
:1049B000142059881C340BF0D9F8E02CF4D10123D1
:1049C00086F8FE330024AD4EB6F9020015F01CF84F
:1049D000014608EB040013F071FA15F045FA1C3497
:1049E000E02C26F8020FEFD15BE7002780E7F0B25A
:1049F00027B100210CF03AFE013687E73AF8131090
:104A0000F8E7D8F8E0040FF0EEF9D8F8E42498F8C5
:104A1000E8341344B3F5807FA8BF4FF4807383421A
:104A2000D4BFC8F8E434C8F8E4042378023B092B67
:104A300029D8DFE813F00F001C00550078008E0025
:104A4000A600B900CA00EC00F80005F001F9C0F1B9
:104A50007F00DAE70022884BC3F8E424C3F8EC2493
:104A6000874A1268C3F8F024032323700BE0844BB9
:104A7000814D1A68D5F8F0346433934203D2402054
:104A800007F09AFF38B112F0D9FD08B10123237065
:104A900015B0BDE8F08F7B4F4026B846D5F8EC3412
:104AA000F85C78B112F076FED5F8E434013E03F1FB
:104AB000FF33C5F8E434D5F8EC3403F10103C5F84D
:104AC000EC34EBD1D5F8EC3418F80330002BDAD104
:104AD000C5F8EC344FF0FF33C5F8F0340423C4E7D5
:104AE000694A5021A2F10C030193442302920093DE
:104AF0004920A2F10A03163A06F06AFA0028C2D148
:104B00002A685D4B12F080024FF0FF3105D0C3F8E8
:104B1000EC04C3F8F0140523A7E7C3F8EC24C3F8AA
:104B2000F0140723A1E7022300210093574B0291C1
:104B30000191A3F10802482006F04AFA0028A2D108
:104B40004FF0FF324C4BC3F8EC04C3F8F0240623BB
:104B50008BE74F4A0021A2F10C0301930B23029231
:104B600000934720A2F10803143A06F031FA002816
:104B700089D14FF0FF32404BC3F8EC04C3F8F02466
:104B8000CFE7052300210093424B02910191A3F14D
:104B90000802532006F01CFA00287FF474AF364B4D
:104BA000C3F8EC04082360E705F0A8FF00283FF4F1
:104BB0006AAF12F059FD00283FF465AF4FF4805200
:104BC0002D4BA3F8F4240A234FE7334B1B689A03B9
:104BD0001AD5294DB5F8F634B3B9D5F8F86445209F
:104BE00012F0D8FD0E2012F0D5FD304612F08BFEEB
:104BF000384612F088FE4FF48053A5F8F4340A23A7
:104C00002370384605F06EFB05F05AFF3BE71A4B60
:104C100093F8FC34002BF4D01F4B1B689B03F0D49B
:104C200009232370F0E7164B134D1A68D5F8F034BA
:104C3000C833934211D2194B93F8F2675EB9D5F895
:104C4000E00412F09DFB95F8FD34C5F8E064022BFA
:104C500001D104F02DFD012307E712F005FD002826
:104C6000E9D110E76427FDF7BCBFD86A32287FF688
:104C70007FA8FFF74FB800BFE01000202A160020E1
:104C80007C1E0020C0A6010836A7010858AA01080A
:104C900074AA0108ECAA01086C20002074280020E6
:104CA00084090020124BB3F9042082EAE273A3EBDB
:104CB000E2730E2B04DC0F4B1B685A073EF5E4AE83
:104CC0000A220D4B0124B3F9043093FBF2F30B4A93
:104CD0001380FEF7DABEDFF828B05046594615F0CB
:104CE000A3F800283EF479AFC8F814B0FEF77DBFF2
:104CF000644200209C21002048160020B2160020AB
:104D00000000E1442DE9F04FB34BAFB01E780093A3
:104D1000002E00F0C880B14B186800286CD00CF051
:104D200053FFDFF8F0A2AE4CDAF800000FF05EF8A7
:104D3000002861D0DAF800000FF052F80928A94DD8
:104D400001D03F284FD14FF00008C14646462F689A
:104D5000DFF8C4B208EB0B0347B13A4658F80B1022
:104D60002046019313F05CFE019B08B96EB399468F
:104D700008F10808B8F5847FECD196B1D6F800E0C8
:104D8000D9F800C02B681EF803001CF803108142FC
:104D900007D15A1CE1B92D2B1AD820202A60E054E3
:104DA000A1542B680BB14E4507D08F4811F078FF06
:104DB0004E4510D912F0B0FA00272B689F42B3D2AB
:104DC000E05D11F0E2FD0137F7E71E469946CFE7B7
:104DD000E0542A60D6E756F8080B11F061FF09206D
:104DE00011F0D3FDE4E72B68002B41F06D8104281E
:104DF00005D17B4809F0B8FF2FB0BDE8F08F0C2833
:104E000041F08681794811F04BFF12F085FA8BE76B
:104E100001220B4601F06BB9591E605C2028F7D0C7
:104E200002B12B600026E654714BDFF8EC81D3F819
:104E300000B056F8081006EB08090846019113F077
:104E4000C1FD019907460246204613F0E9FD20B94D
:104E5000E35D5B445B785B0707D00836B6F5847F7B
:104E6000E7D1644811F01CFF07E0634B9945F8D285
:104E7000781CD9F8043020449847002301F03BB94E
:104E80002F2B3FF651AFA0F12002D2B25E2A3FF69F
:104E90004BAF13B920283FF447AF5A1C2A60E054A7
:104EA00011F073FD40E7554B554C93F8009009F015
:104EB0000403009354F8093C002B41F0D1800136E3
:104EC000022E04F1CC0497D0F4E7012B06D14D2833
:104ED00008BF022318BF002301F0D8B8022B03D16A
:104EE0003C2808BF0323F5E7032B0BD10023C02880
:104EF0009FBF04F8053C04F8040C04F8030C0423D9
:104F000001F0C4B8042B09D114F8033C04F8020CD6
:104F10005F4004F8037C052301F0B8B8052B13D1DA
:104F200014F8051C14F8043C14F8032C8B424AD9DD
:104F30004B1C04F8053CCC23424004F8032C314AB6
:104F400003FB06230B44587214F8018CB8F1060FCA
:104F500041F087802C4B0DF1140A93E807008AE892
:104F60000700002214F8043C14F8027C234409933F
:104F7000ADF82A203BB20492514604AA3846089460
:104F8000ADF82830ADF81C3001F0DCF805460028FB
:104F900040F0C880762F40F0D880089B5A1C0892B9
:104FA0001F78002F6AD1194B1B78D80740F1BC80BD
:104FB0004FF0A5083D46BA46BB46154B93E806029E
:104FC0004FF0040E83E0824202D1062301F05EB866
:104FD000002301F05BB800BF502300207041002087
:104FE0001C2300204C2300201FD4010824D40108D6
:104FF000CC0300202FD40108C0B301089021002069
:10500000AD1E0020A41E00200CAB0108BC21002016
:10501000B021002094410020B8B20108009B002B71
:1050200041F01F8023281DD10121A24B54F8092CE7
:105030001970A14BA1491A60A14BA2481A609A604D
:105040009DF8002059605A7310221A739E4A043347
:10505000136011F025FE12F05FF99C4A137843F0BB
:10506000020313709A4B1B681B78BB427FF46CAF32
:10507000984B994A1A60994BDD6065E7FF2F0BD179
:105080000EA997480AF08EFC0EA991E806024FF08F
:10509000A508AA46AB4693E7791ECBB21D2B4CD888
:1050A000904A92F969349F4247DC18234B4303F539
:1050B000CC739818B0F910B0B0F912A0B0F9145030
:1050C00090F81680011D13F802E091E80602059899
:1050D0000192431C0593077005982EAF431C47F8B7
:1050E000A43D80F800E0384608F072FF019A384687
:1050F000114608F06DFF4946384608F069FF1FFA6F
:105100008BF1384608F078FF1FFA8AF1384608F02C
:1051100073FFA9B2384608F06FFF059B5A1C059231
:1051200083F80080012352E04FF0A5083D46BA46BF
:10513000BB46B9463A46394642E74FF0A508AA466B
:10514000AB46A9462A4629463AE7472F23D108A865
:1051500008F00EFF07460146504608F039FF624B43
:105160000DF13808DD6807F18003AB4294BF80255C
:10517000ED1B05F03BF82A464146384605F074F829
:1051800000238342CEDA059A18F80310551C0595C2
:1051900001331170F5E7089B099A5B2FA2EB030A14
:1051A00000F0868400F27981352F00F0BE8200F293
:1051B0000F81292F00F0008600F29C80232F00F041
:1051C000998260D8072F00F0CD844FF0FF33ADF8FF
:1051D0001E30002B00F03487059B54F8090C069311
:1051E000424B059303681B6A03B1984724228DF84C
:1051F00038204D22059B069F8DF83920FF1ABDF9F6
:105200001E20FF2F3B46A8BFFF23511C14BF3E2288
:1052100021228DF83B30BDF81C308DF83A200EA9C4
:10522000052254F8090C8DF83C300EF0E5FD9DF890
:105230003C509DF83B30FE2F85EA030540F3F28693
:10524000F9B254F8090C4FEA27280EF0D2FD5FFAA4
:1052500088F154F8090C0EF0CCFD7D406DB285EA62
:105260000805EDB23A46059954F8090C0EF0C4FD54
:1052700005990A46BB1A0B44002B40F3D68612F858
:10528000013B5D40F6E7252F00F08B85272F9CD151
:1052900008A808F083FE164DA5F8F60008A808F047
:1052A0007DFEA5F8F80008A808F078FEA5F8FA0039
:1052B00038E700BF5023002094410020333E01080E
:1052C000E01500204FD401087041002090210020FB
:1052D000A8300020F04F0020EFBEADDE00ED00E072
:1052E000C4240020C4230020F8020020A44200208F
:1052F000742800202F2F00F036865CD82B2F00F06A
:1053000073852D2F7FF461AF5A1C2EAD45F8982D73
:105310001B78BE4F284687F8443108F03FFEA7F8B7
:105320005601284608F03AFEA7F85201284608F030
:1053300035FE089BA7F854015A1C08921B78BAF155
:10534000080F87F84D317FF6EDAE284608F026FEAF
:10535000A7F85A01284608F021FEBAF10C0FA7F869
:105360005C017FF6DFAE284608F023FE284608F0F1
:1053700020FE284608F012FEBAF1100F7FF6D2AEDA
:10538000089BBAF1110F03F1010208921B7887F80C
:1053900046313FF4C7AE284608F0EAFDBAF1150FD2
:1053A000C7F848017FF6BEAE089B5A1C08921B78CE
:1053B00087F84C31B6E6312F00F0F485332F7FF4B7
:1053C00004AF5A1C08921A78904B83F84F21A9E633
:1053D000432F00F05A8533D83C2F3FF4A3AE1CD89E
:1053E000372F00F08685392F7FF4EFAE19465A1C0F
:1053F000089211F8020B854A089182F82E0159781B
:1054000082F83211D91C0891997882F83111191D4E
:105410000891DB7882F8333184E63E2F00F0428138
:10542000412F7FF4D2AE00237848089A511C08918E
:1054300011781A180133082B82F83C11F5D171E666
:105440004C2F00F0D8840BD8482F00F0D4834A2F7B
:105450007FF4BBAE08A808F0A1FD6C4BD88161E6D3
:105460004E2F00F0EE84512F7FF4AFAE684A1278D1
:10547000012A00F2D48519465A1C089211F8020B31
:10548000624A089182F8F207597882F8F017D91C1D
:1054900008919B7882F8F13744E6D12F00F0C88359
:1054A00000F28480CA2F00F00A815DD85F2F00F0DF
:1054B00023831ED85D2F7FF488AE5A1C2EAD554F26
:1054C00045F8982DD7F800801B78284688F82030BA
:1054D00008F064FDFF28A8BFFF2088F81E002846BA
:1054E0003F6808F05BFDFF28A8BFFF2087F8240075
:1054F00018E6C82F3FF416AEC92F7FF466AE5A1CCB
:1055000008921978444A002900F08083117841F00C
:105510000201424D11702A782EAF02F0F9026FF3AA
:1055200004122A709A1C47F8982D5B7838466B71E4
:1055300008F01EFDA860384608F01AFDE8603846FD
:1055400008F02CFD2861384608F028FD00236B8305
:10555000AB83EB83642328844020AB84EB840CF082
:105560007DFB07F055FADDE5CE2F00F038830FD82C
:10557000CC2F00F00281CD2F7FF427AE284B1B7873
:105580005B073FF5CFAD4FF4C872264B5A84C9E58F
:10559000CF2F00F03C81D02F7FF417AE204B1B782B
:1055A0005A073FF5BFAD08F0FDF976E0DA2F00F0BD
:1055B00017823BD8D42F00F0A3810AD8D22F5CD019
:1055C000D32F7FF402AE08A808F0E8FC164B188031
:1055D000A8E5D62F00F07881D92F7FF4F6AD08A882
:1055E00008F0DCFC094DA5F8EA0008A808F0D6FC94
:1055F000A5F8EC0008A808F0D1FCA5F8EE0008A872
:1056000008F0CCFCA5F8F0008CE500BF7428002061
:10561000D041002060230020BC2100207C16002007
:1056200090210020E0150020B2160020DD2F00F0B0
:10563000CF8417D8DB2F00F0E781DC2F7FF4C5ADD6
:1056400019465A1C089211F8020BA64A089182F8D2
:10565000F200597882F8F310D91C08919B7882F8EF
:10566000F4305FE5F22F00F08F81FA2F7FF4ADADBB
:105670009D4B1B785D0710D5A7E59B4A127812F069
:1056800004027FF44FAD591C08911978954B0229FB
:1056900083F8D01701D983F8D02710F071FA10F0F1
:1056A0002DFB3FE55A1C08921A468E4912F8020B50
:1056B00081F8A20108925B7881F8A13132E50122DC
:1056C0008A4B83F820208A4B19684B1E0931089AAF
:1056D000501C0890104610F8025B03F8015F089018
:1056E00050788B42987202F10300089092781A75F4
:1056F000EDD117E55A1C08921D78132D3FF665ADC4
:105700007B4A4FF00C0E11689A1C089200225F78B9
:10571000DFF8E8C10EFB02C090F80880B84500F041
:10572000B98401321C2AF5D14FE55A1C0892197828
:105730000B293FF64AAD6E4A10689A1C08925A78B7
:10574000032A3FF642AD08FB010888F89620DA1CD0
:1057500008929A7888F891201A1D0892DA7888F8C9
:1057600092201A7988F893205A7988F89420DA1DC3
:105770009B79089288F89530D4E4BAF1090F7FF646
:1057800024AD08A808F015FC0021089B594F5A1CAD
:1057900008923D681B782B70089A022902F10103D8
:1057A000089313782AD1B42BA8BFB423022BB8BF17
:1057B00002236B7101310329EED1931C08935378B6
:1057C00008A8642BA8BF6423AB71D31C08939378FB
:1057D0006B70131D0893D378AB7008F0DFFBBAF140
:1057E0000A0F288105D0089B3A68591C08911B783C
:1057F000D37101233D4A82F82030E8E4B42BA8BFDE
:10580000B423062BB8BF06236818C370D2E708A8D4
:1058100008F0C4FB6FF4AF614318324D9BB2C62B46
:1058200098BFA5F8520108A808F0B8FBA5F8DC005D
:1058300008A808F0B3FBA5F8DE0008A808F0AEFB46
:10584000A5F8E00008A808F0A9FB089BA5F89801B6
:105850005A1C08921B7808A885F8AE3108F0A9FBFD
:10586000089B08A85A1C08921A4612F8021B85F8D1
:10587000AF1108925A7885F83921DA1C08929B7882
:1058800085F84F3108F095FB194B08A81F6808F000
:1058900085FB089B00EB80005A1C08921A464000CA
:1058A000F88712F8021B089285F82E115A7885F8AD
:1058B0003221DA1C08929A7885F831211A1D089253
:1058C000DB7885F833312DE400250B4F08A808F06C
:1058D00065FB052D00B2D8BF27F815000135082D4E
:1058E000F4D11FE47428002090210020E01500204E
:1058F0006023002078410020EC22002048AB010802
:10590000BAF10F0F7FF461AC5A1C08921D78072D75
:105910003FF65BACBF4F08A8D7F8008008F03EFB0D
:105920000E235D43A844A8F8DE0008A8D7F800803D
:1059300008F034FBA844A8F8E00008A8D7F80080D5
:1059400008F02CFB089A3B68A8441D441346511CE0
:10595000A8F8E200089113F8021B08A8089385F83C
:10596000E410537885F8E530D31C0893937885F8D4
:10597000E630131D0893D37885F8E73008F0F8FA7D
:10598000C5F8E800FFF7CEBB5A1C08921A780F2A18
:105990003FF61BAC0625A048991C05FB02020891A6
:1059A00059782EA882F87C10D91C0891997882F831
:1059B0007D10191D0891D97882F87E10197982F826
:1059C0007F10597982F88010D91D9B7940F8981D75
:1059D00082F8813008F0EDFA0CF000FBFFF7A2BB73
:1059E000591C089119468B4A11F8020B126808914C
:1059F00082F8D900597882F8DA10D91C08919B787E
:105A000082F8DC30FFF78EBB1722824B00211B6827
:105A100028271A755A7555229A702D221A73412219
:105A20001A7178229A73B4225A7105221A740822C4
:105A30009A761422DA714B22DA763C221E25322025
:105A40004FF00A0C4FF00F0E4FF064081A7283F8F3
:105A50002020C82299755973D9751F709D725F7087
:105A6000DD72D87083F818C083F80FE083F81980CE
:105A700083F806C083F811E083F80980D87483F8AE
:105A80001DC083F821E09F7783F82450DA8442F226
:105A90001072DA624FF4967219635A845A219A8608
:105AA000DA86A522188583F838105A87FFF73ABBA3
:105AB0005A1C2EAD45F8982D574F1B782846BB74BD
:105AC00008F077FA284608F074FA089B28465A1C12
:105AD00008921B7887F8E43008F060FAA7F8E20033
