:020000040800F2
:1000000000000110A9150608BDD7050881380408AD
:100010004916060849160608491606080000000099
:10002000000000000000000000000000CDD705081F
:10003000C9D7050800000000C5D705089DFB0408C6
:1000400049160608491606084916060849160608FC
:100050004916060849160608811905089119050868
:10006000491606088D1905088919050815F00508AF
:1000700005F00508F5EF0508E5EF0508D1EF0508DF
:10008000BDEF0508A9EF0508491606084916060838
:10009000491606084916060849160608851905086E
:1000A00061F105083DF1050819F1050885F105081C
:1000B00009F10508F5F00508E1F0050849160608FC
:1000C000491606084916060849160608491606087C
:1000D00049160608BDF8050849160608B1F80508CE
:1000E0007D190508491606085D02060895F0050801
:1000F00071F005084DF00508B9F0050895EF050801
:100100004916060849160608CDF0050849160608DE
:10011000491606084916060849160608491606082B
:1001200081EF05086DEF050859EF050845EF050853
:1001300031EF05084916060849160608491606084B
:100140004916060849160608491606087DE50508F9
:100150001DEF050809EF0508F5EE0508A5F80508E7
:1001600049160608491606084916060849160608DB
:1001700049160608491606084916060849160608CB
:0801800049160608491606089D
:1001900009284FF0010307D903EB83035B00B0FB91
:1001A000F3F2092AF8D883B3F0B4DFF864C000256D
:1001B0000EE00A2A1E460F462346B4BF30245724B9
:1001C0002244092E01F1010105F101053A700FD910
:1001D000ACFB0324E408B0FBF3F203FB1200002D98
:1001E000E7D1002AE5DC092B06D8303201F8012BD3
:1001F0000023F0BC0B707047ACFB0436B0FBF4F28C
:10020000234604FB1200F408EBE700230B70704751
:10021000CDCCCCCCF0B40D6800240CE0BCF1050FC3
:1002200018D8A0F137030A2B14D104EB840415F875
:10023000010B03EB4404A0F13003DEB2092EA0F160
:100240006107A0F1410CF0D9052FE7D8A0F15703C1
:100250000A2BEAD00D601460F0BC704700B583B083
:100260000268074B8188CDF8012032221B68ADF867
:1002700005108DF800206846984703B05DF804FB30
:1002800090180020204B2DE9F0415D68064600F1F2
:100290000708002406E01B68394698473C44464559
:1002A000A4B215D016F8017BA7F17D03012B2846D7
:1002B0002B684FF07D01EED81B6898472B6887F0BC
:1002C00020011B6828469847E8E7E3B203EB1424B3
:1002D000FF2CFAD8C4F1FF04E4B2A4F17D03012B92
:1002E0002B6805D9214628461B68BDE8F041184710
:1002F00028461B687D2198472B6884F020012846FA
:100300001B68BDE8F0411847901800200A4AD369DD
:1003100030B41C6855695D6019810025611C196045
:100320009D812070D36951691A685A604FF6F67240
:1003300030BC19609A81704790180020084B242225
:1003400003F12101016010B483F8202002683233E8
:10035000541C5421C0E9004311705DF8044B7047F0
:1003600090180020F8B5CE1E0F4606440239421EF2
:1003700004464FF6FF7312F8015F5B1BB2429BB25B
:10038000F9D1C5194354064E1B0A05F8013C14F86F
:10039000011B706B4FF094FCA542F8D1F8B2F8BD88
:1003A0009018002010B582B00B4660F05F001A0E66
:1003B00008211C14ADF802308DF8010000236846B6
:1003C0008DF804408DF805208DF80010ADF806304A
:1003D000FFF7C8FF02B010BD30B5062283B060F051
:1003E0005F030D460024114668468DF80130ADF8D4
:1003F00002508DF80020ADF80440FFF7B3FF03B0C2
:1004000030BD00BF034A936B43F4060343F47C43BF
:100410009363704790180020284A116821F04043E8
:1004200023F07F03002B0CBF012002204B075368F1
:1004300048BF0430D90744BF0A3080B29A0744BF8E
:10044000143080B2D90544BF283080B25A0744BF67
:10045000643080B2190744BFC83080B29A0644BFE6
:1004600000F5C87080B2D90644BF00F57A7080B23A
:10047000DA040FD500F5FA5080B2990403D500F5DF
:100480001C50103080B29A050AD5A0F5C7404038FC
:1004900080B2704719050AD500F5FA6080B2ECE722
:1004A0005B0503D500F59C40203080B270475A06AA
:1004B00044BF00F57A6080B2DFE700BF00000010A3
:1004C000022805D0A0F10100B0FA80F04009704781
:1004D000054B93F8443023B9044B1868C0F38000EF
:1004E000704710203AF05EBE901800200000001007
:1004F00030B405460C482C6800F123039C424FF0B1
:10050000000205D913F8011BA34282EA0102F9D1C6
:10051000631C2B6022702A6804496A60C06F2960DE
:10052000521A30BC4FF0AABB90180020B01800201F
:10053000014B93F88000704790180020F0B4434DB1
:10054000434BC5F88430C823013885F8883005F15D
:10055000890205F1C3014D2428E0DCB25BB2002B17
:1005600034DB6300DCB25BB2002B36DB6400E3B249
:1005700064B2002C38DB5C00E3B264B2002C3ADBDE
:100580005C00E3B264B2002C3CDB5C00E3B264B21A
:10059000002C3EDB5C00E3B264B2002C4FEA430364
:1005A000B8BF83F0D5038A42DCB238D010F8013FDF
:1005B00002F8013B634013F0800F4FEA4303CCD0B5
:1005C00083F0D50463B2002BE4B2CADA640084F08D
:1005D000D50463B2002BE4B2C8DA630083F0D5031C
:1005E0005CB2002CDBB2C6DA5B0083F0D5035CB2F0
:1005F000002CDBB2C4DA5B0083F0D5035CB2002CC4
:10060000DBB2C2DA5B0083F0D5035CB2002CDBB254
:10061000C0DA5B0083F0D5035CB2DBB2BDE70D4E00
:1006200085F8C340A6F144070FCF0FC60FCF0FC602
:100630000FCF0FC697E80F00402785F8C44086E823
:100640000F0085F80871F0BC704700BF90180020BB
:10065000C83E7BEA5819002038B504460D460A46C4
:100660000068FF2166F0A7FE21682944216038BD9B
:10067000026810B57F21541C0460117002680024C8
:10068000511C01600E211470FFF7E6FF012010BD20
:1006900030B5354C94F80931012B85B001D005B047
:1006A00030BD94F80A01022826D0A0F10100B0FA6A
:1006B00080F0400948B36368002BF0D1D4F80C21D6
:1006C000002AECD094F84C5094F8451092F90400AC
:1006D000002D14BF08220022002908BF42F00102A9
:1006E00003254FF46141CDE9015200911A462021C2
:1006F00030F0C0F86060D2E794F84430FBB91B4B8F
:100700001868C0F380000028D5D16268002AC6D0DE
:10071000D4F81431934217D0D4F820319A421CD027
:10072000D4F82C319A420ED0D4F838319A4216D0EF
:10073000D4F844319A4214D000236360AFE710200C
:100740003AF030FDB6E7022000EB4000002104EB58
:100750008003D162C3E94511EEE70120F4E70320ED
:10076000F2E70420F0E700BF90180020000000101E
:1007700070B51D4E1D4D96F854016322002159F0AD
:1007800031FEB6F8783104461948333B80FB03202C
:10079000DB17C3EB20100922002159F023FEAA68C1
:1007A000C0F10903642000FB0344A4B2910744BFD5
:1007B00004F57A74A4B22B68D20744BF04F5FA6436
:1007C000A4B25B0701D4204670BD15203AF0EAFCC4
:1007D0000028F8D06B6813F4016F04BF04F57A6445
:1007E000A4B2204670BD00BF901800200000001089
:1007F0001F85EB5138B50F4C94F88B1101F03F0178
:100800008B1C024601F10A0584F8893184F886516F
:1008100004F5C27084F8872108312DF07DF8254455
:1008200085F8820194F886311C44000A84F883011B
:1008300038BD00BF9018002070B5214D95F8AC313F
:10084000EA181C4692F8B0218AB11E4E09225C1C9F
:10085000A6FB04135B0803EBC303E31AE918DCB23D
:1008600091F8B01109B1013AF1D185F8AC410268B3
:100870001549561C06600C2616700268561C066048
:10088000002616700268561C066003EB430603EB55
:100890008603147019440D2258F072FD95F8AC11BE
:1008A000084B4A1CA3FB02035B08294403EBC30368
:1008B0000120D31A81F8B00185F8AC3170BD00BFBA
:1008C00090180020398EE3384C1A00202DE9F047AB
:1008D000724C82B0E269D2E900239B1A002B00AF70
:1008E00040F39B80002384F844326D4B236103F175
:1008F0008002A3F11406C4E98D33C4E90526C4E9D6
:10090000F22203F5C075E5610025421800F10109E6
:10091000C4E9029203785909012940F0858003F067
:100920000F0813F0100310D1002D00F0968094F8FA
:10093000D913013101F00F0141457ED01846083727
:1009400084F84432BD46BDE8F087831CA360C31C15
:100950004278D4F810A0A3608078C6F800A00AEB13
:1009600002037360424084F8D823D4E90292002540
:1009700084F844123081B581A2EB0902D5B2A3EB11
:100980000A0A5FFA8AFAEB1D03F4FC73AA45ADEB81
:10099000030D67D252464946684666F0D9FA09EB1C
:1009A0000A03524630466946A36058F0E9FC2369C1
:1009B000306894F8D8238342C6E9003009D0013367
:1009C000336013F8011C984282EA0102F7D184F8DF
:1009D000D823A3681B78934232D12369E169C6E921
:1009E000003063694B600023A0690B818B813A1D45
:1009F00084F844327B603AF09BFF013046D07B683C
:100A00000BB100209847E369626919680120083733
:100A1000C3E90021BD46BDE8F08794F84452002D9B
:100A20003FF463AFA66970E700210846FFF76EFC4C
:100A300001200837BD46BDE8F087D6E900A39BE753
:100A40000023B6F9081084F844320120FFF75EFC59
:100A500001200837BD46BDE8F08728460837BD4667
:100A6000BDE8F0872A464946684666F071FA09EB08
:100A7000050330462A466946A36058F081FC0020F1
:100A8000083784F8D983BD46BDE8F087E26913686A
:100A90000221581C10601970B1E700BF90180020A7
:100AA000D81A00202DE9F04D2D4D2E4EB5F9DA1350
:100AB000B5F8E0C3B5F8DC8386FB0146CC17C4EB80
:100AC000A604A4B2A44582B016461F4603D1B5F8C9
:100AD000E233434533D003680190591C342201604E
:100AE0001A7003680022591C01601A70214658F0E0
:100AF00077FC0198414658F073FC019847F6FF7166
:100B000058F06EFC019847F6FF7158F069FC0198A7
:100B100047F6FF7158F064FC019847F6FF7158F0F2
:100B20005FFC01980221FFF797FD0120C5E9FA67F4
:100B3000A5F8E043A5F8E28302B0BDE8F08DD5E961
:100B4000FA32B6EB030A67EB020B0023064A5B4559
:100B500008BF5245BFD3002002B0BDE8F08D00BFF2
:100B6000901800206766666680841E00604AD3681D
:100B70002DE9F041064613F0800000F09A8090685D
:100B800010F0020000F095805A4F97F85411052993
:100B900040F29380632900F28E800024DFF860C168
:100BA00089B22546ACFB0132D20802EB8203A1EBED
:100BB0004303E0B28E469BB280008340BEF1090F32
:100BC00091B245EA030504F10104EBD8EDB2D7F880
:100BD0006031494A82FB0312D917C1EB623189B2F5
:100BE000002900F082804FF0000CDFF814E1644629
:100BF000AEFB0132D20802EB8203A1EB43035FFAA2
:100C00008CF088469BB280008340B8F1090F91B206
:100C100044EA03040CF1010CEAD8E4B2B7F87031ED
:100C200036494FF4F36213FB02F381FB0312D91729
:100C3000C1EBA21189B242F20F73994240D8C9B1F7
:100C40000027DFF8BCE0BC46AEFB0132D20802EB65
:100C50008203A1EB4303F8B288469BB28000834035
:100C6000B8F1090F91B24CEA030C07F10107EBD878
:100C70001FFA8CF133681722581C30601A703368E1
:100C80000022581C30601A70304658F0A9FB4FF013
:100C9000FF31304658F08CFB33685A1C32601D70AF
:100CA00033685A1C326030461C700621FFF7D4FCB2
:100CB0000120BDE8F081992589E70020BDE8F08199
:100CC0000020DFF83CC00146ACFB0372D20802EB07
:100CD0008207A3EB47039BB283400430102841EA0C
:100CE000030193B2F0D189B2C4E70C4696E700BF86
:100CF000000000109018002089B5F814D34D621040
:100D0000CDCCCCCC2DE9F04FC14AD368804613F04E
:100D1000800083B000F06F81906810F0020000F056
:100D20006A81DFF80CB39BF85431052B40F26881DF
:100D3000DBF85831B74D0093002BB8BF5B42A5FBE1
:100D40000342B548B549920D00FB0233C3EB0313D0
:100D50009B0085FB034502EB8202DC1702EB82025B
:100D6000C4EBA55400FB043304EB8204A4B281FB62
:100D70000321DB17C3EBA111BCB10025A84F2E4600
:100D8000A7FB0432D20802EB8203A4EB4303E8B2D0
:100D9000A4469BB280008340BCF1090F94B246EA9E
:100DA000030605F10105EBD8340489B2B9B1002579
:100DB0009B4F2E46A7FB0132D20802EB8203A1EB28
:100DC0004303E8B28C469BB280008340BCF1090F1C
:100DD00091B246EA030605F10105EBD83443DBF88E
:100DE0005CE18C4D8C4E8D498EEAEE70A0EBEE707E
:100DF000A5FB0032920D06FB0200C0EB0010830041
:100E000085FB035002EB8202DD1702EB8202C5EB89
:100E1000A05506FB053305EB8205ADB281FB03212E
:100E2000DB17C3EBA111C5B10020DFF8F4C1064602
:100E3000ACFB0532D20802EB8203A5EB4303C7B239
:100E4000A9469BB2BF00BB40B9F1090F95B246EA73
:100E5000030600F10100EBD8350489B2C1B10020CE
:100E6000DFF8BCC10646ACFB0132D20802EB8203BC
:100E7000A1EB4303C7B289469BB2BF00BB40B9F1A7
:100E8000090F91B246EA030600F10100EBD83543A1
:100E9000DBF86031624A0193002B1846B8BF584214
:100EA000A2FB00305F4E6049030AA6FB0363DB0927
:100EB00001FB03F1C1EBD00189B2B9B10026914623
:100EC0003746A9FB0132D20802EB8203A1EB4303B0
:100ED000F0B28C469BB280008340BCF1090F91B206
:100EE00047EA030706F10106EBD8B9B2BBF8727105
:100EF000DFB10026DFF828A1B446AAFB0732D208EA
:100F000002EB8203A7EB43035FFA86F938469BB2F4
:100F10004FEA890903FA09F3092897B24CEA030C4E
:100F200006F10106E9D81FFA8CF7BBF878313C4A84
:100F3000A2FB0306F608632E28BF6326092B63D99C
:100F4000002093468146ABFB0632D20802EB8203B7
:100F5000A6EB43035FFA80FAB4469BB24FEA8A0AD3
:100F600003FA0AF3BCF1090F96B249EA030900F14A
:100F70000100E8D85FFA89F9009B019A002BCCBFE9
:100F8000392338231616BEF1000F26F07F0635DD13
:100F9000264A3343964543F00206C8BF43F006068F
:100FA000D8F800301622581CC8F800001A70D8F87B
:100FB00000300022581CC8F800001A70404658F053
:100FC0000FFA2146404658F0F3F92946404658F0BA
:100FD000EFF94046394658F003FAD8F800305A1C69
:100FE000C8F8002083F80090D8F800305A1CC8F8E0
:100FF000002001201E7003B0BDE8F08F1E43CFE734
:10100000002003B0BDE8F08F4FF00009B4E700BF47
:10101000000000106BCA5F6B806967FFD34D6210E0
:10102000CDCCCCCCC55A7C0AA0860100FFC99A3B26
:101030009018002003687E22591C10B501601A70B8
:1010400003680022591C01601A704FF6FF710446B4
:1010500058F0A0F90D4B93F84A3083B129F07AF893
:101060000146204658F096F9204647F6FF7158F0A1
:1010700091F920460821FFF7EFFA012010BD29F071
:101080007FF80146204658F085F9EDE790180020DA
:101090004309012200F01F00023B02FA00F0032B7B
:1010A00007D8DFE803F0020C11070A4B5A6C104313
:1010B00058647047074B5A6B104358637047054B91
:1010C0001A6C104318647047024B1A6B1043186374
:1010D000704700BF00380240054BD3F8EC24B3F84A
:1010E000F03451690B4214BF53831383704700BF20
:1010F0009018002080F00101014850F0E1BB00BFD2
:101100007C1D00200B68144A30B40568CC682A4066
:101110002343D1E9054513432343D1E907242B4356
:1011200013434A6A4D6B234313438C6BCA6A2B43A8
:10113000234343F40033036044690B6B0D6924F0CF
:10114000070413432343D1E90142436145608460AE
:1011500030BCC260704700BF3F801CF030B40368F1
:101160001A6853797BB159B2002920DB174C012052
:10117000651803F01F03490900FA03F3302085F8CE
:10118000000344F8213093797BB15AB2002A15DB71
:101190000E480121841803F01F03520901FA03F3DA
:1011A000302184F8001340F8223030BC70470849E1
:1011B00003F00F03194430230B76E4E7044A03F0ED
:1011C0000F031A443023137630BC704700E100E06F
:1011D000FCEC00E02DE9F047041E0D4612DB092C63
:1011E00026DC824A0B468248A0FB0410C00800EBB4
:1011F0008000A4EB40000021125C1A705970284650
:10120000BDE8F08764422D23092C01F8013B24D866
:10121000764A774BA3FB0403DB0803EB8303A4EBC1
:1012200043030020D35C48700B702846BDE8F0876C
:101230006F4B632CA3FB04264FEAD60621DC6B4AD6
:101240000B466B49A1FB0601C90801EB8101A6EB26
:101250004101515C03F8011BC5E7654A632CA2FB01
:1012600004364FEAD60637D8604A614BA3FB060323
:10127000DB0803EB8303A6EB4303D35C01F8013BDC
:10128000C7E7A3FB0627B4F57A7F4FEAD7070DD24D
:10129000564A0B465649A1FB0701C90801EB8101DB
:1012A000A7EB4101515C03F8011BCAE7A3FB072828
:1012B00042F20F7294424FEAD80836D84B4A0B4696
:1012C0004B49A1FB0801C90801EB8101A8EB4101D1
:1012D000515C03F8011BDDE7A2FB0637B4F57A7F0A
:1012E0004FEAD7070CD2414A414BA3FB0703DB0867
:1012F00003EB8303A7EB4303D35C01F8013BB4E7A3
:10130000A2FB073842F20F739C424FEAD80821D85B
:10131000364A374BA3FB0803DB0803EB8303A8EB38
:101320004303D35C01F8013BDEE7324AA3FB080923
:1013300094424FEAD90921D82C4A0B462C49A1FBEB
:101340000901C90801EB8101A9EB4101515C03F8D6
:10135000011BB5E7274BA2FB08099C424FEAD909BC
:1013600021D8224A224BA3FB0903DB0803EB8303AA
:10137000A9EB4303D35C01F8013BCAE71E4AA3FB78
:10138000090394424FEAD30A21D80B461849174A59
:10139000A1FB0A01C90801EB8101AAEB4101515CE3
:1013A00003F8011BCAE7144BA2FB09029C424FEA57
:1013B000D20A13D80E4B0D4AA3FB0A03DB0803EB3A
:1013C0008303AAEB4303D35C01F8013BCAE70A227B
:1013D000BAFBF2F057F02EFD0346D7E70A22BAFB1C
:1013E000F2F057F027FD0146E4E700BF48FE06088B
:1013F000CDCCCCCC9F8601003F420F002DE9F047B9
:1014000088B0541C03941478002C00F0408100250F
:10141000074688461E46A9460BE0791C02D02146A5
:101420003846C047039A0135531C03931478002CA7
:1014300058D0252CF1D1931CCDE9033950782D28B3
:1014400000F0C8804FF0000A302800F0AB80A0F117
:101450003003DBB2092B4FF0000440F2AF806C2860
:101460004ED0782838D8572840D9A0F15803202BDF
:1014700032D8DFE813F0F4003100310031003100E0
:10148000310031003100310031003100DA0000015B
:101490003100C10031003100310031003100310034
:1014A0003100E3003100310031003100BB00310078
:1014B000210031003100F40056F8040B05A9FEF7B5
:1014C00067FE05ABCDE90043049B42464FF0FF3178
:1014D000384658F03FF80544039A531C0393147898
:1014E000002CA6D1284608B0BDE8F0870028F9D026
:1014F0002528F1D17B1C95D025213846C04791E79E
:10150000039B5A1C0392197878298DD8572967D9DB
:10151000A1F15803202B87D801A050F823F000BF79
:101520004716000829140008291400082914000887
:101530002914000829140008291400082914000897
:101540002914000829140008291400082B16000883
:101550008316000829140008F9150008291400084A
:101560002914000829140008291400082914000867
:1015700029140008291400083F160008291400083F
:10158000291400082914000829140008ED15000882
:1015900029140008B91400082914000829140008A7
:1015A00047160008039B5A1C03921878A0F13003D9
:1015B000DBB2092B4FF001043FF651AF04AA03A997
:1015C000FEF728FEBAF1000F3FF449AF049B5B42DF
:1015D000049344E7D31C039390784FF0010A33E758
:1015E00000293FF47FAF252984D01DE756F8042B4E
:1015F000049BCDE9009268E7073626F00706F6E877
:1016000002015FF093FC00EE100A05A857F0A8FB5A
:1016100005ABCDE900434246049B4FF0FF3138460D
:1016200057F098FF039A0544FEE67A1C3FF4FAAEA1
:1016300056F8041B3846C9B2C047F3E6039A56F879
:10164000043B1D60F0E6A1F15802B2FA82F256F8AE
:10165000040B520905AB102157F048FC31E7A0F10B
:101660005802B2FA82F256F8040B520905AB102167
:1016700057F03CFC25E756F8040B05A957F0F2FBA0
:101680001FE756F8040B05A957F0ECFB19E72546B0
:1016900028E700BF2DE9F04FD0F804C0DCF8103087
:1016A000804663480E4691B017464FEA133E190A2A
:1016B00000256A01013583588EEA133481EA132329
:1016C00004F0030403F00F031C4307D0102DF0D1E6
:1016D0000020C8F80C0011B0BDE8F08F00EB020A42
:1016E000DCF800309AF81C20C8F80CA01AB120468B
:1016F00011B0BDE8F08FB3F844204E4D6FEA42427E
:101700006FEA524292B2A3F844201A8892B242F091
:1017100080021A809CF805101A8C695C4FF0010950
:1017200009FA01F189B292B222EA01021A841A8CF2
:1017300092B2114319841A8892B242EA09021A80BD
:1017400050465DF0CBFBD8F80CB00A23AAF81C3049
:1017500058465DF0C3FB9BF91430374ACBF818802C
:10176000002BCBF80C205CDB344903F01F02C818B7
:101770005B094FF0300C09FA02F280F800C341F81F
:101780002320D8F80C3098685DF012FBD8F80C30A4
:101790009868036823F0010303605DF009FB0023F0
:1017A000CDE90C33CDE90E33D8F8042006930A9323
:1017B0005379032B05D8DFE803F0312E2B02146890
:1017C0004034127CD8F80C30029405EB82059868FE
:1017D0006B6801934FF4806140224FF4003307910E
:1017E0004FF480454FF4805401A904920B93CDE946
:1017F000084505970396FFF785FCD8F80C309A68E2
:101800001368012043F01003136011B0BDE8F08F9E
:1018100014683C34D5E714683834D2E7146834349B
:10182000CFE7074A03F00F031A4430231376A8E7E3
:1018300000000020EC74060835D2050800E100E045
:10184000FCEC00E0F8B5B44CB44DB54BC4F8F4561C
:101850000225B44AB44FB54EB54984F8F8564FF056
:10186000A045C4F8FC56C4F8483705F51465A3F53F
:10187000DC63C4F80027C4F8087702F550726037BB
:10188000C4F84467C4F80C176036A1F5A461C4F825
:101890001057C4F8BC37A5F5886503F5B073C4F8D4
:1018A0004C27C4F81477A2F5C462A7F58467C4F87E
:1018B0005067C4F80417A6F5C06601F5C071C4F8F6
:1018C0008057C4F89437C0359A4B9B48C4F8842796
:1018D000C4F88877C03207F52C67C4F88C67C4F861
:1018E000901706F5D55601F52A51C4F898574FF0D0
:1018F0005025C4F8F006C4F89C2700208F4AC4F88D
:10190000C077C4F8C467C4F8C81706F5C0460121FB
:10191000C4F8CC37C4F8D057A3F5485307F5C047EF
:1019200004F5DE65C4F8D427C4F8DC670246C4F8C1
:10193000D8770E4684F8FB16C4F8FC3784F80218F2
:1019400084F8040801462B46402083F81C21A3F8A4
:1019500022210132042AC3E9490183F81D6183F879
:101960001F11C3F8301103F12803EED100221146F4
:101970002B46402083F87423A3F87A230132042AEB
:10198000C3E9DF0183F8751383F87713C3F888136D
:1019900003F12803EED14FF0A04369489A6822F082
:1019A00001029A60DA6842F04002DA605CF0F4F911
:1019B00094F8F9360022212161F317420BB142F469
:1019C000801294F8F316D4F8FC3601299A6307D1F3
:1019D0009A6822F03E0141F02A0161F307029A6001
:1019E000DA68D4F8FC67D4F80007C2F3076121F085
:1019F000600141F0400161F31F620021DA60316053
:101A0000026861F3CC22026094F8FB26012A10D10F
:101A100001684C4A4C4E41F003010160802159623B
:101A20009E62C3F804214FF4A072C3F80821C3F8E2
:101A30000C21102145485CF001FD44485CF0E4FCB9
:101A4000D4F8006794F8F13600204FF0FF3230618F
:101A50007061B261F06143B305F114073C4A07EBD2
:101A600083074FEA830E4FF0FF0C52F8043F1968CA
:101A70000029ACBF00214FF09041BA4219601861B3
:101A8000C3F808C0F1D15035324A75440027FF2011
:101A900052F8043F19680029ACBF00214FF0904173
:101AA000954219601F619860F2D1336994F8F3167A
:101AB00043F48073012933611ED0D4F8FC262648F4
:101AC00000294FF000036FF080414FF0FF34936125
:101AD000516108BF102354605161906143F4701349
:101AE000916943F4605343F008030B439361936897
:101AF00043F001039360F8BDD4F8FC26174B336321
:101B00006FF08041144800234FF0FF34936151611E
:101B1000546051619061E1E790180020400040015D
:101B2000200B00500008005000090050000B00502E
:101B300020090050004000500804010000600050DF
:101B40008C1F0020C000800080004000801F00200B
:101B5000941F0020D01F0020000800800301810096
:101B600030B51F4B5021082283B083F84313C3F8CC
:101B70008820BFF34F8FBFF36F8F1A4D1A4C2B6B1A
:101B800043F001034FF4C0522B63694640F2023325
:101B90002046CDE900235DF0BBF8636A23F470436F
:101BA0006362636A43F420436362636A23F47023CD
:101BB0006362636A43F42023636235204EF0A0F829
:101BC00000214EF007F96B6C084A43F480436B64C4
:101BD0006B6B012143F080036B63516103B030BD37
:101BE00000E100E00038024000000240003C0140FB
:101BF00010B5802104465BF057FE204600215BF0C3
:101C000053FE2046BDE810405CF0ECB830B50B4DFB
:101C100083B008240123D5F8380D00220DF1070107
:101C20004FF088FA9DF80730FF2B04D0013CF1D12A
:101C3000204603B030BD012003B030BD9018002015
:101C400070B4C3080D4CE25C00F00706B24004EB30
:101C5000D004D2B20020C6F108038B4228BF0B4645
:101C6000C3F108052A419840C91A40EA02004FF022
:101C7000000614F8012FEED170BC7047B425002087
:101C800070B5114E3378022B104B0D4607BFC4B20E
:101C9000010AC0F3D41100F07F04186882B0084430
:101CA0000023012201A959F027FD01280AD1337828
:101CB000022B019B16BF53F8243033F8143023F065
:101CC00070432B6002B070BDCC5B0020CC6D002057
:101CD00010B4D0E9011390F91A208B4238BF0B469B
:101CE000511C83600AD0184B02F5817203EB02127B
:101CF000FF21D3796FF30003D371817690F91B3004
:101D00005A1C16D0104903F5817201EB021301EB46
:101D10000212DB79D179C3F34503012B86BF03F1AE
:101D2000FF3303F03F030023FF2463F34601D17127
:101D3000C4760022436A5DF8044B4261426011465A
:101D4000036159F0BFBC00BFCC5B00202DE9F0411E
:101D5000804684B00846164657F04CFA4FF47A7223
:101D6000002304460D465FF03FFAB6F900C007466F
:101D7000294620464FF47A723C2400230CFB04775A
:101D80005FF032FA002594B24FF47A73C3FB074533
:101D90002B46224601A857F079F9404B93F83E3D77
:101DA000012B2FD0022B10D19DF80670FB1E082BA3
:101DB0000BD83B1F062B1BD9BDF80400394657F042
:101DC000FBF8032F36D00B2F41D022462B4640463E
:101DD00057F05CF904B0BDE8F081032F55D00A2F0D
:101DE000F3D19DF80870B7FA87F77F09002FECD080
:101DF00033882B4A3C33A4184FF00002338042EB67
:101E00000505E2E79DF80670FB1E072BDDD83B1F9A
:101E1000052BEDD9BDF80400394657F0CDF89DF8F3
:101E200007309842D9D0033F18BF0127002FDFD1D8
:101E3000CBE707380E28FCDC9DF80730834212D030
:101E4000CCBF01270027002FD2D1BEE707380728D3
:101E5000FCDC9DF8073083420ED0B4BF0127002779
:101E6000002FC5D1B1E79DF80870012F94BF00275E
:101E70000127002FBCD1A8E79DF80870012F8CBF67
:101E800000270127002FB3D19FE79DF80870003F7E
:101E900018BF0127002FABD197E700BF9018002093
:101EA00080EE36002DE9F041B24C94F8533DC4F871
:101EB000400D82B088465A2B00F2B980DFE813F05B
:101EC000CC00B700B700DC00B700B700B700B70020
:101ED000B700B700B700B700B700B700B700B7004A
:101EE000B700B7001D01B700B700B700B700B700D3
:101EF000B700B70041017400B700B7007400B70025
:101F0000B700B700B700BA01B7006401B700B70067
:101F10007C00B700FE01B700B700B700B7005B0058
:101F2000B700B700B700B700B700B700B700B700F9
:101F3000B700B700B700B700B700B700B700B700E9
:101F4000B700B700B700B700B700B700B700B700D9
:101F5000B700B700B700B700B700B700B700B700C9
:101F6000B700B700B700B700B700B700B700B700B9
:101F7000B700B700E60194F8543D9B0700F150828A
:101F8000B4F85A3DD4F8552DD4F8941D5BBA9BB2E1
:101F900012BAD0188842C4F8A03DC4F89C2D03D9C9
:101FA00059F088F8002854DB0020A4F88C0D054671
:101FB000284602B0BDE8F08194F8983D002B40F02F
:101FC000018194F9503D002B31DAD4F8883D084660
:101FD0009B689847002840F00782B4F85A0DD4F85F
:101FE000552DD4F8943D40BA80B212BA15189D42CE
:101FF000C4F8A00DC4F89C2D07D959F05BF800284F
:1020000027DBD4F89C2DD4F8A00DD4F8903DD4F85B
:102010004C6D00FB03F002FB03F20225B042C4F852
:102020009C2DC4F8A00D84F8985D00F0D18094F840
:10203000643D5A1CD2B204EBC30305204FF4005197
:10204000042A84F8642D83F8680DC3F86C1D00F031
:1020500095814FF0FF35ABE7D4F84C3D002BE6D12E
:10206000D4F8883D08469B6898470546002840F00C
:10207000BB81A4F88C0D9BE73F4B002203F11201BA
:1020800003F8012F8B42FBD13C4994F88E3D94F824
:10209000640D70250D7098424FF00C05CD7110D075
:1020A00004EBC300013390F8685D8D70B0F86C0DDF
:1020B000DBB2042B40BA888114BF84F88E3D84F8CB
:1020C0008E2D94F8573D12229342A4F88C2D0FD8F0
:1020D000A4F88C3D00256BE7B5F5805F28BF4FF471
:1020E0008055D4F8400D254AABB201215BF0D0FCFD
:1020F0000025284602B0BDE8F08194F8543DDA0787
:1021000000F12581D4F8883D94F8570DDA6901EB88
:10211000C10102EB81010A79531D834228BF0346A6
:10212000A4F88C3D002BE3D0013B14489BB2013353
:102130001944034411F8012D03F8012D8342F9D10C
:10214000D6E70F480F4E014608230738C1F10705AF
:10215000A4F88C3D002202E092F82C2019460B4690
:10216000814203F8012905EB030216FA82F2F3D14A
:10217000BEE700BF90180020CB4B0020CC4B0020C6
:10218000D34B0020EC740608D4F8883DBB4A5B684A
:102190000846111D98470546002840F02581D4F8CF
:1021A000943DB74AD4F8901D013B180E1070180CDE
:1021B00009BAD37050701B0A082093705160A4F8BC
:1021C0008C0DF5E6D4F8A06DD4F89C2DD4F8903D94
:1021D000D4F8885DB2FBF3F24FF48057BE4228BFBB
:1021E0003E462D69A649A4F88C7D4046B6FBF3F324
:1021F0009BB2A8470028C0F2AF803346A04AD4F86B
:10220000400D81215BF084FBD4F89C2DD4F8A00D07
:10221000D4F8AC3D3244851B9E1BC4F89C2DC4F8F9
:10222000A05DC4F8AC6D002D7FF462AF032384F889
:10223000983DBDE6924F00263B4607F10C0203F89D
:10224000016B9A42FBD1D4F8883D40465B686A46F0
:1022500001A998470546002840F0D080019BBDF8B1
:102260000020013B190E52BAFB713971190C1B0A7F
:1022700079710820BB7102217A810C23BDF80220FC
:10228000F87039727A72A4F88C3D91E67D487E4EE2
:10229000014608230738C1F10705A4F88C3D002248
:1022A00002E092F8342019460B46884203F80129CF
:1022B00005EB030216FA82F2F3D119E794F8983D80
:1022C000002B61D194F9503D002BFFF6B0AED4F84D
:1022D000883D08469B689847002840F08580D4F8E0
:1022E000883D4046DB6898470546002840F0AC80B2
:1022F000B4F85A3DD4F8552DD4F8940D5BBA99B280
:1023000012BA53188342C4F8A01DC4F89C2D00F2E1
:102310009180D4F8903DD4F84C0D03FB02F203FBFE
:1023200001F38342C4F89C2DC4F8A03D7FF47FAE36
:10233000B3F5805F28BF4FF480530121D4F8400DDE
:102340004F4A84F8981D9BB25BF0A2FB30E607234E
:102350004E49A4F88C3DE7E694F8643D5A1CD2B28D
:1023600004EBC30304204FF48851824284F8642DA7
:1023700083F8680DC3F86C1D7FF46BAE002384F8FE
:10238000643D4FF0FF3513E6D4F8A06DD4F8880D06
:10239000D4F8903DD4F89C2D4569B2FBF3F2B6F524
:1023A000805F28BF4FF480560846B6FBF3F33449EC
:1023B0009BB2A847002856DBD4F89C2DD4F8A05D2A
:1023C000D4F8AC3D3244AD1B9B1BC4F89C2DC4F823
:1023D000A05DC4F8AC3D002D7FF47EAED4F8400D76
:1023E000294658F081FEE3E594F8643D5A1CD2B2C8
:1023F00004EBC30302204FF4685121E694F8643DD6
:1024000004EBC3020133DBB202204FF46851042B0A
:1024100082F8680DC2F86C1D20D084F8643D18E67F
:1024200094F8643D5A1CD2B204EBC30305204FF468
:10243000105105E658F03EFE0028FFF60AAED4F82B
:102440009C2DD4F8A01D64E794F8643D5A1CD2B2C8
:1024500004EBC30302204FF41C51F1E584F8646DD2
:102460004FF0FF35A4E594F8643D5A1CD2B204EB5A
:10247000C30304204FF4407177E700BF20260020FB
:10248000CC4B0020D34B0020EC74060810750608D6
:1024900070B50020FEF72EFE0D4B0E4D01244FF4BB
:1024A0000676184601211BB1DE801C724DF092FCAD
:1024B000032C08D055F82430012101341846002B94
:1024C000F2D1032CF6D1BDE870400020FEF712BE19
:1024D0007C1D0020287506082DE9F04F2DED108B8E
:1024E000034693B004331193DFEDC1AA1090022389
:1024F0000F928B460E938946109C4FEADB0504EB46
:10250000451202EB0511A5EB85034FEAC5084FEA1A
:10251000051E05EB850A009101EBC30308F10400D9
:102520000EF104012E46204405EB450521444FEAF7
:10253000CA040D9602942C01C6EBC60C0394EC0061
:102540000D9D04944FEACC0405946C010194119DF7
:10255000009C03EB46174FEACB0A02EBC6064FF08E
:10256000000C55ED011A11ED012AD6ED005AD7EDF8
:10257000004A92ED003AD4ED003A10ED015A93ED85
:10258000004A72EE238A34EE248A71EE836A35EEB5
:10259000257A36EEA86A77EE087A35EE655A76EE39
:1025A000275A36EE676A45ED015A82ED006A90EDD2
:1025B00000AAD6ED012A93ED016AD7ED019A94EDB8
:1025C000010AD1ED005AD5ED007A92ED019A34EE70
:1025D000644A76EE690A7AEE624A35EEC01A31EE46
:1025E000C33A72EE633A34EEA02A77EEC91A74EE5B
:1025F000E04A75EE805A75EE440AB0EE410A35EEB7
:10260000045AA2EE2A0ADC44E145A2EE6A1AB0EEB0
:10261000434AB0EE432AA0EEAA2AA0EEEA4AB0EE60
:10262000613AF0EE610AE4EEAA0AA4EEEA3AF0EEAC
:10263000634AE5EE6A3AE5EE2A4A7AEE222A36EE57
:10264000296A77EE897A72EE861A37EE487A32EE88
:10265000C66A76EEE86AB0EE635A77EEA53A77EE90
:10266000E57A73EEA18A36EE868A73EEE13A76EE6B
:10267000C66A77EEC71A72EE002A77EE277A74EEF2
:10268000015A30EEE46A33EE457A32EE402A34EEF7
:10269000414A74EEA04A35EE035AC5ED008AC2EDF8
:1026A000013A554401ED018A5244C4ED006AC1ED7E
:1026B000001AC4ED017A514440ED012A544487EDDB
:1026C000002AC6ED005A83ED004A80ED006AC7ED8E
:1026D000014A504486ED017A574483ED015A56442D
:1026E00053443FF63EAF0D9B072B40F2A381019868
:1026F000109D059B049A0399029C08302818083302
:102700000A902846C318083282180593034608F138
:1027100008080EF10C0E0C330834083106920246FC
:10272000454472440419411804934B460995D14617
:102730000894079103924FF001084FF0000E9A465B
:102740000E9B9E440F9B03EBCE0303EBCE0202EBEA
:10275000CE0000EBCE0404EBCE0505EBCE060C93C9
:1027600006EBCE07AEEB8E030B9207EB031202EBE8
:10277000CE0C0CEBCE03029203EBCE020193134678
:10278000D3ED01DA019BD0ED007A93ED01DA029BE3
:10279000CDED027A93ED01CA0B9BDCED01CAD3EDBE
:1027A000007A0C9BCDED017A02EBCE0202EBCE015A
:1027B000009201EBCE02D3ED007A92ED01FA009A7D
:1027C000D1ED01EA92ED01EAD7ED00BA96ED00BA3B
:1027D00095ED00AAD4ED009ACDED007ADDE90376FF
:1027E000DDE90554DDE90701DDE90923C44601E01F
:1027F000F304353F91ED006A56ED01FAD0ED002A61
:10280000D4ED005AD5ED006A93ED007A57ED017AC8
:1028100092ED002A96ED008A7FEE870A32EE061AC4
:1028200037EEA24A75EEA64A70EE841A31EE245AAB
:1028300032EE462A31EE856A75EEE65A06ED016AF9
:10284000D4ED018A92ED019A91ED013A95ED016A7C
:1028500097ED000AD0ED016AD3ED013A3FEEC77A59
:1028600077EEE27A78EEC6FA79EE432A39EE033A49
:1028700030EE669A38EE866A70EE266A78EE638AE3
:1028800032EEEF0A72EEAF2A78EE233A30EEC44A07
:1028900032EE258AF0EE490A72EE655AE2EEAA0A95
:1028A000DC44E245A2EEEA9AB0EE682AF0EE472A4E
:1028B000E5EEAA2AA5EEEA7AA0EE2A2A73EE065AD7
:1028C000E0EE6A8AF0EE67FA33EEA60AE8EE6A7A7C
:1028D00071EE644A31EEC55A33EE463A70EE651A2F
:1028E00073EEE63A34EE036A72EEA06A34EE434ABF
:1028F00072EEE00A33EEE43AE8EE2AFA74EEA33A16
:1029000065EE6D2A77EE094A37EE499A38EEE77A96
:1029100077EEA88A6DEEA17A9DED018AE9EE857ABF
:10292000E9EEA12A26EE6C5A6CEE831A32EE6F1A8B
:10293000A8EE035AE8EE061A2EEEA33A24EE6E6ACB
:102940009DED008A3FEE822AABEE043AABEE236A9D
:102950002CEE014A66EECC3AA8EE264AE8EE013AA1
:102960006FEE026A20EECF1AEBEEA06AABEE821A8F
:1029700064EECE0A2EEE072A9DED028AEAEE070AE1
:10298000AAEE242A2DEE287A69EE4D4AA8EE097A9D
:10299000E8EE284A70EE255AC6ED005AC3ED007ADB
:1029A000C3ED012A4E4447ED011A87ED005A4B440E
:1029B00080ED003A80ED016A4F4482ED004AC2ED9D
:1029C000013A4844C5ED006A85ED011A4A4481ED9B
:1029D000002A4D44C1ED010A84ED007AC4ED014A9C
:1029E00049444C443FF606AF0A9B08330A93099BBF
:1029F00008330993089B08330893079B0833079310
:102A0000069B08330693059B08330593049B083304
:102A10000493039B083303930D9B08F1010843457E
:102A20007FF48EAE0E9BDDF834B0DB009BB2D14656
:102A30000E9361E513B0BDEC108BBDE8F08F00BFC5
:102A40000023034A426003608360C360704700BF95
:102A500083F9223E10B40549054A064B4160002423
:102A6000046082605DF8044BC36070475B128B3A70
:102A70006F12033B8943273F804BB3FBF2F399422C
:102A80000DD300234FF07E5243608360C360036127
:102A900002600023836143610362C361704707EEF4
:102AA000902A9FED777AF8EE676A07EE901A66EE45
:102AB000876AF8EE677A66EEA76AFDEEE67A17EEA9
:102AC000903A2033402B00F2CA80DFED6E7AF4EEAC
:102AD000E76AF1EE10FAF0EE667A0CDDDFED6A5A85
:102AE0009FED6A6AB0EE677AB4EEC67AF1EE10FA3C
:102AF00077EEE57AF6DC9FED667AF4EEC77AF1EED2
:102B000010FA0CD5DFED605A9FED626AB0EE677A7D
:102B1000B4EEC67AF1EE10FA77EEA57AF6D49FED10
:102B20005E7AF4EEC77AF1EE10FA00F390809FED32
:102B30005B7AF4EEC77AF1EE10FA44BF9FED547A57
:102B400077EE677A27EEA76ADFED554A9FED557A53
:102B50009FED555ADFED555AA6EE247A67EE864A68
:102B6000A6EE075AB6EE007AE6EE055AE4EEA57A2E
:102B700027EE877A9FED486A76EE867AFDEEE75A71
:102B800015EE903A2033402B66D8F4EEC66AF1EE8B
:102B900010FA0CDDDFED3C5A9FED3C6AF0EE676AFF
:102BA000F4EEC66AF1EE10FA77EEE57AF6DCDFEDC8
:102BB000386AF4EEE67AF1EE10FA0CD5DFED325A0F
:102BC0009FED346AF0EE676AF4EEC66AF1EE10FA31
:102BD00077EEA57AF6D4DFED306AF4EEE67AF1EE20
:102BE00010FA3FDDDFED276A76EEE77A67EEA76A37
:102BF000DFED2B4A9FED2B5ADFED2B5A9FED2B6A11
:102C0000A6EEA45A67EEA64AE6EE855AB8EE005A3A
:102C1000A6EEA56AE4EE867A67EE857AC7EE006ACC
:102C2000B7EE006A76EE865A76EE666A86EE257A0A
:102C300067EE277A66EE876AC0ED017AC0ED037A07
:102C400080ED007A80ED027AC0ED046A21E79FED05
:102C50000D7A77EE677A75E7DFED157ADEE79FED9F
:102C6000147A87E7DFED0D6AF4EEE67AF1EE10FAFA
:102C700044BFDFED076A76EEE77AB7E720A10700E9
:102C800027D4D236DB0F4940DB0FC940E4CB1641D5
:102C9000DB0F49C0E4CB16C1DB0FC93FDB0FC9BF57
:102CA0009A7C2E36FAAF4FB93587083CA4AA2ABEC3
:102CB00000000000034B6428B8BF6420C3F8FC0583
:102CC000704700BF00000020034B64281B69B8BF99
:102CD0006420D860704700BF000000102DE9F04765
:102CE00090B0DDE918480E460746914601A83C22FF
:102CF00000219A461A9D64F05EFB2E4B8DF804600D
:102D0000CDF834800293002E50D0B31E012B4FD942
:102D1000042E14BF00230323DFF89C808DF80530B8
:102D2000D8F8F43D03941C440123CDE905570494DD
:102D30008DF83130B9F1000F06D05246494607A848
:102D400064F006F98DF830A098F8FAED0023BEF192
:102D5000010F0E931CD801AC0FCC98F8F9CDCCEB39
:102D60000C1508EB850505F6FC550FC50FCC0FC5F6
:102D70000FCC0FC594E80700BCFA8CFC0EF1010ED5
:102D80004FEA5C1C85E8070088F8FAED88F8F9CD71
:102D90003B6843B153464A463146384610B0BDE819
:102DA000F0472CF015BF10B0BDE8F0870523B3E75E
:102DB0000223B1E74426002090180020F0B4264BEF
:102DC00041F2CC1482B01C5D3CB900230360436027
:102DD0008360204602B0F0BC704741F2D81541F242
:102DE000D4165F594D689E5901950D689FED1B6A79
:102DF000AE1B019DED1B07EE905A03F67865D5EDED
:102E0000D66A07EE106A66EE866AB8EEC77AF8EE02
:102E1000E77A27EE067A67EEA67A012A80ED007A35
:102E2000C0ED017A0ED041F2DC158A685B59D21AE6
:102E300007EE902AF8EEE77AC0ED027A204602B05B
:102E4000F0BC7047D1ED027AF8EEE77AC0ED027A75
:102E5000204602B0F0BC7047901800202C7D8E3FB9
:102E600070B541F2CC13204EF35C2DED028B04467D
:102E70000D4693B341F2D81141F2DC1241F2D41362
:102E80007158B258F3580360C0E9011206F678632E
:102E900093EDD68ADFED158A95ED000A80EE280ABB
:102EA00060F0A8FF23681844206028EE288A95ED7A
:102EB000010A80EE080A60F09DFF636818446060B4
:102EC00095ED020A60F096FFBDEC028BA36841F21B
:102ED000CC121844A060B05C70BDC0E900338360C0
:102EE000B7EE008AD6E700BF901800202C7D8E3FF9
:102EF00000230360704700BF0023094980ED010AE9
:102F00000122816202708360C36043610361836355
:102F10004363C363C36203630364836143647047B1
:102F20000000204130B4174B1749C3F83C1703F594
:102F3000EB6500211224154A154883F8204783F8D1
:102F40001C1742F6F82403F5E461C3F84C5700253A
:102F5000C1E90245C3F8400730BC0120C3F8582737
:102F6000C3F85C27C3F86027C3F86427C3F8682751
:102F7000C3F86C27C3F87027C3F87427C3F8782701
:102F8000704700BF8829002075560208E003E0035F
:102F900081560208074B0849D3F84C27C3F83C1761
:102FA000931E4FF47871223223F8021F9342FBD113
:102FB000704700BF882900205D52020870B5244E7A
:102FC000244BC6F83C3711244FF4787506F5F063AE
:102FD0004FF4787086F820474FF47874C3E90045C1
:102FE000C3E90245C3E90445C3E90645C3E9084509
:102FF000C3E90A45C3E90C45C3E90E451649C6F8BD
:10300000C00784B006F5E46241F60B240025402099
:10301000C2E90245C6F840172DF020FEB0B196F87F
:10302000CB370E4A90F904000092012B0CBF082206
:1030300000220323CDE901324021094A00232DF06B
:1030400019FCC6F8E407003818BF012004B070BDB1
:1030500088290020995C0208915D0208A06806009A
:10306000F569020870B40D4B0D4CA34203D311E077
:103070000C33A3420ED25A798242F9D1DA798A42CC
:10308000F6D11A681E791579AE42F1D115689D42C4
:10309000EED100E00022104670BC7047CC680708F3
:1030A000586A0708642828BF64201C4B00EB800086
:1030B00070B54500A3FB05235E095B0918BF00241A
:1030C00022D001349F204EF065FCE3B29E42F8D836
:1030D0000A2E00D170BD1248A0FB05300009C6EBD6
:1030E0008613C6EB830366381844C0B24EF052FC18
:1030F000092E06F10104EDD001349A20E4B24EF01D
:1031000049FC0A2CF8D170BD0548A0FB0530000928
:103110006638C0B24EF03EFC0124EDE71F85EB514E
:10312000CDCCCCCC2DE9F041254D0027C5F8E87772
:10313000002842D04FF0007104465CF0F9FA0646D0
:1031400000283AD05CF052FB8046002835D040F68B
:10315000C41305F2EC722046A5F84838C5F8E827F4
:103160004CF0CEFD327A02214CF0F0FDD5F8E84764
:10317000144AB5F84858C4F80080B2FBF5F540464B
:10318000A9B25CF075FA2068C5F34F015CF0BAF89B
:10319000206843681A68B2F844306FEA43436FEA24
:1031A00053439BB2A2F8443013889BB243F001030F
:1031B00013805CF091F8A0600760BDE8F08100BF6B
:1031C0008829002040420F00F0B41A4F97F84C387D
:1031D000042B2DD80C2202FB037202F6540252F883
:1031E000041C0133CC07DBB20ED501420CD092F99E
:1031F0000060114C002194F90050B54204F10C0418
:103200000BD001310529F6D1052B02F10C02E6D1D4
:1032100087F84C380020F0BC7047084A87F84C38D3
:1032200001EB410102EB8101F0BCD1F814017047C0
:103230000020F0E788290020A01900209018002025
:103240000144884218D030B4441E4D1E002041F283
:10325000210114F8012F082380EA022010F4004F06
:1032600081EA40020ABF400090B280B2013BF5D132
:10327000AC42EED130BC704700207047D0ED017AEF
:10328000F5EE407AF1EE10FA05D19FED0C7AF0EEF2
:10329000477A80ED017A30EEA77AD0ED007AC0ED62
:1032A000020AC0EE876A30EE670AC0ED036AE6EEF6
:1032B000807AB0EE670AC0ED007A704783F9223E4B
:1032C000BCEEC00A7F4AB2FBF1F210EE103A9BB29C
:1032D000934208D300234FF07E5243608360C36063
:1032E00003610260704707EE901A9FED777AF8EE5F
:1032F000676A07EE903A66EE876AF8EE677A66EEDE
:10330000A76AFDEEE67A17EE903A2033402B00F2E2
:10331000CA80DFED6E7AF4EEE76AF1EE10FAF0EEB5
:10332000667A0CDDDFED6A5A9FED6A6AB0EE677A65
:10333000B4EEC67AF1EE10FA77EEE57AF6DC9FEDA0
:10334000667AF4EEC77AF1EE10FA0CD5DFED605A2A
:103350009FED626AB0EE677AB4EEC67AF1EE10FACB
:1033600077EEA57AF6D49FED5E7AF4EEC77AF1EEA9
:1033700010FA00F390809FED5B7AF4EEC77AF1EEDD
:1033800010FA44BF9FED547A77EE677A27EEA76A6A
:10339000DFED554A9FED557A9FED555ADFED555AB1
:1033A000A6EE247A67EE864AA6EE075AB6EE007AB3
:1033B000E6EE055AE4EEA57A27EE877A9FED486A95
:1033C00076EE867AFDEEE75A15EE903A2033402BE2
:1033D00066D8F4EEC66AF1EE10FA0CDDDFED3C5A69
:1033E0009FED3C6AF0EE676AF4EEC66AF1EE10FA01
:1033F00077EEE57AF6DCDFED386AF4EEE67AF1EEA8
:1034000010FA0CD5DFED325A9FED346AF0EE676AA0
:10341000F4EEC66AF1EE10FA77EEA57AF6D4DFED97
:10342000306AF4EEE67AF1EE10FA3FDDDFED276A5E
:1034300076EEE77A67EEA76ADFED2B4A9FED2B5A0F
:10344000DFED2B5A9FED2B6AA6EEA45A67EEA64A33
:10345000E6EE855AB8EE005AA6EEA56AE4EE867A44
:1034600067EE857AC7EE206AB7EE006A76EE865A76
:1034700076EE666A86EE257A67EE277A66EE876ACA
:10348000C0ED017AC0ED037A80ED007A80ED027A1A
:10349000C0ED046A70479FED0D7A77EE677A75E7A5
:1034A000DFED157ADEE79FED147A87E7DFED0D6A31
:1034B000F4EEE67AF1EE10FA44BFDFED076A76EE3D
:1034C000E77AB7E720A1070027D4D236DB0F4940BF
:1034D000DB0FC940E4CB1641DB0F49C0E4CB16C17A
:1034E000DB0FC93FDB0FC9BF9A7C2E36FAAF4FB94D
:1034F0003587083CA4AA2ABE00000000D0ED015A7E
:10350000037830EE605AF0EE407A65EE255A002BD3
:1035100047D190ED0C7A37EE607AD0ED0A4AC0EDD3
:103520000C0AF5EEC04AF1EE10FAC7EE016A3DDC76
:1035300090ED037A26EE877A90ED056AD0ED0B6A5E
:1035400027EE866A67EE222A76EE267A77EEA57A4D
:1035500077EEA27AF4EEE17AF1EE10FA48D4F4EEC6
:10356000C27AF1EE10FA8CBFB0EE420AB0EE670AF2
:1035700070EE677AD0ED044A90ED027AC0ED0D6AE4
:1035800067EEA47AC0ED0E5AE5EE077AC0ED0F2A79
:10359000E1EE276A80ED106A80ED110AC0ED0B6A3A
:1035A000704700239FED147A0370B6E790ED076A29
:1035B00090ED034AB5EE406AF1EE10FA05D19FEDA9
:1035C0000F7A87EE246A80ED076A31EE066A90ED85
:1035D000067A80ED081AC1EE064A76EEC76AC0ED9B
:1035E000094AA4EEA67A80ED067A24EE077AA3E7CC
:1035F000B0EE610ABCE700BF0000000083F9223E84
:1036000070B4344890F89038A3F13001092957D8A4
:1036100000F50964224600F69F0012F8015FA5F14B
:103620003001092904D88242F7D1002070BC7047CC
:10363000141B022C4ADD2848002101E010F8013B50
:1036400001EB810103EB4103161A303B022E0446C5
:1036500003F0FF01F2DC214B03FB01F1A2424FF02A
:1036600000030DD903EB830314F8016B5B00303BBF
:103670003344A24203F0FF03F4D1194800FB03F3E3
:103680002E2D06D01748A0FB032301EB930070BC3E
:103690007047013204200024157804EB8404303D87
:1036A0006400092D00F1FF30A4B202D82C44A4B26A
:1036B000013210F0FF00EFD1642202FB0433E1E796
:1036C00000211D4600F509620B46D9E7064C002192
:1036D000C4E700BF88290020193200208096980096
:1036E00040420F00ABAAAAAA1832002080EAE07379
:1036F000A3EBE0738B420ADB00280ADD431A4FF488
:10370000FA72501A02FB03F393FBF0F070470020AB
:103710007047FDD000F5FA734FF4FA70411A00FBC0
:1037200003F090FBF1F0A0F5FA7070479B1A00FBD4
:1037300003F090FBF1F01044704700BF71EEC11A26
:1037400061EE801A81EEA00A30EE010A704700BFD8
:10375000084B03F50A600DC8824202DB114602469F
:103760000846984204DD9A42B8BF1A461046704790
:10377000704700BF8829002030B4144AD2F8AC0842
:10378000D2F8B038D2F8B448D2F8B818D2F8BC2879
:10379000834202DB1D46034628468A4202DB154669
:1037A0000A4629468842A8BF08469342B8BF134636
:1037B000A04202DC224604461046834203DAA342BA
:1037C000B8BF2346184630BC704700BF8829002088
:1037D0000B6810B414681B1B036054684B681B1BF8
:1037E00043608B6892685DF8044B9B1A8360704756
:1037F0002DE9F041274B86B09C1D1E4603F1600861
:103800001F464FF0000C94F800E0A0EB0E05A0EB73
:103810000C02002DB8BF6D42002AB8BF524295423B
:10382000B8BF274604F10604B8BF4FFA8EFCA04586
:10383000E9D17C8803F15A0E002204E02546B64502
:1038400016D016F8062F6245F8D1B6F80280A1EB23
:1038500008020B1B002AB8BF5242002BB8BF5B42C4
:1038600093422546EBDDB645444645463746E8D10A
:103870007E793C7902953A78019200910346CDE930
:103880000346054A0321012056F08CFF384606B056
:10389000BDE8F0813475060870FE0608074BD3F8C2
:1038A000C828D3F8C018D3F8C408C3F8C0085242D7
:1038B000C3F8C418C3F8C828704700BF882900207F
:1038C00030B50468E46985B02CB10DF10F050095A1
:1038D000A04705B030BD204605B030BD38B50A4C14
:1038E0000A4D2321D5F8CC0854F00AFE14F8011F24
:1038F0000029F7D106484CF025F895F8D03813B1D7
:10390000012385F8D13838BDACFE0608882900208F
:10391000B8FE06082DE9F04F89B0CDE90621DFF8A1
:10392000B080074699460026069B002B07DBB34272
:1039300005D00136042EF7D109B0BDE8F08FFA2387
:1039400003FB06FB079B03EB0B0A204B00249B4465
:10395000B9F1000F33464246384601DBA14530D16C
:103960003BF814503AF81410009415F4006FA1EBD2
:10397000050114BF4FF0560E4FF0480E05F01F0C16
:10398000B1FA81F1C5F344154909CDE901C5CDF876
:103990000CE0059150F0B4FA3AF81430059900940F
:1039A00013F4006F03F01F0214BF56204820C3F326
:1039B0004413CDE90123039033464246384650F084
:1039C000BBFA01347D2CC3D1B3E700BF5C320020C9
:1039D000C8FE06082DE9F04F3C4C3D4B3D4ADFF850
:1039E000FC8004F5BF5507462878002808BF1A4612
:1039F00041F2E17389463848E1568BB050F072FAD3
:103A000004F592544D460026B9F1000F3ED02278BD
:103A10002B789A426A683BD0D5E902CE0021A87D76
:103A20000790B5F914000690B5F912000590B5F9A4
:103A300010000093CDE903E0CDE9012C3346424666
:103A40003846099150F05CFA0999A37D6268B4F98F
:103A500014B0B4F912A0B4F910E0D4E9020C079341
:103A600014F8183B0093CDE901203346CDE905ABAE
:103A7000CDE903CE42460136384650F05DFA3C2E81
:103A800005F11805C0D10BB0BDE8F08F4946DCE761
:103A90006168D5F808C0914202D0D5F80CE0BDE7C6
:103AA000A168D5F80CE06145B8D1E1687145B5D1A0
:103AB000206929698842B1D16069696920F07F4035
:103AC00021F07F418842A9D10121A8E79018002068
:103AD000E4FE0608E8040708E8FE0608F8FE060803
:103AE0001D4A2DE9700354691C4E002CD6F8F035A0
:103AF00003600EDD1832002306F5BE6501E09C422E
:103B000007D052F8041BA94203F10103F7D10122A7
:103B100000E00022D6F8FC3583600271104A96F866
:103B2000003643711346F3E80289D3E90045D6F81D
:103B3000203652F8042CD6F8181681625B0943EA45
:103B4000C2635209C0E90489C0E90645C0E90832E8
:103B5000BDE87003704700BF0000001000000020A7
:103B6000280600200C4608B505462CF0AFFC204680
:103B70002CF0ACFC0020FDF7BDFA03E020464CF031
:103B800079F8E0B928464CF075F80028F6D0012005
:103B9000FDF7B0FA28464CF065F8064620464CF092
:103BA00065F80028FAD0314620464CF089F800200C
:103BB000FDF7A0FA20464CF05DF80028E2D0012085
:103BC000FDF798FA20464CF04DF8064628464CF092
:103BD0004DF80028FAD0284631464CF071F8002004
:103BE000FDF788FACEE700BFF0B50023C1E9003346
:103BF000C1E902330B610268DFF88CC089B004AD03
:103C0000C2F385572E4647FA03F0C007344604D561
:103C100013F80C0004F8010B26460133062BF2D1F1
:103C20001748C2F303240444002394F8B0403370CF
:103C30008DF8184000F1B80CC2F305370DF11906E4
:103C400047FA03F0C007344604D513F80C0004F813
:103C5000010B26460133062BF2D100233370C2F349
:103C6000834406ABCDE90134084602F00F03054951
:103C70000095C2F3031255F0BDFB09B0F0BD00BFC3
:103C8000EC74060818FF060894750608014BD3F873
:103C90002802704700000020014BD3F80003704752
:103CA00000000020014BD3F8700270470000002094
:103CB00010B4414A92F8A930D2F89000023BD2E900
:103CC0002214062B74D8DFE803F05A5C60500655C6
:103CD000040064424942404280EAE073A3EBE0738F
:103CE00006EE903A84EAE473A3EBE47307EE103A2D
:103CF000F8EEE66A9FED316AB8EEC77A26EE866A7C
:103D000081EAE173A3EBE17307EE903AB4EEC76A80
:103D1000F1EE10FAF8EEE77A04DDB4EEE76AF1EEC0
:103D200010FA34DC9FED256A27EE066AB4EEE76AE6
:103D3000F1EE10FA04DDF4EEC66AF1EE10FA2DD4BD
:103D40009FED1E6A67EE867AB4EEE77AF1EE10FA1E
:103D50002BD5F4EEE76AF1EE10FA26D50029CCBF98
:103D6000042005205DF8044B70474B424042214639
:103D70001C46B1E7634240420C461946ACE7494253
:103D8000AAE74B4261421C46A6E76442A4E700282A
:103D9000CCBF002001205DF8044B7047002CCCBF45
:103DA000022003205DF8044B70474FF0FF30D9E745
:103DB00023460C4619468FE700000010ABAA2A3FA5
:103DC00070B5284CDFED286A94F8CF3794F8BC2CF6
:103DD000D4F8E05C07EE103A94F8D03707EE903A4A
:103DE000B8EEC77AF8EEE77A27EE267A67EEA67A7B
:103DF00004EB4206BDEEC77A0132FDEEE77A02F02F
:103E00000F01B6F8C03C84F8BC1C17EE102A17EE60
:103E1000901AC31A2B448A42C4F8E03C82B0A6F838
:103E2000C00C4FEA131312DC17EE101A17EE902A8B
:103E300098B240F2FF350023009556F0B1FA2A46B9
:103E4000002156F0CFFAA4F8E40C02B070BD9BB28A
:103E50009942D4BF581A00208242A6BF101A80B2DD
:103E60000020E6E78829002014AE2341054A064BCE
:103E700092F8891E054A002908BF134693ED020AED
:103E8000704700BF901800200C2A0020F429002061
:103E90002DE9F04F2DED028B87B00446324D039390
:103EA00010460E46B0EE408A17465CF0ABFBD5F8E4
:103EB000E8BC9DF848A0DBF800308BF80B604FF0B1
:103EC000000820448BF80A00CDF80080584632469E
:103ED000D3F814B09DF84C903B462146D8479FED4F
:103EE000230A039B019328EE000A5346FDEEC07A95
:103EF000CDF8008017EE901A424604A813F074FE25
:103F0000D5F8EC3C13B11B784B452AD0D5F8F83CDA
:103F100013B11B784B4524D0D5F8043D13B11B7861
:103F20004B451ED0D5F8103DCBB11B78A3EB09094A
:103F3000B9FA89F94FEA591938465CF063FB013444
:103F40000444E1B2D5F8E80CCDF8009004AB324659
:103F50004DF01AFE07B0BDEC028BBDE8F08F99461C
:103F6000EAE74FF00109E7E7882900200000C8428E
:103F700030B41C7884B1012C0CD1B3F902408AB161
:103F8000157B94FBF5F40470B3F90430527B93FB7A
:103F9000F2F30B7030BC70479A780270DB780B70CC
:103FA00030BC7047054A82FB0452E417C4EB62043C
:103FB0000470B3F904301222E9E700BFABAAAA2AC1
:103FC00030B41C784CB1012C05D1B3F90220B3F9FF
:103FD000043002600B6030BC70479C7852B1157B96
:103FE000DB7815FB04F40460527B03FB02F330BC66
:103FF0000B60704704EB4404A400DB7804601222D9
:10400000F3E700BF30B583B00C46054601920FF0D0
:10401000F1FE019B224629464DF06CFE094A92F9B9
:104020001C3D02EB430101335BB2352BC8BF0023BB
:10403000012081F8205D81F8214D82F81C3D03B0FC
:1040400030BD00BF882900200F4B93F8D42E012AE1
:1040500012D910B582B004220C888B788DF8040038
:104060000DEB02017420ADF805408DF807302CF0FF
:1040700075FF012002B010BD01D00020704793F8F9
:10408000D53E622BE5D8F8E788290020F8B5214D08
:104090001D260C46074685F8FC6E2CF039F90020E9
:1040A0002CF0C2F808202CF0BFF80E202CF0BCF841
:1040B00030462CF0B9F804202CF0B6F804202CF08F
:1040C000B3F800202CF0B0F830202CF0ADF8002030
:1040D0002CF0AAF820462CF0A7F800202CF0A4F829
:1040E0002CF0F8F805F570602CF002F800B9F8BD76
:1040F00095F8003F63B995F8013F302B00D03BB9EC
:1041000095F8023F23B995F8033F3B700120F8BDB5
:104110000120F8BD882900202DE9F04FDFF8F48256
:104120002DED028B00220023C8E93C23002387B039
:1041300008F1F8011A4601F833200133122BFAD1A5
:10414000B14CB24DDFF8D092DFF8D0A29FEDB08A2B
:1041500004F54076A5F58C770DE007EBC3032278D4
:10416000D3F8183102B16BB900232B601834A64282
:1041700005F1080541D094F90130002BEDDA2378E0
:10418000002BF1D02B79DB07F0D4A168207929F03E
:104190003DFC21698346207B29F038FCA278034648
:1041A000282AE1D8DFE812F039006F0054006800D7
:1041B00083008C005200340016021E0224024A02C0
:1041C0002C0231023902410296009F00AA00B3007E
:1041D000C300D300ED00B101B901BF01D701DD017A
:1041E000E301E901F2010802FF00080121013C019D
:1041F000610170017F01A201760097F8283213B1A6
:1042000097F82A329BB907B0BDEC028BBDE8F08F5E
:10421000BBF1000FA8D00028A6D0237D01222A6080
:10422000DA07A3D52B7943F001032B719EE797F8AA
:104230002922D7F82C0240214CF01AFD002387F8E0
:104240002A3207B0BDEC028BBDE8F08F40F28263EA
:104250009B45D4BF4FF0000B4FF0010B237DC5F8F9
:1042600000B0DB0782D5BBF1000F3FF47FAF2B79A5
:1042700043F001032B7179E78345ACBF4FF0000B8E
:104280004FF0010BEAE7ABEB000BBBFA8BFB4FEAFD
:104290005B1BE3E70028E1D09BFBF0F047F6FF72E1
:1042A00003FB10B0494656F09DF88346D6E740F22E
:1042B00034539B45CCBF4FF0000B4FF0010BCDE7C3
:1042C000ABF2355BBBF5A77F2CBF4FF0000B4FF077
:1042D000010BC3E700FB0BF047F6FF72494656F0AF
:1042E00081F88346BAE70028B8D09BFBF0F047F688
:1042F000FF72494656F076F88346AFE75FFA8BF0D7
:104300001946009329F05CFB009B9B46A6E75FFAE9
:104310008BF201901046009229F06CFB019B009AF1
:1043200003EB000B5946104629F04AFB96E75FFA6B
:104330008BF201901046009229F05CFB019B009AE1
:10434000A0EB030B5946104629F03AFB86E75FFACB
:104350008BFBBBF1070F00F27681C2B2003A97F8EF
:10436000291218BF01220120524200FA0BFB4A40D9
:1043700002EA0B024A409B4687F8292287F82A0264
:104380006CE7D8F8F030227D43F00103C8F8F03034
:10439000D0074FF001032B607FF5E8AE2B7943F097
:1043A00001032B71E2E6D8F8F030C8F808B243F008
:1043B0008003C8F8F03051E707EE90BAB8EEE70A8C
:1043C000002808BF4FF4FA7320EE080A009356F055
:1043D00073F9009B07EE903AF8EEE77A27EE800A31
:1043E000FDEEC07A17EE90BA38E707EE90BAB8EE55
:1043F000E70A002808BF4FF4FA7320EE080A00937A
:1044000056F0E0F8E5E700BF98380020983B002020
:1044100035FA8E3C000000100080FFFF1F85EB5135
:1044200007EE90BAF8EEE78A002868EE888A08BF9F
:104430004FF4FA73B0EE680A009356F03DF9F0EECF
:10444000407AB0EE680AF0EE678A56F0BBF8C8EE24
:10445000807A009B07EE103AB8EEC77A67EE877A4B
:10446000FDEEE77A17EE90BAF8E61A4658460021B4
:10447000009355F0B7FF009B002219464FF47A7362
:10448000FFF754F98346E9E600904FF47A725846F4
:10449000002155F0A7FF009B00224FF47A71FFF72F
:1044A00045F98346DAE6009011220BF1FF30002136
:1044B00055F098FF009B08EBC00B184601234FF402
:1044C000FA624FF47A718BF8F83055F08BFFD8F818
:1044D000F020217DCBF8FC00012342F48072C90753
:1044E0002B60C8F8F0203FF59DAE3FE6642000FB4E
:1044F0000BF055F08FFF8AFB003BC017C0EB6B1B26
:104500000FFA8BF030F040FEA8E6D8F8F030227DAC
:10451000C8F8E4B143F0020338E7D8F8F030227D60
:1045200043F0040332E7D8F8EC319B453FF41CAE6E
:10453000D7F8180202A94BF04FFA002848D0584685
:104540009DF80A20012155F04DFF8346C8F8EC0183
:1045500087F81E0282E6D8F8F030227D43F0080387
:1045600014E7D8F8F030227D43F010030EE7D8F8B6
:10457000F030227D43F0200308E7D8F8F030C8F887
:10458000FCB143F04003C8F8F03067E6D8F80032D9
:104590009B453FF4E9ADD7F8180202A94BF01CFA8D
:1045A000B0B158460522012155F01CFF8346C8F8DA
:1045B000000287F81C0251E6D8F804329B453FF40C
:1045C000D3ADD7F8180202A94BF006FA00283CD167
:1045D0002860CBE5BBF1000F7FF41FAE00287FF40D
:1045E0001CAEC2E5BBEB000B18BF4FF0010B35E66C
:1045F000BBF1000F3FF411AE00283FF40EAEB3E55F
:10460000BBFA8BFB4FEA5B1B28E6BBF1000F7FF484
:1046100004AE28BBD5F800B020E6584447F6FF7238
:10462000494655F0DFFE834618E6ABEB000047F63F
:10463000FF72494655F0D6FE83460FE65BEA030358
:104640003FF4EBAD90E5834608E658460822012189
:1046500055F0C8FE8346C8F8040287F81D02FDE540
:10466000C5F800B082E500BF164991F8902832B332
:10467000F0B4064600200346074602E092F8902870
:10468000DAB100EB80002E2A4FEA400004D101335A
:10469000CA18324482F89078CA18A0F1300592F80E
:1046A0009028A2F13004092C98BF50190E2B03F169
:1046B000010301EB0302E1D90020F0BC70470020A8
:1046C000704700BF8829002070B5174DD5F83022FB
:1046D00013791E3B012B064603D9104600214BF0EF
:1046E000EFFA002E09DD114C264414F8011BD5F811
:1046F00030024BF0E5FAA642F7D195F887326BB954
:104700000B4AB5F89032D2F8F42DC5F8882201335F
:104710000022A5F89032C5F88C2270BDD5F8300281
:1047200000214BF0CDFAEBE7803A0020B43C0020AA
:104730009018002038B5084CB4F80A5333F096FDB1
:10474000854205DD054BB4F80A23A3F8322238BDB3
:10475000BDE8384009F084BA803A0020000000101B
:10476000036813F0400004D013F4057F14BF012048
:10477000002070472DE9F043244D254C85B005F10C
:10478000240980460F461646C4F85097C4F84C5783
:10479000FEF700FC1F4BC4F84037122284F8202794
:1047A00004F5E46142F6F82200234020C1E9022327
:1047B0002CF054FA044610B3FFF7D2FF98F800200B
:1047C0003F78034694F9040000961C1E14BF032191
:1047D0000121002A0CBF07220622012F0CBF08234B
:1047E00000231A43CDE901124B460B4A40212CF01D
:1047F00041F8A5F549752CB9003818BF012005B05E
:10480000BDE8F083C5F88803F6E700BFA43D0020AB
:1048100088290020D1530208B16102080348044AE4
:1048200000F2CB7100F2CA70A4E700BF8829002013
:10483000400D03000348044A00F2CB7100F2CA7035
:1048400098E700BF88290020A086010070B5C44CFD
:10485000D4F88C6384B02EB13046FFF781FF002876
:1048600040F06D8194F89803FBF72AFE94F890339A
:10487000834205461CD0002800F07E81C6B1B94BAA
:1048800096F9040093F84520B2FA82F252094FF4E7
:10489000165100230225CDE9015200911A46042148
:1048A0002BF0E8FFC4F8940310B1012384F890338F
:1048B00094F89903FBF704FE94F89A338342054673
:1048C0001ED0002800F01881D4F89C33C3B1A54A4B
:1048D00093F9040092F84C20002A18BF08224FF4E4
:1048E000964100230325CDE9015200911A46082183
:1048F0002BF0C0FFC4F8A00310B1012384F89A3351
:10490000FBF7C6FED4F8A4532DB12846FFF728FFC5
:10491000002840F0FA8094F8B003FBF7D1FD94F83A
:10492000A8338342064631D0002800F02E818D4EF8
:1049300096F84F30012B00F03681022B0CBF8A4ACB
:104940008A4AC4F8AC230DB32A7A002A00F02881E1
:10495000022A00F02C81012A40F03781824BC4F8F2
:10496000AC334FF4966395F90400009300250221BF
:10497000019102952B462A4610212BF07BFFF06710
:1049800020B1012384F8B15384F8A83394F8B2031A
:10499000FBF796FD94F8B3338342054636D00028E2
:1049A00000F0A180D4F8B433D3B11A7A002A00F011
:1049B000F4806F4901EB8202D2F8C02093F9040021
:1049C000009200230321019102931A464FF4807153
:1049D0002BF050FFC4F8B80310B1012384F8B333AF
:1049E000604A644BB2F8741092F8765092F87700EF
:1049F000A3F8BE1992F8781092F8792083F8C2597A
:104A000083F8C60983F8C71983F8C82994F8BC034A
:104A1000FBF756FD94F8BD338342054627D058B3C3
:104A20004FF4FA70FEF746F9D4F8C033FBB11A68B8
:104A300002F41072B2F5107F19D093F9040003212B
:104A40004FF4E13200230825CDE9011500924FF41F
:104A500000711A462BF00EFFC4F8C80338B1414963
:104A600001220023486384F8BD2384F8C43394F8FA
:104A7000CC536DB104B070BDD4F8C8032BF0DEFE8A
:104A8000C4F8C85384F8BD5394F8CC53002DF1D129
:104A9000D4F8D033002BEDD0032293F90400CDE9F4
:104AA00001251A7A324B03EB82034FF40021D3F82D
:104AB000C03000932A462B462BF0DCFEC4F8D4030A
:104AC0000028D7D0274BC4F8DC53D3F8F43D84F842
:104AD000E05303F51C5310330122C4F8D83384F893
:104AE000CC2304B070BDD4F8B8032BF0A7FEC4F8F3
:104AF000B85384F8B35389E7D4F8A0032BF09EFE93
:104B0000C4F8A05384F89A53FAE694F8A833002B1B
:104B10007FF43CAFD4F88833002B3FF437AF114A11
:104B200092F84F10D367012948D002290CBF0E4BD1
:104B30000E4BC4F8AC33012384F8A83326E794F86D
:104B40009033002B7FF4B4AED4F88833002B3FF4BD
:104B5000AFAE0122C4F8943384F89023A8E600BFD6
:104B6000803A002090180020A4090020B0090020FD
:104B7000EC74060800000020D4F894032BF05EFECD
:104B8000C4F8945384F8905392E6134DE86F2BF0D9
:104B900055FEEE6784F8A863F8E64FF461420DE72E
:104BA0004FF49643DFE60D4AC4F8AC23CBE64BB98D
:104BB0000A4BC4F8AC334FF41663D4E6074BC4F881
:104BC000AC33B8E74FF41663CDE6054B03EB820236
:104BD000D2F8C030C7E600BF901800209809002026
:104BE000EC74060808490138002310F8012F222A26
:104BF00004D001330F2B01F8012FF6D1034A1344DF
:104C0000002283F852207047E118002090180020FD
:104C100010B5084C82B00223C4F8E43301905BF075
:104C2000F1FC0199C2B2D4F8D40302B0BDE810403F
:104C30004BF024B8803A002070B5254C064604F1AC
:104C400052005BF0DFFC94F852502B2D38D0302D01
:104C500027D0382D2ED01F49002301E011F8015F25
:104C60000C464DB30133102BF8D1324606F1100536
:104C7000134612F8011B222926D0AA42F8D1002897
:104C800020DDC0F101001918621C013301E08B42E4
:104C900018D013F8014D12F8010D8442F7D000200E
:104CA00070BD94F85320A2F13101012903460DD9BA
:104CB000362A0BD00138CEE7002BF0D04C1ED4E7BB
:104CC0000538C8E7012070BD013BD8E7981EC2E750
:104CD00090180020E21800202DE9F04F2DED028BF6
:104CE00087B00E4600AF144620B10378303B012B4D
:104CF00040F26881DFF828A3DFF82893DFEDC18A4E
:104D00009FEDC18A0AF58B5808F11C083378002BF7
:104D10003BD02CB1DAF8F43D22689A4240F27B8312
:104D2000DFF8F8B29BF8E853002D40F077829BF84B
:104D3000EB23B64B03EB4203B3F804315BBB012317
:104D40008BF8EB33B24BDA6811061CD59A689207E0
:104D500040F14083BAF87021DAF800304FF4F36183
:104D600012FB01F289FB0201D217C2EB6112102083
:104D7000C7F813203021082238747974BA743818AF
:104D8000002598473570002CC0D11C37BD46BDECBE
:104D9000028BBDE8F08F0132D2B2B3F58A6F8BF887
:104DA000EB2300F0648125D8B3F5806F00F0FC811F
:104DB00067D9B3F5866F00F0DD814BD9B3F5886F05
:104DC000E1D19AF84930002BDDD0914ADAF8003071
:104DD000B2F93822C7F81320102240213A74042275
:104DE0007974BA7407F11000002598473570002CCB
:104DF0008CD1CAE7B3F5006F00F016817FD9B3F507
:104E0000046F00F0E7805AD9B3F5116F00F0E38129
:104E1000B3F5206FB7D17E4BD3F834329A06B2D5B2
:104E20007C4ADAF80030D2ED057A67EEA87A1021D4
:104E3000FCEEE77A002517EE902AC7F813200A2225
:104E400039747D74BA74781898473570002C7FF4E3
:104E50005DAF9AE7B3F5826F00F0AF81B3F5846F71
:104E600091D16B4AD36818068DD59368990740F1A4
:104E70008F82DBF88034C7F81330102120220423FE
:104E800030E0B3F5007F00F0528153D9B3F5047FD1
:104E90007FF479AF5E4BDB689A077FF574AF9AF8C1
:104EA0004A30002B40F079829BF8FA33012B0CBF7B
:104EB000BBF80834BBF80A34102202219FE1B3F595
:104EC000026F61D1524BDA6815067FF55CAF9A68C4
:104ED000900740F17282DAF86031C7F81330102180
:104EE00020220823BB743974DAF800307A747818F9
:104EF000002598473570002C7FF408AF45E7B3F5DF
:104F0000E26F00F0F78047D9B3F5E46F7FF43BAF71
:104F10009AF84930002B7FF436AF3D4B93ED2E0AC3
:104F200020EE080A5EF066FF10212022C7F8130069
:104F30000723D7E7B3F5807F00F0C280B3F5887F01
:104F40007FF421AF324BD3F8343259077FF51BAFD2
:104F50009AF8892E304B002A18BF434693ED050A74
:104F60005EF048FF10230122C7F813003B747B74E6
:104F7000BA74DAF8003007F1100000259847357050
:104F8000002C7FF4C3AE00E7B3F5036F3FF4DAAE55
:104F9000002C7FF4BBAEF8E6B3F5C06F78D0B3F564
:104FA000E06F7FF4F0AE9AF84950002D7FF4EBAE3D
:104FB000174B93ED2C0A20EE080A5EF01BFF10221F
:104FC0000723F5E001300621FBF780FC134B83F843
:104FD000E8038FE60E4ADAF80030B2F93C2202EB21
:104FE000820252001020C7F8132040210822387492
:104FF0007974BA74381898473570002C7FF486AEEF
:10500000C3E600BFB80C473E0000C842EC74060877
:1050100000000010903E0020F4290020803A00207B
:10502000901800201F85EB51D549CB6818067FF5F5
:10503000AAAE8B689B0740F1E981D30700F1D481C8
:10504000DAF8582182EAE273A3EBE27303EB53032D
:10505000A9FB0313DB08002AB8BF43F080431021EB
:1050600000250822C7F8133039747D7478E0C44BEA
:10507000DA6812067FF587AE9A68950740F1AF812E
:10508000BAF97231C7F8133010215022042329E7EE
:105090009AF84D30002B40F03F8124F0F9FF0025B5
:1050A00010220623C7F813003A747D74BB74B81835
:1050B000DAF8003098473570002C7FF427AE64E6AC
:1050C000AF4BD3F834325D077FF55DAE9AF8891E99
:1050D000AC4ADAF80030002918BF4246D2ED027A15
:1050E000FCEEE77A102117EE902A0025C7F813206E
:1050F0000122A5E69AF84950002D7FF444AEA04B5A
:1051000093ED2D0A20EE080A5EF074FE10230722AC
:10511000C7F813003B747B74BA74DAF8003007F1F7
:10512000100098473570002C7FF4F0AD2DE6944BBD
:10513000DB681B057FF527AE9BF8F833002B3FF4A7
:1051400022AEBAF9DA33904A7D7482FB0312DB1780
:10515000C3EBA2031BB210210222C7F8133039742B
:10516000DAF80030BA74781898473570002C7FF45C
:10517000CDAD0AE69AF84930002B3FF404AE804AE0
:10518000DAF80030B2F93A22C7F8132010223021A1
:105190003A7404227974BA7407F110009847357094
:1051A000002C7FF4B3ADF0E5FBF736F910220423B1
:1051B000C7F813007D743A7478E7714BDA68120609
:1051C0007FF5E1AD9A68950740F1FF80FBF7D0FAD3
:1051D00010230422C8E66A4BDB6899077FF5D3AD3C
:1051E0009BF8EC334BB19BF8FA23012A0CBFBBF8B8
:1051F0000824BBF80A24B2FBF3F310220921C7F8F4
:1052000013303A74DAF800307A74B974B81800259B
:1052100098473570002C7FF479ADB6E5DFF86CA1C6
:1052200007F108033B61DAF81C8007F10E037B618C
:10523000D8F80020DAF814309A426C469BF8E9332B
:1052400000F0818007F109023A615A1C8BF8E923CA
:1052500003F00F030522D8F804903B7294461346DE
:10526000D8F80010A9EB0109D01D5FFA89F920F0E8
:105270000700CC45ADEB000D40F2D5804A466846AC
:1052800061F066FED8F800304B44C8F800304A465A
:10529000694607F1100054F073F8DAF81C20DAF8C8
:1052A0001430D8F80000117AC8F80400C21A4A4035
:1052B000D2B28342C8F800308BF8EA230AD0013317
:1052C000C8F8003013F8011C984282EA0102F6D1B6
:1052D0008BF8EA233B69591C39611A70D7E904320B
:1052E000D21A012A08DD00215A1C3A611970D7E947
:1052F0000432D21A012AF7DC07F10800FAF7AEFFF0
:10530000002500231C37A5468BF8E8533370BD46B3
:10531000BDEC028BBDE8F08F194AD26810057FF50D
:1053200032AD9BF8F823002A3FF42DAD012B00F09D
:105330009180DBF80C34C7F81330102200250623C7
:105340003A747D74B2E6B8F90C20591C03F00F03CF
:1053500043F01003002AB8BF43F0200307F109020D
:105360003A613B72D8E900390422A9EB03038BF8B8
:10537000E91307F10A017B723961134694466FE71E
:1053800000000010F429002067666666901800206F
:1053900013681B077FF56DADF5E49BF8EC33002B2C
:1053A0003FF48AAD9BF8FA23012A0CBFBBF808240E
:1053B000BBF80A24B2FBF3F37EE51B6819077FF5FF
:1053C0008AAD002C7FF4A2ACDFE41B6818077FF5E0
:1053D000FDAED8E41B681D077FF5BCACD3E41B68A9
:1053E00018077FF54DAECEE4DAF85C2182EAE2736D
:1053F000A3EBE27303EB5303A9FB0313DB08002ABF
:10540000ACBF43F0004343F0404328E60B681D0760
:105410007FF513AEB7E400231C373370BD46BDECF7
:10542000028BBDE8F08F6846C7E9003261F090FD5D
:10543000D8F800107A683B681144C8F8001007F1EA
:1054400010001A46694653F09BFF07F10800FAF76F
:1054500005FF56E7DAF8DC336DE700BF2DE9F041D0
:10546000DFF8208198F80931012B82B002D002B018
:10547000BDE8F081D8F804000028F8D0D8F8F43D51
:105480003E4C3F4E01330025019304F284478DF8D2
:1054900003500AE01B2B84F88C5448D00D2B5CD0B1
:1054A000012386F8C939D8F8040003685B68984777
:1054B000002849D0002D47D1D8F804000368DB68E4
:1054C000984783B27E2B4BD096F8C929002AEAD19F
:1054D00094F88C24002ADDD17D2B4BD094F89024B5
:1054E0002AB180F02003D8B284F89054034694F88F
:1054F0008B24062A0BD8B4F88EC4A1186344013259
:10550000A4F88E3481F8840484F88B24CBE7B4F8B3
:105510008E241344C3F3072252FA83F30122A4F822
:105520008E34FF2B08BF3D4686F8C929BBE7D8F863
:10553000040003685B6898470028B1D101238DF807
:10554000033086F8C939AEE7284601AA0DF10301F8
:10555000FFF7C2FB02B0BDE8F081A4F88E54A2E7C9
:1055600001238DF8035084F88B5486F8C95984F8C8
:105570008C3498E7012384F8903494E7803A002033
:105580000000002090180020054B93F809210AB173
:10559000002070470222186083F80921012070471B
:1055A00090180020F0B5224C224DC4F84C5785B01D
:1055B000FDF7F0FC12232049204A84F8203742F6F8
:1055C000F82604F5E46300274020C3E90267C4F825
:1055D0004017C4F844272BF041FB30B394F8CB3785
:1055E00094F8CA1790F90400154A022B14BF082337
:1055F0000023002908BF43F0010303244FF4E131E5
:10560000CDE901430091002340212BF033F9A5F2AD
:105610009445C5F8B804014620B10A48FFF7B4FF25
:1056200085F8BC04081E18BF012005B0F0BD00BFFE
:1056300088290020143F0020896402086171020853
:1056400001680208ED5B020810B50C4C94F80931B2
:105650000BB1002010BD20202BF000FBC4F80C0182
:1056600050B120212BF0F0FA054B84F80A010120FB
:10567000236084F8090110BD012010BD901800209E
:10568000850200082DE9F041484BDFF82C8193F8A2
:105690007A3098F8DA0498F8DB64012B98F8CC3467
:1056A0000CBF43F0020303F0FD03FE28C6B088F8E8
:1056B000CC345DD0012E59D93D4B3546334403E0FF
:1056C000013D012DCEB251D013F8012DEEB2711E65
:1056D000002AF5D0D8F8E034B8F8DC1498F8DC7477
:1056E000B8F8DEC46C46C3F317231A1222721A14D8
:1056F000E371627298F8E03420702A4661800DF1FF
:105700000A002B49A3716670A4F804C00A3561F041
:105710001FFC17F00103B8F8D81404EB050213D1ED
:105720006155090A517009273B4403331E4414FA9A
:1057300086F614F8011BD8F8B8034AF0C1FAA6425D
:10574000F7D146B0BDE8F0811A4B6155090A1D68D2
:105750005868517099681B7B9373C2F80250C2F865
:105760000600C2F80A100D230927DDE73546B1E728
:105770006C46D8F8E034B8F8DE7498F8E05420703D
:10578000C3F3172332460A4963710DF1060067809F
:105790006670257161F0DCFBB31DB8F8D824E254C3
:1057A0002344120A5A7005270023BDE790180020F1
:1057B000643F00206E400020803A00202DE9F04F29
:1057C0000468DFB0D3001B190590019203910360B8
:1057D00002D3436801334360019BC4F3C504002B2B
:1057E00000F0CD80059B2833049303E0019B002B40
:1057F00000F0C580019BC4F14002DDE903109A422C
:1058000028BF1A469B1A01930B46204413441444A4
:10581000039361F09DFB402CE8D1059A1EAE0EABC0
:1058200092F82B5092F82A4092F8290092F828100A
:105830001D705C709870D97004339E4202F10402AE
:10584000EED1059B9A680692DA6807921A69089267
:105850005A6909929A690A92DA690B920DF1740AEF
:105860001A6A5B6A0C920D9352460DAB53F8041FF3
:1058700042F8041F1DA99942F8D14EAF3246916BF0
:10588000134652F8040F5C6A1D684FEAF14383EA3D
:10589000714383EA91234FEAB0412C4481EAF0112D
:1058A000234481EAD0010B449742D363E7D1354BBF
:1058B000009306F1FC030293DDE90869DDE9065770
:1058C000DDE90BECDDF834800A9C2F4B0BE0B14690
:1058D0003E462F461546009AE046F446A6461C462C
:1058E00052F8043F00924FEAF4212CEA040081EAC6
:1058F000B41104EA0E0281EA746142405AF8040FBE
:105900000A4487EA060B4FEA7531024481EAB50181
:105910000BEA050B07EA060081EAB5518BEA0000A5
:105920000844029942441A44514502EB09030244D7
:10593000CDD1069911440A46079929440D46089984
:1059400039440F46099931440E460A9919440B9B74
:1059500023441C460C9B734418460D9B63448846A5
:105960001946059BC3E90740C3E90357C3E9056826
:105970009A605962019B0024002B7FF43BAF5FB01B
:10598000BDE8F08F1C760608982F8A42F0B50668AD
:1059900093B0F70804460D468023472200210DF1FD
:1059A0000100C7F1770707F03F078DF8003061F07D
:1059B00002FD12AB3B44606803F8406C07F109023A
:1059C000370A03F8417C370C360E4FEA102C03F8E7
:1059D000427C03F8436C070C03F8440C060E69463E
:1059E000204603F845CC03F8467C03F8476CFFF7E4
:1059F000E5FEE37A2B70A37A6B70637AAB70237A3F
:105A0000EB70E37B2B71A37B6B7113B0F0BD00BF18
:105A10002DE9F04FA94C94F8CC74A3B017F002070D
:105A20009DF8B0C0009159D1D4F8D0241AB11278A1
:105A3000D20700F135813E46BA46DFF8A8920099B8
:105A400003F10C05FD224D4484F8DA2415F8012DEC
:105A50005FFA83FE002A40F01C81013B012BF5D147
:105A6000934600911A46009984F8DB2484F8DF04F9
:105A700084F8E014BAF1000F00F0188194F8C6E43D
:105A80008DF815200EF10108FD250A21012784F863
:105A9000C6848DF81450019184F8DEE4A4F8DC7417
:105AA00088460825D4F8E07400998DF818E0C7F30B
:105AB00017274FEA272E8DF819008DF81A10381481
:105AC00094F8DC148DF81B7000278DF81CE08DF81D
:105AD0001D008DF816108DF8177036E0531E0099D2
